{
  "_format": "hh-sol-artifact-1",
  "contractName": "Monkehz",
  "sourceName": "contracts/Monkehz.sol",
  "abi": [
    {
      "inputs": [],
      "stateMutability": "nonpayable",
      "type": "constructor"
    },
    {
      "anonymous": false,
      "inputs": [
        {
          "indexed": true,
          "internalType": "address[]",
          "name": "addrs",
          "type": "address[]"
        }
      ],
      "name": "AddToWhiteList1",
      "type": "event"
    },
    {
      "anonymous": false,
      "inputs": [
        {
          "indexed": true,
          "internalType": "address[]",
          "name": "addres",
          "type": "address[]"
        }
      ],
      "name": "AirdropItems",
      "type": "event"
    },
    {
      "anonymous": false,
      "inputs": [
        {
          "indexed": true,
          "internalType": "address",
          "name": "owner",
          "type": "address"
        },
        {
          "indexed": true,
          "internalType": "address",
          "name": "approved",
          "type": "address"
        },
        {
          "indexed": true,
          "internalType": "uint256",
          "name": "tokenId",
          "type": "uint256"
        }
      ],
      "name": "Approval",
      "type": "event"
    },
    {
      "anonymous": false,
      "inputs": [
        {
          "indexed": true,
          "internalType": "address",
          "name": "owner",
          "type": "address"
        },
        {
          "indexed": true,
          "internalType": "address",
          "name": "operator",
          "type": "address"
        },
        {
          "indexed": false,
          "internalType": "bool",
          "name": "approved",
          "type": "bool"
        }
      ],
      "name": "ApprovalForAll",
      "type": "event"
    },
    {
      "anonymous": false,
      "inputs": [
        {
          "indexed": false,
          "internalType": "uint256",
          "name": "tokenID",
          "type": "uint256"
        }
      ],
      "name": "BurnToken",
      "type": "event"
    },
    {
      "anonymous": false,
      "inputs": [
        {
          "indexed": true,
          "internalType": "address",
          "name": "addr",
          "type": "address"
        },
        {
          "indexed": false,
          "internalType": "uint256",
          "name": "amount",
          "type": "uint256"
        },
        {
          "indexed": false,
          "internalType": "uint256",
          "name": "price",
          "type": "uint256"
        }
      ],
      "name": "MintSeries1",
      "type": "event"
    },
    {
      "anonymous": false,
      "inputs": [
        {
          "indexed": true,
          "internalType": "address",
          "name": "addr",
          "type": "address"
        },
        {
          "indexed": false,
          "internalType": "uint256",
          "name": "amount",
          "type": "uint256"
        },
        {
          "indexed": false,
          "internalType": "uint256",
          "name": "price",
          "type": "uint256"
        }
      ],
      "name": "MintSeries2",
      "type": "event"
    },
    {
      "anonymous": false,
      "inputs": [
        {
          "indexed": true,
          "internalType": "address",
          "name": "previousOwner",
          "type": "address"
        },
        {
          "indexed": true,
          "internalType": "address",
          "name": "newOwner",
          "type": "address"
        }
      ],
      "name": "OwnershipTransferred",
      "type": "event"
    },
    {
      "anonymous": false,
      "inputs": [
        {
          "indexed": false,
          "internalType": "address",
          "name": "account",
          "type": "address"
        }
      ],
      "name": "Paused",
      "type": "event"
    },
    {
      "anonymous": false,
      "inputs": [
        {
          "indexed": true,
          "internalType": "address[]",
          "name": "addrs",
          "type": "address[]"
        }
      ],
      "name": "RemoveFromWhiteList1",
      "type": "event"
    },
    {
      "anonymous": false,
      "inputs": [
        {
          "indexed": false,
          "internalType": "string",
          "name": "newURI",
          "type": "string"
        }
      ],
      "name": "SetBaseURI",
      "type": "event"
    },
    {
      "anonymous": false,
      "inputs": [
        {
          "indexed": false,
          "internalType": "bool",
          "name": "mint1Active",
          "type": "bool"
        }
      ],
      "name": "ToggleMint1Active",
      "type": "event"
    },
    {
      "anonymous": false,
      "inputs": [
        {
          "indexed": false,
          "internalType": "bool",
          "name": "mint2Active",
          "type": "bool"
        }
      ],
      "name": "ToggleMint2Active",
      "type": "event"
    },
    {
      "anonymous": false,
      "inputs": [
        {
          "indexed": false,
          "internalType": "bool",
          "name": "presale1Active",
          "type": "bool"
        }
      ],
      "name": "TogglePresale1Active",
      "type": "event"
    },
    {
      "anonymous": false,
      "inputs": [
        {
          "indexed": false,
          "internalType": "bool",
          "name": "presale2Active",
          "type": "bool"
        }
      ],
      "name": "TogglePresale2Active",
      "type": "event"
    },
    {
      "anonymous": false,
      "inputs": [
        {
          "indexed": false,
          "internalType": "bool",
          "name": "paused",
          "type": "bool"
        }
      ],
      "name": "ToggleTransferPause",
      "type": "event"
    },
    {
      "anonymous": false,
      "inputs": [
        {
          "indexed": true,
          "internalType": "address",
          "name": "from",
          "type": "address"
        },
        {
          "indexed": true,
          "internalType": "address",
          "name": "to",
          "type": "address"
        },
        {
          "indexed": true,
          "internalType": "uint256",
          "name": "tokenId",
          "type": "uint256"
        }
      ],
      "name": "Transfer",
      "type": "event"
    },
    {
      "anonymous": false,
      "inputs": [
        {
          "indexed": false,
          "internalType": "address",
          "name": "account",
          "type": "address"
        }
      ],
      "name": "Unpaused",
      "type": "event"
    },
    {
      "anonymous": false,
      "inputs": [
        {
          "indexed": false,
          "internalType": "uint256",
          "name": "newMax",
          "type": "uint256"
        }
      ],
      "name": "UpdateMaxTokens",
      "type": "event"
    },
    {
      "anonymous": false,
      "inputs": [
        {
          "indexed": false,
          "internalType": "uint256",
          "name": "newPrice",
          "type": "uint256"
        }
      ],
      "name": "UpdatePrice",
      "type": "event"
    },
    {
      "anonymous": false,
      "inputs": [
        {
          "indexed": true,
          "internalType": "address",
          "name": "addr",
          "type": "address"
        },
        {
          "indexed": false,
          "internalType": "uint256",
          "name": "amount",
          "type": "uint256"
        },
        {
          "indexed": false,
          "internalType": "uint256",
          "name": "price",
          "type": "uint256"
        }
      ],
      "name": "WhiteListMintSeries1",
      "type": "event"
    },
    {
      "anonymous": false,
      "inputs": [
        {
          "indexed": true,
          "internalType": "address",
          "name": "addr",
          "type": "address"
        },
        {
          "indexed": false,
          "internalType": "uint256",
          "name": "amount",
          "type": "uint256"
        },
        {
          "indexed": false,
          "internalType": "uint256",
          "name": "price",
          "type": "uint256"
        }
      ],
      "name": "WhiteListMintSeries2",
      "type": "event"
    },
    {
      "anonymous": false,
      "inputs": [
        {
          "indexed": false,
          "internalType": "uint256",
          "name": "amount",
          "type": "uint256"
        }
      ],
      "name": "Withdraw",
      "type": "event"
    },
    {
      "inputs": [],
      "name": "_mint1Active",
      "outputs": [
        {
          "internalType": "bool",
          "name": "",
          "type": "bool"
        }
      ],
      "stateMutability": "view",
      "type": "function"
    },
    {
      "inputs": [],
      "name": "_mint1Tokens",
      "outputs": [
        {
          "internalType": "uint256",
          "name": "",
          "type": "uint256"
        }
      ],
      "stateMutability": "view",
      "type": "function"
    },
    {
      "inputs": [],
      "name": "_mint2Active",
      "outputs": [
        {
          "internalType": "bool",
          "name": "",
          "type": "bool"
        }
      ],
      "stateMutability": "view",
      "type": "function"
    },
    {
      "inputs": [],
      "name": "_mint2Tokens",
      "outputs": [
        {
          "internalType": "uint256",
          "name": "",
          "type": "uint256"
        }
      ],
      "stateMutability": "view",
      "type": "function"
    },
    {
      "inputs": [
        {
          "internalType": "address",
          "name": "",
          "type": "address"
        }
      ],
      "name": "_mintedInitial",
      "outputs": [
        {
          "internalType": "bool",
          "name": "",
          "type": "bool"
        }
      ],
      "stateMutability": "view",
      "type": "function"
    },
    {
      "inputs": [],
      "name": "_prefixURI",
      "outputs": [
        {
          "internalType": "string",
          "name": "",
          "type": "string"
        }
      ],
      "stateMutability": "view",
      "type": "function"
    },
    {
      "inputs": [],
      "name": "_presale1Active",
      "outputs": [
        {
          "internalType": "bool",
          "name": "",
          "type": "bool"
        }
      ],
      "stateMutability": "view",
      "type": "function"
    },
    {
      "inputs": [],
      "name": "_presale1MaxMint",
      "outputs": [
        {
          "internalType": "uint256",
          "name": "",
          "type": "uint256"
        }
      ],
      "stateMutability": "view",
      "type": "function"
    },
    {
      "inputs": [
        {
          "internalType": "address",
          "name": "",
          "type": "address"
        }
      ],
      "name": "_presale1Mints",
      "outputs": [
        {
          "internalType": "uint256",
          "name": "",
          "type": "uint256"
        }
      ],
      "stateMutability": "view",
      "type": "function"
    },
    {
      "inputs": [],
      "name": "_presale2Active",
      "outputs": [
        {
          "internalType": "bool",
          "name": "",
          "type": "bool"
        }
      ],
      "stateMutability": "view",
      "type": "function"
    },
    {
      "inputs": [],
      "name": "_price",
      "outputs": [
        {
          "internalType": "uint256",
          "name": "",
          "type": "uint256"
        }
      ],
      "stateMutability": "view",
      "type": "function"
    },
    {
      "inputs": [],
      "name": "_startTime",
      "outputs": [
        {
          "internalType": "uint256",
          "name": "",
          "type": "uint256"
        }
      ],
      "stateMutability": "view",
      "type": "function"
    },
    {
      "inputs": [
        {
          "internalType": "address[]",
          "name": "addrs",
          "type": "address[]"
        }
      ],
      "name": "addToWhitelist1",
      "outputs": [],
      "stateMutability": "nonpayable",
      "type": "function"
    },
    {
      "inputs": [
        {
          "internalType": "address[]",
          "name": "addrs",
          "type": "address[]"
        }
      ],
      "name": "airdropItems",
      "outputs": [],
      "stateMutability": "nonpayable",
      "type": "function"
    },
    {
      "inputs": [
        {
          "internalType": "address",
          "name": "to",
          "type": "address"
        },
        {
          "internalType": "uint256",
          "name": "tokenId",
          "type": "uint256"
        }
      ],
      "name": "approve",
      "outputs": [],
      "stateMutability": "nonpayable",
      "type": "function"
    },
    {
      "inputs": [
        {
          "internalType": "address",
          "name": "owner",
          "type": "address"
        }
      ],
      "name": "balanceOf",
      "outputs": [
        {
          "internalType": "uint256",
          "name": "",
          "type": "uint256"
        }
      ],
      "stateMutability": "view",
      "type": "function"
    },
    {
      "inputs": [
        {
          "internalType": "uint256",
          "name": "tokenId",
          "type": "uint256"
        }
      ],
      "name": "burnToken",
      "outputs": [],
      "stateMutability": "nonpayable",
      "type": "function"
    },
    {
      "inputs": [
        {
          "internalType": "uint256",
          "name": "tokenId",
          "type": "uint256"
        }
      ],
      "name": "getApproved",
      "outputs": [
        {
          "internalType": "address",
          "name": "",
          "type": "address"
        }
      ],
      "stateMutability": "view",
      "type": "function"
    },
    {
      "inputs": [
        {
          "internalType": "address",
          "name": "owner",
          "type": "address"
        },
        {
          "internalType": "address",
          "name": "operator",
          "type": "address"
        }
      ],
      "name": "isApprovedForAll",
      "outputs": [
        {
          "internalType": "bool",
          "name": "",
          "type": "bool"
        }
      ],
      "stateMutability": "view",
      "type": "function"
    },
    {
      "inputs": [
        {
          "internalType": "address",
          "name": "addr",
          "type": "address"
        }
      ],
      "name": "isWhitelisted1",
      "outputs": [
        {
          "internalType": "bool",
          "name": "",
          "type": "bool"
        }
      ],
      "stateMutability": "view",
      "type": "function"
    },
    {
      "inputs": [
        {
          "internalType": "uint256",
          "name": "amount",
          "type": "uint256"
        }
      ],
      "name": "mintSeries1",
      "outputs": [],
      "stateMutability": "payable",
      "type": "function"
    },
    {
      "inputs": [
        {
          "internalType": "uint256",
          "name": "amount",
          "type": "uint256"
        }
      ],
      "name": "mintSeries2",
      "outputs": [],
      "stateMutability": "payable",
      "type": "function"
    },
    {
      "inputs": [],
      "name": "name",
      "outputs": [
        {
          "internalType": "string",
          "name": "",
          "type": "string"
        }
      ],
      "stateMutability": "view",
      "type": "function"
    },
    {
      "inputs": [],
      "name": "owner",
      "outputs": [
        {
          "internalType": "address",
          "name": "",
          "type": "address"
        }
      ],
      "stateMutability": "view",
      "type": "function"
    },
    {
      "inputs": [
        {
          "internalType": "uint256",
          "name": "tokenId",
          "type": "uint256"
        }
      ],
      "name": "ownerOf",
      "outputs": [
        {
          "internalType": "address",
          "name": "",
          "type": "address"
        }
      ],
      "stateMutability": "view",
      "type": "function"
    },
    {
      "inputs": [],
      "name": "paused",
      "outputs": [
        {
          "internalType": "bool",
          "name": "",
          "type": "bool"
        }
      ],
      "stateMutability": "view",
      "type": "function"
    },
    {
      "inputs": [
        {
          "internalType": "address[]",
          "name": "addrs",
          "type": "address[]"
        }
      ],
      "name": "removeFromWhitelist1",
      "outputs": [],
      "stateMutability": "nonpayable",
      "type": "function"
    },
    {
      "inputs": [],
      "name": "renounceOwnership",
      "outputs": [],
      "stateMutability": "nonpayable",
      "type": "function"
    },
    {
      "inputs": [
        {
          "internalType": "address",
          "name": "from",
          "type": "address"
        },
        {
          "internalType": "address",
          "name": "to",
          "type": "address"
        },
        {
          "internalType": "uint256",
          "name": "tokenId",
          "type": "uint256"
        }
      ],
      "name": "safeTransferFrom",
      "outputs": [],
      "stateMutability": "nonpayable",
      "type": "function"
    },
    {
      "inputs": [
        {
          "internalType": "address",
          "name": "from",
          "type": "address"
        },
        {
          "internalType": "address",
          "name": "to",
          "type": "address"
        },
        {
          "internalType": "uint256",
          "name": "tokenId",
          "type": "uint256"
        },
        {
          "internalType": "bytes",
          "name": "_data",
          "type": "bytes"
        }
      ],
      "name": "safeTransferFrom",
      "outputs": [],
      "stateMutability": "nonpayable",
      "type": "function"
    },
    {
      "inputs": [
        {
          "internalType": "address",
          "name": "operator",
          "type": "address"
        },
        {
          "internalType": "bool",
          "name": "approved",
          "type": "bool"
        }
      ],
      "name": "setApprovalForAll",
      "outputs": [],
      "stateMutability": "nonpayable",
      "type": "function"
    },
    {
      "inputs": [
        {
          "internalType": "string",
          "name": "_uri",
          "type": "string"
        }
      ],
      "name": "setBaseURI",
      "outputs": [],
      "stateMutability": "nonpayable",
      "type": "function"
    },
    {
      "inputs": [
        {
          "internalType": "bytes4",
          "name": "interfaceId",
          "type": "bytes4"
        }
      ],
      "name": "supportsInterface",
      "outputs": [
        {
          "internalType": "bool",
          "name": "",
          "type": "bool"
        }
      ],
      "stateMutability": "view",
      "type": "function"
    },
    {
      "inputs": [],
      "name": "symbol",
      "outputs": [
        {
          "internalType": "string",
          "name": "",
          "type": "string"
        }
      ],
      "stateMutability": "view",
      "type": "function"
    },
    {
      "inputs": [],
      "name": "toggleMint1Active",
      "outputs": [],
      "stateMutability": "nonpayable",
      "type": "function"
    },
    {
      "inputs": [],
      "name": "toggleMint2Active",
      "outputs": [],
      "stateMutability": "nonpayable",
      "type": "function"
    },
    {
      "inputs": [],
      "name": "togglePresale1Active",
      "outputs": [],
      "stateMutability": "nonpayable",
      "type": "function"
    },
    {
      "inputs": [],
      "name": "togglePresale2Active",
      "outputs": [],
      "stateMutability": "nonpayable",
      "type": "function"
    },
    {
      "inputs": [],
      "name": "toggleTransferPause",
      "outputs": [],
      "stateMutability": "nonpayable",
      "type": "function"
    },
    {
      "inputs": [
        {
          "internalType": "uint256",
          "name": "tokenId",
          "type": "uint256"
        }
      ],
      "name": "tokenURI",
      "outputs": [
        {
          "internalType": "string",
          "name": "",
          "type": "string"
        }
      ],
      "stateMutability": "view",
      "type": "function"
    },
    {
      "inputs": [
        {
          "internalType": "address",
          "name": "from",
          "type": "address"
        },
        {
          "internalType": "address",
          "name": "to",
          "type": "address"
        },
        {
          "internalType": "uint256",
          "name": "tokenId",
          "type": "uint256"
        }
      ],
      "name": "transferFrom",
      "outputs": [],
      "stateMutability": "nonpayable",
      "type": "function"
    },
    {
      "inputs": [
        {
          "internalType": "address",
          "name": "newOwner",
          "type": "address"
        }
      ],
      "name": "transferOwnership",
      "outputs": [],
      "stateMutability": "nonpayable",
      "type": "function"
    },
    {
      "inputs": [
        {
          "internalType": "uint256",
          "name": "newMax",
          "type": "uint256"
        }
      ],
      "name": "updateMint2Tokens",
      "outputs": [],
      "stateMutability": "nonpayable",
      "type": "function"
    },
    {
      "inputs": [
        {
          "internalType": "uint256",
          "name": "newPrice",
          "type": "uint256"
        }
      ],
      "name": "updatePrice",
      "outputs": [],
      "stateMutability": "nonpayable",
      "type": "function"
    },
    {
      "inputs": [
        {
          "internalType": "uint256",
          "name": "amount",
          "type": "uint256"
        }
      ],
      "name": "whiteListMintSeries1",
      "outputs": [],
      "stateMutability": "payable",
      "type": "function"
    },
    {
      "inputs": [
        {
          "internalType": "uint256",
          "name": "amount",
          "type": "uint256"
        }
      ],
      "name": "whiteListMintSeries2",
      "outputs": [],
      "stateMutability": "payable",
      "type": "function"
    },
    {
      "inputs": [],
      "name": "withdraw",
      "outputs": [],
      "stateMutability": "nonpayable",
      "type": "function"
    }
  ],
  "bytecode": "0x60806040526101e56008556101ea6009556802b5e3af16b1880000600a556000600e60006101000a81548160ff0219169083151502179055506000600e60016101000a81548160ff0219169083151502179055506000600e60026101000a81548160ff0219169083151502179055506000600e60036101000a81548160ff021916908315150217905550600a600f553480156200009b57600080fd5b506040518060400160405280600781526020017f4d6f6e6b65687a000000000000000000000000000000000000000000000000008152506040518060400160405280600481526020017f4d4f4e4b0000000000000000000000000000000000000000000000000000000081525081600090805190602001906200012092919062000252565b5080600190805190602001906200013992919062000252565b5050506000600660006101000a81548160ff021916908315150217905550620001776200016b6200018460201b60201c565b6200018c60201b60201c565b4260118190555062000367565b600033905090565b6000600660019054906101000a900473ffffffffffffffffffffffffffffffffffffffff16905081600660016101000a81548173ffffffffffffffffffffffffffffffffffffffff021916908373ffffffffffffffffffffffffffffffffffffffff1602179055508173ffffffffffffffffffffffffffffffffffffffff168173ffffffffffffffffffffffffffffffffffffffff167f8be0079c531659141344cd1fd0a4f28419497f9722a3daafe3b4186f6b6457e060405160405180910390a35050565b828054620002609062000302565b90600052602060002090601f016020900481019282620002845760008555620002d0565b82601f106200029f57805160ff1916838001178555620002d0565b82800160010185558215620002d0579182015b82811115620002cf578251825591602001919060010190620002b2565b5b509050620002df9190620002e3565b5090565b5b80821115620002fe576000816000905550600101620002e4565b5090565b600060028204905060018216806200031b57607f821691505b6020821081141562000332576200033162000338565b5b50919050565b7f4e487b7100000000000000000000000000000000000000000000000000000000600052602260045260246000fd5b615fdf80620003776000396000f3fe6080604052600436106102885760003560e01c806375a61b4c1161015a5780639eac6895116100c1578063c87b56dd1161007a578063c87b56dd1461091d578063d59817551461095a578063e985e9c514610976578063ec859396146109b3578063f2fde38b146109de578063fa1acb5c14610a0757610288565b80639eac68951461080f578063a22cb4651461083a578063ac9d935f14610863578063b88d4fde146108a0578063bf0768d8146108c9578063c4715f6a146108f457610288565b806391860f781161011357806391860f781461073257806395d89b411461075d5780639752a017146107885780639cc4ca161461079f5780639d489327146107b65780639e29e9e7146107f357610288565b806375a61b4c146106485780637b47ec1a14610673578063813d737d1461069c57806384ad6e7a146106b35780638d6cc56d146106de5780638da5cb5b1461070757610288565b80632f7db63c116101fe5780635c975abb116101b75780635c975abb146105475780636352211e1461057257806363da6964146105af5780636a89a49c146105d857806370a08231146105f4578063715018a61461063157610288565b80632f7db63c146104615780633248a997146104785780633ccfd60b146104a157806342842e0e146104b857806355f804b3146104e15780635c0402f11461050a57610288565b80630d7cda7b116102505780630d7cda7b14610377578063156f97e0146103a257806317e4258e146103cd578063235b6ea1146103e457806323b872dd1461040f5780632449bb3c1461043857610288565b806301ffc9a71461028d57806303a4be03146102ca57806306fdde03146102e6578063081812fc14610311578063095ea7b31461034e575b600080fd5b34801561029957600080fd5b506102b460048036038101906102af91906140cd565b610a32565b6040516102c19190614952565b60405180910390f35b6102e460048036038101906102df9190614170565b610b14565b005b3480156102f257600080fd5b506102fb610d05565b604051610308919061496d565b60405180910390f35b34801561031d57600080fd5b5061033860048036038101906103339190614170565b610d97565b60405161034591906148eb565b60405180910390f35b34801561035a57600080fd5b5061037560048036038101906103709190614044565b610e1c565b005b34801561038357600080fd5b5061038c610f34565b6040516103999190614ecf565b60405180910390f35b3480156103ae57600080fd5b506103b7610f3a565b6040516103c49190614952565b60405180910390f35b3480156103d957600080fd5b506103e2610f4d565b005b3480156103f057600080fd5b506103f961103b565b6040516104069190614ecf565b60405180910390f35b34801561041b57600080fd5b5061043660048036038101906104319190613f2e565b611041565b005b34801561044457600080fd5b5061045f600480360381019061045a9190614084565b6110a1565b005b34801561046d57600080fd5b506104766111e9565b005b34801561048457600080fd5b5061049f600480360381019061049a9190614170565b6112d7565b005b3480156104ad57600080fd5b506104b66113d7565b005b3480156104c457600080fd5b506104df60048036038101906104da9190613f2e565b6114e6565b005b3480156104ed57600080fd5b5061050860048036038101906105039190614127565b611506565b005b34801561051657600080fd5b50610531600480360381019061052c9190613ec1565b6115d3565b60405161053e9190614952565b60405180910390f35b34801561055357600080fd5b5061055c611698565b6040516105699190614952565b60405180910390f35b34801561057e57600080fd5b5061059960048036038101906105949190614170565b6116af565b6040516105a691906148eb565b60405180910390f35b3480156105bb57600080fd5b506105d660048036038101906105d19190614084565b611761565b005b6105f260048036038101906105ed9190614170565b611957565b005b34801561060057600080fd5b5061061b60048036038101906106169190613ec1565b611b73565b6040516106289190614ecf565b60405180910390f35b34801561063d57600080fd5b50610646611c2b565b005b34801561065457600080fd5b5061065d611cb3565b60405161066a9190614952565b60405180910390f35b34801561067f57600080fd5b5061069a60048036038101906106959190614170565b611cc6565b005b3480156106a857600080fd5b506106b1611d52565b005b3480156106bf57600080fd5b506106c8611e40565b6040516106d59190614ecf565b60405180910390f35b3480156106ea57600080fd5b5061070560048036038101906107009190614170565b611e46565b005b34801561071357600080fd5b5061071c611f46565b60405161072991906148eb565b60405180910390f35b34801561073e57600080fd5b50610747611f70565b604051610754919061496d565b60405180910390f35b34801561076957600080fd5b50610772611ffe565b60405161077f919061496d565b60405180910390f35b34801561079457600080fd5b5061079d612090565b005b3480156107ab57600080fd5b506107b461216e565b005b3480156107c257600080fd5b506107dd60048036038101906107d89190613ec1565b61225c565b6040516107ea9190614ecf565b60405180910390f35b61080d60048036038101906108089190614170565b612274565b005b34801561081b57600080fd5b5061082461255f565b6040516108319190614ecf565b60405180910390f35b34801561084657600080fd5b50610861600480360381019061085c9190614004565b612565565b005b34801561086f57600080fd5b5061088a60048036038101906108859190613ec1565b61257b565b6040516108979190614952565b60405180910390f35b3480156108ac57600080fd5b506108c760048036038101906108c29190613f81565b61259b565b005b3480156108d557600080fd5b506108de6125fd565b6040516108eb9190614952565b60405180910390f35b34801561090057600080fd5b5061091b60048036038101906109169190614084565b612610565b005b34801561092957600080fd5b50610944600480360381019061093f9190614170565b612806565b604051610951919061496d565b60405180910390f35b610974600480360381019061096f9190614170565b6128ad565b005b34801561098257600080fd5b5061099d60048036038101906109989190613eee565b612a71565b6040516109aa9190614952565b60405180910390f35b3480156109bf57600080fd5b506109c8612b05565b6040516109d59190614952565b60405180910390f35b3480156109ea57600080fd5b50610a056004803603810190610a009190613ec1565b612b18565b005b348015610a1357600080fd5b50610a1c612c10565b604051610a299190614ecf565b60405180910390f35b60007f80ac58cd000000000000000000000000000000000000000000000000000000007bffffffffffffffffffffffffffffffffffffffffffffffffffffffff1916827bffffffffffffffffffffffffffffffffffffffffffffffffffffffff19161480610afd57507f5b5e139f000000000000000000000000000000000000000000000000000000007bffffffffffffffffffffffffffffffffffffffffffffffffffffffff1916827bffffffffffffffffffffffffffffffffffffffffffffffffffffffff1916145b80610b0d5750610b0c82612c16565b5b9050919050565b600033905060008211610b5c576040517f08c379a0000000000000000000000000000000000000000000000000000000008152600401610b53906149ef565b60405180910390fd5b600e60019054906101000a900460ff16610bab576040517f08c379a0000000000000000000000000000000000000000000000000000000008152600401610ba290614d0f565b60405180910390fd5b600c60008273ffffffffffffffffffffffffffffffffffffffff1673ffffffffffffffffffffffffffffffffffffffff16815260200190815260200160002060009054906101000a900460ff16610c37576040517f08c379a0000000000000000000000000000000000000000000000000000000008152600401610c2e90614e2f565b60405180910390fd5b600a5482610c4591906150c3565b341015610c87576040517f08c379a0000000000000000000000000000000000000000000000000000000008152600401610c7e90614b6f565b60405180910390fd5b60005b82811015610cae57610c9b82612c80565b8080610ca69061526a565b915050610c8a565b508073ffffffffffffffffffffffffffffffffffffffff167ffe7e41652d94ec2f2d2cc09ff38e26fb291662649b4513c34534123ff4c473bc83600a54604051610cf9929190614eea565b60405180910390a25050565b606060008054610d1490615207565b80601f0160208091040260200160405190810160405280929190818152602001828054610d4090615207565b8015610d8d5780601f10610d6257610100808354040283529160200191610d8d565b820191906000526020600020905b815481529060010190602001808311610d7057829003601f168201915b5050505050905090565b6000610da282612ca6565b610de1576040517f08c379a0000000000000000000000000000000000000000000000000000000008152600401610dd890614d6f565b60405180910390fd5b6004600083815260200190815260200160002060009054906101000a900473ffffffffffffffffffffffffffffffffffffffff169050919050565b6000610e27826116af565b90508073ffffffffffffffffffffffffffffffffffffffff168373ffffffffffffffffffffffffffffffffffffffff161415610e98576040517f08c379a0000000000000000000000000000000000000000000000000000000008152600401610e8f90614def565b60405180910390fd5b8073ffffffffffffffffffffffffffffffffffffffff16610eb7612d12565b73ffffffffffffffffffffffffffffffffffffffff161480610ee65750610ee581610ee0612d12565b612a71565b5b610f25576040517f08c379a0000000000000000000000000000000000000000000000000000000008152600401610f1c90614c6f565b60405180910390fd5b610f2f8383612d1a565b505050565b60095481565b600e60009054906101000a900460ff1681565b610f55612d12565b73ffffffffffffffffffffffffffffffffffffffff16610f73611f46565b73ffffffffffffffffffffffffffffffffffffffff1614610fc9576040517f08c379a0000000000000000000000000000000000000000000000000000000008152600401610fc090614d8f565b60405180910390fd5b600e60009054906101000a900460ff1615600e60006101000a81548160ff0219169083151502179055507f890f58a184f31a7e9bc6968373f395bb4cc49b6b2dd9a19c6c2ab83a529c2537600e60009054906101000a900460ff166040516110319190614952565b60405180910390a1565b600a5481565b61105261104c612d12565b82612dd3565b611091576040517f08c379a000000000000000000000000000000000000000000000000000000000815260040161108890614e4f565b60405180910390fd5b61109c838383612eb1565b505050565b6110a9612d12565b73ffffffffffffffffffffffffffffffffffffffff166110c7611f46565b73ffffffffffffffffffffffffffffffffffffffff161461111d576040517f08c379a000000000000000000000000000000000000000000000000000000000815260040161111490614d8f565b60405180910390fd5b6000815111611161576040517f08c379a000000000000000000000000000000000000000000000000000000000815260040161115890614e0f565b60405180910390fd5b60005b81518110156111a35761119082828151811061118357611182615371565b5b6020026020010151612c80565b808061119b9061526a565b915050611164565b50806040516111b291906148b0565b60405180910390207fecb694c88e690b66b44ca8176d6c898037196c59980f7fc2424034d903aebb2360405160405180910390a250565b6111f1612d12565b73ffffffffffffffffffffffffffffffffffffffff1661120f611f46565b73ffffffffffffffffffffffffffffffffffffffff1614611265576040517f08c379a000000000000000000000000000000000000000000000000000000000815260040161125c90614d8f565b60405180910390fd5b600e60019054906101000a900460ff1615600e60016101000a81548160ff0219169083151502179055507ffdacdfd45be8444c5b6df58480ee8d176e1045ebb82df7bb56dc730d25d2043d600e60019054906101000a900460ff166040516112cd9190614952565b60405180910390a1565b6112df612d12565b73ffffffffffffffffffffffffffffffffffffffff166112fd611f46565b73ffffffffffffffffffffffffffffffffffffffff1614611353576040517f08c379a000000000000000000000000000000000000000000000000000000000815260040161134a90614d8f565b60405180910390fd5b60008111611396576040517f08c379a000000000000000000000000000000000000000000000000000000000815260040161138d90614a0f565b60405180910390fd5b806008819055507fedfbbbb694cef941b1a655402d94c94536eba21e536e4b4e49b524d25f77ff93816040516113cc9190614ecf565b60405180910390a150565b6113df612d12565b73ffffffffffffffffffffffffffffffffffffffff166113fd611f46565b73ffffffffffffffffffffffffffffffffffffffff1614611453576040517f08c379a000000000000000000000000000000000000000000000000000000000815260040161144a90614d8f565b60405180910390fd5b6000471161146057600080fd5b60004790503373ffffffffffffffffffffffffffffffffffffffff166108fc829081150290604051600060405180830381858888f193505050501580156114ab573d6000803e3d6000fd5b507f5b6b431d4476a211bb7d41c20d1aab9ae2321deee0d20be3d9fc9b1093fa6e3d816040516114db9190614ecf565b60405180910390a150565b6115018383836040518060200160405280600081525061259b565b505050565b61150e612d12565b73ffffffffffffffffffffffffffffffffffffffff1661152c611f46565b73ffffffffffffffffffffffffffffffffffffffff1614611582576040517f08c379a000000000000000000000000000000000000000000000000000000000815260040161157990614d8f565b60405180910390fd5b8060109080519060200190611598929190613c37565b507f23c8c9488efebfd474e85a7956de6f39b17c7ab88502d42a623db2d8e382bbaa816040516115c8919061496d565b60405180910390a150565b60008073ffffffffffffffffffffffffffffffffffffffff168273ffffffffffffffffffffffffffffffffffffffff161415611644576040517f08c379a000000000000000000000000000000000000000000000000000000000815260040161163b90614bef565b60405180910390fd5b600b60008373ffffffffffffffffffffffffffffffffffffffff1673ffffffffffffffffffffffffffffffffffffffff16815260200190815260200160002060009054906101000a900460ff169050919050565b6000600660009054906101000a900460ff16905090565b6000806002600084815260200190815260200160002060009054906101000a900473ffffffffffffffffffffffffffffffffffffffff169050600073ffffffffffffffffffffffffffffffffffffffff168173ffffffffffffffffffffffffffffffffffffffff161415611758576040517f08c379a000000000000000000000000000000000000000000000000000000000815260040161174f90614caf565b60405180910390fd5b80915050919050565b611769612d12565b73ffffffffffffffffffffffffffffffffffffffff16611787611f46565b73ffffffffffffffffffffffffffffffffffffffff16146117dd576040517f08c379a00000000000000000000000000000000000000000000000000000000081526004016117d490614d8f565b60405180910390fd5b6000815111611821576040517f08c379a000000000000000000000000000000000000000000000000000000000815260040161181890614ccf565b60405180910390fd5b60005b8151811015611911576000600b600084848151811061184657611845615371565b5b602002602001015173ffffffffffffffffffffffffffffffffffffffff1673ffffffffffffffffffffffffffffffffffffffff16815260200190815260200160002060006101000a81548160ff0219169083151502179055506000600d60008484815181106118b8576118b7615371565b5b602002602001015173ffffffffffffffffffffffffffffffffffffffff1673ffffffffffffffffffffffffffffffffffffffff1681526020019081526020016000208190555080806119099061526a565b915050611824565b508060405161192091906148b0565b60405180910390207fe5fce1aea1ac788bfe2f61b1d2cbf1d78d733e4695bdca9def45a7774a117ecb60405160405180910390a250565b60003390506000821161199f576040517f08c379a0000000000000000000000000000000000000000000000000000000008152600401611996906149af565b60405180910390fd5b600e60029054906101000a900460ff166119ee576040517f08c379a00000000000000000000000000000000000000000000000000000000081526004016119e59061498f565b60405180910390fd5b60006119fa6007613118565b90506009548382611a0b919061503c565b1115611a4c576040517f08c379a0000000000000000000000000000000000000000000000000000000008152600401611a4390614b0f565b60405180910390fd5b600a5483611a5a91906150c3565b341015611a9c576040517f08c379a0000000000000000000000000000000000000000000000000000000008152600401611a9390614eaf565b60405180910390fd5b6001600c60008473ffffffffffffffffffffffffffffffffffffffff1673ffffffffffffffffffffffffffffffffffffffff16815260200190815260200160002060006101000a81548160ff02191690831515021790555060005b83811015611b1b57611b0833612c80565b8080611b139061526a565b915050611af7565b508173ffffffffffffffffffffffffffffffffffffffff167fff736fc4d8cd766994e35e7c8d4b786aa5584df558e4299511a97345dbd6981284600a54604051611b66929190614eea565b60405180910390a2505050565b60008073ffffffffffffffffffffffffffffffffffffffff168273ffffffffffffffffffffffffffffffffffffffff161415611be4576040517f08c379a0000000000000000000000000000000000000000000000000000000008152600401611bdb90614c8f565b60405180910390fd5b600360008373ffffffffffffffffffffffffffffffffffffffff1673ffffffffffffffffffffffffffffffffffffffff168152602001908152602001600020549050919050565b611c33612d12565b73ffffffffffffffffffffffffffffffffffffffff16611c51611f46565b73ffffffffffffffffffffffffffffffffffffffff1614611ca7576040517f08c379a0000000000000000000000000000000000000000000000000000000008152600401611c9e90614d8f565b60405180910390fd5b611cb16000613126565b565b600e60039054906101000a900460ff1681565b611cd03382612dd3565b611d0f576040517f08c379a0000000000000000000000000000000000000000000000000000000008152600401611d0690614c0f565b60405180910390fd5b611d18816131ec565b7f066548819fc4bd1208ea1c8608597593134d5661f459c2ef75cad30918af5a3381604051611d479190614ecf565b60405180910390a150565b611d5a612d12565b73ffffffffffffffffffffffffffffffffffffffff16611d78611f46565b73ffffffffffffffffffffffffffffffffffffffff1614611dce576040517f08c379a0000000000000000000000000000000000000000000000000000000008152600401611dc590614d8f565b60405180910390fd5b600e60029054906101000a900460ff1615600e60026101000a81548160ff0219169083151502179055507f3342814f0b0f6554df8da96aba2d64ac9d8cc490cd5c2ae9d2e1d81224a08fb7600e60029054906101000a900460ff16604051611e369190614952565b60405180910390a1565b60085481565b611e4e612d12565b73ffffffffffffffffffffffffffffffffffffffff16611e6c611f46565b73ffffffffffffffffffffffffffffffffffffffff1614611ec2576040517f08c379a0000000000000000000000000000000000000000000000000000000008152600401611eb990614d8f565b60405180910390fd5b60008111611f05576040517f08c379a0000000000000000000000000000000000000000000000000000000008152600401611efc90614c4f565b60405180910390fd5b80600a819055507f1a15ab7124a4e1ce00837351261771caf1691cd7d85ed3a0ac3157a1ee1a380581604051611f3b9190614ecf565b60405180910390a150565b6000600660019054906101000a900473ffffffffffffffffffffffffffffffffffffffff16905090565b60108054611f7d90615207565b80601f0160208091040260200160405190810160405280929190818152602001828054611fa990615207565b8015611ff65780601f10611fcb57610100808354040283529160200191611ff6565b820191906000526020600020905b815481529060010190602001808311611fd957829003601f168201915b505050505081565b60606001805461200d90615207565b80601f016020809104026020016040519081016040528092919081815260200182805461203990615207565b80156120865780601f1061205b57610100808354040283529160200191612086565b820191906000526020600020905b81548152906001019060200180831161206957829003601f168201915b5050505050905090565b612098612d12565b73ffffffffffffffffffffffffffffffffffffffff166120b6611f46565b73ffffffffffffffffffffffffffffffffffffffff161461210c576040517f08c379a000000000000000000000000000000000000000000000000000000000815260040161210390614d8f565b60405180910390fd5b612114611698565b61212557612120613309565b61212e565b61212d6133ac565b5b7f71aa6dbdf1045ea9e6926a7848dbdd98d55270c4fee88cbc77fd816ccc8d6d2f612157611698565b6040516121649190614952565b60405180910390a1565b612176612d12565b73ffffffffffffffffffffffffffffffffffffffff16612194611f46565b73ffffffffffffffffffffffffffffffffffffffff16146121ea576040517f08c379a00000000000000000000000000000000000000000000000000000000081526004016121e190614d8f565b60405180910390fd5b600e60039054906101000a900460ff1615600e60036101000a81548160ff0219169083151502179055507f10b58e93f36d71d7899eb67702b85828d2e4122863122a19001380961a9ca781600e60039054906101000a900460ff166040516122529190614952565b60405180910390a1565b600d6020528060005260406000206000915090505481565b6000339050600082116122bc576040517f08c379a00000000000000000000000000000000000000000000000000000000081526004016122b390614dcf565b60405180910390fd5b600e60009054906101000a900460ff1661230b576040517f08c379a000000000000000000000000000000000000000000000000000000000815260040161230290614a6f565b60405180910390fd5b600f5482600d60008473ffffffffffffffffffffffffffffffffffffffff1673ffffffffffffffffffffffffffffffffffffffff16815260200190815260200160002054612359919061503c565b111561239a576040517f08c379a000000000000000000000000000000000000000000000000000000000815260040161239190614aef565b60405180910390fd5b6123a3816115d3565b6123e2576040517f08c379a00000000000000000000000000000000000000000000000000000000081526004016123d990614d2f565b60405180910390fd5b600a54826123f091906150c3565b341015612432576040517f08c379a000000000000000000000000000000000000000000000000000000000815260040161242990614e8f565b60405180910390fd5b6001600c60008373ffffffffffffffffffffffffffffffffffffffff1673ffffffffffffffffffffffffffffffffffffffff16815260200190815260200160002060006101000a81548160ff02191690831515021790555060005b82811015612508576001600d60008473ffffffffffffffffffffffffffffffffffffffff1673ffffffffffffffffffffffffffffffffffffffff16815260200190815260200160002060008282546124e5919061503c565b925050819055506124f582612c80565b80806125009061526a565b91505061248d565b508073ffffffffffffffffffffffffffffffffffffffff167f1dffd56c829e7b29ac59bac284decdcabb8354c0dd173670b883d87f240c422e83600a54604051612553929190614eea565b60405180910390a25050565b600f5481565b612577612570612d12565b838361344e565b5050565b600c6020528060005260406000206000915054906101000a900460ff1681565b6125ac6125a6612d12565b83612dd3565b6125eb576040517f08c379a00000000000000000000000000000000000000000000000000000000081526004016125e290614e4f565b60405180910390fd5b6125f7848484846135bb565b50505050565b600e60019054906101000a900460ff1681565b612618612d12565b73ffffffffffffffffffffffffffffffffffffffff16612636611f46565b73ffffffffffffffffffffffffffffffffffffffff161461268c576040517f08c379a000000000000000000000000000000000000000000000000000000000815260040161268390614d8f565b60405180910390fd5b60008151116126d0576040517f08c379a00000000000000000000000000000000000000000000000000000000081526004016126c7906149cf565b60405180910390fd5b60005b81518110156127c0576001600b60008484815181106126f5576126f4615371565b5b602002602001015173ffffffffffffffffffffffffffffffffffffffff1673ffffffffffffffffffffffffffffffffffffffff16815260200190815260200160002060006101000a81548160ff0219169083151502179055506000600d600084848151811061276757612766615371565b5b602002602001015173ffffffffffffffffffffffffffffffffffffffff1673ffffffffffffffffffffffffffffffffffffffff1681526020019081526020016000208190555080806127b89061526a565b9150506126d3565b50806040516127cf91906148b0565b60405180910390207f9245942ffb680639d98cd297a9f33698dc4f0b72b1ea3cf4c98fac11a891b63a60405160405180910390a250565b606061281182612ca6565b612850576040517f08c379a000000000000000000000000000000000000000000000000000000000815260040161284790614daf565b60405180910390fd5b600061285a613617565b9050600081511161287a57604051806020016040528060008152506128a5565b80612884846136a9565b6040516020016128959291906148c7565b6040516020818303038152906040525b915050919050565b600081116128f0576040517f08c379a00000000000000000000000000000000000000000000000000000000081526004016128e790614cef565b60405180910390fd5b600e60039054906101000a900460ff1661293f576040517f08c379a000000000000000000000000000000000000000000000000000000000815260040161293690614baf565b60405180910390fd5b600061294b6007613118565b9050600854828261295c919061503c565b111561299d576040517f08c379a000000000000000000000000000000000000000000000000000000000815260040161299490614e6f565b60405180910390fd5b600a54826129ab91906150c3565b3410156129ed576040517f08c379a00000000000000000000000000000000000000000000000000000000081526004016129e490614b8f565b60405180910390fd5b600033905060005b83811015612a1957612a0682612c80565b8080612a119061526a565b9150506129f5565b508073ffffffffffffffffffffffffffffffffffffffff167f6378b989daed197c647d54fbd0dc89e8eb6de47b34f4a6cf6c32a33577b10e0384600a54604051612a64929190614eea565b60405180910390a2505050565b6000600560008473ffffffffffffffffffffffffffffffffffffffff1673ffffffffffffffffffffffffffffffffffffffff16815260200190815260200160002060008373ffffffffffffffffffffffffffffffffffffffff1673ffffffffffffffffffffffffffffffffffffffff16815260200190815260200160002060009054906101000a900460ff16905092915050565b600e60029054906101000a900460ff1681565b612b20612d12565b73ffffffffffffffffffffffffffffffffffffffff16612b3e611f46565b73ffffffffffffffffffffffffffffffffffffffff1614612b94576040517f08c379a0000000000000000000000000000000000000000000000000000000008152600401612b8b90614d8f565b60405180910390fd5b600073ffffffffffffffffffffffffffffffffffffffff168173ffffffffffffffffffffffffffffffffffffffff161415612c04576040517f08c379a0000000000000000000000000000000000000000000000000000000008152600401612bfb90614a8f565b60405180910390fd5b612c0d81613126565b50565b60115481565b60007f01ffc9a7000000000000000000000000000000000000000000000000000000007bffffffffffffffffffffffffffffffffffffffffffffffffffffffff1916827bffffffffffffffffffffffffffffffffffffffffffffffffffffffff1916149050919050565b612c8a600761380a565b6000612c966007613118565b9050612ca28282613820565b5050565b60008073ffffffffffffffffffffffffffffffffffffffff166002600084815260200190815260200160002060009054906101000a900473ffffffffffffffffffffffffffffffffffffffff1673ffffffffffffffffffffffffffffffffffffffff1614159050919050565b600033905090565b816004600083815260200190815260200160002060006101000a81548173ffffffffffffffffffffffffffffffffffffffff021916908373ffffffffffffffffffffffffffffffffffffffff160217905550808273ffffffffffffffffffffffffffffffffffffffff16612d8d836116af565b73ffffffffffffffffffffffffffffffffffffffff167f8c5be1e5ebec7d5bd14f71427d1e84f3dd0314c0f7b2291e5b200ac8c7c3b92560405160405180910390a45050565b6000612dde82612ca6565b612e1d576040517f08c379a0000000000000000000000000000000000000000000000000000000008152600401612e1490614bcf565b60405180910390fd5b6000612e28836116af565b90508073ffffffffffffffffffffffffffffffffffffffff168473ffffffffffffffffffffffffffffffffffffffff161480612e9757508373ffffffffffffffffffffffffffffffffffffffff16612e7f84610d97565b73ffffffffffffffffffffffffffffffffffffffff16145b80612ea85750612ea78185612a71565b5b91505092915050565b8273ffffffffffffffffffffffffffffffffffffffff16612ed1826116af565b73ffffffffffffffffffffffffffffffffffffffff1614612f27576040517f08c379a0000000000000000000000000000000000000000000000000000000008152600401612f1e90614aaf565b60405180910390fd5b600073ffffffffffffffffffffffffffffffffffffffff168273ffffffffffffffffffffffffffffffffffffffff161415612f97576040517f08c379a0000000000000000000000000000000000000000000000000000000008152600401612f8e90614b2f565b60405180910390fd5b612fa283838361383e565b612fad600082612d1a565b6001600360008573ffffffffffffffffffffffffffffffffffffffff1673ffffffffffffffffffffffffffffffffffffffff1681526020019081526020016000206000828254612ffd919061511d565b925050819055506001600360008473ffffffffffffffffffffffffffffffffffffffff1673ffffffffffffffffffffffffffffffffffffffff1681526020019081526020016000206000828254613054919061503c565b92505081905550816002600083815260200190815260200160002060006101000a81548173ffffffffffffffffffffffffffffffffffffffff021916908373ffffffffffffffffffffffffffffffffffffffff160217905550808273ffffffffffffffffffffffffffffffffffffffff168473ffffffffffffffffffffffffffffffffffffffff167fddf252ad1be2c89b69c2b068fc378daa952ba7f163c4a11628f55a4df523b3ef60405160405180910390a4613113838383613843565b505050565b600081600001549050919050565b6000600660019054906101000a900473ffffffffffffffffffffffffffffffffffffffff16905081600660016101000a81548173ffffffffffffffffffffffffffffffffffffffff021916908373ffffffffffffffffffffffffffffffffffffffff1602179055508173ffffffffffffffffffffffffffffffffffffffff168173ffffffffffffffffffffffffffffffffffffffff167f8be0079c531659141344cd1fd0a4f28419497f9722a3daafe3b4186f6b6457e060405160405180910390a35050565b60006131f7826116af565b90506132058160008461383e565b613210600083612d1a565b6001600360008373ffffffffffffffffffffffffffffffffffffffff1673ffffffffffffffffffffffffffffffffffffffff1681526020019081526020016000206000828254613260919061511d565b925050819055506002600083815260200190815260200160002060006101000a81549073ffffffffffffffffffffffffffffffffffffffff021916905581600073ffffffffffffffffffffffffffffffffffffffff168273ffffffffffffffffffffffffffffffffffffffff167fddf252ad1be2c89b69c2b068fc378daa952ba7f163c4a11628f55a4df523b3ef60405160405180910390a461330581600084613843565b5050565b613311611698565b15613351576040517f08c379a000000000000000000000000000000000000000000000000000000000815260040161334890614c2f565b60405180910390fd5b6001600660006101000a81548160ff0219169083151502179055507f62e78cea01bee320cd4e420270b5ea74000d11b0c9f74754ebdbfc544b05a258613395612d12565b6040516133a291906148eb565b60405180910390a1565b6133b4611698565b6133f3576040517f08c379a00000000000000000000000000000000000000000000000000000000081526004016133ea90614a2f565b60405180910390fd5b6000600660006101000a81548160ff0219169083151502179055507f5db9ee0a495bf2e6ff9c91a7834c1ba4fdd244a5e8aa4e537bd38aeae4b073aa613437612d12565b60405161344491906148eb565b60405180910390a1565b8173ffffffffffffffffffffffffffffffffffffffff168373ffffffffffffffffffffffffffffffffffffffff1614156134bd576040517f08c379a00000000000000000000000000000000000000000000000000000000081526004016134b490614b4f565b60405180910390fd5b80600560008573ffffffffffffffffffffffffffffffffffffffff1673ffffffffffffffffffffffffffffffffffffffff16815260200190815260200160002060008473ffffffffffffffffffffffffffffffffffffffff1673ffffffffffffffffffffffffffffffffffffffff16815260200190815260200160002060006101000a81548160ff0219169083151502179055508173ffffffffffffffffffffffffffffffffffffffff168373ffffffffffffffffffffffffffffffffffffffff167f17307eab39ab6107e8899845ad3d59bd9653f200f220920489ca2b5937696c31836040516135ae9190614952565b60405180910390a3505050565b6135c6848484612eb1565b6135d284848484613848565b613611576040517f08c379a000000000000000000000000000000000000000000000000000000000815260040161360890614a4f565b60405180910390fd5b50505050565b60606010805461362690615207565b80601f016020809104026020016040519081016040528092919081815260200182805461365290615207565b801561369f5780601f106136745761010080835404028352916020019161369f565b820191906000526020600020905b81548152906001019060200180831161368257829003601f168201915b5050505050905090565b606060008214156136f1576040518060400160405280600181526020017f30000000000000000000000000000000000000000000000000000000000000008152509050613805565b600082905060005b6000821461372357808061370c9061526a565b915050600a8261371c9190615092565b91506136f9565b60008167ffffffffffffffff81111561373f5761373e6153a0565b5b6040519080825280601f01601f1916602001820160405280156137715781602001600182028036833780820191505090505b5090505b600085146137fe5760018261378a919061511d565b9150600a8561379991906152b3565b60306137a5919061503c565b60f81b8183815181106137bb576137ba615371565b5b60200101907effffffffffffffffffffffffffffffffffffffffffffffffffffffffffffff1916908160001a905350600a856137f79190615092565b9450613775565b8093505050505b919050565b6001816000016000828254019250508190555050565b61383a8282604051806020016040528060008152506139df565b5050565b505050565b505050565b60006138698473ffffffffffffffffffffffffffffffffffffffff16613a3a565b156139d2578373ffffffffffffffffffffffffffffffffffffffff1663150b7a02613892612d12565b8786866040518563ffffffff1660e01b81526004016138b49493929190614906565b602060405180830381600087803b1580156138ce57600080fd5b505af19250505080156138ff57506040513d601f19601f820116820180604052508101906138fc91906140fa565b60015b613982573d806000811461392f576040519150601f19603f3d011682016040523d82523d6000602084013e613934565b606091505b5060008151141561397a576040517f08c379a000000000000000000000000000000000000000000000000000000000815260040161397190614a4f565b60405180910390fd5b805181602001fd5b63150b7a0260e01b7bffffffffffffffffffffffffffffffffffffffffffffffffffffffff1916817bffffffffffffffffffffffffffffffffffffffffffffffffffffffff1916149150506139d7565b600190505b949350505050565b6139e98383613a5d565b6139f66000848484613848565b613a35576040517f08c379a0000000000000000000000000000000000000000000000000000000008152600401613a2c90614a4f565b60405180910390fd5b505050565b6000808273ffffffffffffffffffffffffffffffffffffffff163b119050919050565b600073ffffffffffffffffffffffffffffffffffffffff168273ffffffffffffffffffffffffffffffffffffffff161415613acd576040517f08c379a0000000000000000000000000000000000000000000000000000000008152600401613ac490614d4f565b60405180910390fd5b613ad681612ca6565b15613b16576040517f08c379a0000000000000000000000000000000000000000000000000000000008152600401613b0d90614acf565b60405180910390fd5b613b226000838361383e565b6001600360008473ffffffffffffffffffffffffffffffffffffffff1673ffffffffffffffffffffffffffffffffffffffff1681526020019081526020016000206000828254613b72919061503c565b92505081905550816002600083815260200190815260200160002060006101000a81548173ffffffffffffffffffffffffffffffffffffffff021916908373ffffffffffffffffffffffffffffffffffffffff160217905550808273ffffffffffffffffffffffffffffffffffffffff16600073ffffffffffffffffffffffffffffffffffffffff167fddf252ad1be2c89b69c2b068fc378daa952ba7f163c4a11628f55a4df523b3ef60405160405180910390a4613c3360008383613843565b5050565b828054613c4390615207565b90600052602060002090601f016020900481019282613c655760008555613cac565b82601f10613c7e57805160ff1916838001178555613cac565b82800160010185558215613cac579182015b82811115613cab578251825591602001919060010190613c90565b5b509050613cb99190613cbd565b5090565b5b80821115613cd6576000816000905550600101613cbe565b5090565b6000613ced613ce884614f38565b614f13565b90508083825260208201905082856020860282011115613d1057613d0f6153d4565b5b60005b85811015613d405781613d268882613dce565b845260208401935060208301925050600181019050613d13565b5050509392505050565b6000613d5d613d5884614f64565b614f13565b905082815260208101848484011115613d7957613d786153d9565b5b613d848482856151c5565b509392505050565b6000613d9f613d9a84614f95565b614f13565b905082815260208101848484011115613dbb57613dba6153d9565b5b613dc68482856151c5565b509392505050565b600081359050613ddd81615f4d565b92915050565b600082601f830112613df857613df76153cf565b5b8135613e08848260208601613cda565b91505092915050565b600081359050613e2081615f64565b92915050565b600081359050613e3581615f7b565b92915050565b600081519050613e4a81615f7b565b92915050565b600082601f830112613e6557613e646153cf565b5b8135613e75848260208601613d4a565b91505092915050565b600082601f830112613e9357613e926153cf565b5b8135613ea3848260208601613d8c565b91505092915050565b600081359050613ebb81615f92565b92915050565b600060208284031215613ed757613ed66153e3565b5b6000613ee584828501613dce565b91505092915050565b60008060408385031215613f0557613f046153e3565b5b6000613f1385828601613dce565b9250506020613f2485828601613dce565b9150509250929050565b600080600060608486031215613f4757613f466153e3565b5b6000613f5586828701613dce565b9350506020613f6686828701613dce565b9250506040613f7786828701613eac565b9150509250925092565b60008060008060808587031215613f9b57613f9a6153e3565b5b6000613fa987828801613dce565b9450506020613fba87828801613dce565b9350506040613fcb87828801613eac565b925050606085013567ffffffffffffffff811115613fec57613feb6153de565b5b613ff887828801613e50565b91505092959194509250565b6000806040838503121561401b5761401a6153e3565b5b600061402985828601613dce565b925050602061403a85828601613e11565b9150509250929050565b6000806040838503121561405b5761405a6153e3565b5b600061406985828601613dce565b925050602061407a85828601613eac565b9150509250929050565b60006020828403121561409a576140996153e3565b5b600082013567ffffffffffffffff8111156140b8576140b76153de565b5b6140c484828501613de3565b91505092915050565b6000602082840312156140e3576140e26153e3565b5b60006140f184828501613e26565b91505092915050565b6000602082840312156141105761410f6153e3565b5b600061411e84828501613e3b565b91505092915050565b60006020828403121561413d5761413c6153e3565b5b600082013567ffffffffffffffff81111561415b5761415a6153de565b5b61416784828501613e7e565b91505092915050565b600060208284031215614186576141856153e3565b5b600061419484828501613eac565b91505092915050565b60006141a983836141c4565b60208301905092915050565b6141be81615151565b82525050565b6141cd81615151565b82525050565b60006141de82614fd6565b6141e88185615004565b93506141f383614fc6565b8060005b8381101561422457815161420b888261419d565b975061421683614ff7565b9250506001810190506141f7565b5085935050505092915050565b61423a81615163565b82525050565b600061424b82614fe1565b614255818561500f565b93506142658185602086016151d4565b61426e816153e8565b840191505092915050565b600061428482614fec565b61428e8185615020565b935061429e8185602086016151d4565b6142a7816153e8565b840191505092915050565b60006142bd82614fec565b6142c78185615031565b93506142d78185602086016151d4565b80840191505092915050565b60006142f0601c83615020565b91506142fb826153f9565b602082019050919050565b6000614313602383615020565b915061431e82615422565b604082019050919050565b6000614336603983615020565b915061434182615471565b604082019050919050565b6000614359602c83615020565b9150614364826154c0565b604082019050919050565b600061437c603183615020565b91506143878261550f565b604082019050919050565b600061439f601483615020565b91506143aa8261555e565b602082019050919050565b60006143c2603283615020565b91506143cd82615587565b604082019050919050565b60006143e5603783615020565b91506143f0826155d6565b604082019050919050565b6000614408602683615020565b915061441382615625565b604082019050919050565b600061442b602583615020565b915061443682615674565b604082019050919050565b600061444e601c83615020565b9150614459826156c3565b602082019050919050565b6000614471603983615020565b915061447c826156ec565b604082019050919050565b6000614494601583615020565b915061449f8261573b565b602082019050919050565b60006144b7602483615020565b91506144c282615764565b604082019050919050565b60006144da601983615020565b91506144e5826157b3565b602082019050919050565b60006144fd602683615020565b9150614508826157dc565b604082019050919050565b6000614520601d83615020565b915061452b8261582b565b602082019050919050565b6000614543601c83615020565b915061454e82615854565b602082019050919050565b6000614566602c83615020565b91506145718261587d565b604082019050919050565b6000614589602a83615020565b9150614594826158cc565b604082019050919050565b60006145ac603183615020565b91506145b78261591b565b604082019050919050565b60006145cf601083615020565b91506145da8261596a565b602082019050919050565b60006145f2602d83615020565b91506145fd82615993565b604082019050919050565b6000614615603883615020565b9150614620826159e2565b604082019050919050565b6000614638602a83615020565b915061464382615a31565b604082019050919050565b600061465b602983615020565b915061466682615a80565b604082019050919050565b600061467e604383615020565b915061468982615acf565b606082019050919050565b60006146a1602783615020565b91506146ac82615b44565b604082019050919050565b60006146c4602a83615020565b91506146cf82615b93565b604082019050919050565b60006146e7602d83615020565b91506146f282615be2565b604082019050919050565b600061470a602083615020565b915061471582615c31565b602082019050919050565b600061472d602c83615020565b915061473882615c5a565b604082019050919050565b6000614750602083615020565b915061475b82615ca9565b602082019050919050565b6000614773602f83615020565b915061477e82615cd2565b604082019050919050565b6000614796602c83615020565b91506147a182615d21565b604082019050919050565b60006147b9602183615020565b91506147c482615d70565b604082019050919050565b60006147dc602b83615020565b91506147e782615dbf565b604082019050919050565b60006147ff603483615020565b915061480a82615e0e565b604082019050919050565b6000614822603183615020565b915061482d82615e5d565b604082019050919050565b6000614845601583615020565b915061485082615eac565b602082019050919050565b6000614868602683615020565b915061487382615ed5565b604082019050919050565b600061488b601d83615020565b915061489682615f24565b602082019050919050565b6148aa816151bb565b82525050565b60006148bc82846141d3565b915081905092915050565b60006148d382856142b2565b91506148df82846142b2565b91508190509392505050565b600060208201905061490060008301846141b5565b92915050565b600060808201905061491b60008301876141b5565b61492860208301866141b5565b61493560408301856148a1565b81810360608301526149478184614240565b905095945050505050565b60006020820190506149676000830184614231565b92915050565b600060208201905081810360008301526149878184614279565b905092915050565b600060208201905081810360008301526149a8816142e3565b9050919050565b600060208201905081810360008301526149c881614306565b9050919050565b600060208201905081810360008301526149e881614329565b9050919050565b60006020820190508181036000830152614a088161434c565b9050919050565b60006020820190508181036000830152614a288161436f565b9050919050565b60006020820190508181036000830152614a4881614392565b9050919050565b60006020820190508181036000830152614a68816143b5565b9050919050565b60006020820190508181036000830152614a88816143d8565b9050919050565b60006020820190508181036000830152614aa8816143fb565b9050919050565b60006020820190508181036000830152614ac88161441e565b9050919050565b60006020820190508181036000830152614ae881614441565b9050919050565b60006020820190508181036000830152614b0881614464565b9050919050565b60006020820190508181036000830152614b2881614487565b9050919050565b60006020820190508181036000830152614b48816144aa565b9050919050565b60006020820190508181036000830152614b68816144cd565b9050919050565b60006020820190508181036000830152614b88816144f0565b9050919050565b60006020820190508181036000830152614ba881614513565b9050919050565b60006020820190508181036000830152614bc881614536565b9050919050565b60006020820190508181036000830152614be881614559565b9050919050565b60006020820190508181036000830152614c088161457c565b9050919050565b60006020820190508181036000830152614c288161459f565b9050919050565b60006020820190508181036000830152614c48816145c2565b9050919050565b60006020820190508181036000830152614c68816145e5565b9050919050565b60006020820190508181036000830152614c8881614608565b9050919050565b60006020820190508181036000830152614ca88161462b565b9050919050565b60006020820190508181036000830152614cc88161464e565b9050919050565b60006020820190508181036000830152614ce881614671565b9050919050565b60006020820190508181036000830152614d0881614694565b9050919050565b60006020820190508181036000830152614d28816146b7565b9050919050565b60006020820190508181036000830152614d48816146da565b9050919050565b60006020820190508181036000830152614d68816146fd565b9050919050565b60006020820190508181036000830152614d8881614720565b9050919050565b60006020820190508181036000830152614da881614743565b9050919050565b60006020820190508181036000830152614dc881614766565b9050919050565b60006020820190508181036000830152614de881614789565b9050919050565b60006020820190508181036000830152614e08816147ac565b9050919050565b60006020820190508181036000830152614e28816147cf565b9050919050565b60006020820190508181036000830152614e48816147f2565b9050919050565b60006020820190508181036000830152614e6881614815565b9050919050565b60006020820190508181036000830152614e8881614838565b9050919050565b60006020820190508181036000830152614ea88161485b565b9050919050565b60006020820190508181036000830152614ec88161487e565b9050919050565b6000602082019050614ee460008301846148a1565b92915050565b6000604082019050614eff60008301856148a1565b614f0c60208301846148a1565b9392505050565b6000614f1d614f2e565b9050614f298282615239565b919050565b6000604051905090565b600067ffffffffffffffff821115614f5357614f526153a0565b5b602082029050602081019050919050565b600067ffffffffffffffff821115614f7f57614f7e6153a0565b5b614f88826153e8565b9050602081019050919050565b600067ffffffffffffffff821115614fb057614faf6153a0565b5b614fb9826153e8565b9050602081019050919050565b6000819050602082019050919050565b600081519050919050565b600081519050919050565b600081519050919050565b6000602082019050919050565b600081905092915050565b600082825260208201905092915050565b600082825260208201905092915050565b600081905092915050565b6000615047826151bb565b9150615052836151bb565b9250827fffffffffffffffffffffffffffffffffffffffffffffffffffffffffffffffff03821115615087576150866152e4565b5b828201905092915050565b600061509d826151bb565b91506150a8836151bb565b9250826150b8576150b7615313565b5b828204905092915050565b60006150ce826151bb565b91506150d9836151bb565b9250817fffffffffffffffffffffffffffffffffffffffffffffffffffffffffffffffff0483118215151615615112576151116152e4565b5b828202905092915050565b6000615128826151bb565b9150615133836151bb565b925082821015615146576151456152e4565b5b828203905092915050565b600061515c8261519b565b9050919050565b60008115159050919050565b60007fffffffff0000000000000000000000000000000000000000000000000000000082169050919050565b600073ffffffffffffffffffffffffffffffffffffffff82169050919050565b6000819050919050565b82818337600083830152505050565b60005b838110156151f25780820151818401526020810190506151d7565b83811115615201576000848401525b50505050565b6000600282049050600182168061521f57607f821691505b6020821081141561523357615232615342565b5b50919050565b615242826153e8565b810181811067ffffffffffffffff82111715615261576152606153a0565b5b80604052505050565b6000615275826151bb565b91507fffffffffffffffffffffffffffffffffffffffffffffffffffffffffffffffff8214156152a8576152a76152e4565b5b600182019050919050565b60006152be826151bb565b91506152c9836151bb565b9250826152d9576152d8615313565b5b828206905092915050565b7f4e487b7100000000000000000000000000000000000000000000000000000000600052601160045260246000fd5b7f4e487b7100000000000000000000000000000000000000000000000000000000600052601260045260246000fd5b7f4e487b7100000000000000000000000000000000000000000000000000000000600052602260045260246000fd5b7f4e487b7100000000000000000000000000000000000000000000000000000000600052603260045260246000fd5b7f4e487b7100000000000000000000000000000000000000000000000000000000600052604160045260246000fd5b600080fd5b600080fd5b600080fd5b600080fd5b600080fd5b6000601f19601f8301169050919050565b7f6d696e74536572696573313a206d696e74206e6f742061637469766500000000600082015250565b7f6d696e74536572696573313a206e65656420746f206d696e742061746c65617360008201527f7420310000000000000000000000000000000000000000000000000000000000602082015250565b7f616464546f57686974654c697374313a2063616e6e6f742061646420746f207760008201527f686974656c6973742066726f6d20656d70747920617272617900000000000000602082015250565b7f77686974654c6973744d696e74536572696573323a206e65656420746f206d6960008201527f6e742061746c6561737420310000000000000000000000000000000000000000602082015250565b7f7570646174654d696e7432546f6b656e733a206e6577206d6178206d7573742060008201527f62652067726561746572207468616e2030000000000000000000000000000000602082015250565b7f5061757361626c653a206e6f7420706175736564000000000000000000000000600082015250565b7f4552433732313a207472616e7366657220746f206e6f6e20455243373231526560008201527f63656976657220696d706c656d656e7465720000000000000000000000000000602082015250565b7f77686974654c6973744d696e74536572696573313a2070726573616c6520312060008201527f6973206e6f742063757272656e746c7920616374697665000000000000000000602082015250565b7f4f776e61626c653a206e6577206f776e657220697320746865207a65726f206160008201527f6464726573730000000000000000000000000000000000000000000000000000602082015250565b7f4552433732313a207472616e736665722066726f6d20696e636f72726563742060008201527f6f776e6572000000000000000000000000000000000000000000000000000000602082015250565b7f4552433732313a20746f6b656e20616c7265616479206d696e74656400000000600082015250565b7f77686974654c6973744d696e74536572696573313a20746f6f206d616e79206660008201527f6f72206d696e74696e6720647572696e672070726573616c6500000000000000602082015250565b7f6d696e74536572696573313a20736f6c64206f75740000000000000000000000600082015250565b7f4552433732313a207472616e7366657220746f20746865207a65726f2061646460008201527f7265737300000000000000000000000000000000000000000000000000000000602082015250565b7f4552433732313a20617070726f766520746f2063616c6c657200000000000000600082015250565b7f77686974654c6973744d696e74536572696573323a2076616c7565206e6f742060008201527f656e6f7567680000000000000000000000000000000000000000000000000000602082015250565b7f6d696e74536572696573323a2076616c7565206e6f7420656e6f756768000000600082015250565b7f6d696e74536572696573323a206d696e74206e6f742061637469766500000000600082015250565b7f4552433732313a206f70657261746f7220717565727920666f72206e6f6e657860008201527f697374656e7420746f6b656e0000000000000000000000000000000000000000602082015250565b7f697357686974654c6973746564313a2063616e6e6f7420636865636b20656d7060008201527f7479206164647265737300000000000000000000000000000000000000000000602082015250565b7f455243373231204275726e61626c653a2063616c6c6572206973206e6f74206f60008201527f776e6572206e6f7220617070726f766564000000000000000000000000000000602082015250565b7f5061757361626c653a2070617573656400000000000000000000000000000000600082015250565b7f75706461746550726963653a206e6577207072696365206d757374206265206760008201527f726561746572207468616e203000000000000000000000000000000000000000602082015250565b7f4552433732313a20617070726f76652063616c6c6572206973206e6f74206f7760008201527f6e6572206e6f7220617070726f76656420666f7220616c6c0000000000000000602082015250565b7f4552433732313a2062616c616e636520717565727920666f7220746865207a6560008201527f726f206164647265737300000000000000000000000000000000000000000000602082015250565b7f4552433732313a206f776e657220717565727920666f72206e6f6e657869737460008201527f656e7420746f6b656e0000000000000000000000000000000000000000000000602082015250565b7f72656d6f766546726f6d57686974654c697374313a2063616e6e6f742072656d60008201527f6f76652066726f6d2077686974656c6973742066726f6d20656d70747920617260208201527f7261790000000000000000000000000000000000000000000000000000000000604082015250565b7f6d696e74536572696573323a20796f75206e65656420746f206d696e7420617460008201527f6c65617374203100000000000000000000000000000000000000000000000000602082015250565b7f77686974654c6973744d696e74536572696573323a2070726573616c6520322060008201527f6e6f742061637469766500000000000000000000000000000000000000000000602082015250565b7f77686974654c6973744d696e74536572696573313a20796f7520617265206e6f60008201527f742077686974656c697374656400000000000000000000000000000000000000602082015250565b7f4552433732313a206d696e7420746f20746865207a65726f2061646472657373600082015250565b7f4552433732313a20617070726f76656420717565727920666f72206e6f6e657860008201527f697374656e7420746f6b656e0000000000000000000000000000000000000000602082015250565b7f4f776e61626c653a2063616c6c6572206973206e6f7420746865206f776e6572600082015250565b7f4552433732314d657461646174613a2055524920717565727920666f72206e6f60008201527f6e6578697374656e7420746f6b656e0000000000000000000000000000000000602082015250565b7f77686974654c6973744d696e74536572696573313a206e65656420746f206d6960008201527f6e742061746c6561737420310000000000000000000000000000000000000000602082015250565b7f4552433732313a20617070726f76616c20746f2063757272656e74206f776e6560008201527f7200000000000000000000000000000000000000000000000000000000000000602082015250565b7f61697264726f704974656d733a2063616e6e6f742061697264726f7020746f2060008201527f656d707479206172726179000000000000000000000000000000000000000000602082015250565b7f77686974654c6973744d696e74536572696573323a206e6f7420636c6561726560008201527f6420746f206d696e7420696e2070726573616c65000000000000000000000000602082015250565b7f4552433732313a207472616e736665722063616c6c6572206973206e6f74206f60008201527f776e6572206e6f7220617070726f766564000000000000000000000000000000602082015250565b7f6d696e74536572696573323a20736f6c64206f75740000000000000000000000600082015250565b7f77686974654c6973744d696e74536572696573313a2076616c7565206e6f742060008201527f656e6f7567680000000000000000000000000000000000000000000000000000602082015250565b7f6d696e74536572696573313a2076616c7565206e6f7420656e6f756768000000600082015250565b615f5681615151565b8114615f6157600080fd5b50565b615f6d81615163565b8114615f7857600080fd5b50565b615f848161516f565b8114615f8f57600080fd5b50565b615f9b816151bb565b8114615fa657600080fd5b5056fea264697066735822122041b64b7cd2da5f42f53761bc25105d5de9f83a0bc90584f1ce249d93f829a61f64736f6c63430008070033",
  "linkReferences": {},
  "deployedLinkReferences": {}
}