{
  "_format": "hh-sol-artifact-1",
  "contractName": "Bacteria",
  "sourceName": "contracts/Bacteria.sol",
  "abi": [
    {
      "inputs": [],
      "stateMutability": "nonpayable",
      "type": "constructor"
    },
    {
      "anonymous": false,
      "inputs": [
        {
          "indexed": true,
          "internalType": "address[]",
          "name": "addrs",
          "type": "address[]"
        }
      ],
      "name": "AirDrop",
      "type": "event"
    },
    {
      "anonymous": false,
      "inputs": [
        {
          "indexed": true,
          "internalType": "address",
          "name": "owner",
          "type": "address"
        },
        {
          "indexed": true,
          "internalType": "address",
          "name": "approved",
          "type": "address"
        },
        {
          "indexed": true,
          "internalType": "uint256",
          "name": "tokenId",
          "type": "uint256"
        }
      ],
      "name": "Approval",
      "type": "event"
    },
    {
      "anonymous": false,
      "inputs": [
        {
          "indexed": true,
          "internalType": "address",
          "name": "owner",
          "type": "address"
        },
        {
          "indexed": true,
          "internalType": "address",
          "name": "operator",
          "type": "address"
        },
        {
          "indexed": false,
          "internalType": "bool",
          "name": "approved",
          "type": "bool"
        }
      ],
      "name": "ApprovalForAll",
      "type": "event"
    },
    {
      "anonymous": false,
      "inputs": [
        {
          "indexed": false,
          "internalType": "uint256",
          "name": "tokenID",
          "type": "uint256"
        }
      ],
      "name": "BurnToken",
      "type": "event"
    },
    {
      "anonymous": false,
      "inputs": [
        {
          "indexed": true,
          "internalType": "address",
          "name": "addr",
          "type": "address"
        },
        {
          "indexed": false,
          "internalType": "uint256",
          "name": "id",
          "type": "uint256"
        }
      ],
      "name": "Claim",
      "type": "event"
    },
    {
      "anonymous": false,
      "inputs": [
        {
          "indexed": true,
          "internalType": "address",
          "name": "addr",
          "type": "address"
        },
        {
          "indexed": false,
          "internalType": "uint256",
          "name": "amount",
          "type": "uint256"
        },
        {
          "indexed": false,
          "internalType": "uint256",
          "name": "price",
          "type": "uint256"
        }
      ],
      "name": "Mint",
      "type": "event"
    },
    {
      "anonymous": false,
      "inputs": [
        {
          "indexed": true,
          "internalType": "address",
          "name": "previousOwner",
          "type": "address"
        },
        {
          "indexed": true,
          "internalType": "address",
          "name": "newOwner",
          "type": "address"
        }
      ],
      "name": "OwnershipTransferred",
      "type": "event"
    },
    {
      "anonymous": false,
      "inputs": [
        {
          "indexed": false,
          "internalType": "address",
          "name": "account",
          "type": "address"
        }
      ],
      "name": "Paused",
      "type": "event"
    },
    {
      "anonymous": false,
      "inputs": [
        {
          "indexed": false,
          "internalType": "string",
          "name": "newURI",
          "type": "string"
        }
      ],
      "name": "SetBaseURI",
      "type": "event"
    },
    {
      "anonymous": false,
      "inputs": [
        {
          "indexed": false,
          "internalType": "bool",
          "name": "claimActive",
          "type": "bool"
        }
      ],
      "name": "ToggleClaimActive",
      "type": "event"
    },
    {
      "anonymous": false,
      "inputs": [
        {
          "indexed": false,
          "internalType": "bool",
          "name": "mint1Active",
          "type": "bool"
        }
      ],
      "name": "ToggleMintActive",
      "type": "event"
    },
    {
      "anonymous": false,
      "inputs": [
        {
          "indexed": false,
          "internalType": "bool",
          "name": "paused",
          "type": "bool"
        }
      ],
      "name": "ToggleTransferPause",
      "type": "event"
    },
    {
      "anonymous": false,
      "inputs": [
        {
          "indexed": true,
          "internalType": "address",
          "name": "from",
          "type": "address"
        },
        {
          "indexed": true,
          "internalType": "address",
          "name": "to",
          "type": "address"
        },
        {
          "indexed": true,
          "internalType": "uint256",
          "name": "tokenId",
          "type": "uint256"
        }
      ],
      "name": "Transfer",
      "type": "event"
    },
    {
      "anonymous": false,
      "inputs": [
        {
          "indexed": false,
          "internalType": "address",
          "name": "account",
          "type": "address"
        }
      ],
      "name": "Unpaused",
      "type": "event"
    },
    {
      "anonymous": false,
      "inputs": [
        {
          "indexed": false,
          "internalType": "uint256",
          "name": "newPrice",
          "type": "uint256"
        }
      ],
      "name": "UpdatePrice",
      "type": "event"
    },
    {
      "anonymous": false,
      "inputs": [
        {
          "indexed": false,
          "internalType": "uint256",
          "name": "newMax",
          "type": "uint256"
        }
      ],
      "name": "UpdateTotalSupply",
      "type": "event"
    },
    {
      "anonymous": false,
      "inputs": [
        {
          "indexed": false,
          "internalType": "uint256",
          "name": "amount",
          "type": "uint256"
        }
      ],
      "name": "Withdraw",
      "type": "event"
    },
    {
      "inputs": [
        {
          "internalType": "uint256",
          "name": "",
          "type": "uint256"
        }
      ],
      "name": "TokenIds",
      "outputs": [
        {
          "internalType": "bool",
          "name": "",
          "type": "bool"
        }
      ],
      "stateMutability": "view",
      "type": "function"
    },
    {
      "inputs": [],
      "name": "_claimActive",
      "outputs": [
        {
          "internalType": "bool",
          "name": "",
          "type": "bool"
        }
      ],
      "stateMutability": "view",
      "type": "function"
    },
    {
      "inputs": [
        {
          "internalType": "address",
          "name": "",
          "type": "address"
        }
      ],
      "name": "_claimCount",
      "outputs": [
        {
          "internalType": "uint256",
          "name": "",
          "type": "uint256"
        }
      ],
      "stateMutability": "view",
      "type": "function"
    },
    {
      "inputs": [],
      "name": "_maxAmountPerClaim",
      "outputs": [
        {
          "internalType": "uint256",
          "name": "",
          "type": "uint256"
        }
      ],
      "stateMutability": "view",
      "type": "function"
    },
    {
      "inputs": [],
      "name": "_maxMint",
      "outputs": [
        {
          "internalType": "uint256",
          "name": "",
          "type": "uint256"
        }
      ],
      "stateMutability": "view",
      "type": "function"
    },
    {
      "inputs": [],
      "name": "_mintActive",
      "outputs": [
        {
          "internalType": "bool",
          "name": "",
          "type": "bool"
        }
      ],
      "stateMutability": "view",
      "type": "function"
    },
    {
      "inputs": [
        {
          "internalType": "address",
          "name": "",
          "type": "address"
        }
      ],
      "name": "_mintCount",
      "outputs": [
        {
          "internalType": "uint256",
          "name": "",
          "type": "uint256"
        }
      ],
      "stateMutability": "view",
      "type": "function"
    },
    {
      "inputs": [],
      "name": "_prefixURI",
      "outputs": [
        {
          "internalType": "string",
          "name": "",
          "type": "string"
        }
      ],
      "stateMutability": "view",
      "type": "function"
    },
    {
      "inputs": [],
      "name": "_price",
      "outputs": [
        {
          "internalType": "uint256",
          "name": "",
          "type": "uint256"
        }
      ],
      "stateMutability": "view",
      "type": "function"
    },
    {
      "inputs": [],
      "name": "_totalSupply",
      "outputs": [
        {
          "internalType": "uint256",
          "name": "",
          "type": "uint256"
        }
      ],
      "stateMutability": "view",
      "type": "function"
    },
    {
      "inputs": [
        {
          "internalType": "address[]",
          "name": "addrs",
          "type": "address[]"
        }
      ],
      "name": "airDrop",
      "outputs": [],
      "stateMutability": "nonpayable",
      "type": "function"
    },
    {
      "inputs": [
        {
          "internalType": "address",
          "name": "to",
          "type": "address"
        },
        {
          "internalType": "uint256",
          "name": "tokenId",
          "type": "uint256"
        }
      ],
      "name": "approve",
      "outputs": [],
      "stateMutability": "nonpayable",
      "type": "function"
    },
    {
      "inputs": [
        {
          "internalType": "address",
          "name": "owner",
          "type": "address"
        }
      ],
      "name": "balanceOf",
      "outputs": [
        {
          "internalType": "uint256",
          "name": "",
          "type": "uint256"
        }
      ],
      "stateMutability": "view",
      "type": "function"
    },
    {
      "inputs": [
        {
          "internalType": "uint256",
          "name": "tokenId",
          "type": "uint256"
        }
      ],
      "name": "burnToken",
      "outputs": [],
      "stateMutability": "nonpayable",
      "type": "function"
    },
    {
      "inputs": [
        {
          "internalType": "uint256",
          "name": "_tokenId",
          "type": "uint256"
        }
      ],
      "name": "checkIfCallerIsOwnerOfToken",
      "outputs": [
        {
          "internalType": "bool",
          "name": "",
          "type": "bool"
        }
      ],
      "stateMutability": "view",
      "type": "function"
    },
    {
      "inputs": [
        {
          "internalType": "uint256",
          "name": "_tokenId",
          "type": "uint256"
        }
      ],
      "name": "checkIfTokenUsedBefore",
      "outputs": [
        {
          "internalType": "bool",
          "name": "",
          "type": "bool"
        }
      ],
      "stateMutability": "view",
      "type": "function"
    },
    {
      "inputs": [
        {
          "internalType": "uint256",
          "name": "id",
          "type": "uint256"
        }
      ],
      "name": "claim",
      "outputs": [],
      "stateMutability": "nonpayable",
      "type": "function"
    },
    {
      "inputs": [
        {
          "internalType": "uint256",
          "name": "_tokenId",
          "type": "uint256"
        }
      ],
      "name": "deleteFromList",
      "outputs": [],
      "stateMutability": "nonpayable",
      "type": "function"
    },
    {
      "inputs": [
        {
          "internalType": "uint256",
          "name": "tokenId",
          "type": "uint256"
        }
      ],
      "name": "getApproved",
      "outputs": [
        {
          "internalType": "address",
          "name": "",
          "type": "address"
        }
      ],
      "stateMutability": "view",
      "type": "function"
    },
    {
      "inputs": [
        {
          "internalType": "address",
          "name": "owner",
          "type": "address"
        },
        {
          "internalType": "address",
          "name": "operator",
          "type": "address"
        }
      ],
      "name": "isApprovedForAll",
      "outputs": [
        {
          "internalType": "bool",
          "name": "",
          "type": "bool"
        }
      ],
      "stateMutability": "view",
      "type": "function"
    },
    {
      "inputs": [
        {
          "internalType": "uint256",
          "name": "amount",
          "type": "uint256"
        }
      ],
      "name": "mint",
      "outputs": [],
      "stateMutability": "payable",
      "type": "function"
    },
    {
      "inputs": [],
      "name": "name",
      "outputs": [
        {
          "internalType": "string",
          "name": "",
          "type": "string"
        }
      ],
      "stateMutability": "view",
      "type": "function"
    },
    {
      "inputs": [],
      "name": "owner",
      "outputs": [
        {
          "internalType": "address",
          "name": "",
          "type": "address"
        }
      ],
      "stateMutability": "view",
      "type": "function"
    },
    {
      "inputs": [
        {
          "internalType": "uint256",
          "name": "tokenId",
          "type": "uint256"
        }
      ],
      "name": "ownerOf",
      "outputs": [
        {
          "internalType": "address",
          "name": "",
          "type": "address"
        }
      ],
      "stateMutability": "view",
      "type": "function"
    },
    {
      "inputs": [],
      "name": "paused",
      "outputs": [
        {
          "internalType": "bool",
          "name": "",
          "type": "bool"
        }
      ],
      "stateMutability": "view",
      "type": "function"
    },
    {
      "inputs": [],
      "name": "renounceOwnership",
      "outputs": [],
      "stateMutability": "nonpayable",
      "type": "function"
    },
    {
      "inputs": [
        {
          "internalType": "address",
          "name": "from",
          "type": "address"
        },
        {
          "internalType": "address",
          "name": "to",
          "type": "address"
        },
        {
          "internalType": "uint256",
          "name": "tokenId",
          "type": "uint256"
        }
      ],
      "name": "safeTransferFrom",
      "outputs": [],
      "stateMutability": "nonpayable",
      "type": "function"
    },
    {
      "inputs": [
        {
          "internalType": "address",
          "name": "from",
          "type": "address"
        },
        {
          "internalType": "address",
          "name": "to",
          "type": "address"
        },
        {
          "internalType": "uint256",
          "name": "tokenId",
          "type": "uint256"
        },
        {
          "internalType": "bytes",
          "name": "_data",
          "type": "bytes"
        }
      ],
      "name": "safeTransferFrom",
      "outputs": [],
      "stateMutability": "nonpayable",
      "type": "function"
    },
    {
      "inputs": [
        {
          "internalType": "address",
          "name": "operator",
          "type": "address"
        },
        {
          "internalType": "bool",
          "name": "approved",
          "type": "bool"
        }
      ],
      "name": "setApprovalForAll",
      "outputs": [],
      "stateMutability": "nonpayable",
      "type": "function"
    },
    {
      "inputs": [
        {
          "internalType": "string",
          "name": "_uri",
          "type": "string"
        }
      ],
      "name": "setBaseURI",
      "outputs": [],
      "stateMutability": "nonpayable",
      "type": "function"
    },
    {
      "inputs": [
        {
          "internalType": "uint256",
          "name": "_tokenId",
          "type": "uint256"
        }
      ],
      "name": "setTokenId",
      "outputs": [],
      "stateMutability": "nonpayable",
      "type": "function"
    },
    {
      "inputs": [
        {
          "internalType": "bytes4",
          "name": "interfaceId",
          "type": "bytes4"
        }
      ],
      "name": "supportsInterface",
      "outputs": [
        {
          "internalType": "bool",
          "name": "",
          "type": "bool"
        }
      ],
      "stateMutability": "view",
      "type": "function"
    },
    {
      "inputs": [],
      "name": "symbol",
      "outputs": [
        {
          "internalType": "string",
          "name": "",
          "type": "string"
        }
      ],
      "stateMutability": "view",
      "type": "function"
    },
    {
      "inputs": [],
      "name": "toggleClaimActive",
      "outputs": [],
      "stateMutability": "nonpayable",
      "type": "function"
    },
    {
      "inputs": [],
      "name": "toggleMintActive",
      "outputs": [],
      "stateMutability": "nonpayable",
      "type": "function"
    },
    {
      "inputs": [],
      "name": "toggleTransferPause",
      "outputs": [],
      "stateMutability": "nonpayable",
      "type": "function"
    },
    {
      "inputs": [
        {
          "internalType": "uint256",
          "name": "index",
          "type": "uint256"
        }
      ],
      "name": "tokenByIndex",
      "outputs": [
        {
          "internalType": "uint256",
          "name": "",
          "type": "uint256"
        }
      ],
      "stateMutability": "view",
      "type": "function"
    },
    {
      "inputs": [
        {
          "internalType": "address",
          "name": "owner",
          "type": "address"
        },
        {
          "internalType": "uint256",
          "name": "index",
          "type": "uint256"
        }
      ],
      "name": "tokenOfOwnerByIndex",
      "outputs": [
        {
          "internalType": "uint256",
          "name": "",
          "type": "uint256"
        }
      ],
      "stateMutability": "view",
      "type": "function"
    },
    {
      "inputs": [
        {
          "internalType": "uint256",
          "name": "tokenId",
          "type": "uint256"
        }
      ],
      "name": "tokenURI",
      "outputs": [
        {
          "internalType": "string",
          "name": "",
          "type": "string"
        }
      ],
      "stateMutability": "view",
      "type": "function"
    },
    {
      "inputs": [],
      "name": "totalSupply",
      "outputs": [
        {
          "internalType": "uint256",
          "name": "",
          "type": "uint256"
        }
      ],
      "stateMutability": "view",
      "type": "function"
    },
    {
      "inputs": [
        {
          "internalType": "address",
          "name": "from",
          "type": "address"
        },
        {
          "internalType": "address",
          "name": "to",
          "type": "address"
        },
        {
          "internalType": "uint256",
          "name": "tokenId",
          "type": "uint256"
        }
      ],
      "name": "transferFrom",
      "outputs": [],
      "stateMutability": "nonpayable",
      "type": "function"
    },
    {
      "inputs": [
        {
          "internalType": "address",
          "name": "newOwner",
          "type": "address"
        }
      ],
      "name": "transferOwnership",
      "outputs": [],
      "stateMutability": "nonpayable",
      "type": "function"
    },
    {
      "inputs": [
        {
          "internalType": "uint256",
          "name": "newMax",
          "type": "uint256"
        }
      ],
      "name": "updateMaxMint",
      "outputs": [],
      "stateMutability": "nonpayable",
      "type": "function"
    },
    {
      "inputs": [
        {
          "internalType": "uint256",
          "name": "newPrice",
          "type": "uint256"
        }
      ],
      "name": "updatePrice",
      "outputs": [],
      "stateMutability": "nonpayable",
      "type": "function"
    },
    {
      "inputs": [
        {
          "internalType": "uint256",
          "name": "newSupply",
          "type": "uint256"
        }
      ],
      "name": "updateTotalSupply",
      "outputs": [],
      "stateMutability": "nonpayable",
      "type": "function"
    },
    {
      "inputs": [],
      "name": "withdraw",
      "outputs": [],
      "stateMutability": "nonpayable",
      "type": "function"
    }
  ],
  "bytecode": "0x6080604052612060600d55674563918244f40000600e556000601260006101000a81548160ff0219169083151502179055506000601260016101000a81548160ff021916908315150217905550600a60135560026014553480156200006357600080fd5b506040518060400160405280600881526020017f42616374657269610000000000000000000000000000000000000000000000008152506040518060400160405280600481526020017f42414353000000000000000000000000000000000000000000000000000000008152508160009080519060200190620000e892919062000268565b5080600190805190602001906200010192919062000268565b5050506000600a60006101000a81548160ff0219169083151502179055506200013f620001336200019a60201b60201c565b620001a260201b60201c565b737b281b5045e43d14590c57468f78c722a350a461600b60006101000a81548173ffffffffffffffffffffffffffffffffffffffff021916908373ffffffffffffffffffffffffffffffffffffffff1602179055506200037d565b600033905090565b6000600a60019054906101000a900473ffffffffffffffffffffffffffffffffffffffff16905081600a60016101000a81548173ffffffffffffffffffffffffffffffffffffffff021916908373ffffffffffffffffffffffffffffffffffffffff1602179055508173ffffffffffffffffffffffffffffffffffffffff168173ffffffffffffffffffffffffffffffffffffffff167f8be0079c531659141344cd1fd0a4f28419497f9722a3daafe3b4186f6b6457e060405160405180910390a35050565b828054620002769062000318565b90600052602060002090601f0160209004810192826200029a5760008555620002e6565b82601f10620002b557805160ff1916838001178555620002e6565b82800160010185558215620002e6579182015b82811115620002e5578251825591602001919060010190620002c8565b5b509050620002f59190620002f9565b5090565b5b8082111562000314576000816000905550600101620002fa565b5090565b600060028204905060018216806200033157607f821691505b602082108114156200034857620003476200034e565b5b50919050565b7f4e487b7100000000000000000000000000000000000000000000000000000000600052602260045260246000fd5b615a6e806200038d6000396000f3fe60806040526004361061027c5760003560e01c806370a082311161014f578063b640392c116100c1578063c87b56dd1161007a578063c87b56dd14610988578063c929ccf3146109c5578063d02c2bf2146109ee578063e6c6df5914610a05578063e985e9c514610a2e578063f2fde38b14610a6b5761027c565b8063b640392c1461087a578063b88d4fde146108a5578063b99bace8146108ce578063ba4a7303146108e5578063beb81b941461090e578063c5eddc1e1461094b5761027c565b806391860f781161011357806391860f781461079d57806395d89b41146107c85780639752a017146107f35780639ef4b9aa1461080a578063a0712d6814610835578063a22cb465146108515761027c565b806370a08231146106cc578063715018a6146107095780637b47ec1a146107205780638d6cc56d146107495780638da5cb5b146107725761027c565b8063288ee646116101f357806342842e0e116101ac57806342842e0e146105ac5780634f6ccce7146105d557806355f804b3146106125780635c975abb1461063b5780636352211e1461066657806366d49bab146106a35761027c565b8063288ee6461461048a5780632f745c59146104c7578063379607f51461050457806338368ced1461052d5780633ccfd60b1461056a5780633eaaf86b146105815761027c565b8063137e7c4911610245578063137e7c491461037857806318160ddd146103b55780631cdf72c9146103e0578063235b6ea11461040b57806323b872dd1461043657806326e1565c1461045f5761027c565b8062b6849f1461028157806301ffc9a7146102aa57806306fdde03146102e7578063081812fc14610312578063095ea7b31461034f575b600080fd5b34801561028d57600080fd5b506102a860048036038101906102a39190613f9a565b610a94565b005b3480156102b657600080fd5b506102d160048036038101906102cc9190613fe3565b610bdc565b6040516102de9190614750565b60405180910390f35b3480156102f357600080fd5b506102fc610c56565b604051610309919061476b565b60405180910390f35b34801561031e57600080fd5b5061033960048036038101906103349190614086565b610ce8565b60405161034691906146e9565b60405180910390f35b34801561035b57600080fd5b5061037660048036038101906103719190613f5a565b610d6d565b005b34801561038457600080fd5b5061039f600480360381019061039a9190614086565b610e85565b6040516103ac9190614750565b60405180910390f35b3480156103c157600080fd5b506103ca610eaf565b6040516103d79190614bcd565b60405180910390f35b3480156103ec57600080fd5b506103f5610ebc565b6040516104029190614750565b60405180910390f35b34801561041757600080fd5b50610420610ecf565b60405161042d9190614bcd565b60405180910390f35b34801561044257600080fd5b5061045d60048036038101906104589190613e44565b610ed5565b005b34801561046b57600080fd5b50610474610f35565b6040516104819190614bcd565b60405180910390f35b34801561049657600080fd5b506104b160048036038101906104ac9190613daa565b610f3b565b6040516104be9190614bcd565b60405180910390f35b3480156104d357600080fd5b506104ee60048036038101906104e99190613f5a565b610f53565b6040516104fb9190614bcd565b60405180910390f35b34801561051057600080fd5b5061052b60048036038101906105269190614086565b610ff8565b005b34801561053957600080fd5b50610554600480360381019061054f9190613daa565b611245565b6040516105619190614bcd565b60405180910390f35b34801561057657600080fd5b5061057f61125d565b005b34801561058d57600080fd5b5061059661136c565b6040516105a39190614bcd565b60405180910390f35b3480156105b857600080fd5b506105d360048036038101906105ce9190613e44565b611372565b005b3480156105e157600080fd5b506105fc60048036038101906105f79190614086565b611392565b6040516106099190614bcd565b60405180910390f35b34801561061e57600080fd5b506106396004803603810190610634919061403d565b611403565b005b34801561064757600080fd5b506106506114d0565b60405161065d9190614750565b60405180910390f35b34801561067257600080fd5b5061068d60048036038101906106889190614086565b6114e7565b60405161069a91906146e9565b60405180910390f35b3480156106af57600080fd5b506106ca60048036038101906106c59190614086565b611599565b005b3480156106d857600080fd5b506106f360048036038101906106ee9190613daa565b611699565b6040516107009190614bcd565b60405180910390f35b34801561071557600080fd5b5061071e611751565b005b34801561072c57600080fd5b5061074760048036038101906107429190614086565b6117d9565b005b34801561075557600080fd5b50610770600480360381019061076b9190614086565b611865565b005b34801561077e57600080fd5b50610787611965565b60405161079491906146e9565b60405180910390f35b3480156107a957600080fd5b506107b261198f565b6040516107bf919061476b565b60405180910390f35b3480156107d457600080fd5b506107dd611a1d565b6040516107ea919061476b565b60405180910390f35b3480156107ff57600080fd5b50610808611aaf565b005b34801561081657600080fd5b5061081f611b8d565b60405161082c9190614750565b60405180910390f35b61084f600480360381019061084a9190614086565b611ba0565b005b34801561085d57600080fd5b5061087860048036038101906108739190613f1a565b611e7a565b005b34801561088657600080fd5b5061088f611e90565b60405161089c9190614bcd565b60405180910390f35b3480156108b157600080fd5b506108cc60048036038101906108c79190613e97565b611e96565b005b3480156108da57600080fd5b506108e3611ef8565b005b3480156108f157600080fd5b5061090c60048036038101906109079190614086565b611fe6565b005b34801561091a57600080fd5b5061093560048036038101906109309190614086565b612088565b6040516109429190614750565b60405180910390f35b34801561095757600080fd5b50610972600480360381019061096d9190614086565b61216f565b60405161097f9190614750565b60405180910390f35b34801561099457600080fd5b506109af60048036038101906109aa9190614086565b61218f565b6040516109bc919061476b565b60405180910390f35b3480156109d157600080fd5b506109ec60048036038101906109e79190614086565b612236565b005b3480156109fa57600080fd5b50610a036122e1565b005b348015610a1157600080fd5b50610a2c6004803603810190610a279190614086565b6123cf565b005b348015610a3a57600080fd5b50610a556004803603810190610a509190613e04565b612462565b604051610a629190614750565b60405180910390f35b348015610a7757600080fd5b50610a926004803603810190610a8d9190613daa565b6124f6565b005b610a9c6125ee565b73ffffffffffffffffffffffffffffffffffffffff16610aba611965565b73ffffffffffffffffffffffffffffffffffffffff1614610b10576040517f08c379a0000000000000000000000000000000000000000000000000000000008152600401610b0790614aad565b60405180910390fd5b6000815111610b54576040517f08c379a0000000000000000000000000000000000000000000000000000000008152600401610b4b90614b0d565b60405180910390fd5b60005b8151811015610b9657610b83828281518110610b7657610b7561509e565b5b60200260200101516125f6565b8080610b8e90614f68565b915050610b57565b5080604051610ba591906146ae565b60405180910390207fb9413d9dd40eadf97d2949c3c57a163bb454e537a8696520d52a74e0252011e960405160405180910390a250565b60007f780e9d63000000000000000000000000000000000000000000000000000000007bffffffffffffffffffffffffffffffffffffffffffffffffffffffff1916827bffffffffffffffffffffffffffffffffffffffffffffffffffffffff19161480610c4f5750610c4e8261261c565b5b9050919050565b606060008054610c6590614f05565b80601f0160208091040260200160405190810160405280929190818152602001828054610c9190614f05565b8015610cde5780601f10610cb357610100808354040283529160200191610cde565b820191906000526020600020905b815481529060010190602001808311610cc157829003601f168201915b5050505050905090565b6000610cf3826126fe565b610d32576040517f08c379a0000000000000000000000000000000000000000000000000000000008152600401610d2990614a8d565b60405180910390fd5b6004600083815260200190815260200160002060009054906101000a900473ffffffffffffffffffffffffffffffffffffffff169050919050565b6000610d78826114e7565b90508073ffffffffffffffffffffffffffffffffffffffff168373ffffffffffffffffffffffffffffffffffffffff161415610de9576040517f08c379a0000000000000000000000000000000000000000000000000000000008152600401610de090614aed565b60405180910390fd5b8073ffffffffffffffffffffffffffffffffffffffff16610e086125ee565b73ffffffffffffffffffffffffffffffffffffffff161480610e375750610e3681610e316125ee565b612462565b5b610e76576040517f08c379a0000000000000000000000000000000000000000000000000000000008152600401610e6d906149cd565b60405180910390fd5b610e80838361276a565b505050565b60006011600083815260200190815260200160002060009054906101000a900460ff169050919050565b6000600880549050905090565b601260019054906101000a900460ff1681565b600e5481565b610ee6610ee06125ee565b82612823565b610f25576040517f08c379a0000000000000000000000000000000000000000000000000000000008152600401610f1c90614b4d565b60405180910390fd5b610f30838383612901565b505050565b60145481565b600f6020528060005260406000206000915090505481565b6000610f5e83611699565b8210610f9f576040517f08c379a0000000000000000000000000000000000000000000000000000000008152600401610f969061480d565b60405180910390fd5b600660008473ffffffffffffffffffffffffffffffffffffffff1673ffffffffffffffffffffffffffffffffffffffff168152602001908152602001600020600083815260200190815260200160002054905092915050565b6000339050601260019054906101000a900460ff1661104c576040517f08c379a000000000000000000000000000000000000000000000000000000000815260040161104390614bad565b60405180910390fd5b61105582612088565b611094576040517f08c379a000000000000000000000000000000000000000000000000000000000815260040161108b9061492d565b60405180910390fd5b61109d82610e85565b156110dd576040517f08c379a00000000000000000000000000000000000000000000000000000000081526004016110d49061478d565b60405180910390fd5b60006110e9600c612b68565b9050600d54811061112f576040517f08c379a000000000000000000000000000000000000000000000000000000000815260040161112690614b2d565b60405180910390fd5b601454601060008473ffffffffffffffffffffffffffffffffffffffff1673ffffffffffffffffffffffffffffffffffffffff1681526020019081526020016000205461117c9190614d3a565b601060008473ffffffffffffffffffffffffffffffffffffffff1673ffffffffffffffffffffffffffffffffffffffff1681526020019081526020016000208190555060005b6014548110156111e8576111d5336125f6565b80806111e090614f68565b9150506111c2565b506111f283612236565b8173ffffffffffffffffffffffffffffffffffffffff167f47cee97cb7acd717b3c0aa1435d004cd5b3c8c57d70dbceb4e4458bbd60e39d4846040516112389190614bcd565b60405180910390a2505050565b60106020528060005260406000206000915090505481565b6112656125ee565b73ffffffffffffffffffffffffffffffffffffffff16611283611965565b73ffffffffffffffffffffffffffffffffffffffff16146112d9576040517f08c379a00000000000000000000000000000000000000000000000000000000081526004016112d090614aad565b60405180910390fd5b600047116112e657600080fd5b60004790503373ffffffffffffffffffffffffffffffffffffffff166108fc829081150290604051600060405180830381858888f19350505050158015611331573d6000803e3d6000fd5b507f5b6b431d4476a211bb7d41c20d1aab9ae2321deee0d20be3d9fc9b1093fa6e3d816040516113619190614bcd565b60405180910390a150565b600d5481565b61138d83838360405180602001604052806000815250611e96565b505050565b600061139c610eaf565b82106113dd576040517f08c379a00000000000000000000000000000000000000000000000000000000081526004016113d490614b6d565b60405180910390fd5b600882815481106113f1576113f061509e565b5b90600052602060002001549050919050565b61140b6125ee565b73ffffffffffffffffffffffffffffffffffffffff16611429611965565b73ffffffffffffffffffffffffffffffffffffffff161461147f576040517f08c379a000000000000000000000000000000000000000000000000000000000815260040161147690614aad565b60405180910390fd5b8060159080519060200190611495929190613b0b565b507f23c8c9488efebfd474e85a7956de6f39b17c7ab88502d42a623db2d8e382bbaa816040516114c5919061476b565b60405180910390a150565b6000600a60009054906101000a900460ff16905090565b6000806002600084815260200190815260200160002060009054906101000a900473ffffffffffffffffffffffffffffffffffffffff169050600073ffffffffffffffffffffffffffffffffffffffff168173ffffffffffffffffffffffffffffffffffffffff161415611590576040517f08c379a000000000000000000000000000000000000000000000000000000000815260040161158790614a0d565b60405180910390fd5b80915050919050565b6115a16125ee565b73ffffffffffffffffffffffffffffffffffffffff166115bf611965565b73ffffffffffffffffffffffffffffffffffffffff1614611615576040517f08c379a000000000000000000000000000000000000000000000000000000000815260040161160c90614aad565b60405180910390fd5b60008111611658576040517f08c379a000000000000000000000000000000000000000000000000000000000815260040161164f906147ed565b60405180910390fd5b80600d819055507fee643f334779f1031decbee003f80a0bcb7ecdc24b6693539cf7447a66afba8a8160405161168e9190614bcd565b60405180910390a150565b60008073ffffffffffffffffffffffffffffffffffffffff168273ffffffffffffffffffffffffffffffffffffffff16141561170a576040517f08c379a0000000000000000000000000000000000000000000000000000000008152600401611701906149ed565b60405180910390fd5b600360008373ffffffffffffffffffffffffffffffffffffffff1673ffffffffffffffffffffffffffffffffffffffff168152602001908152602001600020549050919050565b6117596125ee565b73ffffffffffffffffffffffffffffffffffffffff16611777611965565b73ffffffffffffffffffffffffffffffffffffffff16146117cd576040517f08c379a00000000000000000000000000000000000000000000000000000000081526004016117c490614aad565b60405180910390fd5b6117d76000612b76565b565b6117e33382612823565b611822576040517f08c379a00000000000000000000000000000000000000000000000000000000081526004016118199061496d565b60405180910390fd5b61182b81612c3c565b7f066548819fc4bd1208ea1c8608597593134d5661f459c2ef75cad30918af5a338160405161185a9190614bcd565b60405180910390a150565b61186d6125ee565b73ffffffffffffffffffffffffffffffffffffffff1661188b611965565b73ffffffffffffffffffffffffffffffffffffffff16146118e1576040517f08c379a00000000000000000000000000000000000000000000000000000000081526004016118d890614aad565b60405180910390fd5b60008111611924576040517f08c379a000000000000000000000000000000000000000000000000000000000815260040161191b906149ad565b60405180910390fd5b80600e819055507f1a15ab7124a4e1ce00837351261771caf1691cd7d85ed3a0ac3157a1ee1a38058160405161195a9190614bcd565b60405180910390a150565b6000600a60019054906101000a900473ffffffffffffffffffffffffffffffffffffffff16905090565b6015805461199c90614f05565b80601f01602080910402602001604051908101604052809291908181526020018280546119c890614f05565b8015611a155780601f106119ea57610100808354040283529160200191611a15565b820191906000526020600020905b8154815290600101906020018083116119f857829003601f168201915b505050505081565b606060018054611a2c90614f05565b80601f0160208091040260200160405190810160405280929190818152602001828054611a5890614f05565b8015611aa55780601f10611a7a57610100808354040283529160200191611aa5565b820191906000526020600020905b815481529060010190602001808311611a8857829003601f168201915b5050505050905090565b611ab76125ee565b73ffffffffffffffffffffffffffffffffffffffff16611ad5611965565b73ffffffffffffffffffffffffffffffffffffffff1614611b2b576040517f08c379a0000000000000000000000000000000000000000000000000000000008152600401611b2290614aad565b60405180910390fd5b611b336114d0565b611b4457611b3f612d59565b611b4d565b611b4c612dfc565b5b7f71aa6dbdf1045ea9e6926a7848dbdd98d55270c4fee88cbc77fd816ccc8d6d2f611b766114d0565b604051611b839190614750565b60405180910390a1565b601260009054906101000a900460ff1681565b600033905060008211611be8576040517f08c379a0000000000000000000000000000000000000000000000000000000008152600401611bdf90614a2d565b60405180910390fd5b600a821115611c2c576040517f08c379a0000000000000000000000000000000000000000000000000000000008152600401611c239061484d565b60405180910390fd5b601260009054906101000a900460ff16611c7b576040517f08c379a0000000000000000000000000000000000000000000000000000000008152600401611c7290614a6d565b60405180910390fd5b6000611c87600c612b68565b9050600d548110611ccd576040517f08c379a0000000000000000000000000000000000000000000000000000000008152600401611cc4906147cd565b60405180910390fd5b600d548382611cdc9190614d3a565b1115611d1d576040517f08c379a0000000000000000000000000000000000000000000000000000000008152600401611d14906148cd565b60405180910390fd5b600e5483611d2b9190614dc1565b341015611d6d576040517f08c379a0000000000000000000000000000000000000000000000000000000008152600401611d6490614b8d565b60405180910390fd5b82600f60008473ffffffffffffffffffffffffffffffffffffffff1673ffffffffffffffffffffffffffffffffffffffff16815260200190815260200160002054611db89190614d3a565b600f60008473ffffffffffffffffffffffffffffffffffffffff1673ffffffffffffffffffffffffffffffffffffffff1681526020019081526020016000208190555060005b83811015611e2257611e0f336125f6565b8080611e1a90614f68565b915050611dfe565b508173ffffffffffffffffffffffffffffffffffffffff167f4c209b5fc8ad50758f13e2e1088ba56a560dff690a1c6fef26394f4c03821c4f84600e54604051611e6d929190614be8565b60405180910390a2505050565b611e8c611e856125ee565b8383612e9e565b5050565b60135481565b611ea7611ea16125ee565b83612823565b611ee6576040517f08c379a0000000000000000000000000000000000000000000000000000000008152600401611edd90614b4d565b60405180910390fd5b611ef28484848461300b565b50505050565b611f006125ee565b73ffffffffffffffffffffffffffffffffffffffff16611f1e611965565b73ffffffffffffffffffffffffffffffffffffffff1614611f74576040517f08c379a0000000000000000000000000000000000000000000000000000000008152600401611f6b90614aad565b60405180910390fd5b601260019054906101000a900460ff1615601260016101000a81548160ff0219169083151502179055507fccad4f71387b17cf726a56e0dd1d828b5697472af0dda5bdb79b257c0ee80213601260019054906101000a900460ff16604051611fdc9190614750565b60405180910390a1565b611fee6125ee565b73ffffffffffffffffffffffffffffffffffffffff1661200c611965565b73ffffffffffffffffffffffffffffffffffffffff1614612062576040517f08c379a000000000000000000000000000000000000000000000000000000000815260040161205990614aad565b60405180910390fd5b6011600082815260200190815260200160002060006101000a81549060ff021916905550565b6000803390508073ffffffffffffffffffffffffffffffffffffffff16600b60009054906101000a900473ffffffffffffffffffffffffffffffffffffffff1673ffffffffffffffffffffffffffffffffffffffff16636352211e856040518263ffffffff1660e01b81526004016121009190614bcd565b60206040518083038186803b15801561211857600080fd5b505afa15801561212c573d6000803e3d6000fd5b505050506040513d601f19601f820116820180604052508101906121509190613dd7565b73ffffffffffffffffffffffffffffffffffffffff1614915050919050565b60116020528060005260406000206000915054906101000a900460ff1681565b606061219a826126fe565b6121d9576040517f08c379a00000000000000000000000000000000000000000000000000000000081526004016121d090614acd565b60405180910390fd5b60006121e3613067565b90506000815111612203576040518060200160405280600081525061222e565b8061220d846130f9565b60405160200161221e9291906146c5565b6040516020818303038152906040525b915050919050565b61223e6125ee565b73ffffffffffffffffffffffffffffffffffffffff1661225c611965565b73ffffffffffffffffffffffffffffffffffffffff16146122b2576040517f08c379a00000000000000000000000000000000000000000000000000000000081526004016122a990614aad565b60405180910390fd5b60016011600083815260200190815260200160002060006101000a81548160ff02191690831515021790555050565b6122e96125ee565b73ffffffffffffffffffffffffffffffffffffffff16612307611965565b73ffffffffffffffffffffffffffffffffffffffff161461235d576040517f08c379a000000000000000000000000000000000000000000000000000000000815260040161235490614aad565b60405180910390fd5b601260009054906101000a900460ff1615601260006101000a81548160ff0219169083151502179055507f756643b49a6f13e0209676621cbd6d5e01c401e38a271b690fdf2a347597faa9601260009054906101000a900460ff166040516123c59190614750565b60405180910390a1565b6123d76125ee565b73ffffffffffffffffffffffffffffffffffffffff166123f5611965565b73ffffffffffffffffffffffffffffffffffffffff161461244b576040517f08c379a000000000000000000000000000000000000000000000000000000000815260040161244290614aad565b60405180910390fd5b6000811161245857600080fd5b8060138190555050565b6000600560008473ffffffffffffffffffffffffffffffffffffffff1673ffffffffffffffffffffffffffffffffffffffff16815260200190815260200160002060008373ffffffffffffffffffffffffffffffffffffffff1673ffffffffffffffffffffffffffffffffffffffff16815260200190815260200160002060009054906101000a900460ff16905092915050565b6124fe6125ee565b73ffffffffffffffffffffffffffffffffffffffff1661251c611965565b73ffffffffffffffffffffffffffffffffffffffff1614612572576040517f08c379a000000000000000000000000000000000000000000000000000000000815260040161256990614aad565b60405180910390fd5b600073ffffffffffffffffffffffffffffffffffffffff168173ffffffffffffffffffffffffffffffffffffffff1614156125e2576040517f08c379a00000000000000000000000000000000000000000000000000000000081526004016125d99061486d565b60405180910390fd5b6125eb81612b76565b50565b600033905090565b612600600c61325a565b600061260c600c612b68565b90506126188282613270565b5050565b60007f80ac58cd000000000000000000000000000000000000000000000000000000007bffffffffffffffffffffffffffffffffffffffffffffffffffffffff1916827bffffffffffffffffffffffffffffffffffffffffffffffffffffffff191614806126e757507f5b5e139f000000000000000000000000000000000000000000000000000000007bffffffffffffffffffffffffffffffffffffffffffffffffffffffff1916827bffffffffffffffffffffffffffffffffffffffffffffffffffffffff1916145b806126f757506126f68261328e565b5b9050919050565b60008073ffffffffffffffffffffffffffffffffffffffff166002600084815260200190815260200160002060009054906101000a900473ffffffffffffffffffffffffffffffffffffffff1673ffffffffffffffffffffffffffffffffffffffff1614159050919050565b816004600083815260200190815260200160002060006101000a81548173ffffffffffffffffffffffffffffffffffffffff021916908373ffffffffffffffffffffffffffffffffffffffff160217905550808273ffffffffffffffffffffffffffffffffffffffff166127dd836114e7565b73ffffffffffffffffffffffffffffffffffffffff167f8c5be1e5ebec7d5bd14f71427d1e84f3dd0314c0f7b2291e5b200ac8c7c3b92560405160405180910390a45050565b600061282e826126fe565b61286d576040517f08c379a00000000000000000000000000000000000000000000000000000000081526004016128649061494d565b60405180910390fd5b6000612878836114e7565b90508073ffffffffffffffffffffffffffffffffffffffff168473ffffffffffffffffffffffffffffffffffffffff1614806128e757508373ffffffffffffffffffffffffffffffffffffffff166128cf84610ce8565b73ffffffffffffffffffffffffffffffffffffffff16145b806128f857506128f78185612462565b5b91505092915050565b8273ffffffffffffffffffffffffffffffffffffffff16612921826114e7565b73ffffffffffffffffffffffffffffffffffffffff1614612977576040517f08c379a000000000000000000000000000000000000000000000000000000000815260040161296e9061488d565b60405180910390fd5b600073ffffffffffffffffffffffffffffffffffffffff168273ffffffffffffffffffffffffffffffffffffffff1614156129e7576040517f08c379a00000000000000000000000000000000000000000000000000000000081526004016129de906148ed565b60405180910390fd5b6129f28383836132f8565b6129fd60008261276a565b6001600360008573ffffffffffffffffffffffffffffffffffffffff1673ffffffffffffffffffffffffffffffffffffffff1681526020019081526020016000206000828254612a4d9190614e1b565b925050819055506001600360008473ffffffffffffffffffffffffffffffffffffffff1673ffffffffffffffffffffffffffffffffffffffff1681526020019081526020016000206000828254612aa49190614d3a565b92505081905550816002600083815260200190815260200160002060006101000a81548173ffffffffffffffffffffffffffffffffffffffff021916908373ffffffffffffffffffffffffffffffffffffffff160217905550808273ffffffffffffffffffffffffffffffffffffffff168473ffffffffffffffffffffffffffffffffffffffff167fddf252ad1be2c89b69c2b068fc378daa952ba7f163c4a11628f55a4df523b3ef60405160405180910390a4612b6383838361340c565b505050565b600081600001549050919050565b6000600a60019054906101000a900473ffffffffffffffffffffffffffffffffffffffff16905081600a60016101000a81548173ffffffffffffffffffffffffffffffffffffffff021916908373ffffffffffffffffffffffffffffffffffffffff1602179055508173ffffffffffffffffffffffffffffffffffffffff168173ffffffffffffffffffffffffffffffffffffffff167f8be0079c531659141344cd1fd0a4f28419497f9722a3daafe3b4186f6b6457e060405160405180910390a35050565b6000612c47826114e7565b9050612c55816000846132f8565b612c6060008361276a565b6001600360008373ffffffffffffffffffffffffffffffffffffffff1673ffffffffffffffffffffffffffffffffffffffff1681526020019081526020016000206000828254612cb09190614e1b565b925050819055506002600083815260200190815260200160002060006101000a81549073ffffffffffffffffffffffffffffffffffffffff021916905581600073ffffffffffffffffffffffffffffffffffffffff168273ffffffffffffffffffffffffffffffffffffffff167fddf252ad1be2c89b69c2b068fc378daa952ba7f163c4a11628f55a4df523b3ef60405160405180910390a4612d558160008461340c565b5050565b612d616114d0565b15612da1576040517f08c379a0000000000000000000000000000000000000000000000000000000008152600401612d989061498d565b60405180910390fd5b6001600a60006101000a81548160ff0219169083151502179055507f62e78cea01bee320cd4e420270b5ea74000d11b0c9f74754ebdbfc544b05a258612de56125ee565b604051612df291906146e9565b60405180910390a1565b612e046114d0565b612e43576040517f08c379a0000000000000000000000000000000000000000000000000000000008152600401612e3a906147ad565b60405180910390fd5b6000600a60006101000a81548160ff0219169083151502179055507f5db9ee0a495bf2e6ff9c91a7834c1ba4fdd244a5e8aa4e537bd38aeae4b073aa612e876125ee565b604051612e9491906146e9565b60405180910390a1565b8173ffffffffffffffffffffffffffffffffffffffff168373ffffffffffffffffffffffffffffffffffffffff161415612f0d576040517f08c379a0000000000000000000000000000000000000000000000000000000008152600401612f049061490d565b60405180910390fd5b80600560008573ffffffffffffffffffffffffffffffffffffffff1673ffffffffffffffffffffffffffffffffffffffff16815260200190815260200160002060008473ffffffffffffffffffffffffffffffffffffffff1673ffffffffffffffffffffffffffffffffffffffff16815260200190815260200160002060006101000a81548160ff0219169083151502179055508173ffffffffffffffffffffffffffffffffffffffff168373ffffffffffffffffffffffffffffffffffffffff167f17307eab39ab6107e8899845ad3d59bd9653f200f220920489ca2b5937696c3183604051612ffe9190614750565b60405180910390a3505050565b613016848484612901565b61302284848484613411565b613061576040517f08c379a00000000000000000000000000000000000000000000000000000000081526004016130589061482d565b60405180910390fd5b50505050565b60606015805461307690614f05565b80601f01602080910402602001604051908101604052809291908181526020018280546130a290614f05565b80156130ef5780601f106130c4576101008083540402835291602001916130ef565b820191906000526020600020905b8154815290600101906020018083116130d257829003601f168201915b5050505050905090565b60606000821415613141576040518060400160405280600181526020017f30000000000000000000000000000000000000000000000000000000000000008152509050613255565b600082905060005b6000821461317357808061315c90614f68565b915050600a8261316c9190614d90565b9150613149565b60008167ffffffffffffffff81111561318f5761318e6150cd565b5b6040519080825280601f01601f1916602001820160405280156131c15781602001600182028036833780820191505090505b5090505b6000851461324e576001826131da9190614e1b565b9150600a856131e99190614fb1565b60306131f59190614d3a565b60f81b81838151811061320b5761320a61509e565b5b60200101907effffffffffffffffffffffffffffffffffffffffffffffffffffffffffffff1916908160001a905350600a856132479190614d90565b94506131c5565b8093505050505b919050565b6001816000016000828254019250508190555050565b61328a8282604051806020016040528060008152506135a8565b5050565b60007f01ffc9a7000000000000000000000000000000000000000000000000000000007bffffffffffffffffffffffffffffffffffffffffffffffffffffffff1916827bffffffffffffffffffffffffffffffffffffffffffffffffffffffff1916149050919050565b613303838383613603565b600073ffffffffffffffffffffffffffffffffffffffff168373ffffffffffffffffffffffffffffffffffffffff1614156133465761334181613608565b613385565b8173ffffffffffffffffffffffffffffffffffffffff168373ffffffffffffffffffffffffffffffffffffffff1614613384576133838382613651565b5b5b600073ffffffffffffffffffffffffffffffffffffffff168273ffffffffffffffffffffffffffffffffffffffff1614156133c8576133c3816137be565b613407565b8273ffffffffffffffffffffffffffffffffffffffff168273ffffffffffffffffffffffffffffffffffffffff161461340657613405828261388f565b5b5b505050565b505050565b60006134328473ffffffffffffffffffffffffffffffffffffffff1661390e565b1561359b578373ffffffffffffffffffffffffffffffffffffffff1663150b7a0261345b6125ee565b8786866040518563ffffffff1660e01b815260040161347d9493929190614704565b602060405180830381600087803b15801561349757600080fd5b505af19250505080156134c857506040513d601f19601f820116820180604052508101906134c59190614010565b60015b61354b573d80600081146134f8576040519150601f19603f3d011682016040523d82523d6000602084013e6134fd565b606091505b50600081511415613543576040517f08c379a000000000000000000000000000000000000000000000000000000000815260040161353a9061482d565b60405180910390fd5b805181602001fd5b63150b7a0260e01b7bffffffffffffffffffffffffffffffffffffffffffffffffffffffff1916817bffffffffffffffffffffffffffffffffffffffffffffffffffffffff1916149150506135a0565b600190505b949350505050565b6135b28383613931565b6135bf6000848484613411565b6135fe576040517f08c379a00000000000000000000000000000000000000000000000000000000081526004016135f59061482d565b60405180910390fd5b505050565b505050565b6008805490506009600083815260200190815260200160002081905550600881908060018154018082558091505060019003906000526020600020016000909190919091505550565b6000600161365e84611699565b6136689190614e1b565b905060006007600084815260200190815260200160002054905081811461374d576000600660008673ffffffffffffffffffffffffffffffffffffffff1673ffffffffffffffffffffffffffffffffffffffff168152602001908152602001600020600084815260200190815260200160002054905080600660008773ffffffffffffffffffffffffffffffffffffffff1673ffffffffffffffffffffffffffffffffffffffff168152602001908152602001600020600084815260200190815260200160002081905550816007600083815260200190815260200160002081905550505b6007600084815260200190815260200160002060009055600660008573ffffffffffffffffffffffffffffffffffffffff1673ffffffffffffffffffffffffffffffffffffffff16815260200190815260200160002060008381526020019081526020016000206000905550505050565b600060016008805490506137d29190614e1b565b90506000600960008481526020019081526020016000205490506000600883815481106138025761380161509e565b5b9060005260206000200154905080600883815481106138245761382361509e565b5b9060005260206000200181905550816009600083815260200190815260200160002081905550600960008581526020019081526020016000206000905560088054806138735761387261506f565b5b6001900381819060005260206000200160009055905550505050565b600061389a83611699565b905081600660008573ffffffffffffffffffffffffffffffffffffffff1673ffffffffffffffffffffffffffffffffffffffff168152602001908152602001600020600083815260200190815260200160002081905550806007600084815260200190815260200160002081905550505050565b6000808273ffffffffffffffffffffffffffffffffffffffff163b119050919050565b600073ffffffffffffffffffffffffffffffffffffffff168273ffffffffffffffffffffffffffffffffffffffff1614156139a1576040517f08c379a000000000000000000000000000000000000000000000000000000000815260040161399890614a4d565b60405180910390fd5b6139aa816126fe565b156139ea576040517f08c379a00000000000000000000000000000000000000000000000000000000081526004016139e1906148ad565b60405180910390fd5b6139f6600083836132f8565b6001600360008473ffffffffffffffffffffffffffffffffffffffff1673ffffffffffffffffffffffffffffffffffffffff1681526020019081526020016000206000828254613a469190614d3a565b92505081905550816002600083815260200190815260200160002060006101000a81548173ffffffffffffffffffffffffffffffffffffffff021916908373ffffffffffffffffffffffffffffffffffffffff160217905550808273ffffffffffffffffffffffffffffffffffffffff16600073ffffffffffffffffffffffffffffffffffffffff167fddf252ad1be2c89b69c2b068fc378daa952ba7f163c4a11628f55a4df523b3ef60405160405180910390a4613b076000838361340c565b5050565b828054613b1790614f05565b90600052602060002090601f016020900481019282613b395760008555613b80565b82601f10613b5257805160ff1916838001178555613b80565b82800160010185558215613b80579182015b82811115613b7f578251825591602001919060010190613b64565b5b509050613b8d9190613b91565b5090565b5b80821115613baa576000816000905550600101613b92565b5090565b6000613bc1613bbc84614c36565b614c11565b90508083825260208201905082856020860282011115613be457613be3615101565b5b60005b85811015613c145781613bfa8882613ca2565b845260208401935060208301925050600181019050613be7565b5050509392505050565b6000613c31613c2c84614c62565b614c11565b905082815260208101848484011115613c4d57613c4c615106565b5b613c58848285614ec3565b509392505050565b6000613c73613c6e84614c93565b614c11565b905082815260208101848484011115613c8f57613c8e615106565b5b613c9a848285614ec3565b509392505050565b600081359050613cb1816159dc565b92915050565b600081519050613cc6816159dc565b92915050565b600082601f830112613ce157613ce06150fc565b5b8135613cf1848260208601613bae565b91505092915050565b600081359050613d09816159f3565b92915050565b600081359050613d1e81615a0a565b92915050565b600081519050613d3381615a0a565b92915050565b600082601f830112613d4e57613d4d6150fc565b5b8135613d5e848260208601613c1e565b91505092915050565b600082601f830112613d7c57613d7b6150fc565b5b8135613d8c848260208601613c60565b91505092915050565b600081359050613da481615a21565b92915050565b600060208284031215613dc057613dbf615110565b5b6000613dce84828501613ca2565b91505092915050565b600060208284031215613ded57613dec615110565b5b6000613dfb84828501613cb7565b91505092915050565b60008060408385031215613e1b57613e1a615110565b5b6000613e2985828601613ca2565b9250506020613e3a85828601613ca2565b9150509250929050565b600080600060608486031215613e5d57613e5c615110565b5b6000613e6b86828701613ca2565b9350506020613e7c86828701613ca2565b9250506040613e8d86828701613d95565b9150509250925092565b60008060008060808587031215613eb157613eb0615110565b5b6000613ebf87828801613ca2565b9450506020613ed087828801613ca2565b9350506040613ee187828801613d95565b925050606085013567ffffffffffffffff811115613f0257613f0161510b565b5b613f0e87828801613d39565b91505092959194509250565b60008060408385031215613f3157613f30615110565b5b6000613f3f85828601613ca2565b9250506020613f5085828601613cfa565b9150509250929050565b60008060408385031215613f7157613f70615110565b5b6000613f7f85828601613ca2565b9250506020613f9085828601613d95565b9150509250929050565b600060208284031215613fb057613faf615110565b5b600082013567ffffffffffffffff811115613fce57613fcd61510b565b5b613fda84828501613ccc565b91505092915050565b600060208284031215613ff957613ff8615110565b5b600061400784828501613d0f565b91505092915050565b60006020828403121561402657614025615110565b5b600061403484828501613d24565b91505092915050565b60006020828403121561405357614052615110565b5b600082013567ffffffffffffffff8111156140715761407061510b565b5b61407d84828501613d67565b91505092915050565b60006020828403121561409c5761409b615110565b5b60006140aa84828501613d95565b91505092915050565b60006140bf83836140da565b60208301905092915050565b6140d481614e4f565b82525050565b6140e381614e4f565b82525050565b60006140f482614cd4565b6140fe8185614d02565b935061410983614cc4565b8060005b8381101561413a57815161412188826140b3565b975061412c83614cf5565b92505060018101905061410d565b5085935050505092915050565b61415081614e61565b82525050565b600061416182614cdf565b61416b8185614d0d565b935061417b818560208601614ed2565b61418481615115565b840191505092915050565b600061419a82614cea565b6141a48185614d1e565b93506141b4818560208601614ed2565b6141bd81615115565b840191505092915050565b60006141d382614cea565b6141dd8185614d2f565b93506141ed818560208601614ed2565b80840191505092915050565b6000614206602183614d1e565b915061421182615126565b604082019050919050565b6000614229601483614d1e565b915061423482615175565b602082019050919050565b600061424c600e83614d1e565b91506142578261519e565b602082019050919050565b600061426f603483614d1e565b915061427a826151c7565b604082019050919050565b6000614292602b83614d1e565b915061429d82615216565b604082019050919050565b60006142b5603283614d1e565b91506142c082615265565b604082019050919050565b60006142d8602283614d1e565b91506142e3826152b4565b604082019050919050565b60006142fb602683614d1e565b915061430682615303565b604082019050919050565b600061431e602583614d1e565b915061432982615352565b604082019050919050565b6000614341601c83614d1e565b915061434c826153a1565b602082019050919050565b6000614364601a83614d1e565b915061436f826153ca565b602082019050919050565b6000614387602483614d1e565b9150614392826153f3565b604082019050919050565b60006143aa601983614d1e565b91506143b582615442565b602082019050919050565b60006143cd602e83614d1e565b91506143d88261546b565b604082019050919050565b60006143f0602c83614d1e565b91506143fb826154ba565b604082019050919050565b6000614413603183614d1e565b915061441e82615509565b604082019050919050565b6000614436601083614d1e565b915061444182615558565b602082019050919050565b6000614459602d83614d1e565b915061446482615581565b604082019050919050565b600061447c603883614d1e565b9150614487826155d0565b604082019050919050565b600061449f602a83614d1e565b91506144aa8261561f565b604082019050919050565b60006144c2602983614d1e565b91506144cd8261566e565b604082019050919050565b60006144e5601c83614d1e565b91506144f0826156bd565b602082019050919050565b6000614508602083614d1e565b9150614513826156e6565b602082019050919050565b600061452b601583614d1e565b91506145368261570f565b602082019050919050565b600061454e602c83614d1e565b915061455982615738565b604082019050919050565b6000614571602083614d1e565b915061457c82615787565b602082019050919050565b6000614594602f83614d1e565b915061459f826157b0565b604082019050919050565b60006145b7602183614d1e565b91506145c2826157ff565b604082019050919050565b60006145da602583614d1e565b91506145e58261584e565b604082019050919050565b60006145fd600f83614d1e565b91506146088261589d565b602082019050919050565b6000614620603183614d1e565b915061462b826158c6565b604082019050919050565b6000614643602c83614d1e565b915061464e82615915565b604082019050919050565b6000614666602183614d1e565b915061467182615964565b604082019050919050565b6000614689601a83614d1e565b9150614694826159b3565b602082019050919050565b6146a881614eb9565b82525050565b60006146ba82846140e9565b915081905092915050565b60006146d182856141c8565b91506146dd82846141c8565b91508190509392505050565b60006020820190506146fe60008301846140cb565b92915050565b600060808201905061471960008301876140cb565b61472660208301866140cb565b614733604083018561469f565b81810360608301526147458184614156565b905095945050505050565b60006020820190506147656000830184614147565b92915050565b60006020820190508181036000830152614785818461418f565b905092915050565b600060208201905081810360008301526147a6816141f9565b9050919050565b600060208201905081810360008301526147c68161421c565b9050919050565b600060208201905081810360008301526147e68161423f565b9050919050565b6000602082019050818103600083015261480681614262565b9050919050565b6000602082019050818103600083015261482681614285565b9050919050565b60006020820190508181036000830152614846816142a8565b9050919050565b60006020820190508181036000830152614866816142cb565b9050919050565b60006020820190508181036000830152614886816142ee565b9050919050565b600060208201905081810360008301526148a681614311565b9050919050565b600060208201905081810360008301526148c681614334565b9050919050565b600060208201905081810360008301526148e681614357565b9050919050565b600060208201905081810360008301526149068161437a565b9050919050565b600060208201905081810360008301526149268161439d565b9050919050565b60006020820190508181036000830152614946816143c0565b9050919050565b60006020820190508181036000830152614966816143e3565b9050919050565b6000602082019050818103600083015261498681614406565b9050919050565b600060208201905081810360008301526149a681614429565b9050919050565b600060208201905081810360008301526149c68161444c565b9050919050565b600060208201905081810360008301526149e68161446f565b9050919050565b60006020820190508181036000830152614a0681614492565b9050919050565b60006020820190508181036000830152614a26816144b5565b9050919050565b60006020820190508181036000830152614a46816144d8565b9050919050565b60006020820190508181036000830152614a66816144fb565b9050919050565b60006020820190508181036000830152614a868161451e565b9050919050565b60006020820190508181036000830152614aa681614541565b9050919050565b60006020820190508181036000830152614ac681614564565b9050919050565b60006020820190508181036000830152614ae681614587565b9050919050565b60006020820190508181036000830152614b06816145aa565b9050919050565b60006020820190508181036000830152614b26816145cd565b9050919050565b60006020820190508181036000830152614b46816145f0565b9050919050565b60006020820190508181036000830152614b6681614613565b9050919050565b60006020820190508181036000830152614b8681614636565b9050919050565b60006020820190508181036000830152614ba681614659565b9050919050565b60006020820190508181036000830152614bc68161467c565b9050919050565b6000602082019050614be2600083018461469f565b92915050565b6000604082019050614bfd600083018561469f565b614c0a602083018461469f565b9392505050565b6000614c1b614c2c565b9050614c278282614f37565b919050565b6000604051905090565b600067ffffffffffffffff821115614c5157614c506150cd565b5b602082029050602081019050919050565b600067ffffffffffffffff821115614c7d57614c7c6150cd565b5b614c8682615115565b9050602081019050919050565b600067ffffffffffffffff821115614cae57614cad6150cd565b5b614cb782615115565b9050602081019050919050565b6000819050602082019050919050565b600081519050919050565b600081519050919050565b600081519050919050565b6000602082019050919050565b600081905092915050565b600082825260208201905092915050565b600082825260208201905092915050565b600081905092915050565b6000614d4582614eb9565b9150614d5083614eb9565b9250827fffffffffffffffffffffffffffffffffffffffffffffffffffffffffffffffff03821115614d8557614d84614fe2565b5b828201905092915050565b6000614d9b82614eb9565b9150614da683614eb9565b925082614db657614db5615011565b5b828204905092915050565b6000614dcc82614eb9565b9150614dd783614eb9565b9250817fffffffffffffffffffffffffffffffffffffffffffffffffffffffffffffffff0483118215151615614e1057614e0f614fe2565b5b828202905092915050565b6000614e2682614eb9565b9150614e3183614eb9565b925082821015614e4457614e43614fe2565b5b828203905092915050565b6000614e5a82614e99565b9050919050565b60008115159050919050565b60007fffffffff0000000000000000000000000000000000000000000000000000000082169050919050565b600073ffffffffffffffffffffffffffffffffffffffff82169050919050565b6000819050919050565b82818337600083830152505050565b60005b83811015614ef0578082015181840152602081019050614ed5565b83811115614eff576000848401525b50505050565b60006002820490506001821680614f1d57607f821691505b60208210811415614f3157614f30615040565b5b50919050565b614f4082615115565b810181811067ffffffffffffffff82111715614f5f57614f5e6150cd565b5b80604052505050565b6000614f7382614eb9565b91507fffffffffffffffffffffffffffffffffffffffffffffffffffffffffffffffff821415614fa657614fa5614fe2565b5b600182019050919050565b6000614fbc82614eb9565b9150614fc783614eb9565b925082614fd757614fd6615011565b5b828206905092915050565b7f4e487b7100000000000000000000000000000000000000000000000000000000600052601160045260246000fd5b7f4e487b7100000000000000000000000000000000000000000000000000000000600052601260045260246000fd5b7f4e487b7100000000000000000000000000000000000000000000000000000000600052602260045260246000fd5b7f4e487b7100000000000000000000000000000000000000000000000000000000600052603160045260246000fd5b7f4e487b7100000000000000000000000000000000000000000000000000000000600052603260045260246000fd5b7f4e487b7100000000000000000000000000000000000000000000000000000000600052604160045260246000fd5b600080fd5b600080fd5b600080fd5b600080fd5b600080fd5b6000601f19601f8301169050919050565b7f636c61696d3a20546f6b656e20686173206265656e2075736564206265666f7260008201527f6500000000000000000000000000000000000000000000000000000000000000602082015250565b7f5061757361626c653a206e6f7420706175736564000000000000000000000000600082015250565b7f6d696e743a20736f6c64206f7574000000000000000000000000000000000000600082015250565b7f757064617465546f74616c537570706c793a206e657720737570706c79206d7560008201527f73742062652067726561746572207468616e2030000000000000000000000000602082015250565b7f455243373231456e756d657261626c653a206f776e657220696e646578206f7560008201527f74206f6620626f756e6473000000000000000000000000000000000000000000602082015250565b7f4552433732313a207472616e7366657220746f206e6f6e20455243373231526560008201527f63656976657220696d706c656d656e7465720000000000000000000000000000602082015250565b7f6d696e743a2063616e206f6e6c79206d696e742031302070657220736573736960008201527f6f6e000000000000000000000000000000000000000000000000000000000000602082015250565b7f4f776e61626c653a206e6577206f776e657220697320746865207a65726f206160008201527f6464726573730000000000000000000000000000000000000000000000000000602082015250565b7f4552433732313a207472616e736665722066726f6d20696e636f72726563742060008201527f6f776e6572000000000000000000000000000000000000000000000000000000602082015250565b7f4552433732313a20746f6b656e20616c7265616479206d696e74656400000000600082015250565b7f6d696e743a2063616e2774206d696e742074686174206d616e79000000000000600082015250565b7f4552433732313a207472616e7366657220746f20746865207a65726f2061646460008201527f7265737300000000000000000000000000000000000000000000000000000000602082015250565b7f4552433732313a20617070726f766520746f2063616c6c657200000000000000600082015250565b7f636c61696d3a204d757374206f776e2074686520537570657254726f6f70722060008201527f7573656420666f7220636c61696d000000000000000000000000000000000000602082015250565b7f4552433732313a206f70657261746f7220717565727920666f72206e6f6e657860008201527f697374656e7420746f6b656e0000000000000000000000000000000000000000602082015250565b7f455243373231204275726e61626c653a2063616c6c6572206973206e6f74206f60008201527f776e6572206e6f7220617070726f766564000000000000000000000000000000602082015250565b7f5061757361626c653a2070617573656400000000000000000000000000000000600082015250565b7f75706461746550726963653a206e6577207072696365206d757374206265206760008201527f726561746572207468616e203000000000000000000000000000000000000000602082015250565b7f4552433732313a20617070726f76652063616c6c6572206973206e6f74206f7760008201527f6e6572206e6f7220617070726f76656420666f7220616c6c0000000000000000602082015250565b7f4552433732313a2062616c616e636520717565727920666f7220746865207a6560008201527f726f206164647265737300000000000000000000000000000000000000000000602082015250565b7f4552433732313a206f776e657220717565727920666f72206e6f6e657869737460008201527f656e7420746f6b656e0000000000000000000000000000000000000000000000602082015250565b7f6d696e743a206e65656420746f206d696e742061746c65617374203100000000600082015250565b7f4552433732313a206d696e7420746f20746865207a65726f2061646472657373600082015250565b7f6d696e743a206d696e74206e6f74206163746976650000000000000000000000600082015250565b7f4552433732313a20617070726f76656420717565727920666f72206e6f6e657860008201527f697374656e7420746f6b656e0000000000000000000000000000000000000000602082015250565b7f4f776e61626c653a2063616c6c6572206973206e6f7420746865206f776e6572600082015250565b7f4552433732314d657461646174613a2055524920717565727920666f72206e6f60008201527f6e6578697374656e7420746f6b656e0000000000000000000000000000000000602082015250565b7f4552433732313a20617070726f76616c20746f2063757272656e74206f776e6560008201527f7200000000000000000000000000000000000000000000000000000000000000602082015250565b7f61697244726f703a206e6565642061646472657373657320746f20616972647260008201527f6f7020746f000000000000000000000000000000000000000000000000000000602082015250565b7f636c61696d3a20736f6c64206f75740000000000000000000000000000000000600082015250565b7f4552433732313a207472616e736665722063616c6c6572206973206e6f74206f60008201527f776e6572206e6f7220617070726f766564000000000000000000000000000000602082015250565b7f455243373231456e756d657261626c653a20676c6f62616c20696e646578206f60008201527f7574206f6620626f756e64730000000000000000000000000000000000000000602082015250565b7f4e6f7420656e6f7567682043524f2073656e743b20636865636b20707269636560008201527f2100000000000000000000000000000000000000000000000000000000000000602082015250565b7f636c61696d3a20636c61696d206973206e6f7420616374697665000000000000600082015250565b6159e581614e4f565b81146159f057600080fd5b50565b6159fc81614e61565b8114615a0757600080fd5b50565b615a1381614e6d565b8114615a1e57600080fd5b50565b615a2a81614eb9565b8114615a3557600080fd5b5056fea26469706673582212202f0c7b5842ff6e32296ccfadb32ffa0620b88c5b82da156a536419cea4bcec4064736f6c63430008070033",
  "linkReferences": {},
  "deployedLinkReferences": {}
}