{
  "_format": "hh-sol-artifact-1",
  "contractName": "Bacteria",
  "sourceName": "contracts/Bacteria.sol",
  "abi": [
    {
      "inputs": [],
      "stateMutability": "nonpayable",
      "type": "constructor"
    },
    {
      "anonymous": false,
      "inputs": [
        {
          "indexed": true,
          "internalType": "address[]",
          "name": "addrs",
          "type": "address[]"
        }
      ],
      "name": "AirDrop",
      "type": "event"
    },
    {
      "anonymous": false,
      "inputs": [
        {
          "indexed": true,
          "internalType": "address",
          "name": "owner",
          "type": "address"
        },
        {
          "indexed": true,
          "internalType": "address",
          "name": "approved",
          "type": "address"
        },
        {
          "indexed": true,
          "internalType": "uint256",
          "name": "tokenId",
          "type": "uint256"
        }
      ],
      "name": "Approval",
      "type": "event"
    },
    {
      "anonymous": false,
      "inputs": [
        {
          "indexed": true,
          "internalType": "address",
          "name": "owner",
          "type": "address"
        },
        {
          "indexed": true,
          "internalType": "address",
          "name": "operator",
          "type": "address"
        },
        {
          "indexed": false,
          "internalType": "bool",
          "name": "approved",
          "type": "bool"
        }
      ],
      "name": "ApprovalForAll",
      "type": "event"
    },
    {
      "anonymous": false,
      "inputs": [
        {
          "indexed": false,
          "internalType": "uint256",
          "name": "tokenID",
          "type": "uint256"
        }
      ],
      "name": "BurnToken",
      "type": "event"
    },
    {
      "anonymous": false,
      "inputs": [
        {
          "indexed": true,
          "internalType": "address",
          "name": "addr",
          "type": "address"
        },
        {
          "indexed": false,
          "internalType": "uint256",
          "name": "id",
          "type": "uint256"
        }
      ],
      "name": "Claim",
      "type": "event"
    },
    {
      "anonymous": false,
      "inputs": [
        {
          "indexed": true,
          "internalType": "address",
          "name": "addr",
          "type": "address"
        },
        {
          "indexed": false,
          "internalType": "uint256[]",
          "name": "id",
          "type": "uint256[]"
        }
      ],
      "name": "ClaimAll",
      "type": "event"
    },
    {
      "anonymous": false,
      "inputs": [
        {
          "indexed": true,
          "internalType": "address",
          "name": "addr",
          "type": "address"
        },
        {
          "indexed": false,
          "internalType": "uint256",
          "name": "amount",
          "type": "uint256"
        },
        {
          "indexed": false,
          "internalType": "uint256",
          "name": "price",
          "type": "uint256"
        }
      ],
      "name": "Mint",
      "type": "event"
    },
    {
      "anonymous": false,
      "inputs": [
        {
          "indexed": true,
          "internalType": "address",
          "name": "previousOwner",
          "type": "address"
        },
        {
          "indexed": true,
          "internalType": "address",
          "name": "newOwner",
          "type": "address"
        }
      ],
      "name": "OwnershipTransferred",
      "type": "event"
    },
    {
      "anonymous": false,
      "inputs": [
        {
          "indexed": false,
          "internalType": "address",
          "name": "account",
          "type": "address"
        }
      ],
      "name": "Paused",
      "type": "event"
    },
    {
      "anonymous": false,
      "inputs": [
        {
          "indexed": false,
          "internalType": "string",
          "name": "newURI",
          "type": "string"
        }
      ],
      "name": "SetBaseURI",
      "type": "event"
    },
    {
      "anonymous": false,
      "inputs": [
        {
          "indexed": false,
          "internalType": "bool",
          "name": "claimActive",
          "type": "bool"
        }
      ],
      "name": "ToggleClaimActive",
      "type": "event"
    },
    {
      "anonymous": false,
      "inputs": [
        {
          "indexed": false,
          "internalType": "bool",
          "name": "mint1Active",
          "type": "bool"
        }
      ],
      "name": "ToggleMintActive",
      "type": "event"
    },
    {
      "anonymous": false,
      "inputs": [
        {
          "indexed": false,
          "internalType": "bool",
          "name": "paused",
          "type": "bool"
        }
      ],
      "name": "ToggleTransferPause",
      "type": "event"
    },
    {
      "anonymous": false,
      "inputs": [
        {
          "indexed": true,
          "internalType": "address",
          "name": "from",
          "type": "address"
        },
        {
          "indexed": true,
          "internalType": "address",
          "name": "to",
          "type": "address"
        },
        {
          "indexed": true,
          "internalType": "uint256",
          "name": "tokenId",
          "type": "uint256"
        }
      ],
      "name": "Transfer",
      "type": "event"
    },
    {
      "anonymous": false,
      "inputs": [
        {
          "indexed": false,
          "internalType": "address",
          "name": "account",
          "type": "address"
        }
      ],
      "name": "Unpaused",
      "type": "event"
    },
    {
      "anonymous": false,
      "inputs": [
        {
          "indexed": false,
          "internalType": "uint256",
          "name": "newPrice",
          "type": "uint256"
        }
      ],
      "name": "UpdatePrice",
      "type": "event"
    },
    {
      "anonymous": false,
      "inputs": [
        {
          "indexed": false,
          "internalType": "uint256",
          "name": "newMax",
          "type": "uint256"
        }
      ],
      "name": "UpdateTotalSupply",
      "type": "event"
    },
    {
      "anonymous": false,
      "inputs": [
        {
          "indexed": false,
          "internalType": "uint256",
          "name": "amount",
          "type": "uint256"
        }
      ],
      "name": "Withdraw",
      "type": "event"
    },
    {
      "inputs": [
        {
          "internalType": "uint256",
          "name": "",
          "type": "uint256"
        }
      ],
      "name": "TokenIds",
      "outputs": [
        {
          "internalType": "bool",
          "name": "",
          "type": "bool"
        }
      ],
      "stateMutability": "view",
      "type": "function"
    },
    {
      "inputs": [],
      "name": "_claimActive",
      "outputs": [
        {
          "internalType": "bool",
          "name": "",
          "type": "bool"
        }
      ],
      "stateMutability": "view",
      "type": "function"
    },
    {
      "inputs": [
        {
          "internalType": "address",
          "name": "",
          "type": "address"
        }
      ],
      "name": "_claimCount",
      "outputs": [
        {
          "internalType": "uint256",
          "name": "",
          "type": "uint256"
        }
      ],
      "stateMutability": "view",
      "type": "function"
    },
    {
      "inputs": [],
      "name": "_maxAmountPerClaim",
      "outputs": [
        {
          "internalType": "uint256",
          "name": "",
          "type": "uint256"
        }
      ],
      "stateMutability": "view",
      "type": "function"
    },
    {
      "inputs": [],
      "name": "_maxMint",
      "outputs": [
        {
          "internalType": "uint256",
          "name": "",
          "type": "uint256"
        }
      ],
      "stateMutability": "view",
      "type": "function"
    },
    {
      "inputs": [],
      "name": "_mintActive",
      "outputs": [
        {
          "internalType": "bool",
          "name": "",
          "type": "bool"
        }
      ],
      "stateMutability": "view",
      "type": "function"
    },
    {
      "inputs": [
        {
          "internalType": "address",
          "name": "",
          "type": "address"
        }
      ],
      "name": "_mintCount",
      "outputs": [
        {
          "internalType": "uint256",
          "name": "",
          "type": "uint256"
        }
      ],
      "stateMutability": "view",
      "type": "function"
    },
    {
      "inputs": [],
      "name": "_prefixURI",
      "outputs": [
        {
          "internalType": "string",
          "name": "",
          "type": "string"
        }
      ],
      "stateMutability": "view",
      "type": "function"
    },
    {
      "inputs": [],
      "name": "_price",
      "outputs": [
        {
          "internalType": "uint256",
          "name": "",
          "type": "uint256"
        }
      ],
      "stateMutability": "view",
      "type": "function"
    },
    {
      "inputs": [],
      "name": "_totalSupply",
      "outputs": [
        {
          "internalType": "uint256",
          "name": "",
          "type": "uint256"
        }
      ],
      "stateMutability": "view",
      "type": "function"
    },
    {
      "inputs": [
        {
          "internalType": "address[]",
          "name": "addrs",
          "type": "address[]"
        }
      ],
      "name": "airDrop",
      "outputs": [],
      "stateMutability": "nonpayable",
      "type": "function"
    },
    {
      "inputs": [
        {
          "internalType": "address",
          "name": "to",
          "type": "address"
        },
        {
          "internalType": "uint256",
          "name": "tokenId",
          "type": "uint256"
        }
      ],
      "name": "approve",
      "outputs": [],
      "stateMutability": "nonpayable",
      "type": "function"
    },
    {
      "inputs": [
        {
          "internalType": "address",
          "name": "owner",
          "type": "address"
        }
      ],
      "name": "balanceOf",
      "outputs": [
        {
          "internalType": "uint256",
          "name": "",
          "type": "uint256"
        }
      ],
      "stateMutability": "view",
      "type": "function"
    },
    {
      "inputs": [
        {
          "internalType": "uint256",
          "name": "tokenId",
          "type": "uint256"
        }
      ],
      "name": "burnToken",
      "outputs": [],
      "stateMutability": "nonpayable",
      "type": "function"
    },
    {
      "inputs": [
        {
          "internalType": "uint256",
          "name": "_tokenId",
          "type": "uint256"
        }
      ],
      "name": "checkIfCallerIsOwnerOfToken",
      "outputs": [
        {
          "internalType": "bool",
          "name": "",
          "type": "bool"
        }
      ],
      "stateMutability": "view",
      "type": "function"
    },
    {
      "inputs": [
        {
          "internalType": "uint256",
          "name": "_tokenId",
          "type": "uint256"
        }
      ],
      "name": "checkIfTokenUsedBefore",
      "outputs": [
        {
          "internalType": "bool",
          "name": "",
          "type": "bool"
        }
      ],
      "stateMutability": "view",
      "type": "function"
    },
    {
      "inputs": [
        {
          "internalType": "uint256",
          "name": "id",
          "type": "uint256"
        }
      ],
      "name": "claim",
      "outputs": [],
      "stateMutability": "nonpayable",
      "type": "function"
    },
    {
      "inputs": [
        {
          "internalType": "uint256[]",
          "name": "id",
          "type": "uint256[]"
        }
      ],
      "name": "claimAll",
      "outputs": [],
      "stateMutability": "nonpayable",
      "type": "function"
    },
    {
      "inputs": [
        {
          "internalType": "uint256",
          "name": "_tokenId",
          "type": "uint256"
        }
      ],
      "name": "deleteFromList",
      "outputs": [],
      "stateMutability": "nonpayable",
      "type": "function"
    },
    {
      "inputs": [
        {
          "internalType": "uint256",
          "name": "tokenId",
          "type": "uint256"
        }
      ],
      "name": "getApproved",
      "outputs": [
        {
          "internalType": "address",
          "name": "",
          "type": "address"
        }
      ],
      "stateMutability": "view",
      "type": "function"
    },
    {
      "inputs": [
        {
          "internalType": "address",
          "name": "owner",
          "type": "address"
        },
        {
          "internalType": "address",
          "name": "operator",
          "type": "address"
        }
      ],
      "name": "isApprovedForAll",
      "outputs": [
        {
          "internalType": "bool",
          "name": "",
          "type": "bool"
        }
      ],
      "stateMutability": "view",
      "type": "function"
    },
    {
      "inputs": [
        {
          "internalType": "uint256",
          "name": "amount",
          "type": "uint256"
        }
      ],
      "name": "mint",
      "outputs": [],
      "stateMutability": "payable",
      "type": "function"
    },
    {
      "inputs": [],
      "name": "name",
      "outputs": [
        {
          "internalType": "string",
          "name": "",
          "type": "string"
        }
      ],
      "stateMutability": "view",
      "type": "function"
    },
    {
      "inputs": [],
      "name": "owner",
      "outputs": [
        {
          "internalType": "address",
          "name": "",
          "type": "address"
        }
      ],
      "stateMutability": "view",
      "type": "function"
    },
    {
      "inputs": [
        {
          "internalType": "uint256",
          "name": "tokenId",
          "type": "uint256"
        }
      ],
      "name": "ownerOf",
      "outputs": [
        {
          "internalType": "address",
          "name": "",
          "type": "address"
        }
      ],
      "stateMutability": "view",
      "type": "function"
    },
    {
      "inputs": [],
      "name": "paused",
      "outputs": [
        {
          "internalType": "bool",
          "name": "",
          "type": "bool"
        }
      ],
      "stateMutability": "view",
      "type": "function"
    },
    {
      "inputs": [],
      "name": "renounceOwnership",
      "outputs": [],
      "stateMutability": "nonpayable",
      "type": "function"
    },
    {
      "inputs": [
        {
          "internalType": "address",
          "name": "from",
          "type": "address"
        },
        {
          "internalType": "address",
          "name": "to",
          "type": "address"
        },
        {
          "internalType": "uint256",
          "name": "tokenId",
          "type": "uint256"
        }
      ],
      "name": "safeTransferFrom",
      "outputs": [],
      "stateMutability": "nonpayable",
      "type": "function"
    },
    {
      "inputs": [
        {
          "internalType": "address",
          "name": "from",
          "type": "address"
        },
        {
          "internalType": "address",
          "name": "to",
          "type": "address"
        },
        {
          "internalType": "uint256",
          "name": "tokenId",
          "type": "uint256"
        },
        {
          "internalType": "bytes",
          "name": "_data",
          "type": "bytes"
        }
      ],
      "name": "safeTransferFrom",
      "outputs": [],
      "stateMutability": "nonpayable",
      "type": "function"
    },
    {
      "inputs": [
        {
          "internalType": "address",
          "name": "operator",
          "type": "address"
        },
        {
          "internalType": "bool",
          "name": "approved",
          "type": "bool"
        }
      ],
      "name": "setApprovalForAll",
      "outputs": [],
      "stateMutability": "nonpayable",
      "type": "function"
    },
    {
      "inputs": [
        {
          "internalType": "string",
          "name": "_uri",
          "type": "string"
        }
      ],
      "name": "setBaseURI",
      "outputs": [],
      "stateMutability": "nonpayable",
      "type": "function"
    },
    {
      "inputs": [
        {
          "internalType": "uint256",
          "name": "_tokenId",
          "type": "uint256"
        }
      ],
      "name": "setTokenId",
      "outputs": [],
      "stateMutability": "nonpayable",
      "type": "function"
    },
    {
      "inputs": [
        {
          "internalType": "bytes4",
          "name": "interfaceId",
          "type": "bytes4"
        }
      ],
      "name": "supportsInterface",
      "outputs": [
        {
          "internalType": "bool",
          "name": "",
          "type": "bool"
        }
      ],
      "stateMutability": "view",
      "type": "function"
    },
    {
      "inputs": [],
      "name": "symbol",
      "outputs": [
        {
          "internalType": "string",
          "name": "",
          "type": "string"
        }
      ],
      "stateMutability": "view",
      "type": "function"
    },
    {
      "inputs": [],
      "name": "toggleClaimActive",
      "outputs": [],
      "stateMutability": "nonpayable",
      "type": "function"
    },
    {
      "inputs": [],
      "name": "toggleMintActive",
      "outputs": [],
      "stateMutability": "nonpayable",
      "type": "function"
    },
    {
      "inputs": [],
      "name": "toggleTransferPause",
      "outputs": [],
      "stateMutability": "nonpayable",
      "type": "function"
    },
    {
      "inputs": [
        {
          "internalType": "uint256",
          "name": "index",
          "type": "uint256"
        }
      ],
      "name": "tokenByIndex",
      "outputs": [
        {
          "internalType": "uint256",
          "name": "",
          "type": "uint256"
        }
      ],
      "stateMutability": "view",
      "type": "function"
    },
    {
      "inputs": [
        {
          "internalType": "address",
          "name": "owner",
          "type": "address"
        },
        {
          "internalType": "uint256",
          "name": "index",
          "type": "uint256"
        }
      ],
      "name": "tokenOfOwnerByIndex",
      "outputs": [
        {
          "internalType": "uint256",
          "name": "",
          "type": "uint256"
        }
      ],
      "stateMutability": "view",
      "type": "function"
    },
    {
      "inputs": [
        {
          "internalType": "uint256",
          "name": "tokenId",
          "type": "uint256"
        }
      ],
      "name": "tokenURI",
      "outputs": [
        {
          "internalType": "string",
          "name": "",
          "type": "string"
        }
      ],
      "stateMutability": "view",
      "type": "function"
    },
    {
      "inputs": [],
      "name": "totalSupply",
      "outputs": [
        {
          "internalType": "uint256",
          "name": "",
          "type": "uint256"
        }
      ],
      "stateMutability": "view",
      "type": "function"
    },
    {
      "inputs": [
        {
          "internalType": "address",
          "name": "from",
          "type": "address"
        },
        {
          "internalType": "address",
          "name": "to",
          "type": "address"
        },
        {
          "internalType": "uint256",
          "name": "tokenId",
          "type": "uint256"
        }
      ],
      "name": "transferFrom",
      "outputs": [],
      "stateMutability": "nonpayable",
      "type": "function"
    },
    {
      "inputs": [
        {
          "internalType": "address",
          "name": "newOwner",
          "type": "address"
        }
      ],
      "name": "transferOwnership",
      "outputs": [],
      "stateMutability": "nonpayable",
      "type": "function"
    },
    {
      "inputs": [
        {
          "internalType": "uint256",
          "name": "newMax",
          "type": "uint256"
        }
      ],
      "name": "updateMaxMint",
      "outputs": [],
      "stateMutability": "nonpayable",
      "type": "function"
    },
    {
      "inputs": [
        {
          "internalType": "uint256",
          "name": "newPrice",
          "type": "uint256"
        }
      ],
      "name": "updatePrice",
      "outputs": [],
      "stateMutability": "nonpayable",
      "type": "function"
    },
    {
      "inputs": [
        {
          "internalType": "uint256",
          "name": "newSupply",
          "type": "uint256"
        }
      ],
      "name": "updateTotalSupply",
      "outputs": [],
      "stateMutability": "nonpayable",
      "type": "function"
    },
    {
      "inputs": [],
      "name": "withdraw",
      "outputs": [],
      "stateMutability": "nonpayable",
      "type": "function"
    }
  ],
  "bytecode": "0x6080604052612060600d55674563918244f40000600e556000601260006101000a81548160ff0219169083151502179055506000601260016101000a81548160ff021916908315150217905550600a60135560026014553480156200006357600080fd5b506040518060400160405280600881526020017f42616374657269610000000000000000000000000000000000000000000000008152506040518060400160405280600481526020017f42414353000000000000000000000000000000000000000000000000000000008152508160009080519060200190620000e892919062000268565b5080600190805190602001906200010192919062000268565b5050506000600a60006101000a81548160ff0219169083151502179055506200013f620001336200019a60201b60201c565b620001a260201b60201c565b737b281b5045e43d14590c57468f78c722a350a461600b60006101000a81548173ffffffffffffffffffffffffffffffffffffffff021916908373ffffffffffffffffffffffffffffffffffffffff1602179055506200037d565b600033905090565b6000600a60019054906101000a900473ffffffffffffffffffffffffffffffffffffffff16905081600a60016101000a81548173ffffffffffffffffffffffffffffffffffffffff021916908373ffffffffffffffffffffffffffffffffffffffff1602179055508173ffffffffffffffffffffffffffffffffffffffff168173ffffffffffffffffffffffffffffffffffffffff167f8be0079c531659141344cd1fd0a4f28419497f9722a3daafe3b4186f6b6457e060405160405180910390a35050565b828054620002769062000318565b90600052602060002090601f0160209004810192826200029a5760008555620002e6565b82601f10620002b557805160ff1916838001178555620002e6565b82800160010185558215620002e6579182015b82811115620002e5578251825591602001919060010190620002c8565b5b509050620002f59190620002f9565b5090565b5b8082111562000314576000816000905550600101620002fa565b5090565b600060028204905060018216806200033157607f821691505b602082108114156200034857620003476200034e565b5b50919050565b7f4e487b7100000000000000000000000000000000000000000000000000000000600052602260045260246000fd5b615f57806200038d6000396000f3fe6080604052600436106102875760003560e01c806366d49bab1161015a578063b640392c116100c1578063c87b56dd1161007a578063c87b56dd146109bc578063c929ccf3146109f9578063d02c2bf214610a22578063e6c6df5914610a39578063e985e9c514610a62578063f2fde38b14610a9f57610287565b8063b640392c146108ae578063b88d4fde146108d9578063b99bace814610902578063ba4a730314610919578063beb81b9414610942578063c5eddc1e1461097f57610287565b806391860f781161011357806391860f78146107d157806395d89b41146107fc5780639752a017146108275780639ef4b9aa1461083e578063a0712d6814610869578063a22cb4651461088557610287565b806366d49bab146106d757806370a0823114610700578063715018a61461073d5780637b47ec1a146107545780638d6cc56d1461077d5780638da5cb5b146107a657610287565b8063288ee646116101fe5780633eaaf86b116101b75780633eaaf86b146105b557806342842e0e146105e05780634f6ccce71461060957806355f804b3146106465780635c975abb1461066f5780636352211e1461069a57610287565b8063288ee6461461049557806328c77820146104d25780632f745c59146104fb578063379607f51461053857806338368ced146105615780633ccfd60b1461059e57610287565b8063137e7c4911610250578063137e7c491461038357806318160ddd146103c05780631cdf72c9146103eb578063235b6ea11461041657806323b872dd1461044157806326e1565c1461046a57610287565b8062b6849f1461028c57806301ffc9a7146102b557806306fdde03146102f2578063081812fc1461031d578063095ea7b31461035a575b600080fd5b34801561029857600080fd5b506102b360048036038101906102ae919061432e565b610ac8565b005b3480156102c157600080fd5b506102dc60048036038101906102d791906143c0565b610c10565b6040516102e99190614bd4565b60405180910390f35b3480156102fe57600080fd5b50610307610c8a565b6040516103149190614bef565b60405180910390f35b34801561032957600080fd5b50610344600480360381019061033f9190614463565b610d1c565b6040516103519190614b4b565b60405180910390f35b34801561036657600080fd5b50610381600480360381019061037c91906142ee565b610da1565b005b34801561038f57600080fd5b506103aa60048036038101906103a59190614463565b610eb9565b6040516103b79190614bd4565b60405180910390f35b3480156103cc57600080fd5b506103d5610ee3565b6040516103e29190615051565b60405180910390f35b3480156103f757600080fd5b50610400610ef0565b60405161040d9190614bd4565b60405180910390f35b34801561042257600080fd5b5061042b610f03565b6040516104389190615051565b60405180910390f35b34801561044d57600080fd5b50610468600480360381019061046391906141d8565b610f09565b005b34801561047657600080fd5b5061047f610f69565b60405161048c9190615051565b60405180910390f35b3480156104a157600080fd5b506104bc60048036038101906104b7919061413e565b610f6f565b6040516104c99190615051565b60405180910390f35b3480156104de57600080fd5b506104f960048036038101906104f49190614377565b610f87565b005b34801561050757600080fd5b50610522600480360381019061051d91906142ee565b611249565b60405161052f9190615051565b60405180910390f35b34801561054457600080fd5b5061055f600480360381019061055a9190614463565b6112ee565b005b34801561056d57600080fd5b506105886004803603810190610583919061413e565b61153b565b6040516105959190615051565b60405180910390f35b3480156105aa57600080fd5b506105b3611553565b005b3480156105c157600080fd5b506105ca611662565b6040516105d79190615051565b60405180910390f35b3480156105ec57600080fd5b50610607600480360381019061060291906141d8565b611668565b005b34801561061557600080fd5b50610630600480360381019061062b9190614463565b611688565b60405161063d9190615051565b60405180910390f35b34801561065257600080fd5b5061066d6004803603810190610668919061441a565b6116f9565b005b34801561067b57600080fd5b506106846117c6565b6040516106919190614bd4565b60405180910390f35b3480156106a657600080fd5b506106c160048036038101906106bc9190614463565b6117dd565b6040516106ce9190614b4b565b60405180910390f35b3480156106e357600080fd5b506106fe60048036038101906106f99190614463565b61188f565b005b34801561070c57600080fd5b506107276004803603810190610722919061413e565b61198f565b6040516107349190615051565b60405180910390f35b34801561074957600080fd5b50610752611a47565b005b34801561076057600080fd5b5061077b60048036038101906107769190614463565b611acf565b005b34801561078957600080fd5b506107a4600480360381019061079f9190614463565b611b5b565b005b3480156107b257600080fd5b506107bb611c5b565b6040516107c89190614b4b565b60405180910390f35b3480156107dd57600080fd5b506107e6611c85565b6040516107f39190614bef565b60405180910390f35b34801561080857600080fd5b50610811611d13565b60405161081e9190614bef565b60405180910390f35b34801561083357600080fd5b5061083c611da5565b005b34801561084a57600080fd5b50610853611e83565b6040516108609190614bd4565b60405180910390f35b610883600480360381019061087e9190614463565b611e96565b005b34801561089157600080fd5b506108ac60048036038101906108a791906142ae565b612170565b005b3480156108ba57600080fd5b506108c3612186565b6040516108d09190615051565b60405180910390f35b3480156108e557600080fd5b5061090060048036038101906108fb919061422b565b61218c565b005b34801561090e57600080fd5b506109176121ee565b005b34801561092557600080fd5b50610940600480360381019061093b9190614463565b6122dc565b005b34801561094e57600080fd5b5061096960048036038101906109649190614463565b61237e565b6040516109769190614bd4565b60405180910390f35b34801561098b57600080fd5b506109a660048036038101906109a19190614463565b612465565b6040516109b39190614bd4565b60405180910390f35b3480156109c857600080fd5b506109e360048036038101906109de9190614463565b612485565b6040516109f09190614bef565b60405180910390f35b348015610a0557600080fd5b50610a206004803603810190610a1b9190614463565b61252c565b005b348015610a2e57600080fd5b50610a376125d7565b005b348015610a4557600080fd5b50610a606004803603810190610a5b9190614463565b6126c5565b005b348015610a6e57600080fd5b50610a896004803603810190610a849190614198565b612758565b604051610a969190614bd4565b60405180910390f35b348015610aab57600080fd5b50610ac66004803603810190610ac1919061413e565b6127ec565b005b610ad06128e4565b73ffffffffffffffffffffffffffffffffffffffff16610aee611c5b565b73ffffffffffffffffffffffffffffffffffffffff1614610b44576040517f08c379a0000000000000000000000000000000000000000000000000000000008152600401610b3b90614f31565b60405180910390fd5b6000815111610b88576040517f08c379a0000000000000000000000000000000000000000000000000000000008152600401610b7f90614f91565b60405180910390fd5b60005b8151811015610bca57610bb7828281518110610baa57610ba9615587565b5b60200260200101516128ec565b8080610bc290615451565b915050610b8b565b5080604051610bd99190614b10565b60405180910390207fb9413d9dd40eadf97d2949c3c57a163bb454e537a8696520d52a74e0252011e960405160405180910390a250565b60007f780e9d63000000000000000000000000000000000000000000000000000000007bffffffffffffffffffffffffffffffffffffffffffffffffffffffff1916827bffffffffffffffffffffffffffffffffffffffffffffffffffffffff19161480610c835750610c8282612912565b5b9050919050565b606060008054610c99906153ee565b80601f0160208091040260200160405190810160405280929190818152602001828054610cc5906153ee565b8015610d125780601f10610ce757610100808354040283529160200191610d12565b820191906000526020600020905b815481529060010190602001808311610cf557829003601f168201915b5050505050905090565b6000610d27826129f4565b610d66576040517f08c379a0000000000000000000000000000000000000000000000000000000008152600401610d5d90614f11565b60405180910390fd5b6004600083815260200190815260200160002060009054906101000a900473ffffffffffffffffffffffffffffffffffffffff169050919050565b6000610dac826117dd565b90508073ffffffffffffffffffffffffffffffffffffffff168373ffffffffffffffffffffffffffffffffffffffff161415610e1d576040517f08c379a0000000000000000000000000000000000000000000000000000000008152600401610e1490614f71565b60405180910390fd5b8073ffffffffffffffffffffffffffffffffffffffff16610e3c6128e4565b73ffffffffffffffffffffffffffffffffffffffff161480610e6b5750610e6a81610e656128e4565b612758565b5b610eaa576040517f08c379a0000000000000000000000000000000000000000000000000000000008152600401610ea190614e51565b60405180910390fd5b610eb48383612a60565b505050565b60006011600083815260200190815260200160002060009054906101000a900460ff169050919050565b6000600880549050905090565b601260019054906101000a900460ff1681565b600e5481565b610f1a610f146128e4565b82612b19565b610f59576040517f08c379a0000000000000000000000000000000000000000000000000000000008152600401610f5090614fd1565b60405180910390fd5b610f64838383612bf7565b505050565b60145481565b600f6020528060005260406000206000915090505481565b6000339050601260019054906101000a900460ff16610fdb576040517f08c379a0000000000000000000000000000000000000000000000000000000008152600401610fd290615031565b60405180910390fd5b60005b82518110156110bf5761100a838281518110610ffd57610ffc615587565b5b602002602001015161237e565b611049576040517f08c379a000000000000000000000000000000000000000000000000000000000815260040161104090614db1565b60405180910390fd5b61106c83828151811061105f5761105e615587565b5b6020026020010151610eb9565b156110ac576040517f08c379a00000000000000000000000000000000000000000000000000000000081526004016110a390614c11565b60405180910390fd5b80806110b790615451565b915050610fde565b5060006110cc600c612e5e565b9050600d548110611112576040517f08c379a000000000000000000000000000000000000000000000000000000000815260040161110990614fb1565b60405180910390fd5b8251601060008473ffffffffffffffffffffffffffffffffffffffff1673ffffffffffffffffffffffffffffffffffffffff1681526020019081526020016000205461115e9190615223565b601060008473ffffffffffffffffffffffffffffffffffffffff1673ffffffffffffffffffffffffffffffffffffffff1681526020019081526020016000208190555060005b83518110156111f5576111b6336128ec565b6111bf336128ec565b6111e28482815181106111d5576111d4615587565b5b602002602001015161252c565b80806111ed90615451565b9150506111a4565b508173ffffffffffffffffffffffffffffffffffffffff167fd8d2d73c4c976a2fa6184db29ec422a7be7c130ee80626321900dec577ecdcfd8460405161123c9190614bb2565b60405180910390a2505050565b60006112548361198f565b8210611295576040517f08c379a000000000000000000000000000000000000000000000000000000000815260040161128c90614c91565b60405180910390fd5b600660008473ffffffffffffffffffffffffffffffffffffffff1673ffffffffffffffffffffffffffffffffffffffff168152602001908152602001600020600083815260200190815260200160002054905092915050565b6000339050601260019054906101000a900460ff16611342576040517f08c379a000000000000000000000000000000000000000000000000000000000815260040161133990615031565b60405180910390fd5b61134b8261237e565b61138a576040517f08c379a000000000000000000000000000000000000000000000000000000000815260040161138190614db1565b60405180910390fd5b61139382610eb9565b156113d3576040517f08c379a00000000000000000000000000000000000000000000000000000000081526004016113ca90614c11565b60405180910390fd5b60006113df600c612e5e565b9050600d548110611425576040517f08c379a000000000000000000000000000000000000000000000000000000000815260040161141c90614fb1565b60405180910390fd5b601454601060008473ffffffffffffffffffffffffffffffffffffffff1673ffffffffffffffffffffffffffffffffffffffff168152602001908152602001600020546114729190615223565b601060008473ffffffffffffffffffffffffffffffffffffffff1673ffffffffffffffffffffffffffffffffffffffff1681526020019081526020016000208190555060005b6014548110156114de576114cb336128ec565b80806114d690615451565b9150506114b8565b506114e88361252c565b8173ffffffffffffffffffffffffffffffffffffffff167f47cee97cb7acd717b3c0aa1435d004cd5b3c8c57d70dbceb4e4458bbd60e39d48460405161152e9190615051565b60405180910390a2505050565b60106020528060005260406000206000915090505481565b61155b6128e4565b73ffffffffffffffffffffffffffffffffffffffff16611579611c5b565b73ffffffffffffffffffffffffffffffffffffffff16146115cf576040517f08c379a00000000000000000000000000000000000000000000000000000000081526004016115c690614f31565b60405180910390fd5b600047116115dc57600080fd5b60004790503373ffffffffffffffffffffffffffffffffffffffff166108fc829081150290604051600060405180830381858888f19350505050158015611627573d6000803e3d6000fd5b507f5b6b431d4476a211bb7d41c20d1aab9ae2321deee0d20be3d9fc9b1093fa6e3d816040516116579190615051565b60405180910390a150565b600d5481565b6116838383836040518060200160405280600081525061218c565b505050565b6000611692610ee3565b82106116d3576040517f08c379a00000000000000000000000000000000000000000000000000000000081526004016116ca90614ff1565b60405180910390fd5b600882815481106116e7576116e6615587565b5b90600052602060002001549050919050565b6117016128e4565b73ffffffffffffffffffffffffffffffffffffffff1661171f611c5b565b73ffffffffffffffffffffffffffffffffffffffff1614611775576040517f08c379a000000000000000000000000000000000000000000000000000000000815260040161176c90614f31565b60405180910390fd5b806015908051906020019061178b929190613e01565b507f23c8c9488efebfd474e85a7956de6f39b17c7ab88502d42a623db2d8e382bbaa816040516117bb9190614bef565b60405180910390a150565b6000600a60009054906101000a900460ff16905090565b6000806002600084815260200190815260200160002060009054906101000a900473ffffffffffffffffffffffffffffffffffffffff169050600073ffffffffffffffffffffffffffffffffffffffff168173ffffffffffffffffffffffffffffffffffffffff161415611886576040517f08c379a000000000000000000000000000000000000000000000000000000000815260040161187d90614e91565b60405180910390fd5b80915050919050565b6118976128e4565b73ffffffffffffffffffffffffffffffffffffffff166118b5611c5b565b73ffffffffffffffffffffffffffffffffffffffff161461190b576040517f08c379a000000000000000000000000000000000000000000000000000000000815260040161190290614f31565b60405180910390fd5b6000811161194e576040517f08c379a000000000000000000000000000000000000000000000000000000000815260040161194590614c71565b60405180910390fd5b80600d819055507fee643f334779f1031decbee003f80a0bcb7ecdc24b6693539cf7447a66afba8a816040516119849190615051565b60405180910390a150565b60008073ffffffffffffffffffffffffffffffffffffffff168273ffffffffffffffffffffffffffffffffffffffff161415611a00576040517f08c379a00000000000000000000000000000000000000000000000000000000081526004016119f790614e71565b60405180910390fd5b600360008373ffffffffffffffffffffffffffffffffffffffff1673ffffffffffffffffffffffffffffffffffffffff168152602001908152602001600020549050919050565b611a4f6128e4565b73ffffffffffffffffffffffffffffffffffffffff16611a6d611c5b565b73ffffffffffffffffffffffffffffffffffffffff1614611ac3576040517f08c379a0000000000000000000000000000000000000000000000000000000008152600401611aba90614f31565b60405180910390fd5b611acd6000612e6c565b565b611ad93382612b19565b611b18576040517f08c379a0000000000000000000000000000000000000000000000000000000008152600401611b0f90614df1565b60405180910390fd5b611b2181612f32565b7f066548819fc4bd1208ea1c8608597593134d5661f459c2ef75cad30918af5a3381604051611b509190615051565b60405180910390a150565b611b636128e4565b73ffffffffffffffffffffffffffffffffffffffff16611b81611c5b565b73ffffffffffffffffffffffffffffffffffffffff1614611bd7576040517f08c379a0000000000000000000000000000000000000000000000000000000008152600401611bce90614f31565b60405180910390fd5b60008111611c1a576040517f08c379a0000000000000000000000000000000000000000000000000000000008152600401611c1190614e31565b60405180910390fd5b80600e819055507f1a15ab7124a4e1ce00837351261771caf1691cd7d85ed3a0ac3157a1ee1a380581604051611c509190615051565b60405180910390a150565b6000600a60019054906101000a900473ffffffffffffffffffffffffffffffffffffffff16905090565b60158054611c92906153ee565b80601f0160208091040260200160405190810160405280929190818152602001828054611cbe906153ee565b8015611d0b5780601f10611ce057610100808354040283529160200191611d0b565b820191906000526020600020905b815481529060010190602001808311611cee57829003601f168201915b505050505081565b606060018054611d22906153ee565b80601f0160208091040260200160405190810160405280929190818152602001828054611d4e906153ee565b8015611d9b5780601f10611d7057610100808354040283529160200191611d9b565b820191906000526020600020905b815481529060010190602001808311611d7e57829003601f168201915b5050505050905090565b611dad6128e4565b73ffffffffffffffffffffffffffffffffffffffff16611dcb611c5b565b73ffffffffffffffffffffffffffffffffffffffff1614611e21576040517f08c379a0000000000000000000000000000000000000000000000000000000008152600401611e1890614f31565b60405180910390fd5b611e296117c6565b611e3a57611e3561304f565b611e43565b611e426130f2565b5b7f71aa6dbdf1045ea9e6926a7848dbdd98d55270c4fee88cbc77fd816ccc8d6d2f611e6c6117c6565b604051611e799190614bd4565b60405180910390a1565b601260009054906101000a900460ff1681565b600033905060008211611ede576040517f08c379a0000000000000000000000000000000000000000000000000000000008152600401611ed590614eb1565b60405180910390fd5b600a821115611f22576040517f08c379a0000000000000000000000000000000000000000000000000000000008152600401611f1990614cd1565b60405180910390fd5b601260009054906101000a900460ff16611f71576040517f08c379a0000000000000000000000000000000000000000000000000000000008152600401611f6890614ef1565b60405180910390fd5b6000611f7d600c612e5e565b9050600d548110611fc3576040517f08c379a0000000000000000000000000000000000000000000000000000000008152600401611fba90614c51565b60405180910390fd5b600d548382611fd29190615223565b1115612013576040517f08c379a000000000000000000000000000000000000000000000000000000000815260040161200a90614d51565b60405180910390fd5b600e548361202191906152aa565b341015612063576040517f08c379a000000000000000000000000000000000000000000000000000000000815260040161205a90615011565b60405180910390fd5b82600f60008473ffffffffffffffffffffffffffffffffffffffff1673ffffffffffffffffffffffffffffffffffffffff168152602001908152602001600020546120ae9190615223565b600f60008473ffffffffffffffffffffffffffffffffffffffff1673ffffffffffffffffffffffffffffffffffffffff1681526020019081526020016000208190555060005b8381101561211857612105336128ec565b808061211090615451565b9150506120f4565b508173ffffffffffffffffffffffffffffffffffffffff167f4c209b5fc8ad50758f13e2e1088ba56a560dff690a1c6fef26394f4c03821c4f84600e5460405161216392919061506c565b60405180910390a2505050565b61218261217b6128e4565b8383613194565b5050565b60135481565b61219d6121976128e4565b83612b19565b6121dc576040517f08c379a00000000000000000000000000000000000000000000000000000000081526004016121d390614fd1565b60405180910390fd5b6121e884848484613301565b50505050565b6121f66128e4565b73ffffffffffffffffffffffffffffffffffffffff16612214611c5b565b73ffffffffffffffffffffffffffffffffffffffff161461226a576040517f08c379a000000000000000000000000000000000000000000000000000000000815260040161226190614f31565b60405180910390fd5b601260019054906101000a900460ff1615601260016101000a81548160ff0219169083151502179055507fccad4f71387b17cf726a56e0dd1d828b5697472af0dda5bdb79b257c0ee80213601260019054906101000a900460ff166040516122d29190614bd4565b60405180910390a1565b6122e46128e4565b73ffffffffffffffffffffffffffffffffffffffff16612302611c5b565b73ffffffffffffffffffffffffffffffffffffffff1614612358576040517f08c379a000000000000000000000000000000000000000000000000000000000815260040161234f90614f31565b60405180910390fd5b6011600082815260200190815260200160002060006101000a81549060ff021916905550565b6000803390508073ffffffffffffffffffffffffffffffffffffffff16600b60009054906101000a900473ffffffffffffffffffffffffffffffffffffffff1673ffffffffffffffffffffffffffffffffffffffff16636352211e856040518263ffffffff1660e01b81526004016123f69190615051565b60206040518083038186803b15801561240e57600080fd5b505afa158015612422573d6000803e3d6000fd5b505050506040513d601f19601f82011682018060405250810190612446919061416b565b73ffffffffffffffffffffffffffffffffffffffff1614915050919050565b60116020528060005260406000206000915054906101000a900460ff1681565b6060612490826129f4565b6124cf576040517f08c379a00000000000000000000000000000000000000000000000000000000081526004016124c690614f51565b60405180910390fd5b60006124d961335d565b905060008151116124f95760405180602001604052806000815250612524565b80612503846133ef565b604051602001612514929190614b27565b6040516020818303038152906040525b915050919050565b6125346128e4565b73ffffffffffffffffffffffffffffffffffffffff16612552611c5b565b73ffffffffffffffffffffffffffffffffffffffff16146125a8576040517f08c379a000000000000000000000000000000000000000000000000000000000815260040161259f90614f31565b60405180910390fd5b60016011600083815260200190815260200160002060006101000a81548160ff02191690831515021790555050565b6125df6128e4565b73ffffffffffffffffffffffffffffffffffffffff166125fd611c5b565b73ffffffffffffffffffffffffffffffffffffffff1614612653576040517f08c379a000000000000000000000000000000000000000000000000000000000815260040161264a90614f31565b60405180910390fd5b601260009054906101000a900460ff1615601260006101000a81548160ff0219169083151502179055507f756643b49a6f13e0209676621cbd6d5e01c401e38a271b690fdf2a347597faa9601260009054906101000a900460ff166040516126bb9190614bd4565b60405180910390a1565b6126cd6128e4565b73ffffffffffffffffffffffffffffffffffffffff166126eb611c5b565b73ffffffffffffffffffffffffffffffffffffffff1614612741576040517f08c379a000000000000000000000000000000000000000000000000000000000815260040161273890614f31565b60405180910390fd5b6000811161274e57600080fd5b8060138190555050565b6000600560008473ffffffffffffffffffffffffffffffffffffffff1673ffffffffffffffffffffffffffffffffffffffff16815260200190815260200160002060008373ffffffffffffffffffffffffffffffffffffffff1673ffffffffffffffffffffffffffffffffffffffff16815260200190815260200160002060009054906101000a900460ff16905092915050565b6127f46128e4565b73ffffffffffffffffffffffffffffffffffffffff16612812611c5b565b73ffffffffffffffffffffffffffffffffffffffff1614612868576040517f08c379a000000000000000000000000000000000000000000000000000000000815260040161285f90614f31565b60405180910390fd5b600073ffffffffffffffffffffffffffffffffffffffff168173ffffffffffffffffffffffffffffffffffffffff1614156128d8576040517f08c379a00000000000000000000000000000000000000000000000000000000081526004016128cf90614cf1565b60405180910390fd5b6128e181612e6c565b50565b600033905090565b6128f6600c613550565b6000612902600c612e5e565b905061290e8282613566565b5050565b60007f80ac58cd000000000000000000000000000000000000000000000000000000007bffffffffffffffffffffffffffffffffffffffffffffffffffffffff1916827bffffffffffffffffffffffffffffffffffffffffffffffffffffffff191614806129dd57507f5b5e139f000000000000000000000000000000000000000000000000000000007bffffffffffffffffffffffffffffffffffffffffffffffffffffffff1916827bffffffffffffffffffffffffffffffffffffffffffffffffffffffff1916145b806129ed57506129ec82613584565b5b9050919050565b60008073ffffffffffffffffffffffffffffffffffffffff166002600084815260200190815260200160002060009054906101000a900473ffffffffffffffffffffffffffffffffffffffff1673ffffffffffffffffffffffffffffffffffffffff1614159050919050565b816004600083815260200190815260200160002060006101000a81548173ffffffffffffffffffffffffffffffffffffffff021916908373ffffffffffffffffffffffffffffffffffffffff160217905550808273ffffffffffffffffffffffffffffffffffffffff16612ad3836117dd565b73ffffffffffffffffffffffffffffffffffffffff167f8c5be1e5ebec7d5bd14f71427d1e84f3dd0314c0f7b2291e5b200ac8c7c3b92560405160405180910390a45050565b6000612b24826129f4565b612b63576040517f08c379a0000000000000000000000000000000000000000000000000000000008152600401612b5a90614dd1565b60405180910390fd5b6000612b6e836117dd565b90508073ffffffffffffffffffffffffffffffffffffffff168473ffffffffffffffffffffffffffffffffffffffff161480612bdd57508373ffffffffffffffffffffffffffffffffffffffff16612bc584610d1c565b73ffffffffffffffffffffffffffffffffffffffff16145b80612bee5750612bed8185612758565b5b91505092915050565b8273ffffffffffffffffffffffffffffffffffffffff16612c17826117dd565b73ffffffffffffffffffffffffffffffffffffffff1614612c6d576040517f08c379a0000000000000000000000000000000000000000000000000000000008152600401612c6490614d11565b60405180910390fd5b600073ffffffffffffffffffffffffffffffffffffffff168273ffffffffffffffffffffffffffffffffffffffff161415612cdd576040517f08c379a0000000000000000000000000000000000000000000000000000000008152600401612cd490614d71565b60405180910390fd5b612ce88383836135ee565b612cf3600082612a60565b6001600360008573ffffffffffffffffffffffffffffffffffffffff1673ffffffffffffffffffffffffffffffffffffffff1681526020019081526020016000206000828254612d439190615304565b925050819055506001600360008473ffffffffffffffffffffffffffffffffffffffff1673ffffffffffffffffffffffffffffffffffffffff1681526020019081526020016000206000828254612d9a9190615223565b92505081905550816002600083815260200190815260200160002060006101000a81548173ffffffffffffffffffffffffffffffffffffffff021916908373ffffffffffffffffffffffffffffffffffffffff160217905550808273ffffffffffffffffffffffffffffffffffffffff168473ffffffffffffffffffffffffffffffffffffffff167fddf252ad1be2c89b69c2b068fc378daa952ba7f163c4a11628f55a4df523b3ef60405160405180910390a4612e59838383613702565b505050565b600081600001549050919050565b6000600a60019054906101000a900473ffffffffffffffffffffffffffffffffffffffff16905081600a60016101000a81548173ffffffffffffffffffffffffffffffffffffffff021916908373ffffffffffffffffffffffffffffffffffffffff1602179055508173ffffffffffffffffffffffffffffffffffffffff168173ffffffffffffffffffffffffffffffffffffffff167f8be0079c531659141344cd1fd0a4f28419497f9722a3daafe3b4186f6b6457e060405160405180910390a35050565b6000612f3d826117dd565b9050612f4b816000846135ee565b612f56600083612a60565b6001600360008373ffffffffffffffffffffffffffffffffffffffff1673ffffffffffffffffffffffffffffffffffffffff1681526020019081526020016000206000828254612fa69190615304565b925050819055506002600083815260200190815260200160002060006101000a81549073ffffffffffffffffffffffffffffffffffffffff021916905581600073ffffffffffffffffffffffffffffffffffffffff168273ffffffffffffffffffffffffffffffffffffffff167fddf252ad1be2c89b69c2b068fc378daa952ba7f163c4a11628f55a4df523b3ef60405160405180910390a461304b81600084613702565b5050565b6130576117c6565b15613097576040517f08c379a000000000000000000000000000000000000000000000000000000000815260040161308e90614e11565b60405180910390fd5b6001600a60006101000a81548160ff0219169083151502179055507f62e78cea01bee320cd4e420270b5ea74000d11b0c9f74754ebdbfc544b05a2586130db6128e4565b6040516130e89190614b4b565b60405180910390a1565b6130fa6117c6565b613139576040517f08c379a000000000000000000000000000000000000000000000000000000000815260040161313090614c31565b60405180910390fd5b6000600a60006101000a81548160ff0219169083151502179055507f5db9ee0a495bf2e6ff9c91a7834c1ba4fdd244a5e8aa4e537bd38aeae4b073aa61317d6128e4565b60405161318a9190614b4b565b60405180910390a1565b8173ffffffffffffffffffffffffffffffffffffffff168373ffffffffffffffffffffffffffffffffffffffff161415613203576040517f08c379a00000000000000000000000000000000000000000000000000000000081526004016131fa90614d91565b60405180910390fd5b80600560008573ffffffffffffffffffffffffffffffffffffffff1673ffffffffffffffffffffffffffffffffffffffff16815260200190815260200160002060008473ffffffffffffffffffffffffffffffffffffffff1673ffffffffffffffffffffffffffffffffffffffff16815260200190815260200160002060006101000a81548160ff0219169083151502179055508173ffffffffffffffffffffffffffffffffffffffff168373ffffffffffffffffffffffffffffffffffffffff167f17307eab39ab6107e8899845ad3d59bd9653f200f220920489ca2b5937696c31836040516132f49190614bd4565b60405180910390a3505050565b61330c848484612bf7565b61331884848484613707565b613357576040517f08c379a000000000000000000000000000000000000000000000000000000000815260040161334e90614cb1565b60405180910390fd5b50505050565b60606015805461336c906153ee565b80601f0160208091040260200160405190810160405280929190818152602001828054613398906153ee565b80156133e55780601f106133ba576101008083540402835291602001916133e5565b820191906000526020600020905b8154815290600101906020018083116133c857829003601f168201915b5050505050905090565b60606000821415613437576040518060400160405280600181526020017f3000000000000000000000000000000000000000000000000000000000000000815250905061354b565b600082905060005b6000821461346957808061345290615451565b915050600a826134629190615279565b915061343f565b60008167ffffffffffffffff811115613485576134846155b6565b5b6040519080825280601f01601f1916602001820160405280156134b75781602001600182028036833780820191505090505b5090505b60008514613544576001826134d09190615304565b9150600a856134df919061549a565b60306134eb9190615223565b60f81b81838151811061350157613500615587565b5b60200101907effffffffffffffffffffffffffffffffffffffffffffffffffffffffffffff1916908160001a905350600a8561353d9190615279565b94506134bb565b8093505050505b919050565b6001816000016000828254019250508190555050565b61358082826040518060200160405280600081525061389e565b5050565b60007f01ffc9a7000000000000000000000000000000000000000000000000000000007bffffffffffffffffffffffffffffffffffffffffffffffffffffffff1916827bffffffffffffffffffffffffffffffffffffffffffffffffffffffff1916149050919050565b6135f98383836138f9565b600073ffffffffffffffffffffffffffffffffffffffff168373ffffffffffffffffffffffffffffffffffffffff16141561363c57613637816138fe565b61367b565b8173ffffffffffffffffffffffffffffffffffffffff168373ffffffffffffffffffffffffffffffffffffffff161461367a576136798382613947565b5b5b600073ffffffffffffffffffffffffffffffffffffffff168273ffffffffffffffffffffffffffffffffffffffff1614156136be576136b981613ab4565b6136fd565b8273ffffffffffffffffffffffffffffffffffffffff168273ffffffffffffffffffffffffffffffffffffffff16146136fc576136fb8282613b85565b5b5b505050565b505050565b60006137288473ffffffffffffffffffffffffffffffffffffffff16613c04565b15613891578373ffffffffffffffffffffffffffffffffffffffff1663150b7a026137516128e4565b8786866040518563ffffffff1660e01b81526004016137739493929190614b66565b602060405180830381600087803b15801561378d57600080fd5b505af19250505080156137be57506040513d601f19601f820116820180604052508101906137bb91906143ed565b60015b613841573d80600081146137ee576040519150601f19603f3d011682016040523d82523d6000602084013e6137f3565b606091505b50600081511415613839576040517f08c379a000000000000000000000000000000000000000000000000000000000815260040161383090614cb1565b60405180910390fd5b805181602001fd5b63150b7a0260e01b7bffffffffffffffffffffffffffffffffffffffffffffffffffffffff1916817bffffffffffffffffffffffffffffffffffffffffffffffffffffffff191614915050613896565b600190505b949350505050565b6138a88383613c27565b6138b56000848484613707565b6138f4576040517f08c379a00000000000000000000000000000000000000000000000000000000081526004016138eb90614cb1565b60405180910390fd5b505050565b505050565b6008805490506009600083815260200190815260200160002081905550600881908060018154018082558091505060019003906000526020600020016000909190919091505550565b600060016139548461198f565b61395e9190615304565b9050600060076000848152602001908152602001600020549050818114613a43576000600660008673ffffffffffffffffffffffffffffffffffffffff1673ffffffffffffffffffffffffffffffffffffffff168152602001908152602001600020600084815260200190815260200160002054905080600660008773ffffffffffffffffffffffffffffffffffffffff1673ffffffffffffffffffffffffffffffffffffffff168152602001908152602001600020600084815260200190815260200160002081905550816007600083815260200190815260200160002081905550505b6007600084815260200190815260200160002060009055600660008573ffffffffffffffffffffffffffffffffffffffff1673ffffffffffffffffffffffffffffffffffffffff16815260200190815260200160002060008381526020019081526020016000206000905550505050565b60006001600880549050613ac89190615304565b9050600060096000848152602001908152602001600020549050600060088381548110613af857613af7615587565b5b906000526020600020015490508060088381548110613b1a57613b19615587565b5b906000526020600020018190555081600960008381526020019081526020016000208190555060096000858152602001908152602001600020600090556008805480613b6957613b68615558565b5b6001900381819060005260206000200160009055905550505050565b6000613b908361198f565b905081600660008573ffffffffffffffffffffffffffffffffffffffff1673ffffffffffffffffffffffffffffffffffffffff168152602001908152602001600020600083815260200190815260200160002081905550806007600084815260200190815260200160002081905550505050565b6000808273ffffffffffffffffffffffffffffffffffffffff163b119050919050565b600073ffffffffffffffffffffffffffffffffffffffff168273ffffffffffffffffffffffffffffffffffffffff161415613c97576040517f08c379a0000000000000000000000000000000000000000000000000000000008152600401613c8e90614ed1565b60405180910390fd5b613ca0816129f4565b15613ce0576040517f08c379a0000000000000000000000000000000000000000000000000000000008152600401613cd790614d31565b60405180910390fd5b613cec600083836135ee565b6001600360008473ffffffffffffffffffffffffffffffffffffffff1673ffffffffffffffffffffffffffffffffffffffff1681526020019081526020016000206000828254613d3c9190615223565b92505081905550816002600083815260200190815260200160002060006101000a81548173ffffffffffffffffffffffffffffffffffffffff021916908373ffffffffffffffffffffffffffffffffffffffff160217905550808273ffffffffffffffffffffffffffffffffffffffff16600073ffffffffffffffffffffffffffffffffffffffff167fddf252ad1be2c89b69c2b068fc378daa952ba7f163c4a11628f55a4df523b3ef60405160405180910390a4613dfd60008383613702565b5050565b828054613e0d906153ee565b90600052602060002090601f016020900481019282613e2f5760008555613e76565b82601f10613e4857805160ff1916838001178555613e76565b82800160010185558215613e76579182015b82811115613e75578251825591602001919060010190613e5a565b5b509050613e839190613e87565b5090565b5b80821115613ea0576000816000905550600101613e88565b5090565b6000613eb7613eb2846150ba565b615095565b90508083825260208201905082856020860282011115613eda57613ed96155ea565b5b60005b85811015613f0a5781613ef08882614008565b845260208401935060208301925050600181019050613edd565b5050509392505050565b6000613f27613f22846150e6565b615095565b90508083825260208201905082856020860282011115613f4a57613f496155ea565b5b60005b85811015613f7a5781613f608882614129565b845260208401935060208301925050600181019050613f4d565b5050509392505050565b6000613f97613f9284615112565b615095565b905082815260208101848484011115613fb357613fb26155ef565b5b613fbe8482856153ac565b509392505050565b6000613fd9613fd484615143565b615095565b905082815260208101848484011115613ff557613ff46155ef565b5b6140008482856153ac565b509392505050565b60008135905061401781615ec5565b92915050565b60008151905061402c81615ec5565b92915050565b600082601f830112614047576140466155e5565b5b8135614057848260208601613ea4565b91505092915050565b600082601f830112614075576140746155e5565b5b8135614085848260208601613f14565b91505092915050565b60008135905061409d81615edc565b92915050565b6000813590506140b281615ef3565b92915050565b6000815190506140c781615ef3565b92915050565b600082601f8301126140e2576140e16155e5565b5b81356140f2848260208601613f84565b91505092915050565b600082601f8301126141105761410f6155e5565b5b8135614120848260208601613fc6565b91505092915050565b60008135905061413881615f0a565b92915050565b600060208284031215614154576141536155f9565b5b600061416284828501614008565b91505092915050565b600060208284031215614181576141806155f9565b5b600061418f8482850161401d565b91505092915050565b600080604083850312156141af576141ae6155f9565b5b60006141bd85828601614008565b92505060206141ce85828601614008565b9150509250929050565b6000806000606084860312156141f1576141f06155f9565b5b60006141ff86828701614008565b935050602061421086828701614008565b925050604061422186828701614129565b9150509250925092565b60008060008060808587031215614245576142446155f9565b5b600061425387828801614008565b945050602061426487828801614008565b935050604061427587828801614129565b925050606085013567ffffffffffffffff811115614296576142956155f4565b5b6142a2878288016140cd565b91505092959194509250565b600080604083850312156142c5576142c46155f9565b5b60006142d385828601614008565b92505060206142e48582860161408e565b9150509250929050565b60008060408385031215614305576143046155f9565b5b600061431385828601614008565b925050602061432485828601614129565b9150509250929050565b600060208284031215614344576143436155f9565b5b600082013567ffffffffffffffff811115614362576143616155f4565b5b61436e84828501614032565b91505092915050565b60006020828403121561438d5761438c6155f9565b5b600082013567ffffffffffffffff8111156143ab576143aa6155f4565b5b6143b784828501614060565b91505092915050565b6000602082840312156143d6576143d56155f9565b5b60006143e4848285016140a3565b91505092915050565b600060208284031215614403576144026155f9565b5b6000614411848285016140b8565b91505092915050565b6000602082840312156144305761442f6155f9565b5b600082013567ffffffffffffffff81111561444e5761444d6155f4565b5b61445a848285016140fb565b91505092915050565b600060208284031215614479576144786155f9565b5b600061448784828501614129565b91505092915050565b600061449c83836144cf565b60208301905092915050565b60006144b48383614af2565b60208301905092915050565b6144c981615338565b82525050565b6144d881615338565b82525050565b60006144e982615194565b6144f381856151da565b93506144fe83615174565b8060005b8381101561452f5781516145168882614490565b9750614521836151c0565b925050600181019050614502565b5085935050505092915050565b60006145478261519f565b61455181856151e5565b935061455c83615184565b8060005b8381101561458d57815161457488826144a8565b975061457f836151cd565b925050600181019050614560565b5085935050505092915050565b6145a38161534a565b82525050565b60006145b4826151aa565b6145be81856151f6565b93506145ce8185602086016153bb565b6145d7816155fe565b840191505092915050565b60006145ed826151b5565b6145f78185615207565b93506146078185602086016153bb565b614610816155fe565b840191505092915050565b6000614626826151b5565b6146308185615218565b93506146408185602086016153bb565b80840191505092915050565b6000614659602183615207565b91506146648261560f565b604082019050919050565b600061467c601483615207565b91506146878261565e565b602082019050919050565b600061469f600e83615207565b91506146aa82615687565b602082019050919050565b60006146c2603483615207565b91506146cd826156b0565b604082019050919050565b60006146e5602b83615207565b91506146f0826156ff565b604082019050919050565b6000614708603283615207565b91506147138261574e565b604082019050919050565b600061472b602283615207565b91506147368261579d565b604082019050919050565b600061474e602683615207565b9150614759826157ec565b604082019050919050565b6000614771602583615207565b915061477c8261583b565b604082019050919050565b6000614794601c83615207565b915061479f8261588a565b602082019050919050565b60006147b7601a83615207565b91506147c2826158b3565b602082019050919050565b60006147da602483615207565b91506147e5826158dc565b604082019050919050565b60006147fd601983615207565b91506148088261592b565b602082019050919050565b6000614820602e83615207565b915061482b82615954565b604082019050919050565b6000614843602c83615207565b915061484e826159a3565b604082019050919050565b6000614866603183615207565b9150614871826159f2565b604082019050919050565b6000614889601083615207565b915061489482615a41565b602082019050919050565b60006148ac602d83615207565b91506148b782615a6a565b604082019050919050565b60006148cf603883615207565b91506148da82615ab9565b604082019050919050565b60006148f2602a83615207565b91506148fd82615b08565b604082019050919050565b6000614915602983615207565b915061492082615b57565b604082019050919050565b6000614938601c83615207565b915061494382615ba6565b602082019050919050565b600061495b602083615207565b915061496682615bcf565b602082019050919050565b600061497e601583615207565b915061498982615bf8565b602082019050919050565b60006149a1602c83615207565b91506149ac82615c21565b604082019050919050565b60006149c4602083615207565b91506149cf82615c70565b602082019050919050565b60006149e7602f83615207565b91506149f282615c99565b604082019050919050565b6000614a0a602183615207565b9150614a1582615ce8565b604082019050919050565b6000614a2d602583615207565b9150614a3882615d37565b604082019050919050565b6000614a50600f83615207565b9150614a5b82615d86565b602082019050919050565b6000614a73603183615207565b9150614a7e82615daf565b604082019050919050565b6000614a96602c83615207565b9150614aa182615dfe565b604082019050919050565b6000614ab9602183615207565b9150614ac482615e4d565b604082019050919050565b6000614adc601a83615207565b9150614ae782615e9c565b602082019050919050565b614afb816153a2565b82525050565b614b0a816153a2565b82525050565b6000614b1c82846144de565b915081905092915050565b6000614b33828561461b565b9150614b3f828461461b565b91508190509392505050565b6000602082019050614b6060008301846144c0565b92915050565b6000608082019050614b7b60008301876144c0565b614b8860208301866144c0565b614b956040830185614b01565b8181036060830152614ba781846145a9565b905095945050505050565b60006020820190508181036000830152614bcc818461453c565b905092915050565b6000602082019050614be9600083018461459a565b92915050565b60006020820190508181036000830152614c0981846145e2565b905092915050565b60006020820190508181036000830152614c2a8161464c565b9050919050565b60006020820190508181036000830152614c4a8161466f565b9050919050565b60006020820190508181036000830152614c6a81614692565b9050919050565b60006020820190508181036000830152614c8a816146b5565b9050919050565b60006020820190508181036000830152614caa816146d8565b9050919050565b60006020820190508181036000830152614cca816146fb565b9050919050565b60006020820190508181036000830152614cea8161471e565b9050919050565b60006020820190508181036000830152614d0a81614741565b9050919050565b60006020820190508181036000830152614d2a81614764565b9050919050565b60006020820190508181036000830152614d4a81614787565b9050919050565b60006020820190508181036000830152614d6a816147aa565b9050919050565b60006020820190508181036000830152614d8a816147cd565b9050919050565b60006020820190508181036000830152614daa816147f0565b9050919050565b60006020820190508181036000830152614dca81614813565b9050919050565b60006020820190508181036000830152614dea81614836565b9050919050565b60006020820190508181036000830152614e0a81614859565b9050919050565b60006020820190508181036000830152614e2a8161487c565b9050919050565b60006020820190508181036000830152614e4a8161489f565b9050919050565b60006020820190508181036000830152614e6a816148c2565b9050919050565b60006020820190508181036000830152614e8a816148e5565b9050919050565b60006020820190508181036000830152614eaa81614908565b9050919050565b60006020820190508181036000830152614eca8161492b565b9050919050565b60006020820190508181036000830152614eea8161494e565b9050919050565b60006020820190508181036000830152614f0a81614971565b9050919050565b60006020820190508181036000830152614f2a81614994565b9050919050565b60006020820190508181036000830152614f4a816149b7565b9050919050565b60006020820190508181036000830152614f6a816149da565b9050919050565b60006020820190508181036000830152614f8a816149fd565b9050919050565b60006020820190508181036000830152614faa81614a20565b9050919050565b60006020820190508181036000830152614fca81614a43565b9050919050565b60006020820190508181036000830152614fea81614a66565b9050919050565b6000602082019050818103600083015261500a81614a89565b9050919050565b6000602082019050818103600083015261502a81614aac565b9050919050565b6000602082019050818103600083015261504a81614acf565b9050919050565b60006020820190506150666000830184614b01565b92915050565b60006040820190506150816000830185614b01565b61508e6020830184614b01565b9392505050565b600061509f6150b0565b90506150ab8282615420565b919050565b6000604051905090565b600067ffffffffffffffff8211156150d5576150d46155b6565b5b602082029050602081019050919050565b600067ffffffffffffffff821115615101576151006155b6565b5b602082029050602081019050919050565b600067ffffffffffffffff82111561512d5761512c6155b6565b5b615136826155fe565b9050602081019050919050565b600067ffffffffffffffff82111561515e5761515d6155b6565b5b615167826155fe565b9050602081019050919050565b6000819050602082019050919050565b6000819050602082019050919050565b600081519050919050565b600081519050919050565b600081519050919050565b600081519050919050565b6000602082019050919050565b6000602082019050919050565b600081905092915050565b600082825260208201905092915050565b600082825260208201905092915050565b600082825260208201905092915050565b600081905092915050565b600061522e826153a2565b9150615239836153a2565b9250827fffffffffffffffffffffffffffffffffffffffffffffffffffffffffffffffff0382111561526e5761526d6154cb565b5b828201905092915050565b6000615284826153a2565b915061528f836153a2565b92508261529f5761529e6154fa565b5b828204905092915050565b60006152b5826153a2565b91506152c0836153a2565b9250817fffffffffffffffffffffffffffffffffffffffffffffffffffffffffffffffff04831182151516156152f9576152f86154cb565b5b828202905092915050565b600061530f826153a2565b915061531a836153a2565b92508282101561532d5761532c6154cb565b5b828203905092915050565b600061534382615382565b9050919050565b60008115159050919050565b60007fffffffff0000000000000000000000000000000000000000000000000000000082169050919050565b600073ffffffffffffffffffffffffffffffffffffffff82169050919050565b6000819050919050565b82818337600083830152505050565b60005b838110156153d95780820151818401526020810190506153be565b838111156153e8576000848401525b50505050565b6000600282049050600182168061540657607f821691505b6020821081141561541a57615419615529565b5b50919050565b615429826155fe565b810181811067ffffffffffffffff82111715615448576154476155b6565b5b80604052505050565b600061545c826153a2565b91507fffffffffffffffffffffffffffffffffffffffffffffffffffffffffffffffff82141561548f5761548e6154cb565b5b600182019050919050565b60006154a5826153a2565b91506154b0836153a2565b9250826154c0576154bf6154fa565b5b828206905092915050565b7f4e487b7100000000000000000000000000000000000000000000000000000000600052601160045260246000fd5b7f4e487b7100000000000000000000000000000000000000000000000000000000600052601260045260246000fd5b7f4e487b7100000000000000000000000000000000000000000000000000000000600052602260045260246000fd5b7f4e487b7100000000000000000000000000000000000000000000000000000000600052603160045260246000fd5b7f4e487b7100000000000000000000000000000000000000000000000000000000600052603260045260246000fd5b7f4e487b7100000000000000000000000000000000000000000000000000000000600052604160045260246000fd5b600080fd5b600080fd5b600080fd5b600080fd5b600080fd5b6000601f19601f8301169050919050565b7f636c61696d3a20546f6b656e20686173206265656e2075736564206265666f7260008201527f6500000000000000000000000000000000000000000000000000000000000000602082015250565b7f5061757361626c653a206e6f7420706175736564000000000000000000000000600082015250565b7f6d696e743a20736f6c64206f7574000000000000000000000000000000000000600082015250565b7f757064617465546f74616c537570706c793a206e657720737570706c79206d7560008201527f73742062652067726561746572207468616e2030000000000000000000000000602082015250565b7f455243373231456e756d657261626c653a206f776e657220696e646578206f7560008201527f74206f6620626f756e6473000000000000000000000000000000000000000000602082015250565b7f4552433732313a207472616e7366657220746f206e6f6e20455243373231526560008201527f63656976657220696d706c656d656e7465720000000000000000000000000000602082015250565b7f6d696e743a2063616e206f6e6c79206d696e742031302070657220736573736960008201527f6f6e000000000000000000000000000000000000000000000000000000000000602082015250565b7f4f776e61626c653a206e6577206f776e657220697320746865207a65726f206160008201527f6464726573730000000000000000000000000000000000000000000000000000602082015250565b7f4552433732313a207472616e736665722066726f6d20696e636f72726563742060008201527f6f776e6572000000000000000000000000000000000000000000000000000000602082015250565b7f4552433732313a20746f6b656e20616c7265616479206d696e74656400000000600082015250565b7f6d696e743a2063616e2774206d696e742074686174206d616e79000000000000600082015250565b7f4552433732313a207472616e7366657220746f20746865207a65726f2061646460008201527f7265737300000000000000000000000000000000000000000000000000000000602082015250565b7f4552433732313a20617070726f766520746f2063616c6c657200000000000000600082015250565b7f636c61696d3a204d757374206f776e2074686520537570657254726f6f70722060008201527f7573656420666f7220636c61696d000000000000000000000000000000000000602082015250565b7f4552433732313a206f70657261746f7220717565727920666f72206e6f6e657860008201527f697374656e7420746f6b656e0000000000000000000000000000000000000000602082015250565b7f455243373231204275726e61626c653a2063616c6c6572206973206e6f74206f60008201527f776e6572206e6f7220617070726f766564000000000000000000000000000000602082015250565b7f5061757361626c653a2070617573656400000000000000000000000000000000600082015250565b7f75706461746550726963653a206e6577207072696365206d757374206265206760008201527f726561746572207468616e203000000000000000000000000000000000000000602082015250565b7f4552433732313a20617070726f76652063616c6c6572206973206e6f74206f7760008201527f6e6572206e6f7220617070726f76656420666f7220616c6c0000000000000000602082015250565b7f4552433732313a2062616c616e636520717565727920666f7220746865207a6560008201527f726f206164647265737300000000000000000000000000000000000000000000602082015250565b7f4552433732313a206f776e657220717565727920666f72206e6f6e657869737460008201527f656e7420746f6b656e0000000000000000000000000000000000000000000000602082015250565b7f6d696e743a206e65656420746f206d696e742061746c65617374203100000000600082015250565b7f4552433732313a206d696e7420746f20746865207a65726f2061646472657373600082015250565b7f6d696e743a206d696e74206e6f74206163746976650000000000000000000000600082015250565b7f4552433732313a20617070726f76656420717565727920666f72206e6f6e657860008201527f697374656e7420746f6b656e0000000000000000000000000000000000000000602082015250565b7f4f776e61626c653a2063616c6c6572206973206e6f7420746865206f776e6572600082015250565b7f4552433732314d657461646174613a2055524920717565727920666f72206e6f60008201527f6e6578697374656e7420746f6b656e0000000000000000000000000000000000602082015250565b7f4552433732313a20617070726f76616c20746f2063757272656e74206f776e6560008201527f7200000000000000000000000000000000000000000000000000000000000000602082015250565b7f61697244726f703a206e6565642061646472657373657320746f20616972647260008201527f6f7020746f000000000000000000000000000000000000000000000000000000602082015250565b7f636c61696d3a20736f6c64206f75740000000000000000000000000000000000600082015250565b7f4552433732313a207472616e736665722063616c6c6572206973206e6f74206f60008201527f776e6572206e6f7220617070726f766564000000000000000000000000000000602082015250565b7f455243373231456e756d657261626c653a20676c6f62616c20696e646578206f60008201527f7574206f6620626f756e64730000000000000000000000000000000000000000602082015250565b7f4e6f7420656e6f7567682043524f2073656e743b20636865636b20707269636560008201527f2100000000000000000000000000000000000000000000000000000000000000602082015250565b7f636c61696d3a20636c61696d206973206e6f7420616374697665000000000000600082015250565b615ece81615338565b8114615ed957600080fd5b50565b615ee58161534a565b8114615ef057600080fd5b50565b615efc81615356565b8114615f0757600080fd5b50565b615f13816153a2565b8114615f1e57600080fd5b5056fea2646970667358221220b85387fa3f7e71aa245146ba0b0a6cd4284a667959d8212aa8fd82bc0a5860ec64736f6c63430008070033",
  "linkReferences": {},
  "deployedLinkReferences": {}
}