{
  "_format": "hh-sol-artifact-1",
  "contractName": "Microbes",
  "sourceName": "contracts/Microbes.sol",
  "abi": [
    {
      "inputs": [],
      "stateMutability": "nonpayable",
      "type": "constructor"
    },
    {
      "anonymous": false,
      "inputs": [
        {
          "indexed": true,
          "internalType": "address[]",
          "name": "addrs",
          "type": "address[]"
        }
      ],
      "name": "AirDrop",
      "type": "event"
    },
    {
      "anonymous": false,
      "inputs": [
        {
          "indexed": true,
          "internalType": "address",
          "name": "owner",
          "type": "address"
        },
        {
          "indexed": true,
          "internalType": "address",
          "name": "approved",
          "type": "address"
        },
        {
          "indexed": true,
          "internalType": "uint256",
          "name": "tokenId",
          "type": "uint256"
        }
      ],
      "name": "Approval",
      "type": "event"
    },
    {
      "anonymous": false,
      "inputs": [
        {
          "indexed": true,
          "internalType": "address",
          "name": "owner",
          "type": "address"
        },
        {
          "indexed": true,
          "internalType": "address",
          "name": "operator",
          "type": "address"
        },
        {
          "indexed": false,
          "internalType": "bool",
          "name": "approved",
          "type": "bool"
        }
      ],
      "name": "ApprovalForAll",
      "type": "event"
    },
    {
      "anonymous": false,
      "inputs": [
        {
          "indexed": false,
          "internalType": "uint256",
          "name": "tokenID",
          "type": "uint256"
        }
      ],
      "name": "BurnToken",
      "type": "event"
    },
    {
      "anonymous": false,
      "inputs": [
        {
          "indexed": true,
          "internalType": "address",
          "name": "addr",
          "type": "address"
        },
        {
          "indexed": false,
          "internalType": "uint256",
          "name": "id",
          "type": "uint256"
        }
      ],
      "name": "Claim",
      "type": "event"
    },
    {
      "anonymous": false,
      "inputs": [
        {
          "indexed": true,
          "internalType": "address",
          "name": "addr",
          "type": "address"
        },
        {
          "indexed": false,
          "internalType": "uint256[]",
          "name": "id",
          "type": "uint256[]"
        }
      ],
      "name": "ClaimAll",
      "type": "event"
    },
    {
      "anonymous": false,
      "inputs": [
        {
          "indexed": true,
          "internalType": "address",
          "name": "addr",
          "type": "address"
        },
        {
          "indexed": false,
          "internalType": "uint256",
          "name": "amount",
          "type": "uint256"
        },
        {
          "indexed": false,
          "internalType": "uint256",
          "name": "price",
          "type": "uint256"
        }
      ],
      "name": "Mint",
      "type": "event"
    },
    {
      "anonymous": false,
      "inputs": [
        {
          "indexed": true,
          "internalType": "address",
          "name": "previousOwner",
          "type": "address"
        },
        {
          "indexed": true,
          "internalType": "address",
          "name": "newOwner",
          "type": "address"
        }
      ],
      "name": "OwnershipTransferred",
      "type": "event"
    },
    {
      "anonymous": false,
      "inputs": [
        {
          "indexed": false,
          "internalType": "address",
          "name": "account",
          "type": "address"
        }
      ],
      "name": "Paused",
      "type": "event"
    },
    {
      "anonymous": false,
      "inputs": [
        {
          "indexed": false,
          "internalType": "string",
          "name": "newURI",
          "type": "string"
        }
      ],
      "name": "SetBaseURI",
      "type": "event"
    },
    {
      "anonymous": false,
      "inputs": [
        {
          "indexed": false,
          "internalType": "bool",
          "name": "claimActive",
          "type": "bool"
        }
      ],
      "name": "ToggleClaimActive",
      "type": "event"
    },
    {
      "anonymous": false,
      "inputs": [
        {
          "indexed": false,
          "internalType": "bool",
          "name": "mint1Active",
          "type": "bool"
        }
      ],
      "name": "ToggleMintActive",
      "type": "event"
    },
    {
      "anonymous": false,
      "inputs": [
        {
          "indexed": false,
          "internalType": "bool",
          "name": "paused",
          "type": "bool"
        }
      ],
      "name": "ToggleTransferPause",
      "type": "event"
    },
    {
      "anonymous": false,
      "inputs": [
        {
          "indexed": true,
          "internalType": "address",
          "name": "from",
          "type": "address"
        },
        {
          "indexed": true,
          "internalType": "address",
          "name": "to",
          "type": "address"
        },
        {
          "indexed": true,
          "internalType": "uint256",
          "name": "tokenId",
          "type": "uint256"
        }
      ],
      "name": "Transfer",
      "type": "event"
    },
    {
      "anonymous": false,
      "inputs": [
        {
          "indexed": false,
          "internalType": "address",
          "name": "account",
          "type": "address"
        }
      ],
      "name": "Unpaused",
      "type": "event"
    },
    {
      "anonymous": false,
      "inputs": [
        {
          "indexed": false,
          "internalType": "uint256",
          "name": "newPrice",
          "type": "uint256"
        }
      ],
      "name": "UpdatePrice",
      "type": "event"
    },
    {
      "anonymous": false,
      "inputs": [
        {
          "indexed": false,
          "internalType": "uint256",
          "name": "newMax",
          "type": "uint256"
        }
      ],
      "name": "UpdateTotalSupply",
      "type": "event"
    },
    {
      "anonymous": false,
      "inputs": [
        {
          "indexed": false,
          "internalType": "uint256",
          "name": "amount",
          "type": "uint256"
        }
      ],
      "name": "Withdraw",
      "type": "event"
    },
    {
      "inputs": [
        {
          "internalType": "uint256",
          "name": "",
          "type": "uint256"
        }
      ],
      "name": "TokenIds",
      "outputs": [
        {
          "internalType": "bool",
          "name": "",
          "type": "bool"
        }
      ],
      "stateMutability": "view",
      "type": "function"
    },
    {
      "inputs": [],
      "name": "_claimActive",
      "outputs": [
        {
          "internalType": "bool",
          "name": "",
          "type": "bool"
        }
      ],
      "stateMutability": "view",
      "type": "function"
    },
    {
      "inputs": [
        {
          "internalType": "address",
          "name": "",
          "type": "address"
        }
      ],
      "name": "_claimCount",
      "outputs": [
        {
          "internalType": "uint256",
          "name": "",
          "type": "uint256"
        }
      ],
      "stateMutability": "view",
      "type": "function"
    },
    {
      "inputs": [],
      "name": "_maxAmountPerClaim",
      "outputs": [
        {
          "internalType": "uint256",
          "name": "",
          "type": "uint256"
        }
      ],
      "stateMutability": "view",
      "type": "function"
    },
    {
      "inputs": [],
      "name": "_maxMint",
      "outputs": [
        {
          "internalType": "uint256",
          "name": "",
          "type": "uint256"
        }
      ],
      "stateMutability": "view",
      "type": "function"
    },
    {
      "inputs": [],
      "name": "_mintActive",
      "outputs": [
        {
          "internalType": "bool",
          "name": "",
          "type": "bool"
        }
      ],
      "stateMutability": "view",
      "type": "function"
    },
    {
      "inputs": [
        {
          "internalType": "address",
          "name": "",
          "type": "address"
        }
      ],
      "name": "_mintCount",
      "outputs": [
        {
          "internalType": "uint256",
          "name": "",
          "type": "uint256"
        }
      ],
      "stateMutability": "view",
      "type": "function"
    },
    {
      "inputs": [],
      "name": "_prefixURI",
      "outputs": [
        {
          "internalType": "string",
          "name": "",
          "type": "string"
        }
      ],
      "stateMutability": "view",
      "type": "function"
    },
    {
      "inputs": [],
      "name": "_price",
      "outputs": [
        {
          "internalType": "uint256",
          "name": "",
          "type": "uint256"
        }
      ],
      "stateMutability": "view",
      "type": "function"
    },
    {
      "inputs": [],
      "name": "_totalSupply",
      "outputs": [
        {
          "internalType": "uint256",
          "name": "",
          "type": "uint256"
        }
      ],
      "stateMutability": "view",
      "type": "function"
    },
    {
      "inputs": [
        {
          "internalType": "address[]",
          "name": "addrs",
          "type": "address[]"
        }
      ],
      "name": "airDrop",
      "outputs": [],
      "stateMutability": "nonpayable",
      "type": "function"
    },
    {
      "inputs": [
        {
          "internalType": "address",
          "name": "to",
          "type": "address"
        },
        {
          "internalType": "uint256",
          "name": "tokenId",
          "type": "uint256"
        }
      ],
      "name": "approve",
      "outputs": [],
      "stateMutability": "nonpayable",
      "type": "function"
    },
    {
      "inputs": [
        {
          "internalType": "address",
          "name": "owner",
          "type": "address"
        }
      ],
      "name": "balanceOf",
      "outputs": [
        {
          "internalType": "uint256",
          "name": "",
          "type": "uint256"
        }
      ],
      "stateMutability": "view",
      "type": "function"
    },
    {
      "inputs": [
        {
          "internalType": "uint256",
          "name": "tokenId",
          "type": "uint256"
        }
      ],
      "name": "burnToken",
      "outputs": [],
      "stateMutability": "nonpayable",
      "type": "function"
    },
    {
      "inputs": [
        {
          "internalType": "uint256",
          "name": "_tokenId",
          "type": "uint256"
        }
      ],
      "name": "checkIfCallerIsOwnerOfToken",
      "outputs": [
        {
          "internalType": "bool",
          "name": "",
          "type": "bool"
        }
      ],
      "stateMutability": "view",
      "type": "function"
    },
    {
      "inputs": [
        {
          "internalType": "uint256",
          "name": "_tokenId",
          "type": "uint256"
        }
      ],
      "name": "checkIfTokenUsedBefore",
      "outputs": [
        {
          "internalType": "bool",
          "name": "",
          "type": "bool"
        }
      ],
      "stateMutability": "view",
      "type": "function"
    },
    {
      "inputs": [
        {
          "internalType": "uint256",
          "name": "id",
          "type": "uint256"
        }
      ],
      "name": "claim",
      "outputs": [],
      "stateMutability": "nonpayable",
      "type": "function"
    },
    {
      "inputs": [
        {
          "internalType": "uint256[]",
          "name": "id",
          "type": "uint256[]"
        }
      ],
      "name": "claimAll",
      "outputs": [],
      "stateMutability": "nonpayable",
      "type": "function"
    },
    {
      "inputs": [
        {
          "internalType": "uint256",
          "name": "_tokenId",
          "type": "uint256"
        }
      ],
      "name": "deleteFromList",
      "outputs": [],
      "stateMutability": "nonpayable",
      "type": "function"
    },
    {
      "inputs": [
        {
          "internalType": "uint256",
          "name": "tokenId",
          "type": "uint256"
        }
      ],
      "name": "getApproved",
      "outputs": [
        {
          "internalType": "address",
          "name": "",
          "type": "address"
        }
      ],
      "stateMutability": "view",
      "type": "function"
    },
    {
      "inputs": [
        {
          "internalType": "address",
          "name": "owner",
          "type": "address"
        },
        {
          "internalType": "address",
          "name": "operator",
          "type": "address"
        }
      ],
      "name": "isApprovedForAll",
      "outputs": [
        {
          "internalType": "bool",
          "name": "",
          "type": "bool"
        }
      ],
      "stateMutability": "view",
      "type": "function"
    },
    {
      "inputs": [
        {
          "internalType": "uint256",
          "name": "amount",
          "type": "uint256"
        }
      ],
      "name": "mint",
      "outputs": [],
      "stateMutability": "payable",
      "type": "function"
    },
    {
      "inputs": [],
      "name": "name",
      "outputs": [
        {
          "internalType": "string",
          "name": "",
          "type": "string"
        }
      ],
      "stateMutability": "view",
      "type": "function"
    },
    {
      "inputs": [],
      "name": "owner",
      "outputs": [
        {
          "internalType": "address",
          "name": "",
          "type": "address"
        }
      ],
      "stateMutability": "view",
      "type": "function"
    },
    {
      "inputs": [
        {
          "internalType": "uint256",
          "name": "tokenId",
          "type": "uint256"
        }
      ],
      "name": "ownerOf",
      "outputs": [
        {
          "internalType": "address",
          "name": "",
          "type": "address"
        }
      ],
      "stateMutability": "view",
      "type": "function"
    },
    {
      "inputs": [],
      "name": "paused",
      "outputs": [
        {
          "internalType": "bool",
          "name": "",
          "type": "bool"
        }
      ],
      "stateMutability": "view",
      "type": "function"
    },
    {
      "inputs": [],
      "name": "renounceOwnership",
      "outputs": [],
      "stateMutability": "nonpayable",
      "type": "function"
    },
    {
      "inputs": [
        {
          "internalType": "address",
          "name": "from",
          "type": "address"
        },
        {
          "internalType": "address",
          "name": "to",
          "type": "address"
        },
        {
          "internalType": "uint256",
          "name": "tokenId",
          "type": "uint256"
        }
      ],
      "name": "safeTransferFrom",
      "outputs": [],
      "stateMutability": "nonpayable",
      "type": "function"
    },
    {
      "inputs": [
        {
          "internalType": "address",
          "name": "from",
          "type": "address"
        },
        {
          "internalType": "address",
          "name": "to",
          "type": "address"
        },
        {
          "internalType": "uint256",
          "name": "tokenId",
          "type": "uint256"
        },
        {
          "internalType": "bytes",
          "name": "_data",
          "type": "bytes"
        }
      ],
      "name": "safeTransferFrom",
      "outputs": [],
      "stateMutability": "nonpayable",
      "type": "function"
    },
    {
      "inputs": [
        {
          "internalType": "address",
          "name": "operator",
          "type": "address"
        },
        {
          "internalType": "bool",
          "name": "approved",
          "type": "bool"
        }
      ],
      "name": "setApprovalForAll",
      "outputs": [],
      "stateMutability": "nonpayable",
      "type": "function"
    },
    {
      "inputs": [
        {
          "internalType": "string",
          "name": "_uri",
          "type": "string"
        }
      ],
      "name": "setBaseURI",
      "outputs": [],
      "stateMutability": "nonpayable",
      "type": "function"
    },
    {
      "inputs": [
        {
          "internalType": "bytes4",
          "name": "interfaceId",
          "type": "bytes4"
        }
      ],
      "name": "supportsInterface",
      "outputs": [
        {
          "internalType": "bool",
          "name": "",
          "type": "bool"
        }
      ],
      "stateMutability": "view",
      "type": "function"
    },
    {
      "inputs": [],
      "name": "symbol",
      "outputs": [
        {
          "internalType": "string",
          "name": "",
          "type": "string"
        }
      ],
      "stateMutability": "view",
      "type": "function"
    },
    {
      "inputs": [],
      "name": "toggleClaimActive",
      "outputs": [],
      "stateMutability": "nonpayable",
      "type": "function"
    },
    {
      "inputs": [],
      "name": "toggleMintActive",
      "outputs": [],
      "stateMutability": "nonpayable",
      "type": "function"
    },
    {
      "inputs": [],
      "name": "toggleTransferPause",
      "outputs": [],
      "stateMutability": "nonpayable",
      "type": "function"
    },
    {
      "inputs": [
        {
          "internalType": "uint256",
          "name": "index",
          "type": "uint256"
        }
      ],
      "name": "tokenByIndex",
      "outputs": [
        {
          "internalType": "uint256",
          "name": "",
          "type": "uint256"
        }
      ],
      "stateMutability": "view",
      "type": "function"
    },
    {
      "inputs": [
        {
          "internalType": "address",
          "name": "owner",
          "type": "address"
        },
        {
          "internalType": "uint256",
          "name": "index",
          "type": "uint256"
        }
      ],
      "name": "tokenOfOwnerByIndex",
      "outputs": [
        {
          "internalType": "uint256",
          "name": "",
          "type": "uint256"
        }
      ],
      "stateMutability": "view",
      "type": "function"
    },
    {
      "inputs": [
        {
          "internalType": "uint256",
          "name": "tokenId",
          "type": "uint256"
        }
      ],
      "name": "tokenURI",
      "outputs": [
        {
          "internalType": "string",
          "name": "",
          "type": "string"
        }
      ],
      "stateMutability": "view",
      "type": "function"
    },
    {
      "inputs": [],
      "name": "totalSupply",
      "outputs": [
        {
          "internalType": "uint256",
          "name": "",
          "type": "uint256"
        }
      ],
      "stateMutability": "view",
      "type": "function"
    },
    {
      "inputs": [
        {
          "internalType": "address",
          "name": "from",
          "type": "address"
        },
        {
          "internalType": "address",
          "name": "to",
          "type": "address"
        },
        {
          "internalType": "uint256",
          "name": "tokenId",
          "type": "uint256"
        }
      ],
      "name": "transferFrom",
      "outputs": [],
      "stateMutability": "nonpayable",
      "type": "function"
    },
    {
      "inputs": [
        {
          "internalType": "address",
          "name": "newOwner",
          "type": "address"
        }
      ],
      "name": "transferOwnership",
      "outputs": [],
      "stateMutability": "nonpayable",
      "type": "function"
    },
    {
      "inputs": [
        {
          "internalType": "uint256",
          "name": "newMax",
          "type": "uint256"
        }
      ],
      "name": "updateMaxMint",
      "outputs": [],
      "stateMutability": "nonpayable",
      "type": "function"
    },
    {
      "inputs": [
        {
          "internalType": "uint256",
          "name": "newPrice",
          "type": "uint256"
        }
      ],
      "name": "updatePrice",
      "outputs": [],
      "stateMutability": "nonpayable",
      "type": "function"
    },
    {
      "inputs": [
        {
          "internalType": "uint256",
          "name": "newSupply",
          "type": "uint256"
        }
      ],
      "name": "updateTotalSupply",
      "outputs": [],
      "stateMutability": "nonpayable",
      "type": "function"
    },
    {
      "inputs": [],
      "name": "withdraw",
      "outputs": [],
      "stateMutability": "nonpayable",
      "type": "function"
    }
  ],
  "bytecode": "0x608060405261201e600d556806c6b935b8bbd40000600e556000601260006101000a81548160ff0219169083151502179055506000601260016101000a81548160ff021916908315150217905550600a60135560026014553480156200006457600080fd5b506040518060400160405280600881526020017f4d6963726f6265730000000000000000000000000000000000000000000000008152506040518060400160405280600581526020017f4d435242530000000000000000000000000000000000000000000000000000008152508160009080519060200190620000e992919062000269565b5080600190805190602001906200010292919062000269565b5050506000600a60006101000a81548160ff02191690831515021790555062000140620001346200019b60201b60201c565b620001a360201b60201c565b73ea4df145322ec9dfce037b062b08083141c6af8f600b60006101000a81548173ffffffffffffffffffffffffffffffffffffffff021916908373ffffffffffffffffffffffffffffffffffffffff1602179055506200037e565b600033905090565b6000600a60019054906101000a900473ffffffffffffffffffffffffffffffffffffffff16905081600a60016101000a81548173ffffffffffffffffffffffffffffffffffffffff021916908373ffffffffffffffffffffffffffffffffffffffff1602179055508173ffffffffffffffffffffffffffffffffffffffff168173ffffffffffffffffffffffffffffffffffffffff167f8be0079c531659141344cd1fd0a4f28419497f9722a3daafe3b4186f6b6457e060405160405180910390a35050565b828054620002779062000319565b90600052602060002090601f0160209004810192826200029b5760008555620002e7565b82601f10620002b657805160ff1916838001178555620002e7565b82800160010185558215620002e7579182015b82811115620002e6578251825591602001919060010190620002c9565b5b509050620002f69190620002fa565b5090565b5b8082111562000315576000816000905550600101620002fb565b5090565b600060028204905060018216806200033257607f821691505b602082108114156200034957620003486200034f565b5b50919050565b7f4e487b7100000000000000000000000000000000000000000000000000000000600052602260045260246000fd5b615da0806200038e6000396000f3fe60806040526004361061027c5760003560e01c806366d49bab1161014f578063a22cb465116100c1578063c5eddc1e1161007a578063c5eddc1e14610974578063c87b56dd146109b1578063d02c2bf2146109ee578063e6c6df5914610a05578063e985e9c514610a2e578063f2fde38b14610a6b5761027c565b8063a22cb4651461087a578063b640392c146108a3578063b88d4fde146108ce578063b99bace8146108f7578063ba4a73031461090e578063beb81b94146109375761027c565b80638da5cb5b116101135780638da5cb5b1461079b57806391860f78146107c657806395d89b41146107f15780639752a0171461081c5780639ef4b9aa14610833578063a0712d681461085e5761027c565b806366d49bab146106cc57806370a08231146106f5578063715018a6146107325780637b47ec1a146107495780638d6cc56d146107725761027c565b8063288ee646116101f35780633eaaf86b116101ac5780633eaaf86b146105aa57806342842e0e146105d55780634f6ccce7146105fe57806355f804b31461063b5780635c975abb146106645780636352211e1461068f5761027c565b8063288ee6461461048a57806328c77820146104c75780632f745c59146104f0578063379607f51461052d57806338368ced146105565780633ccfd60b146105935761027c565b8063137e7c4911610245578063137e7c491461037857806318160ddd146103b55780631cdf72c9146103e0578063235b6ea11461040b57806323b872dd1461043657806326e1565c1461045f5761027c565b8062b6849f1461028157806301ffc9a7146102aa57806306fdde03146102e7578063081812fc14610312578063095ea7b31461034f575b600080fd5b34801561028d57600080fd5b506102a860048036038101906102a391906142a1565b610a94565b005b3480156102b657600080fd5b506102d160048036038101906102cc9190614333565b610bdc565b6040516102de9190614b24565b60405180910390f35b3480156102f357600080fd5b506102fc610c56565b6040516103099190614b3f565b60405180910390f35b34801561031e57600080fd5b50610339600480360381019061033491906143d6565b610ce8565b6040516103469190614a9b565b60405180910390f35b34801561035b57600080fd5b5061037660048036038101906103719190614261565b610d6d565b005b34801561038457600080fd5b5061039f600480360381019061039a91906143d6565b610e85565b6040516103ac9190614b24565b60405180910390f35b3480156103c157600080fd5b506103ca610eaf565b6040516103d79190614f81565b60405180910390f35b3480156103ec57600080fd5b506103f5610ebc565b6040516104029190614b24565b60405180910390f35b34801561041757600080fd5b50610420610ecf565b60405161042d9190614f81565b60405180910390f35b34801561044257600080fd5b5061045d6004803603810190610458919061414b565b610ed5565b005b34801561046b57600080fd5b50610474610f35565b6040516104819190614f81565b60405180910390f35b34801561049657600080fd5b506104b160048036038101906104ac91906140b1565b610f3b565b6040516104be9190614f81565b60405180910390f35b3480156104d357600080fd5b506104ee60048036038101906104e991906142ea565b610f53565b005b3480156104fc57600080fd5b5061051760048036038101906105129190614261565b611244565b6040516105249190614f81565b60405180910390f35b34801561053957600080fd5b50610554600480360381019061054f91906143d6565b6112e9565b005b34801561056257600080fd5b5061057d600480360381019061057891906140b1565b611559565b60405161058a9190614f81565b60405180910390f35b34801561059f57600080fd5b506105a8611571565b005b3480156105b657600080fd5b506105bf611680565b6040516105cc9190614f81565b60405180910390f35b3480156105e157600080fd5b506105fc60048036038101906105f7919061414b565b611686565b005b34801561060a57600080fd5b50610625600480360381019061062091906143d6565b6116a6565b6040516106329190614f81565b60405180910390f35b34801561064757600080fd5b50610662600480360381019061065d919061438d565b611717565b005b34801561067057600080fd5b506106796117e4565b6040516106869190614b24565b60405180910390f35b34801561069b57600080fd5b506106b660048036038101906106b191906143d6565b6117fb565b6040516106c39190614a9b565b60405180910390f35b3480156106d857600080fd5b506106f360048036038101906106ee91906143d6565b6118ad565b005b34801561070157600080fd5b5061071c600480360381019061071791906140b1565b6119ad565b6040516107299190614f81565b60405180910390f35b34801561073e57600080fd5b50610747611a65565b005b34801561075557600080fd5b50610770600480360381019061076b91906143d6565b611aed565b005b34801561077e57600080fd5b50610799600480360381019061079491906143d6565b611b79565b005b3480156107a757600080fd5b506107b0611c79565b6040516107bd9190614a9b565b60405180910390f35b3480156107d257600080fd5b506107db611ca3565b6040516107e89190614b3f565b60405180910390f35b3480156107fd57600080fd5b50610806611d31565b6040516108139190614b3f565b60405180910390f35b34801561082857600080fd5b50610831611dc3565b005b34801561083f57600080fd5b50610848611ea1565b6040516108559190614b24565b60405180910390f35b610878600480360381019061087391906143d6565b611eb4565b005b34801561088657600080fd5b506108a1600480360381019061089c9190614221565b61218e565b005b3480156108af57600080fd5b506108b86121a4565b6040516108c59190614f81565b60405180910390f35b3480156108da57600080fd5b506108f560048036038101906108f0919061419e565b6121aa565b005b34801561090357600080fd5b5061090c61220c565b005b34801561091a57600080fd5b50610935600480360381019061093091906143d6565b6122fa565b005b34801561094357600080fd5b5061095e600480360381019061095991906143d6565b61239c565b60405161096b9190614b24565b60405180910390f35b34801561098057600080fd5b5061099b600480360381019061099691906143d6565b612483565b6040516109a89190614b24565b60405180910390f35b3480156109bd57600080fd5b506109d860048036038101906109d391906143d6565b6124a3565b6040516109e59190614b3f565b60405180910390f35b3480156109fa57600080fd5b50610a0361254a565b005b348015610a1157600080fd5b50610a2c6004803603810190610a2791906143d6565b612638565b005b348015610a3a57600080fd5b50610a556004803603810190610a50919061410b565b6126cb565b604051610a629190614b24565b60405180910390f35b348015610a7757600080fd5b50610a926004803603810190610a8d91906140b1565b61275f565b005b610a9c612857565b73ffffffffffffffffffffffffffffffffffffffff16610aba611c79565b73ffffffffffffffffffffffffffffffffffffffff1614610b10576040517f08c379a0000000000000000000000000000000000000000000000000000000008152600401610b0790614e21565b60405180910390fd5b6000815111610b54576040517f08c379a0000000000000000000000000000000000000000000000000000000008152600401610b4b90614d41565b60405180910390fd5b60005b8151811015610b9657610b83828281518110610b7657610b756154b7565b5b602002602001015161285f565b8080610b8e90615381565b915050610b57565b5080604051610ba59190614a60565b60405180910390207fb9413d9dd40eadf97d2949c3c57a163bb454e537a8696520d52a74e0252011e960405160405180910390a250565b60007f780e9d63000000000000000000000000000000000000000000000000000000007bffffffffffffffffffffffffffffffffffffffffffffffffffffffff1916827bffffffffffffffffffffffffffffffffffffffffffffffffffffffff19161480610c4f5750610c4e82612885565b5b9050919050565b606060008054610c659061531e565b80601f0160208091040260200160405190810160405280929190818152602001828054610c919061531e565b8015610cde5780601f10610cb357610100808354040283529160200191610cde565b820191906000526020600020905b815481529060010190602001808311610cc157829003601f168201915b5050505050905090565b6000610cf382612967565b610d32576040517f08c379a0000000000000000000000000000000000000000000000000000000008152600401610d2990614e01565b60405180910390fd5b6004600083815260200190815260200160002060009054906101000a900473ffffffffffffffffffffffffffffffffffffffff169050919050565b6000610d78826117fb565b90508073ffffffffffffffffffffffffffffffffffffffff168373ffffffffffffffffffffffffffffffffffffffff161415610de9576040517f08c379a0000000000000000000000000000000000000000000000000000000008152600401610de090614e81565b60405180910390fd5b8073ffffffffffffffffffffffffffffffffffffffff16610e08612857565b73ffffffffffffffffffffffffffffffffffffffff161480610e375750610e3681610e31612857565b6126cb565b5b610e76576040517f08c379a0000000000000000000000000000000000000000000000000000000008152600401610e6d90614d21565b60405180910390fd5b610e8083836129d3565b505050565b60006011600083815260200190815260200160002060009054906101000a900460ff169050919050565b6000600880549050905090565b601260019054906101000a900460ff1681565b600e5481565b610ee6610ee0612857565b82612a8c565b610f25576040517f08c379a0000000000000000000000000000000000000000000000000000000008152600401610f1c90614ee1565b60405180910390fd5b610f30838383612b6a565b505050565b60145481565b600f6020528060005260406000206000915090505481565b6000339050601260019054906101000a900460ff16610fa7576040517f08c379a0000000000000000000000000000000000000000000000000000000008152600401610f9e90614da1565b60405180910390fd5b60005b825181101561108b57610fd6838281518110610fc957610fc86154b7565b5b602002602001015161239c565b611015576040517f08c379a000000000000000000000000000000000000000000000000000000000815260040161100c90614c81565b60405180910390fd5b61103883828151811061102b5761102a6154b7565b5b6020026020010151610e85565b15611078576040517f08c379a000000000000000000000000000000000000000000000000000000000815260040161106f90614ec1565b60405180910390fd5b808061108390615381565b915050610faa565b506000611098600c612dd1565b9050600d5481106110de576040517f08c379a00000000000000000000000000000000000000000000000000000000081526004016110d590614cc1565b60405180910390fd5b600283516110ec91906151da565b601060008473ffffffffffffffffffffffffffffffffffffffff1673ffffffffffffffffffffffffffffffffffffffff168152602001908152602001600020546111369190615153565b601060008473ffffffffffffffffffffffffffffffffffffffff1673ffffffffffffffffffffffffffffffffffffffff1681526020019081526020016000208190555060005b83518110156111f05761118e3361285f565b6111973361285f565b6001601160008684815181106111b0576111af6154b7565b5b6020026020010151815260200190815260200160002060006101000a81548160ff02191690831515021790555080806111e890615381565b91505061117c565b508173ffffffffffffffffffffffffffffffffffffffff167fd8d2d73c4c976a2fa6184db29ec422a7be7c130ee80626321900dec577ecdcfd846040516112379190614b02565b60405180910390a2505050565b600061124f836119ad565b8210611290576040517f08c379a000000000000000000000000000000000000000000000000000000000815260040161128790614ba1565b60405180910390fd5b600660008473ffffffffffffffffffffffffffffffffffffffff1673ffffffffffffffffffffffffffffffffffffffff168152602001908152602001600020600083815260200190815260200160002054905092915050565b6000339050601260019054906101000a900460ff1661133d576040517f08c379a000000000000000000000000000000000000000000000000000000000815260040161133490614da1565b60405180910390fd5b6113468261239c565b611385576040517f08c379a000000000000000000000000000000000000000000000000000000000815260040161137c90614c81565b60405180910390fd5b61138e82610e85565b156113ce576040517f08c379a00000000000000000000000000000000000000000000000000000000081526004016113c590614ec1565b60405180910390fd5b60006113da600c612dd1565b9050600d548110611420576040517f08c379a000000000000000000000000000000000000000000000000000000000815260040161141790614cc1565b60405180910390fd5b601454601060008473ffffffffffffffffffffffffffffffffffffffff1673ffffffffffffffffffffffffffffffffffffffff1681526020019081526020016000205461146d9190615153565b601060008473ffffffffffffffffffffffffffffffffffffffff1673ffffffffffffffffffffffffffffffffffffffff1681526020019081526020016000208190555060005b6014548110156114d9576114c63361285f565b80806114d190615381565b9150506114b3565b5060016011600085815260200190815260200160002060006101000a81548160ff0219169083151502179055508173ffffffffffffffffffffffffffffffffffffffff167f47cee97cb7acd717b3c0aa1435d004cd5b3c8c57d70dbceb4e4458bbd60e39d48460405161154c9190614f81565b60405180910390a2505050565b60106020528060005260406000206000915090505481565b611579612857565b73ffffffffffffffffffffffffffffffffffffffff16611597611c79565b73ffffffffffffffffffffffffffffffffffffffff16146115ed576040517f08c379a00000000000000000000000000000000000000000000000000000000081526004016115e490614e21565b60405180910390fd5b600047116115fa57600080fd5b60004790503373ffffffffffffffffffffffffffffffffffffffff166108fc829081150290604051600060405180830381858888f19350505050158015611645573d6000803e3d6000fd5b507f5b6b431d4476a211bb7d41c20d1aab9ae2321deee0d20be3d9fc9b1093fa6e3d816040516116759190614f81565b60405180910390a150565b600d5481565b6116a1838383604051806020016040528060008152506121aa565b505050565b60006116b0610eaf565b82106116f1576040517f08c379a00000000000000000000000000000000000000000000000000000000081526004016116e890614f01565b60405180910390fd5b60088281548110611705576117046154b7565b5b90600052602060002001549050919050565b61171f612857565b73ffffffffffffffffffffffffffffffffffffffff1661173d611c79565b73ffffffffffffffffffffffffffffffffffffffff1614611793576040517f08c379a000000000000000000000000000000000000000000000000000000000815260040161178a90614e21565b60405180910390fd5b80601590805190602001906117a9929190613d74565b507f23c8c9488efebfd474e85a7956de6f39b17c7ab88502d42a623db2d8e382bbaa816040516117d99190614b3f565b60405180910390a150565b6000600a60009054906101000a900460ff16905090565b6000806002600084815260200190815260200160002060009054906101000a900473ffffffffffffffffffffffffffffffffffffffff169050600073ffffffffffffffffffffffffffffffffffffffff168173ffffffffffffffffffffffffffffffffffffffff1614156118a4576040517f08c379a000000000000000000000000000000000000000000000000000000000815260040161189b90614d81565b60405180910390fd5b80915050919050565b6118b5612857565b73ffffffffffffffffffffffffffffffffffffffff166118d3611c79565b73ffffffffffffffffffffffffffffffffffffffff1614611929576040517f08c379a000000000000000000000000000000000000000000000000000000000815260040161192090614e21565b60405180910390fd5b6000811161196c576040517f08c379a000000000000000000000000000000000000000000000000000000000815260040161196390614dc1565b60405180910390fd5b80600d819055507fee643f334779f1031decbee003f80a0bcb7ecdc24b6693539cf7447a66afba8a816040516119a29190614f81565b60405180910390a150565b60008073ffffffffffffffffffffffffffffffffffffffff168273ffffffffffffffffffffffffffffffffffffffff161415611a1e576040517f08c379a0000000000000000000000000000000000000000000000000000000008152600401611a1590614d61565b60405180910390fd5b600360008373ffffffffffffffffffffffffffffffffffffffff1673ffffffffffffffffffffffffffffffffffffffff168152602001908152602001600020549050919050565b611a6d612857565b73ffffffffffffffffffffffffffffffffffffffff16611a8b611c79565b73ffffffffffffffffffffffffffffffffffffffff1614611ae1576040517f08c379a0000000000000000000000000000000000000000000000000000000008152600401611ad890614e21565b60405180910390fd5b611aeb6000612ddf565b565b611af73382612a8c565b611b36576040517f08c379a0000000000000000000000000000000000000000000000000000000008152600401611b2d90614e61565b60405180910390fd5b611b3f81612ea5565b7f066548819fc4bd1208ea1c8608597593134d5661f459c2ef75cad30918af5a3381604051611b6e9190614f81565b60405180910390a150565b611b81612857565b73ffffffffffffffffffffffffffffffffffffffff16611b9f611c79565b73ffffffffffffffffffffffffffffffffffffffff1614611bf5576040517f08c379a0000000000000000000000000000000000000000000000000000000008152600401611bec90614e21565b60405180910390fd5b60008111611c38576040517f08c379a0000000000000000000000000000000000000000000000000000000008152600401611c2f90614f61565b60405180910390fd5b80600e819055507f1a15ab7124a4e1ce00837351261771caf1691cd7d85ed3a0ac3157a1ee1a380581604051611c6e9190614f81565b60405180910390a150565b6000600a60019054906101000a900473ffffffffffffffffffffffffffffffffffffffff16905090565b60158054611cb09061531e565b80601f0160208091040260200160405190810160405280929190818152602001828054611cdc9061531e565b8015611d295780601f10611cfe57610100808354040283529160200191611d29565b820191906000526020600020905b815481529060010190602001808311611d0c57829003601f168201915b505050505081565b606060018054611d409061531e565b80601f0160208091040260200160405190810160405280929190818152602001828054611d6c9061531e565b8015611db95780601f10611d8e57610100808354040283529160200191611db9565b820191906000526020600020905b815481529060010190602001808311611d9c57829003601f168201915b5050505050905090565b611dcb612857565b73ffffffffffffffffffffffffffffffffffffffff16611de9611c79565b73ffffffffffffffffffffffffffffffffffffffff1614611e3f576040517f08c379a0000000000000000000000000000000000000000000000000000000008152600401611e3690614e21565b60405180910390fd5b611e476117e4565b611e5857611e53612fc2565b611e61565b611e60613065565b5b7f71aa6dbdf1045ea9e6926a7848dbdd98d55270c4fee88cbc77fd816ccc8d6d2f611e8a6117e4565b604051611e979190614b24565b60405180910390a1565b601260009054906101000a900460ff1681565b600033905060008211611efc576040517f08c379a0000000000000000000000000000000000000000000000000000000008152600401611ef390614ce1565b60405180910390fd5b600a821115611f40576040517f08c379a0000000000000000000000000000000000000000000000000000000008152600401611f3790614b61565b60405180910390fd5b601260009054906101000a900460ff16611f8f576040517f08c379a0000000000000000000000000000000000000000000000000000000008152600401611f8690614ea1565b60405180910390fd5b6000611f9b600c612dd1565b9050600d548110611fe1576040517f08c379a0000000000000000000000000000000000000000000000000000000008152600401611fd890614cc1565b60405180910390fd5b600d548382611ff09190615153565b1115612031576040517f08c379a000000000000000000000000000000000000000000000000000000000815260040161202890614f21565b60405180910390fd5b600e548361203f91906151da565b341015612081576040517f08c379a000000000000000000000000000000000000000000000000000000000815260040161207890614f41565b60405180910390fd5b82600f60008473ffffffffffffffffffffffffffffffffffffffff1673ffffffffffffffffffffffffffffffffffffffff168152602001908152602001600020546120cc9190615153565b600f60008473ffffffffffffffffffffffffffffffffffffffff1673ffffffffffffffffffffffffffffffffffffffff1681526020019081526020016000208190555060005b83811015612136576121233361285f565b808061212e90615381565b915050612112565b508173ffffffffffffffffffffffffffffffffffffffff167f4c209b5fc8ad50758f13e2e1088ba56a560dff690a1c6fef26394f4c03821c4f84600e54604051612181929190614f9c565b60405180910390a2505050565b6121a0612199612857565b8383613107565b5050565b60135481565b6121bb6121b5612857565b83612a8c565b6121fa576040517f08c379a00000000000000000000000000000000000000000000000000000000081526004016121f190614ee1565b60405180910390fd5b61220684848484613274565b50505050565b612214612857565b73ffffffffffffffffffffffffffffffffffffffff16612232611c79565b73ffffffffffffffffffffffffffffffffffffffff1614612288576040517f08c379a000000000000000000000000000000000000000000000000000000000815260040161227f90614e21565b60405180910390fd5b601260019054906101000a900460ff1615601260016101000a81548160ff0219169083151502179055507fccad4f71387b17cf726a56e0dd1d828b5697472af0dda5bdb79b257c0ee80213601260019054906101000a900460ff166040516122f09190614b24565b60405180910390a1565b612302612857565b73ffffffffffffffffffffffffffffffffffffffff16612320611c79565b73ffffffffffffffffffffffffffffffffffffffff1614612376576040517f08c379a000000000000000000000000000000000000000000000000000000000815260040161236d90614e21565b60405180910390fd5b6011600082815260200190815260200160002060006101000a81549060ff021916905550565b6000803390508073ffffffffffffffffffffffffffffffffffffffff16600b60009054906101000a900473ffffffffffffffffffffffffffffffffffffffff1673ffffffffffffffffffffffffffffffffffffffff16636352211e856040518263ffffffff1660e01b81526004016124149190614f81565b60206040518083038186803b15801561242c57600080fd5b505afa158015612440573d6000803e3d6000fd5b505050506040513d601f19601f8201168201806040525081019061246491906140de565b73ffffffffffffffffffffffffffffffffffffffff1614915050919050565b60116020528060005260406000206000915054906101000a900460ff1681565b60606124ae82612967565b6124ed576040517f08c379a00000000000000000000000000000000000000000000000000000000081526004016124e490614e41565b60405180910390fd5b60006124f76132d0565b905060008151116125175760405180602001604052806000815250612542565b8061252184613362565b604051602001612532929190614a77565b6040516020818303038152906040525b915050919050565b612552612857565b73ffffffffffffffffffffffffffffffffffffffff16612570611c79565b73ffffffffffffffffffffffffffffffffffffffff16146125c6576040517f08c379a00000000000000000000000000000000000000000000000000000000081526004016125bd90614e21565b60405180910390fd5b601260009054906101000a900460ff1615601260006101000a81548160ff0219169083151502179055507f756643b49a6f13e0209676621cbd6d5e01c401e38a271b690fdf2a347597faa9601260009054906101000a900460ff1660405161262e9190614b24565b60405180910390a1565b612640612857565b73ffffffffffffffffffffffffffffffffffffffff1661265e611c79565b73ffffffffffffffffffffffffffffffffffffffff16146126b4576040517f08c379a00000000000000000000000000000000000000000000000000000000081526004016126ab90614e21565b60405180910390fd5b600081116126c157600080fd5b8060138190555050565b6000600560008473ffffffffffffffffffffffffffffffffffffffff1673ffffffffffffffffffffffffffffffffffffffff16815260200190815260200160002060008373ffffffffffffffffffffffffffffffffffffffff1673ffffffffffffffffffffffffffffffffffffffff16815260200190815260200160002060009054906101000a900460ff16905092915050565b612767612857565b73ffffffffffffffffffffffffffffffffffffffff16612785611c79565b73ffffffffffffffffffffffffffffffffffffffff16146127db576040517f08c379a00000000000000000000000000000000000000000000000000000000081526004016127d290614e21565b60405180910390fd5b600073ffffffffffffffffffffffffffffffffffffffff168173ffffffffffffffffffffffffffffffffffffffff16141561284b576040517f08c379a000000000000000000000000000000000000000000000000000000000815260040161284290614be1565b60405180910390fd5b61285481612ddf565b50565b600033905090565b612869600c6134c3565b6000612875600c612dd1565b905061288182826134d9565b5050565b60007f80ac58cd000000000000000000000000000000000000000000000000000000007bffffffffffffffffffffffffffffffffffffffffffffffffffffffff1916827bffffffffffffffffffffffffffffffffffffffffffffffffffffffff1916148061295057507f5b5e139f000000000000000000000000000000000000000000000000000000007bffffffffffffffffffffffffffffffffffffffffffffffffffffffff1916827bffffffffffffffffffffffffffffffffffffffffffffffffffffffff1916145b80612960575061295f826134f7565b5b9050919050565b60008073ffffffffffffffffffffffffffffffffffffffff166002600084815260200190815260200160002060009054906101000a900473ffffffffffffffffffffffffffffffffffffffff1673ffffffffffffffffffffffffffffffffffffffff1614159050919050565b816004600083815260200190815260200160002060006101000a81548173ffffffffffffffffffffffffffffffffffffffff021916908373ffffffffffffffffffffffffffffffffffffffff160217905550808273ffffffffffffffffffffffffffffffffffffffff16612a46836117fb565b73ffffffffffffffffffffffffffffffffffffffff167f8c5be1e5ebec7d5bd14f71427d1e84f3dd0314c0f7b2291e5b200ac8c7c3b92560405160405180910390a45050565b6000612a9782612967565b612ad6576040517f08c379a0000000000000000000000000000000000000000000000000000000008152600401612acd90614ca1565b60405180910390fd5b6000612ae1836117fb565b90508073ffffffffffffffffffffffffffffffffffffffff168473ffffffffffffffffffffffffffffffffffffffff161480612b5057508373ffffffffffffffffffffffffffffffffffffffff16612b3884610ce8565b73ffffffffffffffffffffffffffffffffffffffff16145b80612b615750612b6081856126cb565b5b91505092915050565b8273ffffffffffffffffffffffffffffffffffffffff16612b8a826117fb565b73ffffffffffffffffffffffffffffffffffffffff1614612be0576040517f08c379a0000000000000000000000000000000000000000000000000000000008152600401612bd790614c01565b60405180910390fd5b600073ffffffffffffffffffffffffffffffffffffffff168273ffffffffffffffffffffffffffffffffffffffff161415612c50576040517f08c379a0000000000000000000000000000000000000000000000000000000008152600401612c4790614c41565b60405180910390fd5b612c5b838383613561565b612c666000826129d3565b6001600360008573ffffffffffffffffffffffffffffffffffffffff1673ffffffffffffffffffffffffffffffffffffffff1681526020019081526020016000206000828254612cb69190615234565b925050819055506001600360008473ffffffffffffffffffffffffffffffffffffffff1673ffffffffffffffffffffffffffffffffffffffff1681526020019081526020016000206000828254612d0d9190615153565b92505081905550816002600083815260200190815260200160002060006101000a81548173ffffffffffffffffffffffffffffffffffffffff021916908373ffffffffffffffffffffffffffffffffffffffff160217905550808273ffffffffffffffffffffffffffffffffffffffff168473ffffffffffffffffffffffffffffffffffffffff167fddf252ad1be2c89b69c2b068fc378daa952ba7f163c4a11628f55a4df523b3ef60405160405180910390a4612dcc838383613675565b505050565b600081600001549050919050565b6000600a60019054906101000a900473ffffffffffffffffffffffffffffffffffffffff16905081600a60016101000a81548173ffffffffffffffffffffffffffffffffffffffff021916908373ffffffffffffffffffffffffffffffffffffffff1602179055508173ffffffffffffffffffffffffffffffffffffffff168173ffffffffffffffffffffffffffffffffffffffff167f8be0079c531659141344cd1fd0a4f28419497f9722a3daafe3b4186f6b6457e060405160405180910390a35050565b6000612eb0826117fb565b9050612ebe81600084613561565b612ec96000836129d3565b6001600360008373ffffffffffffffffffffffffffffffffffffffff1673ffffffffffffffffffffffffffffffffffffffff1681526020019081526020016000206000828254612f199190615234565b925050819055506002600083815260200190815260200160002060006101000a81549073ffffffffffffffffffffffffffffffffffffffff021916905581600073ffffffffffffffffffffffffffffffffffffffff168273ffffffffffffffffffffffffffffffffffffffff167fddf252ad1be2c89b69c2b068fc378daa952ba7f163c4a11628f55a4df523b3ef60405160405180910390a4612fbe81600084613675565b5050565b612fca6117e4565b1561300a576040517f08c379a000000000000000000000000000000000000000000000000000000000815260040161300190614d01565b60405180910390fd5b6001600a60006101000a81548160ff0219169083151502179055507f62e78cea01bee320cd4e420270b5ea74000d11b0c9f74754ebdbfc544b05a25861304e612857565b60405161305b9190614a9b565b60405180910390a1565b61306d6117e4565b6130ac576040517f08c379a00000000000000000000000000000000000000000000000000000000081526004016130a390614b81565b60405180910390fd5b6000600a60006101000a81548160ff0219169083151502179055507f5db9ee0a495bf2e6ff9c91a7834c1ba4fdd244a5e8aa4e537bd38aeae4b073aa6130f0612857565b6040516130fd9190614a9b565b60405180910390a1565b8173ffffffffffffffffffffffffffffffffffffffff168373ffffffffffffffffffffffffffffffffffffffff161415613176576040517f08c379a000000000000000000000000000000000000000000000000000000000815260040161316d90614c61565b60405180910390fd5b80600560008573ffffffffffffffffffffffffffffffffffffffff1673ffffffffffffffffffffffffffffffffffffffff16815260200190815260200160002060008473ffffffffffffffffffffffffffffffffffffffff1673ffffffffffffffffffffffffffffffffffffffff16815260200190815260200160002060006101000a81548160ff0219169083151502179055508173ffffffffffffffffffffffffffffffffffffffff168373ffffffffffffffffffffffffffffffffffffffff167f17307eab39ab6107e8899845ad3d59bd9653f200f220920489ca2b5937696c31836040516132679190614b24565b60405180910390a3505050565b61327f848484612b6a565b61328b8484848461367a565b6132ca576040517f08c379a00000000000000000000000000000000000000000000000000000000081526004016132c190614bc1565b60405180910390fd5b50505050565b6060601580546132df9061531e565b80601f016020809104026020016040519081016040528092919081815260200182805461330b9061531e565b80156133585780601f1061332d57610100808354040283529160200191613358565b820191906000526020600020905b81548152906001019060200180831161333b57829003601f168201915b5050505050905090565b606060008214156133aa576040518060400160405280600181526020017f300000000000000000000000000000000000000000000000000000000000000081525090506134be565b600082905060005b600082146133dc5780806133c590615381565b915050600a826133d591906151a9565b91506133b2565b60008167ffffffffffffffff8111156133f8576133f76154e6565b5b6040519080825280601f01601f19166020018201604052801561342a5781602001600182028036833780820191505090505b5090505b600085146134b7576001826134439190615234565b9150600a8561345291906153ca565b603061345e9190615153565b60f81b818381518110613474576134736154b7565b5b60200101907effffffffffffffffffffffffffffffffffffffffffffffffffffffffffffff1916908160001a905350600a856134b091906151a9565b945061342e565b8093505050505b919050565b6001816000016000828254019250508190555050565b6134f3828260405180602001604052806000815250613811565b5050565b60007f01ffc9a7000000000000000000000000000000000000000000000000000000007bffffffffffffffffffffffffffffffffffffffffffffffffffffffff1916827bffffffffffffffffffffffffffffffffffffffffffffffffffffffff1916149050919050565b61356c83838361386c565b600073ffffffffffffffffffffffffffffffffffffffff168373ffffffffffffffffffffffffffffffffffffffff1614156135af576135aa81613871565b6135ee565b8173ffffffffffffffffffffffffffffffffffffffff168373ffffffffffffffffffffffffffffffffffffffff16146135ed576135ec83826138ba565b5b5b600073ffffffffffffffffffffffffffffffffffffffff168273ffffffffffffffffffffffffffffffffffffffff1614156136315761362c81613a27565b613670565b8273ffffffffffffffffffffffffffffffffffffffff168273ffffffffffffffffffffffffffffffffffffffff161461366f5761366e8282613af8565b5b5b505050565b505050565b600061369b8473ffffffffffffffffffffffffffffffffffffffff16613b77565b15613804578373ffffffffffffffffffffffffffffffffffffffff1663150b7a026136c4612857565b8786866040518563ffffffff1660e01b81526004016136e69493929190614ab6565b602060405180830381600087803b15801561370057600080fd5b505af192505050801561373157506040513d601f19601f8201168201806040525081019061372e9190614360565b60015b6137b4573d8060008114613761576040519150601f19603f3d011682016040523d82523d6000602084013e613766565b606091505b506000815114156137ac576040517f08c379a00000000000000000000000000000000000000000000000000000000081526004016137a390614bc1565b60405180910390fd5b805181602001fd5b63150b7a0260e01b7bffffffffffffffffffffffffffffffffffffffffffffffffffffffff1916817bffffffffffffffffffffffffffffffffffffffffffffffffffffffff191614915050613809565b600190505b949350505050565b61381b8383613b9a565b613828600084848461367a565b613867576040517f08c379a000000000000000000000000000000000000000000000000000000000815260040161385e90614bc1565b60405180910390fd5b505050565b505050565b6008805490506009600083815260200190815260200160002081905550600881908060018154018082558091505060019003906000526020600020016000909190919091505550565b600060016138c7846119ad565b6138d19190615234565b90506000600760008481526020019081526020016000205490508181146139b6576000600660008673ffffffffffffffffffffffffffffffffffffffff1673ffffffffffffffffffffffffffffffffffffffff168152602001908152602001600020600084815260200190815260200160002054905080600660008773ffffffffffffffffffffffffffffffffffffffff1673ffffffffffffffffffffffffffffffffffffffff168152602001908152602001600020600084815260200190815260200160002081905550816007600083815260200190815260200160002081905550505b6007600084815260200190815260200160002060009055600660008573ffffffffffffffffffffffffffffffffffffffff1673ffffffffffffffffffffffffffffffffffffffff16815260200190815260200160002060008381526020019081526020016000206000905550505050565b60006001600880549050613a3b9190615234565b9050600060096000848152602001908152602001600020549050600060088381548110613a6b57613a6a6154b7565b5b906000526020600020015490508060088381548110613a8d57613a8c6154b7565b5b906000526020600020018190555081600960008381526020019081526020016000208190555060096000858152602001908152602001600020600090556008805480613adc57613adb615488565b5b6001900381819060005260206000200160009055905550505050565b6000613b03836119ad565b905081600660008573ffffffffffffffffffffffffffffffffffffffff1673ffffffffffffffffffffffffffffffffffffffff168152602001908152602001600020600083815260200190815260200160002081905550806007600084815260200190815260200160002081905550505050565b6000808273ffffffffffffffffffffffffffffffffffffffff163b119050919050565b600073ffffffffffffffffffffffffffffffffffffffff168273ffffffffffffffffffffffffffffffffffffffff161415613c0a576040517f08c379a0000000000000000000000000000000000000000000000000000000008152600401613c0190614de1565b60405180910390fd5b613c1381612967565b15613c53576040517f08c379a0000000000000000000000000000000000000000000000000000000008152600401613c4a90614c21565b60405180910390fd5b613c5f60008383613561565b6001600360008473ffffffffffffffffffffffffffffffffffffffff1673ffffffffffffffffffffffffffffffffffffffff1681526020019081526020016000206000828254613caf9190615153565b92505081905550816002600083815260200190815260200160002060006101000a81548173ffffffffffffffffffffffffffffffffffffffff021916908373ffffffffffffffffffffffffffffffffffffffff160217905550808273ffffffffffffffffffffffffffffffffffffffff16600073ffffffffffffffffffffffffffffffffffffffff167fddf252ad1be2c89b69c2b068fc378daa952ba7f163c4a11628f55a4df523b3ef60405160405180910390a4613d7060008383613675565b5050565b828054613d809061531e565b90600052602060002090601f016020900481019282613da25760008555613de9565b82601f10613dbb57805160ff1916838001178555613de9565b82800160010185558215613de9579182015b82811115613de8578251825591602001919060010190613dcd565b5b509050613df69190613dfa565b5090565b5b80821115613e13576000816000905550600101613dfb565b5090565b6000613e2a613e2584614fea565b614fc5565b90508083825260208201905082856020860282011115613e4d57613e4c61551a565b5b60005b85811015613e7d5781613e638882613f7b565b845260208401935060208301925050600181019050613e50565b5050509392505050565b6000613e9a613e9584615016565b614fc5565b90508083825260208201905082856020860282011115613ebd57613ebc61551a565b5b60005b85811015613eed5781613ed3888261409c565b845260208401935060208301925050600181019050613ec0565b5050509392505050565b6000613f0a613f0584615042565b614fc5565b905082815260208101848484011115613f2657613f2561551f565b5b613f318482856152dc565b509392505050565b6000613f4c613f4784615073565b614fc5565b905082815260208101848484011115613f6857613f6761551f565b5b613f738482856152dc565b509392505050565b600081359050613f8a81615d0e565b92915050565b600081519050613f9f81615d0e565b92915050565b600082601f830112613fba57613fb9615515565b5b8135613fca848260208601613e17565b91505092915050565b600082601f830112613fe857613fe7615515565b5b8135613ff8848260208601613e87565b91505092915050565b60008135905061401081615d25565b92915050565b60008135905061402581615d3c565b92915050565b60008151905061403a81615d3c565b92915050565b600082601f83011261405557614054615515565b5b8135614065848260208601613ef7565b91505092915050565b600082601f83011261408357614082615515565b5b8135614093848260208601613f39565b91505092915050565b6000813590506140ab81615d53565b92915050565b6000602082840312156140c7576140c6615529565b5b60006140d584828501613f7b565b91505092915050565b6000602082840312156140f4576140f3615529565b5b600061410284828501613f90565b91505092915050565b6000806040838503121561412257614121615529565b5b600061413085828601613f7b565b925050602061414185828601613f7b565b9150509250929050565b60008060006060848603121561416457614163615529565b5b600061417286828701613f7b565b935050602061418386828701613f7b565b92505060406141948682870161409c565b9150509250925092565b600080600080608085870312156141b8576141b7615529565b5b60006141c687828801613f7b565b94505060206141d787828801613f7b565b93505060406141e88782880161409c565b925050606085013567ffffffffffffffff81111561420957614208615524565b5b61421587828801614040565b91505092959194509250565b6000806040838503121561423857614237615529565b5b600061424685828601613f7b565b925050602061425785828601614001565b9150509250929050565b6000806040838503121561427857614277615529565b5b600061428685828601613f7b565b92505060206142978582860161409c565b9150509250929050565b6000602082840312156142b7576142b6615529565b5b600082013567ffffffffffffffff8111156142d5576142d4615524565b5b6142e184828501613fa5565b91505092915050565b600060208284031215614300576142ff615529565b5b600082013567ffffffffffffffff81111561431e5761431d615524565b5b61432a84828501613fd3565b91505092915050565b60006020828403121561434957614348615529565b5b600061435784828501614016565b91505092915050565b60006020828403121561437657614375615529565b5b60006143848482850161402b565b91505092915050565b6000602082840312156143a3576143a2615529565b5b600082013567ffffffffffffffff8111156143c1576143c0615524565b5b6143cd8482850161406e565b91505092915050565b6000602082840312156143ec576143eb615529565b5b60006143fa8482850161409c565b91505092915050565b600061440f8383614442565b60208301905092915050565b60006144278383614a42565b60208301905092915050565b61443c81615268565b82525050565b61444b81615268565b82525050565b600061445c826150c4565b614466818561510a565b9350614471836150a4565b8060005b838110156144a25781516144898882614403565b9750614494836150f0565b925050600181019050614475565b5085935050505092915050565b60006144ba826150cf565b6144c48185615115565b93506144cf836150b4565b8060005b838110156145005781516144e7888261441b565b97506144f2836150fd565b9250506001810190506144d3565b5085935050505092915050565b6145168161527a565b82525050565b6000614527826150da565b6145318185615126565b93506145418185602086016152eb565b61454a8161552e565b840191505092915050565b6000614560826150e5565b61456a8185615137565b935061457a8185602086016152eb565b6145838161552e565b840191505092915050565b6000614599826150e5565b6145a38185615148565b93506145b38185602086016152eb565b80840191505092915050565b60006145cc601c83615137565b91506145d78261553f565b602082019050919050565b60006145ef601483615137565b91506145fa82615568565b602082019050919050565b6000614612602b83615137565b915061461d82615591565b604082019050919050565b6000614635603283615137565b9150614640826155e0565b604082019050919050565b6000614658602683615137565b91506146638261562f565b604082019050919050565b600061467b602583615137565b91506146868261567e565b604082019050919050565b600061469e601c83615137565b91506146a9826156cd565b602082019050919050565b60006146c1602483615137565b91506146cc826156f6565b604082019050919050565b60006146e4601983615137565b91506146ef82615745565b602082019050919050565b6000614707602783615137565b91506147128261576e565b604082019050919050565b600061472a602c83615137565b9150614735826157bd565b604082019050919050565b600061474d600883615137565b91506147588261580c565b602082019050919050565b6000614770601683615137565b915061477b82615835565b602082019050919050565b6000614793601083615137565b915061479e8261585e565b602082019050919050565b60006147b6603883615137565b91506147c182615887565b604082019050919050565b60006147d9601c83615137565b91506147e4826158d6565b602082019050919050565b60006147fc602a83615137565b9150614807826158ff565b604082019050919050565b600061481f602983615137565b915061482a8261594e565b604082019050919050565b6000614842601383615137565b915061484d8261599d565b602082019050919050565b6000614865601783615137565b9150614870826159c6565b602082019050919050565b6000614888602083615137565b9150614893826159ef565b602082019050919050565b60006148ab602c83615137565b91506148b682615a18565b604082019050919050565b60006148ce602083615137565b91506148d982615a67565b602082019050919050565b60006148f1602f83615137565b91506148fc82615a90565b604082019050919050565b6000614914602483615137565b915061491f82615adf565b604082019050919050565b6000614937602183615137565b915061494282615b2e565b604082019050919050565b600061495a600f83615137565b915061496582615b7d565b602082019050919050565b600061497d601a83615137565b915061498882615ba6565b602082019050919050565b60006149a0603183615137565b91506149ab82615bcf565b604082019050919050565b60006149c3602c83615137565b91506149ce82615c1e565b604082019050919050565b60006149e6601483615137565b91506149f182615c6d565b602082019050919050565b6000614a09602183615137565b9150614a1482615c96565b604082019050919050565b6000614a2c601283615137565b9150614a3782615ce5565b602082019050919050565b614a4b816152d2565b82525050565b614a5a816152d2565b82525050565b6000614a6c8284614451565b915081905092915050565b6000614a83828561458e565b9150614a8f828461458e565b91508190509392505050565b6000602082019050614ab06000830184614433565b92915050565b6000608082019050614acb6000830187614433565b614ad86020830186614433565b614ae56040830185614a51565b8181036060830152614af7818461451c565b905095945050505050565b60006020820190508181036000830152614b1c81846144af565b905092915050565b6000602082019050614b39600083018461450d565b92915050565b60006020820190508181036000830152614b598184614555565b905092915050565b60006020820190508181036000830152614b7a816145bf565b9050919050565b60006020820190508181036000830152614b9a816145e2565b9050919050565b60006020820190508181036000830152614bba81614605565b9050919050565b60006020820190508181036000830152614bda81614628565b9050919050565b60006020820190508181036000830152614bfa8161464b565b9050919050565b60006020820190508181036000830152614c1a8161466e565b9050919050565b60006020820190508181036000830152614c3a81614691565b9050919050565b60006020820190508181036000830152614c5a816146b4565b9050919050565b60006020820190508181036000830152614c7a816146d7565b9050919050565b60006020820190508181036000830152614c9a816146fa565b9050919050565b60006020820190508181036000830152614cba8161471d565b9050919050565b60006020820190508181036000830152614cda81614740565b9050919050565b60006020820190508181036000830152614cfa81614763565b9050919050565b60006020820190508181036000830152614d1a81614786565b9050919050565b60006020820190508181036000830152614d3a816147a9565b9050919050565b60006020820190508181036000830152614d5a816147cc565b9050919050565b60006020820190508181036000830152614d7a816147ef565b9050919050565b60006020820190508181036000830152614d9a81614812565b9050919050565b60006020820190508181036000830152614dba81614835565b9050919050565b60006020820190508181036000830152614dda81614858565b9050919050565b60006020820190508181036000830152614dfa8161487b565b9050919050565b60006020820190508181036000830152614e1a8161489e565b9050919050565b60006020820190508181036000830152614e3a816148c1565b9050919050565b60006020820190508181036000830152614e5a816148e4565b9050919050565b60006020820190508181036000830152614e7a81614907565b9050919050565b60006020820190508181036000830152614e9a8161492a565b9050919050565b60006020820190508181036000830152614eba8161494d565b9050919050565b60006020820190508181036000830152614eda81614970565b9050919050565b60006020820190508181036000830152614efa81614993565b9050919050565b60006020820190508181036000830152614f1a816149b6565b9050919050565b60006020820190508181036000830152614f3a816149d9565b9050919050565b60006020820190508181036000830152614f5a816149fc565b9050919050565b60006020820190508181036000830152614f7a81614a1f565b9050919050565b6000602082019050614f966000830184614a51565b92915050565b6000604082019050614fb16000830185614a51565b614fbe6020830184614a51565b9392505050565b6000614fcf614fe0565b9050614fdb8282615350565b919050565b6000604051905090565b600067ffffffffffffffff821115615005576150046154e6565b5b602082029050602081019050919050565b600067ffffffffffffffff821115615031576150306154e6565b5b602082029050602081019050919050565b600067ffffffffffffffff82111561505d5761505c6154e6565b5b6150668261552e565b9050602081019050919050565b600067ffffffffffffffff82111561508e5761508d6154e6565b5b6150978261552e565b9050602081019050919050565b6000819050602082019050919050565b6000819050602082019050919050565b600081519050919050565b600081519050919050565b600081519050919050565b600081519050919050565b6000602082019050919050565b6000602082019050919050565b600081905092915050565b600082825260208201905092915050565b600082825260208201905092915050565b600082825260208201905092915050565b600081905092915050565b600061515e826152d2565b9150615169836152d2565b9250827fffffffffffffffffffffffffffffffffffffffffffffffffffffffffffffffff0382111561519e5761519d6153fb565b5b828201905092915050565b60006151b4826152d2565b91506151bf836152d2565b9250826151cf576151ce61542a565b5b828204905092915050565b60006151e5826152d2565b91506151f0836152d2565b9250817fffffffffffffffffffffffffffffffffffffffffffffffffffffffffffffffff0483118215151615615229576152286153fb565b5b828202905092915050565b600061523f826152d2565b915061524a836152d2565b92508282101561525d5761525c6153fb565b5b828203905092915050565b6000615273826152b2565b9050919050565b60008115159050919050565b60007fffffffff0000000000000000000000000000000000000000000000000000000082169050919050565b600073ffffffffffffffffffffffffffffffffffffffff82169050919050565b6000819050919050565b82818337600083830152505050565b60005b838110156153095780820151818401526020810190506152ee565b83811115615318576000848401525b50505050565b6000600282049050600182168061533657607f821691505b6020821081141561534a57615349615459565b5b50919050565b6153598261552e565b810181811067ffffffffffffffff82111715615378576153776154e6565b5b80604052505050565b600061538c826152d2565b91507fffffffffffffffffffffffffffffffffffffffffffffffffffffffffffffffff8214156153bf576153be6153fb565b5b600182019050919050565b60006153d5826152d2565b91506153e0836152d2565b9250826153f0576153ef61542a565b5b828206905092915050565b7f4e487b7100000000000000000000000000000000000000000000000000000000600052601160045260246000fd5b7f4e487b7100000000000000000000000000000000000000000000000000000000600052601260045260246000fd5b7f4e487b7100000000000000000000000000000000000000000000000000000000600052602260045260246000fd5b7f4e487b7100000000000000000000000000000000000000000000000000000000600052603160045260246000fd5b7f4e487b7100000000000000000000000000000000000000000000000000000000600052603260045260246000fd5b7f4e487b7100000000000000000000000000000000000000000000000000000000600052604160045260246000fd5b600080fd5b600080fd5b600080fd5b600080fd5b600080fd5b6000601f19601f8301169050919050565b7f63616e206f6e6c79206d696e74203130207065722073657373696f6e00000000600082015250565b7f5061757361626c653a206e6f7420706175736564000000000000000000000000600082015250565b7f455243373231456e756d657261626c653a206f776e657220696e646578206f7560008201527f74206f6620626f756e6473000000000000000000000000000000000000000000602082015250565b7f4552433732313a207472616e7366657220746f206e6f6e20455243373231526560008201527f63656976657220696d706c656d656e7465720000000000000000000000000000602082015250565b7f4f776e61626c653a206e6577206f776e657220697320746865207a65726f206160008201527f6464726573730000000000000000000000000000000000000000000000000000602082015250565b7f4552433732313a207472616e736665722066726f6d20696e636f72726563742060008201527f6f776e6572000000000000000000000000000000000000000000000000000000602082015250565b7f4552433732313a20746f6b656e20616c7265616479206d696e74656400000000600082015250565b7f4552433732313a207472616e7366657220746f20746865207a65726f2061646460008201527f7265737300000000000000000000000000000000000000000000000000000000602082015250565b7f4552433732313a20617070726f766520746f2063616c6c657200000000000000600082015250565b7f4d757374206f776e2074686520537570657254726f6f7072207573656420666f60008201527f7220636c61696d00000000000000000000000000000000000000000000000000602082015250565b7f4552433732313a206f70657261746f7220717565727920666f72206e6f6e657860008201527f697374656e7420746f6b656e0000000000000000000000000000000000000000602082015250565b7f736f6c64206f7574000000000000000000000000000000000000000000000000600082015250565b7f6e65656420746f206d696e742061746c65617374203100000000000000000000600082015250565b7f5061757361626c653a2070617573656400000000000000000000000000000000600082015250565b7f4552433732313a20617070726f76652063616c6c6572206973206e6f74206f7760008201527f6e6572206e6f7220617070726f76656420666f7220616c6c0000000000000000602082015250565b7f6e6565642061646472657373657320746f2061697264726f7020746f00000000600082015250565b7f4552433732313a2062616c616e636520717565727920666f7220746865207a6560008201527f726f206164647265737300000000000000000000000000000000000000000000602082015250565b7f4552433732313a206f776e657220717565727920666f72206e6f6e657869737460008201527f656e7420746f6b656e0000000000000000000000000000000000000000000000602082015250565b7f636c61696d206973206e6f742061637469766500000000000000000000000000600082015250565b7f6e657720737570706c792063616e206e6f742062652030000000000000000000600082015250565b7f4552433732313a206d696e7420746f20746865207a65726f2061646472657373600082015250565b7f4552433732313a20617070726f76656420717565727920666f72206e6f6e657860008201527f697374656e7420746f6b656e0000000000000000000000000000000000000000602082015250565b7f4f776e61626c653a2063616c6c6572206973206e6f7420746865206f776e6572600082015250565b7f4552433732314d657461646174613a2055524920717565727920666f72206e6f60008201527f6e6578697374656e7420746f6b656e0000000000000000000000000000000000602082015250565b7f43616c6c6572206e6565647320746f206265206f776e6572206f72206170707260008201527f6f76656400000000000000000000000000000000000000000000000000000000602082015250565b7f4552433732313a20617070726f76616c20746f2063757272656e74206f776e6560008201527f7200000000000000000000000000000000000000000000000000000000000000602082015250565b7f6d696e74206e6f74206163746976650000000000000000000000000000000000600082015250565b7f546f6b656e20686173206265656e2075736564206265666f7265000000000000600082015250565b7f4552433732313a207472616e736665722063616c6c6572206973206e6f74206f60008201527f776e6572206e6f7220617070726f766564000000000000000000000000000000602082015250565b7f455243373231456e756d657261626c653a20676c6f62616c20696e646578206f60008201527f7574206f6620626f756e64730000000000000000000000000000000000000000602082015250565b7f63616e2774206d696e742074686174206d616e79000000000000000000000000600082015250565b7f4e6f7420656e6f7567682043524f2073656e743b20636865636b20707269636560008201527f2100000000000000000000000000000000000000000000000000000000000000602082015250565b7f70726963652063616e206e6f7420626520300000000000000000000000000000600082015250565b615d1781615268565b8114615d2257600080fd5b50565b615d2e8161527a565b8114615d3957600080fd5b50565b615d4581615286565b8114615d5057600080fd5b50565b615d5c816152d2565b8114615d6757600080fd5b5056fea264697066735822122080a5f57d74c3b48faf4dd6437207fac961ce804184dace245f5cc69c3c367cd064736f6c63430008070033",
  "linkReferences": {},
  "deployedLinkReferences": {}
}