{
  "_format": "hh-sol-artifact-1",
  "contractName": "SuperMonkehz",
  "sourceName": "contracts/SuperMonkehz.sol",
  "abi": [
    {
      "inputs": [],
      "stateMutability": "nonpayable",
      "type": "constructor"
    },
    {
      "anonymous": false,
      "inputs": [
        {
          "indexed": true,
          "internalType": "address[]",
          "name": "addrs",
          "type": "address[]"
        }
      ],
      "name": "AirDrop",
      "type": "event"
    },
    {
      "anonymous": false,
      "inputs": [
        {
          "indexed": true,
          "internalType": "address",
          "name": "owner",
          "type": "address"
        },
        {
          "indexed": true,
          "internalType": "address",
          "name": "approved",
          "type": "address"
        },
        {
          "indexed": true,
          "internalType": "uint256",
          "name": "tokenId",
          "type": "uint256"
        }
      ],
      "name": "Approval",
      "type": "event"
    },
    {
      "anonymous": false,
      "inputs": [
        {
          "indexed": true,
          "internalType": "address",
          "name": "owner",
          "type": "address"
        },
        {
          "indexed": true,
          "internalType": "address",
          "name": "operator",
          "type": "address"
        },
        {
          "indexed": false,
          "internalType": "bool",
          "name": "approved",
          "type": "bool"
        }
      ],
      "name": "ApprovalForAll",
      "type": "event"
    },
    {
      "anonymous": false,
      "inputs": [
        {
          "indexed": false,
          "internalType": "uint256",
          "name": "tokenID",
          "type": "uint256"
        }
      ],
      "name": "BurnToken",
      "type": "event"
    },
    {
      "anonymous": false,
      "inputs": [
        {
          "indexed": true,
          "internalType": "address",
          "name": "addr",
          "type": "address"
        },
        {
          "indexed": false,
          "internalType": "uint256",
          "name": "amount",
          "type": "uint256"
        },
        {
          "indexed": false,
          "internalType": "uint256",
          "name": "price",
          "type": "uint256"
        }
      ],
      "name": "Mint",
      "type": "event"
    },
    {
      "anonymous": false,
      "inputs": [
        {
          "indexed": true,
          "internalType": "address",
          "name": "previousOwner",
          "type": "address"
        },
        {
          "indexed": true,
          "internalType": "address",
          "name": "newOwner",
          "type": "address"
        }
      ],
      "name": "OwnershipTransferred",
      "type": "event"
    },
    {
      "anonymous": false,
      "inputs": [
        {
          "indexed": false,
          "internalType": "address",
          "name": "account",
          "type": "address"
        }
      ],
      "name": "Paused",
      "type": "event"
    },
    {
      "anonymous": false,
      "inputs": [
        {
          "indexed": false,
          "internalType": "string",
          "name": "newURI",
          "type": "string"
        }
      ],
      "name": "SetBaseURI",
      "type": "event"
    },
    {
      "anonymous": false,
      "inputs": [
        {
          "indexed": false,
          "internalType": "bool",
          "name": "mint1Active",
          "type": "bool"
        }
      ],
      "name": "ToggleMintActive",
      "type": "event"
    },
    {
      "anonymous": false,
      "inputs": [
        {
          "indexed": false,
          "internalType": "bool",
          "name": "paused",
          "type": "bool"
        }
      ],
      "name": "ToggleTransferPause",
      "type": "event"
    },
    {
      "anonymous": false,
      "inputs": [
        {
          "indexed": true,
          "internalType": "address",
          "name": "from",
          "type": "address"
        },
        {
          "indexed": true,
          "internalType": "address",
          "name": "to",
          "type": "address"
        },
        {
          "indexed": true,
          "internalType": "uint256",
          "name": "tokenId",
          "type": "uint256"
        }
      ],
      "name": "Transfer",
      "type": "event"
    },
    {
      "anonymous": false,
      "inputs": [
        {
          "indexed": false,
          "internalType": "address",
          "name": "account",
          "type": "address"
        }
      ],
      "name": "Unpaused",
      "type": "event"
    },
    {
      "anonymous": false,
      "inputs": [
        {
          "indexed": false,
          "internalType": "uint256",
          "name": "newPrice",
          "type": "uint256"
        }
      ],
      "name": "UpdatePrice",
      "type": "event"
    },
    {
      "anonymous": false,
      "inputs": [
        {
          "indexed": false,
          "internalType": "uint256",
          "name": "newMax",
          "type": "uint256"
        }
      ],
      "name": "UpdateTotalSupply",
      "type": "event"
    },
    {
      "anonymous": false,
      "inputs": [
        {
          "indexed": false,
          "internalType": "uint256",
          "name": "amount",
          "type": "uint256"
        }
      ],
      "name": "Withdraw",
      "type": "event"
    },
    {
      "inputs": [],
      "name": "_maxMint",
      "outputs": [
        {
          "internalType": "uint256",
          "name": "",
          "type": "uint256"
        }
      ],
      "stateMutability": "view",
      "type": "function"
    },
    {
      "inputs": [],
      "name": "_mintActive",
      "outputs": [
        {
          "internalType": "bool",
          "name": "",
          "type": "bool"
        }
      ],
      "stateMutability": "view",
      "type": "function"
    },
    {
      "inputs": [
        {
          "internalType": "address",
          "name": "",
          "type": "address"
        }
      ],
      "name": "_mintCount",
      "outputs": [
        {
          "internalType": "uint256",
          "name": "",
          "type": "uint256"
        }
      ],
      "stateMutability": "view",
      "type": "function"
    },
    {
      "inputs": [],
      "name": "_prefixURI",
      "outputs": [
        {
          "internalType": "string",
          "name": "",
          "type": "string"
        }
      ],
      "stateMutability": "view",
      "type": "function"
    },
    {
      "inputs": [],
      "name": "_price",
      "outputs": [
        {
          "internalType": "uint256",
          "name": "",
          "type": "uint256"
        }
      ],
      "stateMutability": "view",
      "type": "function"
    },
    {
      "inputs": [],
      "name": "_totalSupply",
      "outputs": [
        {
          "internalType": "uint256",
          "name": "",
          "type": "uint256"
        }
      ],
      "stateMutability": "view",
      "type": "function"
    },
    {
      "inputs": [
        {
          "internalType": "address[]",
          "name": "addrs",
          "type": "address[]"
        }
      ],
      "name": "airDrop",
      "outputs": [],
      "stateMutability": "nonpayable",
      "type": "function"
    },
    {
      "inputs": [
        {
          "internalType": "address",
          "name": "to",
          "type": "address"
        },
        {
          "internalType": "uint256",
          "name": "tokenId",
          "type": "uint256"
        }
      ],
      "name": "approve",
      "outputs": [],
      "stateMutability": "nonpayable",
      "type": "function"
    },
    {
      "inputs": [
        {
          "internalType": "address",
          "name": "owner",
          "type": "address"
        }
      ],
      "name": "balanceOf",
      "outputs": [
        {
          "internalType": "uint256",
          "name": "",
          "type": "uint256"
        }
      ],
      "stateMutability": "view",
      "type": "function"
    },
    {
      "inputs": [
        {
          "internalType": "uint256",
          "name": "tokenId",
          "type": "uint256"
        }
      ],
      "name": "burnToken",
      "outputs": [],
      "stateMutability": "nonpayable",
      "type": "function"
    },
    {
      "inputs": [
        {
          "internalType": "uint256",
          "name": "tokenId",
          "type": "uint256"
        }
      ],
      "name": "getApproved",
      "outputs": [
        {
          "internalType": "address",
          "name": "",
          "type": "address"
        }
      ],
      "stateMutability": "view",
      "type": "function"
    },
    {
      "inputs": [
        {
          "internalType": "address",
          "name": "owner",
          "type": "address"
        },
        {
          "internalType": "address",
          "name": "operator",
          "type": "address"
        }
      ],
      "name": "isApprovedForAll",
      "outputs": [
        {
          "internalType": "bool",
          "name": "",
          "type": "bool"
        }
      ],
      "stateMutability": "view",
      "type": "function"
    },
    {
      "inputs": [
        {
          "internalType": "uint256",
          "name": "amount",
          "type": "uint256"
        }
      ],
      "name": "mint",
      "outputs": [],
      "stateMutability": "payable",
      "type": "function"
    },
    {
      "inputs": [],
      "name": "name",
      "outputs": [
        {
          "internalType": "string",
          "name": "",
          "type": "string"
        }
      ],
      "stateMutability": "view",
      "type": "function"
    },
    {
      "inputs": [],
      "name": "owner",
      "outputs": [
        {
          "internalType": "address",
          "name": "",
          "type": "address"
        }
      ],
      "stateMutability": "view",
      "type": "function"
    },
    {
      "inputs": [
        {
          "internalType": "uint256",
          "name": "tokenId",
          "type": "uint256"
        }
      ],
      "name": "ownerOf",
      "outputs": [
        {
          "internalType": "address",
          "name": "",
          "type": "address"
        }
      ],
      "stateMutability": "view",
      "type": "function"
    },
    {
      "inputs": [],
      "name": "paused",
      "outputs": [
        {
          "internalType": "bool",
          "name": "",
          "type": "bool"
        }
      ],
      "stateMutability": "view",
      "type": "function"
    },
    {
      "inputs": [],
      "name": "renounceOwnership",
      "outputs": [],
      "stateMutability": "nonpayable",
      "type": "function"
    },
    {
      "inputs": [
        {
          "internalType": "address",
          "name": "from",
          "type": "address"
        },
        {
          "internalType": "address",
          "name": "to",
          "type": "address"
        },
        {
          "internalType": "uint256",
          "name": "tokenId",
          "type": "uint256"
        }
      ],
      "name": "safeTransferFrom",
      "outputs": [],
      "stateMutability": "nonpayable",
      "type": "function"
    },
    {
      "inputs": [
        {
          "internalType": "address",
          "name": "from",
          "type": "address"
        },
        {
          "internalType": "address",
          "name": "to",
          "type": "address"
        },
        {
          "internalType": "uint256",
          "name": "tokenId",
          "type": "uint256"
        },
        {
          "internalType": "bytes",
          "name": "_data",
          "type": "bytes"
        }
      ],
      "name": "safeTransferFrom",
      "outputs": [],
      "stateMutability": "nonpayable",
      "type": "function"
    },
    {
      "inputs": [
        {
          "internalType": "address",
          "name": "operator",
          "type": "address"
        },
        {
          "internalType": "bool",
          "name": "approved",
          "type": "bool"
        }
      ],
      "name": "setApprovalForAll",
      "outputs": [],
      "stateMutability": "nonpayable",
      "type": "function"
    },
    {
      "inputs": [
        {
          "internalType": "string",
          "name": "_uri",
          "type": "string"
        }
      ],
      "name": "setBaseURI",
      "outputs": [],
      "stateMutability": "nonpayable",
      "type": "function"
    },
    {
      "inputs": [
        {
          "internalType": "bytes4",
          "name": "interfaceId",
          "type": "bytes4"
        }
      ],
      "name": "supportsInterface",
      "outputs": [
        {
          "internalType": "bool",
          "name": "",
          "type": "bool"
        }
      ],
      "stateMutability": "view",
      "type": "function"
    },
    {
      "inputs": [],
      "name": "symbol",
      "outputs": [
        {
          "internalType": "string",
          "name": "",
          "type": "string"
        }
      ],
      "stateMutability": "view",
      "type": "function"
    },
    {
      "inputs": [],
      "name": "toggleMintActive",
      "outputs": [],
      "stateMutability": "nonpayable",
      "type": "function"
    },
    {
      "inputs": [],
      "name": "toggleTransferPause",
      "outputs": [],
      "stateMutability": "nonpayable",
      "type": "function"
    },
    {
      "inputs": [
        {
          "internalType": "uint256",
          "name": "index",
          "type": "uint256"
        }
      ],
      "name": "tokenByIndex",
      "outputs": [
        {
          "internalType": "uint256",
          "name": "",
          "type": "uint256"
        }
      ],
      "stateMutability": "view",
      "type": "function"
    },
    {
      "inputs": [
        {
          "internalType": "address",
          "name": "owner",
          "type": "address"
        },
        {
          "internalType": "uint256",
          "name": "index",
          "type": "uint256"
        }
      ],
      "name": "tokenOfOwnerByIndex",
      "outputs": [
        {
          "internalType": "uint256",
          "name": "",
          "type": "uint256"
        }
      ],
      "stateMutability": "view",
      "type": "function"
    },
    {
      "inputs": [
        {
          "internalType": "uint256",
          "name": "tokenId",
          "type": "uint256"
        }
      ],
      "name": "tokenURI",
      "outputs": [
        {
          "internalType": "string",
          "name": "",
          "type": "string"
        }
      ],
      "stateMutability": "view",
      "type": "function"
    },
    {
      "inputs": [],
      "name": "totalSupply",
      "outputs": [
        {
          "internalType": "uint256",
          "name": "",
          "type": "uint256"
        }
      ],
      "stateMutability": "view",
      "type": "function"
    },
    {
      "inputs": [
        {
          "internalType": "address",
          "name": "from",
          "type": "address"
        },
        {
          "internalType": "address",
          "name": "to",
          "type": "address"
        },
        {
          "internalType": "uint256",
          "name": "tokenId",
          "type": "uint256"
        }
      ],
      "name": "transferFrom",
      "outputs": [],
      "stateMutability": "nonpayable",
      "type": "function"
    },
    {
      "inputs": [
        {
          "internalType": "address",
          "name": "newOwner",
          "type": "address"
        }
      ],
      "name": "transferOwnership",
      "outputs": [],
      "stateMutability": "nonpayable",
      "type": "function"
    },
    {
      "inputs": [
        {
          "internalType": "uint256",
          "name": "newMax",
          "type": "uint256"
        }
      ],
      "name": "updateMaxMint",
      "outputs": [],
      "stateMutability": "nonpayable",
      "type": "function"
    },
    {
      "inputs": [
        {
          "internalType": "uint256",
          "name": "newPrice",
          "type": "uint256"
        }
      ],
      "name": "updatePrice",
      "outputs": [],
      "stateMutability": "nonpayable",
      "type": "function"
    },
    {
      "inputs": [
        {
          "internalType": "uint256",
          "name": "newSupply",
          "type": "uint256"
        }
      ],
      "name": "updateTotalSupply",
      "outputs": [],
      "stateMutability": "nonpayable",
      "type": "function"
    },
    {
      "inputs": [],
      "name": "withdraw",
      "outputs": [],
      "stateMutability": "nonpayable",
      "type": "function"
    }
  ],
  "bytecode": "0x60806040526103e8600c556402540be400600d556000600f60006101000a81548160ff02191690831515021790555060196010553480156200004057600080fd5b506040518060400160405280600c81526020017f53757065724d6f6e6b65687a00000000000000000000000000000000000000008152506040518060400160405280600581526020017f534d4f4e4b0000000000000000000000000000000000000000000000000000008152508160009080519060200190620000c5929190620001f0565b508060019080519060200190620000de929190620001f0565b5050506000600a60006101000a81548160ff0219169083151502179055506200011c620001106200012260201b60201c565b6200012a60201b60201c565b62000305565b600033905090565b6000600a60019054906101000a900473ffffffffffffffffffffffffffffffffffffffff16905081600a60016101000a81548173ffffffffffffffffffffffffffffffffffffffff021916908373ffffffffffffffffffffffffffffffffffffffff1602179055508173ffffffffffffffffffffffffffffffffffffffff168173ffffffffffffffffffffffffffffffffffffffff167f8be0079c531659141344cd1fd0a4f28419497f9722a3daafe3b4186f6b6457e060405160405180910390a35050565b828054620001fe90620002a0565b90600052602060002090601f0160209004810192826200022257600085556200026e565b82601f106200023d57805160ff19168380011785556200026e565b828001600101855582156200026e579182015b828111156200026d57825182559160200191906001019062000250565b5b5090506200027d919062000281565b5090565b5b808211156200029c57600081600090555060010162000282565b5090565b60006002820490506001821680620002b957607f821691505b60208210811415620002d057620002cf620002d6565b5b50919050565b7f4e487b7100000000000000000000000000000000000000000000000000000000600052602260045260246000fd5b614ffb80620003156000396000f3fe60806040526004361061020e5760003560e01c806370a0823111610118578063a0712d68116100a0578063c87b56dd1161006f578063c87b56dd14610767578063d02c2bf2146107a4578063e6c6df59146107bb578063e985e9c5146107e4578063f2fde38b146108215761020e565b8063a0712d68146106ce578063a22cb465146106ea578063b640392c14610713578063b88d4fde1461073e5761020e565b80638da5cb5b116100e75780638da5cb5b1461060b57806391860f781461063657806395d89b41146106615780639752a0171461068c5780639ef4b9aa146106a35761020e565b806370a0823114610565578063715018a6146105a25780637b47ec1a146105b95780638d6cc56d146105e25761020e565b80632f745c591161019b5780634f6ccce71161016a5780634f6ccce71461046e57806355f804b3146104ab5780635c975abb146104d45780636352211e146104ff57806366d49bab1461053c5761020e565b80632f745c59146103c65780633ccfd60b146104035780633eaaf86b1461041a57806342842e0e146104455761020e565b8063095ea7b3116101e2578063095ea7b3146102e157806318160ddd1461030a578063235b6ea11461033557806323b872dd14610360578063288ee646146103895761020e565b8062b6849f1461021357806301ffc9a71461023c57806306fdde0314610279578063081812fc146102a4575b600080fd5b34801561021f57600080fd5b5061023a6004803603810190610235919061376f565b61084a565b005b34801561024857600080fd5b50610263600480360381019061025e91906137b8565b610992565b6040516102709190613e99565b60405180910390f35b34801561028557600080fd5b5061028e610a0c565b60405161029b9190613eb4565b60405180910390f35b3480156102b057600080fd5b506102cb60048036038101906102c6919061385b565b610a9e565b6040516102d89190613e32565b60405180910390f35b3480156102ed57600080fd5b506103086004803603810190610303919061372f565b610b23565b005b34801561031657600080fd5b5061031f610c3b565b60405161032c9190614296565b60405180910390f35b34801561034157600080fd5b5061034a610c48565b6040516103579190614296565b60405180910390f35b34801561036c57600080fd5b5061038760048036038101906103829190613619565b610c4e565b005b34801561039557600080fd5b506103b060048036038101906103ab91906135ac565b610cae565b6040516103bd9190614296565b60405180910390f35b3480156103d257600080fd5b506103ed60048036038101906103e8919061372f565b610cc6565b6040516103fa9190614296565b60405180910390f35b34801561040f57600080fd5b50610418610d6b565b005b34801561042657600080fd5b5061042f610e7a565b60405161043c9190614296565b60405180910390f35b34801561045157600080fd5b5061046c60048036038101906104679190613619565b610e80565b005b34801561047a57600080fd5b506104956004803603810190610490919061385b565b610ea0565b6040516104a29190614296565b60405180910390f35b3480156104b757600080fd5b506104d260048036038101906104cd9190613812565b610f11565b005b3480156104e057600080fd5b506104e9610fde565b6040516104f69190613e99565b60405180910390f35b34801561050b57600080fd5b506105266004803603810190610521919061385b565b610ff5565b6040516105339190613e32565b60405180910390f35b34801561054857600080fd5b50610563600480360381019061055e919061385b565b6110a7565b005b34801561057157600080fd5b5061058c600480360381019061058791906135ac565b6111a7565b6040516105999190614296565b60405180910390f35b3480156105ae57600080fd5b506105b761125f565b005b3480156105c557600080fd5b506105e060048036038101906105db919061385b565b6112e7565b005b3480156105ee57600080fd5b506106096004803603810190610604919061385b565b611373565b005b34801561061757600080fd5b50610620611473565b60405161062d9190613e32565b60405180910390f35b34801561064257600080fd5b5061064b61149d565b6040516106589190613eb4565b60405180910390f35b34801561066d57600080fd5b5061067661152b565b6040516106839190613eb4565b60405180910390f35b34801561069857600080fd5b506106a16115bd565b005b3480156106af57600080fd5b506106b861169b565b6040516106c59190613e99565b60405180910390f35b6106e860048036038101906106e3919061385b565b6116ae565b005b3480156106f657600080fd5b50610711600480360381019061070c91906136ef565b6119d3565b005b34801561071f57600080fd5b506107286119e9565b6040516107359190614296565b60405180910390f35b34801561074a57600080fd5b506107656004803603810190610760919061366c565b6119ef565b005b34801561077357600080fd5b5061078e6004803603810190610789919061385b565b611a51565b60405161079b9190613eb4565b60405180910390f35b3480156107b057600080fd5b506107b9611af8565b005b3480156107c757600080fd5b506107e260048036038101906107dd919061385b565b611be6565b005b3480156107f057600080fd5b5061080b600480360381019061080691906135d9565b611c79565b6040516108189190613e99565b60405180910390f35b34801561082d57600080fd5b50610848600480360381019061084391906135ac565b611d0d565b005b610852611e05565b73ffffffffffffffffffffffffffffffffffffffff16610870611473565b73ffffffffffffffffffffffffffffffffffffffff16146108c6576040517f08c379a00000000000000000000000000000000000000000000000000000000081526004016108bd906141b6565b60405180910390fd5b600081511161090a576040517f08c379a000000000000000000000000000000000000000000000000000000000815260040161090190614276565b60405180910390fd5b60005b815181101561094c5761093982828151811061092c5761092b614767565b5b6020026020010151611e0d565b808061094490614631565b91505061090d565b508060405161095b9190613df7565b60405180910390207fb9413d9dd40eadf97d2949c3c57a163bb454e537a8696520d52a74e0252011e960405160405180910390a250565b60007f780e9d63000000000000000000000000000000000000000000000000000000007bffffffffffffffffffffffffffffffffffffffffffffffffffffffff1916827bffffffffffffffffffffffffffffffffffffffffffffffffffffffff19161480610a055750610a0482611e33565b5b9050919050565b606060008054610a1b906145ce565b80601f0160208091040260200160405190810160405280929190818152602001828054610a47906145ce565b8015610a945780601f10610a6957610100808354040283529160200191610a94565b820191906000526020600020905b815481529060010190602001808311610a7757829003601f168201915b5050505050905090565b6000610aa982611f15565b610ae8576040517f08c379a0000000000000000000000000000000000000000000000000000000008152600401610adf90614196565b60405180910390fd5b6004600083815260200190815260200160002060009054906101000a900473ffffffffffffffffffffffffffffffffffffffff169050919050565b6000610b2e82610ff5565b90508073ffffffffffffffffffffffffffffffffffffffff168373ffffffffffffffffffffffffffffffffffffffff161415610b9f576040517f08c379a0000000000000000000000000000000000000000000000000000000008152600401610b96906141f6565b60405180910390fd5b8073ffffffffffffffffffffffffffffffffffffffff16610bbe611e05565b73ffffffffffffffffffffffffffffffffffffffff161480610bed5750610bec81610be7611e05565b611c79565b5b610c2c576040517f08c379a0000000000000000000000000000000000000000000000000000000008152600401610c23906140d6565b60405180910390fd5b610c368383611f81565b505050565b6000600880549050905090565b600d5481565b610c5f610c59611e05565b8261203a565b610c9e576040517f08c379a0000000000000000000000000000000000000000000000000000000008152600401610c9590614236565b60405180910390fd5b610ca9838383612118565b505050565b600e6020528060005260406000206000915090505481565b6000610cd1836111a7565b8210610d12576040517f08c379a0000000000000000000000000000000000000000000000000000000008152600401610d0990613f36565b60405180910390fd5b600660008473ffffffffffffffffffffffffffffffffffffffff1673ffffffffffffffffffffffffffffffffffffffff168152602001908152602001600020600083815260200190815260200160002054905092915050565b610d73611e05565b73ffffffffffffffffffffffffffffffffffffffff16610d91611473565b73ffffffffffffffffffffffffffffffffffffffff1614610de7576040517f08c379a0000000000000000000000000000000000000000000000000000000008152600401610dde906141b6565b60405180910390fd5b60004711610df457600080fd5b60004790503373ffffffffffffffffffffffffffffffffffffffff166108fc829081150290604051600060405180830381858888f19350505050158015610e3f573d6000803e3d6000fd5b507f5b6b431d4476a211bb7d41c20d1aab9ae2321deee0d20be3d9fc9b1093fa6e3d81604051610e6f9190614296565b60405180910390a150565b600c5481565b610e9b838383604051806020016040528060008152506119ef565b505050565b6000610eaa610c3b565b8210610eeb576040517f08c379a0000000000000000000000000000000000000000000000000000000008152600401610ee290614256565b60405180910390fd5b60088281548110610eff57610efe614767565b5b90600052602060002001549050919050565b610f19611e05565b73ffffffffffffffffffffffffffffffffffffffff16610f37611473565b73ffffffffffffffffffffffffffffffffffffffff1614610f8d576040517f08c379a0000000000000000000000000000000000000000000000000000000008152600401610f84906141b6565b60405180910390fd5b8060119080519060200190610fa3929190613322565b507f23c8c9488efebfd474e85a7956de6f39b17c7ab88502d42a623db2d8e382bbaa81604051610fd39190613eb4565b60405180910390a150565b6000600a60009054906101000a900460ff16905090565b6000806002600084815260200190815260200160002060009054906101000a900473ffffffffffffffffffffffffffffffffffffffff169050600073ffffffffffffffffffffffffffffffffffffffff168173ffffffffffffffffffffffffffffffffffffffff16141561109e576040517f08c379a000000000000000000000000000000000000000000000000000000000815260040161109590614116565b60405180910390fd5b80915050919050565b6110af611e05565b73ffffffffffffffffffffffffffffffffffffffff166110cd611473565b73ffffffffffffffffffffffffffffffffffffffff1614611123576040517f08c379a000000000000000000000000000000000000000000000000000000000815260040161111a906141b6565b60405180910390fd5b60008111611166576040517f08c379a000000000000000000000000000000000000000000000000000000000815260040161115d90613f16565b60405180910390fd5b80600c819055507fee643f334779f1031decbee003f80a0bcb7ecdc24b6693539cf7447a66afba8a8160405161119c9190614296565b60405180910390a150565b60008073ffffffffffffffffffffffffffffffffffffffff168273ffffffffffffffffffffffffffffffffffffffff161415611218576040517f08c379a000000000000000000000000000000000000000000000000000000000815260040161120f906140f6565b60405180910390fd5b600360008373ffffffffffffffffffffffffffffffffffffffff1673ffffffffffffffffffffffffffffffffffffffff168152602001908152602001600020549050919050565b611267611e05565b73ffffffffffffffffffffffffffffffffffffffff16611285611473565b73ffffffffffffffffffffffffffffffffffffffff16146112db576040517f08c379a00000000000000000000000000000000000000000000000000000000081526004016112d2906141b6565b60405180910390fd5b6112e5600061237f565b565b6112f1338261203a565b611330576040517f08c379a000000000000000000000000000000000000000000000000000000000815260040161132790614056565b60405180910390fd5b61133981612445565b7f066548819fc4bd1208ea1c8608597593134d5661f459c2ef75cad30918af5a33816040516113689190614296565b60405180910390a150565b61137b611e05565b73ffffffffffffffffffffffffffffffffffffffff16611399611473565b73ffffffffffffffffffffffffffffffffffffffff16146113ef576040517f08c379a00000000000000000000000000000000000000000000000000000000081526004016113e6906141b6565b60405180910390fd5b60008111611432576040517f08c379a0000000000000000000000000000000000000000000000000000000008152600401611429906140b6565b60405180910390fd5b80600d819055507f1a15ab7124a4e1ce00837351261771caf1691cd7d85ed3a0ac3157a1ee1a3805816040516114689190614296565b60405180910390a150565b6000600a60019054906101000a900473ffffffffffffffffffffffffffffffffffffffff16905090565b601180546114aa906145ce565b80601f01602080910402602001604051908101604052809291908181526020018280546114d6906145ce565b80156115235780601f106114f857610100808354040283529160200191611523565b820191906000526020600020905b81548152906001019060200180831161150657829003601f168201915b505050505081565b60606001805461153a906145ce565b80601f0160208091040260200160405190810160405280929190818152602001828054611566906145ce565b80156115b35780601f10611588576101008083540402835291602001916115b3565b820191906000526020600020905b81548152906001019060200180831161159657829003601f168201915b5050505050905090565b6115c5611e05565b73ffffffffffffffffffffffffffffffffffffffff166115e3611473565b73ffffffffffffffffffffffffffffffffffffffff1614611639576040517f08c379a0000000000000000000000000000000000000000000000000000000008152600401611630906141b6565b60405180910390fd5b611641610fde565b6116525761164d612562565b61165b565b61165a612605565b5b7f71aa6dbdf1045ea9e6926a7848dbdd98d55270c4fee88cbc77fd816ccc8d6d2f611684610fde565b6040516116919190613e99565b60405180910390a1565b600f60009054906101000a900460ff1681565b6000339050600082116116f6576040517f08c379a00000000000000000000000000000000000000000000000000000000081526004016116ed90614136565b60405180910390fd5b600f60009054906101000a900460ff16611745576040517f08c379a000000000000000000000000000000000000000000000000000000000815260040161173c90614176565b60405180910390fd5b6000611751600b6126a7565b9050600c548110611797576040517f08c379a000000000000000000000000000000000000000000000000000000000815260040161178e90613ef6565b60405180910390fd5b600c5483826117a69190614403565b11156117e7576040517f08c379a00000000000000000000000000000000000000000000000000000000081526004016117de90613fd6565b60405180910390fd5b601054600e60008473ffffffffffffffffffffffffffffffffffffffff1673ffffffffffffffffffffffffffffffffffffffff16815260200190815260200160002054846118359190614403565b1115611876576040517f08c379a000000000000000000000000000000000000000000000000000000000815260040161186d90614076565b60405180910390fd5b600d5483611884919061448a565b3410156118c6576040517f08c379a00000000000000000000000000000000000000000000000000000000081526004016118bd90614216565b60405180910390fd5b82600e60008473ffffffffffffffffffffffffffffffffffffffff1673ffffffffffffffffffffffffffffffffffffffff168152602001908152602001600020546119119190614403565b600e60008473ffffffffffffffffffffffffffffffffffffffff1673ffffffffffffffffffffffffffffffffffffffff1681526020019081526020016000208190555060005b8381101561197b5761196833611e0d565b808061197390614631565b915050611957565b508173ffffffffffffffffffffffffffffffffffffffff167f4c209b5fc8ad50758f13e2e1088ba56a560dff690a1c6fef26394f4c03821c4f84600d546040516119c69291906142b1565b60405180910390a2505050565b6119e56119de611e05565b83836126b5565b5050565b60105481565b611a006119fa611e05565b8361203a565b611a3f576040517f08c379a0000000000000000000000000000000000000000000000000000000008152600401611a3690614236565b60405180910390fd5b611a4b84848484612822565b50505050565b6060611a5c82611f15565b611a9b576040517f08c379a0000000000000000000000000000000000000000000000000000000008152600401611a92906141d6565b60405180910390fd5b6000611aa561287e565b90506000815111611ac55760405180602001604052806000815250611af0565b80611acf84612910565b604051602001611ae0929190613e0e565b6040516020818303038152906040525b915050919050565b611b00611e05565b73ffffffffffffffffffffffffffffffffffffffff16611b1e611473565b73ffffffffffffffffffffffffffffffffffffffff1614611b74576040517f08c379a0000000000000000000000000000000000000000000000000000000008152600401611b6b906141b6565b60405180910390fd5b600f60009054906101000a900460ff1615600f60006101000a81548160ff0219169083151502179055507f756643b49a6f13e0209676621cbd6d5e01c401e38a271b690fdf2a347597faa9600f60009054906101000a900460ff16604051611bdc9190613e99565b60405180910390a1565b611bee611e05565b73ffffffffffffffffffffffffffffffffffffffff16611c0c611473565b73ffffffffffffffffffffffffffffffffffffffff1614611c62576040517f08c379a0000000000000000000000000000000000000000000000000000000008152600401611c59906141b6565b60405180910390fd5b60008111611c6f57600080fd5b8060108190555050565b6000600560008473ffffffffffffffffffffffffffffffffffffffff1673ffffffffffffffffffffffffffffffffffffffff16815260200190815260200160002060008373ffffffffffffffffffffffffffffffffffffffff1673ffffffffffffffffffffffffffffffffffffffff16815260200190815260200160002060009054906101000a900460ff16905092915050565b611d15611e05565b73ffffffffffffffffffffffffffffffffffffffff16611d33611473565b73ffffffffffffffffffffffffffffffffffffffff1614611d89576040517f08c379a0000000000000000000000000000000000000000000000000000000008152600401611d80906141b6565b60405180910390fd5b600073ffffffffffffffffffffffffffffffffffffffff168173ffffffffffffffffffffffffffffffffffffffff161415611df9576040517f08c379a0000000000000000000000000000000000000000000000000000000008152600401611df090613f76565b60405180910390fd5b611e028161237f565b50565b600033905090565b611e17600b612a71565b6000611e23600b6126a7565b9050611e2f8282612a87565b5050565b60007f80ac58cd000000000000000000000000000000000000000000000000000000007bffffffffffffffffffffffffffffffffffffffffffffffffffffffff1916827bffffffffffffffffffffffffffffffffffffffffffffffffffffffff19161480611efe57507f5b5e139f000000000000000000000000000000000000000000000000000000007bffffffffffffffffffffffffffffffffffffffffffffffffffffffff1916827bffffffffffffffffffffffffffffffffffffffffffffffffffffffff1916145b80611f0e5750611f0d82612aa5565b5b9050919050565b60008073ffffffffffffffffffffffffffffffffffffffff166002600084815260200190815260200160002060009054906101000a900473ffffffffffffffffffffffffffffffffffffffff1673ffffffffffffffffffffffffffffffffffffffff1614159050919050565b816004600083815260200190815260200160002060006101000a81548173ffffffffffffffffffffffffffffffffffffffff021916908373ffffffffffffffffffffffffffffffffffffffff160217905550808273ffffffffffffffffffffffffffffffffffffffff16611ff483610ff5565b73ffffffffffffffffffffffffffffffffffffffff167f8c5be1e5ebec7d5bd14f71427d1e84f3dd0314c0f7b2291e5b200ac8c7c3b92560405160405180910390a45050565b600061204582611f15565b612084576040517f08c379a000000000000000000000000000000000000000000000000000000000815260040161207b90614036565b60405180910390fd5b600061208f83610ff5565b90508073ffffffffffffffffffffffffffffffffffffffff168473ffffffffffffffffffffffffffffffffffffffff1614806120fe57508373ffffffffffffffffffffffffffffffffffffffff166120e684610a9e565b73ffffffffffffffffffffffffffffffffffffffff16145b8061210f575061210e8185611c79565b5b91505092915050565b8273ffffffffffffffffffffffffffffffffffffffff1661213882610ff5565b73ffffffffffffffffffffffffffffffffffffffff161461218e576040517f08c379a000000000000000000000000000000000000000000000000000000000815260040161218590613f96565b60405180910390fd5b600073ffffffffffffffffffffffffffffffffffffffff168273ffffffffffffffffffffffffffffffffffffffff1614156121fe576040517f08c379a00000000000000000000000000000000000000000000000000000000081526004016121f590613ff6565b60405180910390fd5b612209838383612b0f565b612214600082611f81565b6001600360008573ffffffffffffffffffffffffffffffffffffffff1673ffffffffffffffffffffffffffffffffffffffff168152602001908152602001600020600082825461226491906144e4565b925050819055506001600360008473ffffffffffffffffffffffffffffffffffffffff1673ffffffffffffffffffffffffffffffffffffffff16815260200190815260200160002060008282546122bb9190614403565b92505081905550816002600083815260200190815260200160002060006101000a81548173ffffffffffffffffffffffffffffffffffffffff021916908373ffffffffffffffffffffffffffffffffffffffff160217905550808273ffffffffffffffffffffffffffffffffffffffff168473ffffffffffffffffffffffffffffffffffffffff167fddf252ad1be2c89b69c2b068fc378daa952ba7f163c4a11628f55a4df523b3ef60405160405180910390a461237a838383612c23565b505050565b6000600a60019054906101000a900473ffffffffffffffffffffffffffffffffffffffff16905081600a60016101000a81548173ffffffffffffffffffffffffffffffffffffffff021916908373ffffffffffffffffffffffffffffffffffffffff1602179055508173ffffffffffffffffffffffffffffffffffffffff168173ffffffffffffffffffffffffffffffffffffffff167f8be0079c531659141344cd1fd0a4f28419497f9722a3daafe3b4186f6b6457e060405160405180910390a35050565b600061245082610ff5565b905061245e81600084612b0f565b612469600083611f81565b6001600360008373ffffffffffffffffffffffffffffffffffffffff1673ffffffffffffffffffffffffffffffffffffffff16815260200190815260200160002060008282546124b991906144e4565b925050819055506002600083815260200190815260200160002060006101000a81549073ffffffffffffffffffffffffffffffffffffffff021916905581600073ffffffffffffffffffffffffffffffffffffffff168273ffffffffffffffffffffffffffffffffffffffff167fddf252ad1be2c89b69c2b068fc378daa952ba7f163c4a11628f55a4df523b3ef60405160405180910390a461255e81600084612c23565b5050565b61256a610fde565b156125aa576040517f08c379a00000000000000000000000000000000000000000000000000000000081526004016125a190614096565b60405180910390fd5b6001600a60006101000a81548160ff0219169083151502179055507f62e78cea01bee320cd4e420270b5ea74000d11b0c9f74754ebdbfc544b05a2586125ee611e05565b6040516125fb9190613e32565b60405180910390a1565b61260d610fde565b61264c576040517f08c379a000000000000000000000000000000000000000000000000000000000815260040161264390613ed6565b60405180910390fd5b6000600a60006101000a81548160ff0219169083151502179055507f5db9ee0a495bf2e6ff9c91a7834c1ba4fdd244a5e8aa4e537bd38aeae4b073aa612690611e05565b60405161269d9190613e32565b60405180910390a1565b600081600001549050919050565b8173ffffffffffffffffffffffffffffffffffffffff168373ffffffffffffffffffffffffffffffffffffffff161415612724576040517f08c379a000000000000000000000000000000000000000000000000000000000815260040161271b90614016565b60405180910390fd5b80600560008573ffffffffffffffffffffffffffffffffffffffff1673ffffffffffffffffffffffffffffffffffffffff16815260200190815260200160002060008473ffffffffffffffffffffffffffffffffffffffff1673ffffffffffffffffffffffffffffffffffffffff16815260200190815260200160002060006101000a81548160ff0219169083151502179055508173ffffffffffffffffffffffffffffffffffffffff168373ffffffffffffffffffffffffffffffffffffffff167f17307eab39ab6107e8899845ad3d59bd9653f200f220920489ca2b5937696c31836040516128159190613e99565b60405180910390a3505050565b61282d848484612118565b61283984848484612c28565b612878576040517f08c379a000000000000000000000000000000000000000000000000000000000815260040161286f90613f56565b60405180910390fd5b50505050565b60606011805461288d906145ce565b80601f01602080910402602001604051908101604052809291908181526020018280546128b9906145ce565b80156129065780601f106128db57610100808354040283529160200191612906565b820191906000526020600020905b8154815290600101906020018083116128e957829003601f168201915b5050505050905090565b60606000821415612958576040518060400160405280600181526020017f30000000000000000000000000000000000000000000000000000000000000008152509050612a6c565b600082905060005b6000821461298a57808061297390614631565b915050600a826129839190614459565b9150612960565b60008167ffffffffffffffff8111156129a6576129a5614796565b5b6040519080825280601f01601f1916602001820160405280156129d85781602001600182028036833780820191505090505b5090505b60008514612a65576001826129f191906144e4565b9150600a85612a00919061467a565b6030612a0c9190614403565b60f81b818381518110612a2257612a21614767565b5b60200101907effffffffffffffffffffffffffffffffffffffffffffffffffffffffffffff1916908160001a905350600a85612a5e9190614459565b94506129dc565b8093505050505b919050565b6001816000016000828254019250508190555050565b612aa1828260405180602001604052806000815250612dbf565b5050565b60007f01ffc9a7000000000000000000000000000000000000000000000000000000007bffffffffffffffffffffffffffffffffffffffffffffffffffffffff1916827bffffffffffffffffffffffffffffffffffffffffffffffffffffffff1916149050919050565b612b1a838383612e1a565b600073ffffffffffffffffffffffffffffffffffffffff168373ffffffffffffffffffffffffffffffffffffffff161415612b5d57612b5881612e1f565b612b9c565b8173ffffffffffffffffffffffffffffffffffffffff168373ffffffffffffffffffffffffffffffffffffffff1614612b9b57612b9a8382612e68565b5b5b600073ffffffffffffffffffffffffffffffffffffffff168273ffffffffffffffffffffffffffffffffffffffff161415612bdf57612bda81612fd5565b612c1e565b8273ffffffffffffffffffffffffffffffffffffffff168273ffffffffffffffffffffffffffffffffffffffff1614612c1d57612c1c82826130a6565b5b5b505050565b505050565b6000612c498473ffffffffffffffffffffffffffffffffffffffff16613125565b15612db2578373ffffffffffffffffffffffffffffffffffffffff1663150b7a02612c72611e05565b8786866040518563ffffffff1660e01b8152600401612c949493929190613e4d565b602060405180830381600087803b158015612cae57600080fd5b505af1925050508015612cdf57506040513d601f19601f82011682018060405250810190612cdc91906137e5565b60015b612d62573d8060008114612d0f576040519150601f19603f3d011682016040523d82523d6000602084013e612d14565b606091505b50600081511415612d5a576040517f08c379a0000000000000000000000000000000000000000000000000000000008152600401612d5190613f56565b60405180910390fd5b805181602001fd5b63150b7a0260e01b7bffffffffffffffffffffffffffffffffffffffffffffffffffffffff1916817bffffffffffffffffffffffffffffffffffffffffffffffffffffffff191614915050612db7565b600190505b949350505050565b612dc98383613148565b612dd66000848484612c28565b612e15576040517f08c379a0000000000000000000000000000000000000000000000000000000008152600401612e0c90613f56565b60405180910390fd5b505050565b505050565b6008805490506009600083815260200190815260200160002081905550600881908060018154018082558091505060019003906000526020600020016000909190919091505550565b60006001612e75846111a7565b612e7f91906144e4565b9050600060076000848152602001908152602001600020549050818114612f64576000600660008673ffffffffffffffffffffffffffffffffffffffff1673ffffffffffffffffffffffffffffffffffffffff168152602001908152602001600020600084815260200190815260200160002054905080600660008773ffffffffffffffffffffffffffffffffffffffff1673ffffffffffffffffffffffffffffffffffffffff168152602001908152602001600020600084815260200190815260200160002081905550816007600083815260200190815260200160002081905550505b6007600084815260200190815260200160002060009055600660008573ffffffffffffffffffffffffffffffffffffffff1673ffffffffffffffffffffffffffffffffffffffff16815260200190815260200160002060008381526020019081526020016000206000905550505050565b60006001600880549050612fe991906144e4565b905060006009600084815260200190815260200160002054905060006008838154811061301957613018614767565b5b90600052602060002001549050806008838154811061303b5761303a614767565b5b90600052602060002001819055508160096000838152602001908152602001600020819055506009600085815260200190815260200160002060009055600880548061308a57613089614738565b5b6001900381819060005260206000200160009055905550505050565b60006130b1836111a7565b905081600660008573ffffffffffffffffffffffffffffffffffffffff1673ffffffffffffffffffffffffffffffffffffffff168152602001908152602001600020600083815260200190815260200160002081905550806007600084815260200190815260200160002081905550505050565b6000808273ffffffffffffffffffffffffffffffffffffffff163b119050919050565b600073ffffffffffffffffffffffffffffffffffffffff168273ffffffffffffffffffffffffffffffffffffffff1614156131b8576040517f08c379a00000000000000000000000000000000000000000000000000000000081526004016131af90614156565b60405180910390fd5b6131c181611f15565b15613201576040517f08c379a00000000000000000000000000000000000000000000000000000000081526004016131f890613fb6565b60405180910390fd5b61320d60008383612b0f565b6001600360008473ffffffffffffffffffffffffffffffffffffffff1673ffffffffffffffffffffffffffffffffffffffff168152602001908152602001600020600082825461325d9190614403565b92505081905550816002600083815260200190815260200160002060006101000a81548173ffffffffffffffffffffffffffffffffffffffff021916908373ffffffffffffffffffffffffffffffffffffffff160217905550808273ffffffffffffffffffffffffffffffffffffffff16600073ffffffffffffffffffffffffffffffffffffffff167fddf252ad1be2c89b69c2b068fc378daa952ba7f163c4a11628f55a4df523b3ef60405160405180910390a461331e60008383612c23565b5050565b82805461332e906145ce565b90600052602060002090601f0160209004810192826133505760008555613397565b82601f1061336957805160ff1916838001178555613397565b82800160010185558215613397579182015b8281111561339657825182559160200191906001019061337b565b5b5090506133a491906133a8565b5090565b5b808211156133c15760008160009055506001016133a9565b5090565b60006133d86133d3846142ff565b6142da565b905080838252602082019050828560208602820111156133fb576133fa6147ca565b5b60005b8581101561342b578161341188826134b9565b8452602084019350602083019250506001810190506133fe565b5050509392505050565b60006134486134438461432b565b6142da565b905082815260208101848484011115613464576134636147cf565b5b61346f84828561458c565b509392505050565b600061348a6134858461435c565b6142da565b9050828152602081018484840111156134a6576134a56147cf565b5b6134b184828561458c565b509392505050565b6000813590506134c881614f69565b92915050565b600082601f8301126134e3576134e26147c5565b5b81356134f38482602086016133c5565b91505092915050565b60008135905061350b81614f80565b92915050565b60008135905061352081614f97565b92915050565b60008151905061353581614f97565b92915050565b600082601f8301126135505761354f6147c5565b5b8135613560848260208601613435565b91505092915050565b600082601f83011261357e5761357d6147c5565b5b813561358e848260208601613477565b91505092915050565b6000813590506135a681614fae565b92915050565b6000602082840312156135c2576135c16147d9565b5b60006135d0848285016134b9565b91505092915050565b600080604083850312156135f0576135ef6147d9565b5b60006135fe858286016134b9565b925050602061360f858286016134b9565b9150509250929050565b600080600060608486031215613632576136316147d9565b5b6000613640868287016134b9565b9350506020613651868287016134b9565b925050604061366286828701613597565b9150509250925092565b60008060008060808587031215613686576136856147d9565b5b6000613694878288016134b9565b94505060206136a5878288016134b9565b93505060406136b687828801613597565b925050606085013567ffffffffffffffff8111156136d7576136d66147d4565b5b6136e38782880161353b565b91505092959194509250565b60008060408385031215613706576137056147d9565b5b6000613714858286016134b9565b9250506020613725858286016134fc565b9150509250929050565b60008060408385031215613746576137456147d9565b5b6000613754858286016134b9565b925050602061376585828601613597565b9150509250929050565b600060208284031215613785576137846147d9565b5b600082013567ffffffffffffffff8111156137a3576137a26147d4565b5b6137af848285016134ce565b91505092915050565b6000602082840312156137ce576137cd6147d9565b5b60006137dc84828501613511565b91505092915050565b6000602082840312156137fb576137fa6147d9565b5b600061380984828501613526565b91505092915050565b600060208284031215613828576138276147d9565b5b600082013567ffffffffffffffff811115613846576138456147d4565b5b61385284828501613569565b91505092915050565b600060208284031215613871576138706147d9565b5b600061387f84828501613597565b91505092915050565b600061389483836138af565b60208301905092915050565b6138a981614518565b82525050565b6138b881614518565b82525050565b60006138c98261439d565b6138d381856143cb565b93506138de8361438d565b8060005b8381101561390f5781516138f68882613888565b9750613901836143be565b9250506001810190506138e2565b5085935050505092915050565b6139258161452a565b82525050565b6000613936826143a8565b61394081856143d6565b935061395081856020860161459b565b613959816147de565b840191505092915050565b600061396f826143b3565b61397981856143e7565b935061398981856020860161459b565b613992816147de565b840191505092915050565b60006139a8826143b3565b6139b281856143f8565b93506139c281856020860161459b565b80840191505092915050565b60006139db6014836143e7565b91506139e6826147ef565b602082019050919050565b60006139fe600e836143e7565b9150613a0982614818565b602082019050919050565b6000613a216034836143e7565b9150613a2c82614841565b604082019050919050565b6000613a44602b836143e7565b9150613a4f82614890565b604082019050919050565b6000613a676032836143e7565b9150613a72826148df565b604082019050919050565b6000613a8a6026836143e7565b9150613a958261492e565b604082019050919050565b6000613aad6025836143e7565b9150613ab88261497d565b604082019050919050565b6000613ad0601c836143e7565b9150613adb826149cc565b602082019050919050565b6000613af3601a836143e7565b9150613afe826149f5565b602082019050919050565b6000613b166024836143e7565b9150613b2182614a1e565b604082019050919050565b6000613b396019836143e7565b9150613b4482614a6d565b602082019050919050565b6000613b5c602c836143e7565b9150613b6782614a96565b604082019050919050565b6000613b7f6031836143e7565b9150613b8a82614ae5565b604082019050919050565b6000613ba26011836143e7565b9150613bad82614b34565b602082019050919050565b6000613bc56010836143e7565b9150613bd082614b5d565b602082019050919050565b6000613be8602d836143e7565b9150613bf382614b86565b604082019050919050565b6000613c0b6038836143e7565b9150613c1682614bd5565b604082019050919050565b6000613c2e602a836143e7565b9150613c3982614c24565b604082019050919050565b6000613c516029836143e7565b9150613c5c82614c73565b604082019050919050565b6000613c74601c836143e7565b9150613c7f82614cc2565b602082019050919050565b6000613c976020836143e7565b9150613ca282614ceb565b602082019050919050565b6000613cba6015836143e7565b9150613cc582614d14565b602082019050919050565b6000613cdd602c836143e7565b9150613ce882614d3d565b604082019050919050565b6000613d006020836143e7565b9150613d0b82614d8c565b602082019050919050565b6000613d23602f836143e7565b9150613d2e82614db5565b604082019050919050565b6000613d466021836143e7565b9150613d5182614e04565b604082019050919050565b6000613d696016836143e7565b9150613d7482614e53565b602082019050919050565b6000613d8c6031836143e7565b9150613d9782614e7c565b604082019050919050565b6000613daf602c836143e7565b9150613dba82614ecb565b604082019050919050565b6000613dd26026836143e7565b9150613ddd82614f1a565b604082019050919050565b613df181614582565b82525050565b6000613e0382846138be565b915081905092915050565b6000613e1a828561399d565b9150613e26828461399d565b91508190509392505050565b6000602082019050613e4760008301846138a0565b92915050565b6000608082019050613e6260008301876138a0565b613e6f60208301866138a0565b613e7c6040830185613de8565b8181036060830152613e8e818461392b565b905095945050505050565b6000602082019050613eae600083018461391c565b92915050565b60006020820190508181036000830152613ece8184613964565b905092915050565b60006020820190508181036000830152613eef816139ce565b9050919050565b60006020820190508181036000830152613f0f816139f1565b9050919050565b60006020820190508181036000830152613f2f81613a14565b9050919050565b60006020820190508181036000830152613f4f81613a37565b9050919050565b60006020820190508181036000830152613f6f81613a5a565b9050919050565b60006020820190508181036000830152613f8f81613a7d565b9050919050565b60006020820190508181036000830152613faf81613aa0565b9050919050565b60006020820190508181036000830152613fcf81613ac3565b9050919050565b60006020820190508181036000830152613fef81613ae6565b9050919050565b6000602082019050818103600083015261400f81613b09565b9050919050565b6000602082019050818103600083015261402f81613b2c565b9050919050565b6000602082019050818103600083015261404f81613b4f565b9050919050565b6000602082019050818103600083015261406f81613b72565b9050919050565b6000602082019050818103600083015261408f81613b95565b9050919050565b600060208201905081810360008301526140af81613bb8565b9050919050565b600060208201905081810360008301526140cf81613bdb565b9050919050565b600060208201905081810360008301526140ef81613bfe565b9050919050565b6000602082019050818103600083015261410f81613c21565b9050919050565b6000602082019050818103600083015261412f81613c44565b9050919050565b6000602082019050818103600083015261414f81613c67565b9050919050565b6000602082019050818103600083015261416f81613c8a565b9050919050565b6000602082019050818103600083015261418f81613cad565b9050919050565b600060208201905081810360008301526141af81613cd0565b9050919050565b600060208201905081810360008301526141cf81613cf3565b9050919050565b600060208201905081810360008301526141ef81613d16565b9050919050565b6000602082019050818103600083015261420f81613d39565b9050919050565b6000602082019050818103600083015261422f81613d5c565b9050919050565b6000602082019050818103600083015261424f81613d7f565b9050919050565b6000602082019050818103600083015261426f81613da2565b9050919050565b6000602082019050818103600083015261428f81613dc5565b9050919050565b60006020820190506142ab6000830184613de8565b92915050565b60006040820190506142c66000830185613de8565b6142d36020830184613de8565b9392505050565b60006142e46142f5565b90506142f08282614600565b919050565b6000604051905090565b600067ffffffffffffffff82111561431a57614319614796565b5b602082029050602081019050919050565b600067ffffffffffffffff82111561434657614345614796565b5b61434f826147de565b9050602081019050919050565b600067ffffffffffffffff82111561437757614376614796565b5b614380826147de565b9050602081019050919050565b6000819050602082019050919050565b600081519050919050565b600081519050919050565b600081519050919050565b6000602082019050919050565b600081905092915050565b600082825260208201905092915050565b600082825260208201905092915050565b600081905092915050565b600061440e82614582565b915061441983614582565b9250827fffffffffffffffffffffffffffffffffffffffffffffffffffffffffffffffff0382111561444e5761444d6146ab565b5b828201905092915050565b600061446482614582565b915061446f83614582565b92508261447f5761447e6146da565b5b828204905092915050565b600061449582614582565b91506144a083614582565b9250817fffffffffffffffffffffffffffffffffffffffffffffffffffffffffffffffff04831182151516156144d9576144d86146ab565b5b828202905092915050565b60006144ef82614582565b91506144fa83614582565b92508282101561450d5761450c6146ab565b5b828203905092915050565b600061452382614562565b9050919050565b60008115159050919050565b60007fffffffff0000000000000000000000000000000000000000000000000000000082169050919050565b600073ffffffffffffffffffffffffffffffffffffffff82169050919050565b6000819050919050565b82818337600083830152505050565b60005b838110156145b957808201518184015260208101905061459e565b838111156145c8576000848401525b50505050565b600060028204905060018216806145e657607f821691505b602082108114156145fa576145f9614709565b5b50919050565b614609826147de565b810181811067ffffffffffffffff8211171561462857614627614796565b5b80604052505050565b600061463c82614582565b91507fffffffffffffffffffffffffffffffffffffffffffffffffffffffffffffffff82141561466f5761466e6146ab565b5b600182019050919050565b600061468582614582565b915061469083614582565b9250826146a05761469f6146da565b5b828206905092915050565b7f4e487b7100000000000000000000000000000000000000000000000000000000600052601160045260246000fd5b7f4e487b7100000000000000000000000000000000000000000000000000000000600052601260045260246000fd5b7f4e487b7100000000000000000000000000000000000000000000000000000000600052602260045260246000fd5b7f4e487b7100000000000000000000000000000000000000000000000000000000600052603160045260246000fd5b7f4e487b7100000000000000000000000000000000000000000000000000000000600052603260045260246000fd5b7f4e487b7100000000000000000000000000000000000000000000000000000000600052604160045260246000fd5b600080fd5b600080fd5b600080fd5b600080fd5b600080fd5b6000601f19601f8301169050919050565b7f5061757361626c653a206e6f7420706175736564000000000000000000000000600082015250565b7f6d696e743a20736f6c64206f7574000000000000000000000000000000000000600082015250565b7f757064617465546f74616c537570706c793a206e657720737570706c79206d7560008201527f73742062652067726561746572207468616e2030000000000000000000000000602082015250565b7f455243373231456e756d657261626c653a206f776e657220696e646578206f7560008201527f74206f6620626f756e6473000000000000000000000000000000000000000000602082015250565b7f4552433732313a207472616e7366657220746f206e6f6e20455243373231526560008201527f63656976657220696d706c656d656e7465720000000000000000000000000000602082015250565b7f4f776e61626c653a206e6577206f776e657220697320746865207a65726f206160008201527f6464726573730000000000000000000000000000000000000000000000000000602082015250565b7f4552433732313a207472616e736665722066726f6d20696e636f72726563742060008201527f6f776e6572000000000000000000000000000000000000000000000000000000602082015250565b7f4552433732313a20746f6b656e20616c7265616479206d696e74656400000000600082015250565b7f6d696e743a2063616e2774206d696e742074686174206d616e79000000000000600082015250565b7f4552433732313a207472616e7366657220746f20746865207a65726f2061646460008201527f7265737300000000000000000000000000000000000000000000000000000000602082015250565b7f4552433732313a20617070726f766520746f2063616c6c657200000000000000600082015250565b7f4552433732313a206f70657261746f7220717565727920666f72206e6f6e657860008201527f697374656e7420746f6b656e0000000000000000000000000000000000000000602082015250565b7f455243373231204275726e61626c653a2063616c6c6572206973206e6f74206f60008201527f776e6572206e6f7220617070726f766564000000000000000000000000000000602082015250565b7f6d696e743a203235206973206c696d6974000000000000000000000000000000600082015250565b7f5061757361626c653a2070617573656400000000000000000000000000000000600082015250565b7f75706461746550726963653a206e6577207072696365206d757374206265206760008201527f726561746572207468616e203000000000000000000000000000000000000000602082015250565b7f4552433732313a20617070726f76652063616c6c6572206973206e6f74206f7760008201527f6e6572206e6f7220617070726f76656420666f7220616c6c0000000000000000602082015250565b7f4552433732313a2062616c616e636520717565727920666f7220746865207a6560008201527f726f206164647265737300000000000000000000000000000000000000000000602082015250565b7f4552433732313a206f776e657220717565727920666f72206e6f6e657869737460008201527f656e7420746f6b656e0000000000000000000000000000000000000000000000602082015250565b7f6d696e743a206e65656420746f206d696e742061746c65617374203100000000600082015250565b7f4552433732313a206d696e7420746f20746865207a65726f2061646472657373600082015250565b7f6d696e743a206d696e74206e6f74206163746976650000000000000000000000600082015250565b7f4552433732313a20617070726f76656420717565727920666f72206e6f6e657860008201527f697374656e7420746f6b656e0000000000000000000000000000000000000000602082015250565b7f4f776e61626c653a2063616c6c6572206973206e6f7420746865206f776e6572600082015250565b7f4552433732314d657461646174613a2055524920717565727920666f72206e6f60008201527f6e6578697374656e7420746f6b656e0000000000000000000000000000000000602082015250565b7f4552433732313a20617070726f76616c20746f2063757272656e74206f776e6560008201527f7200000000000000000000000000000000000000000000000000000000000000602082015250565b7f6d696e743a2076616c7565206e6f7420656e6f75676800000000000000000000600082015250565b7f4552433732313a207472616e736665722063616c6c6572206973206e6f74206f60008201527f776e6572206e6f7220617070726f766564000000000000000000000000000000602082015250565b7f455243373231456e756d657261626c653a20676c6f62616c20696e646578206f60008201527f7574206f6620626f756e64730000000000000000000000000000000000000000602082015250565b7f61697244726f703a2063616e6e6f742061697264726f7020746f20656d70747960008201527f2061727261790000000000000000000000000000000000000000000000000000602082015250565b614f7281614518565b8114614f7d57600080fd5b50565b614f898161452a565b8114614f9457600080fd5b50565b614fa081614536565b8114614fab57600080fd5b50565b614fb781614582565b8114614fc257600080fd5b5056fea26469706673582212200a0f2f792e35250deaeb12b5241c2cf4c91f6a1f7b72d9fa2bf9786fbeb7a72564736f6c63430008070033",
  "linkReferences": {},
  "deployedLinkReferences": {}
}