{
  "_format": "hh-sol-artifact-1",
  "contractName": "Mutantz",
  "sourceName": "contracts/Mutantz.sol",
  "abi": [
    {
      "inputs": [],
      "stateMutability": "nonpayable",
      "type": "constructor"
    },
    {
      "anonymous": false,
      "inputs": [
        {
          "indexed": true,
          "internalType": "address[]",
          "name": "addrs",
          "type": "address[]"
        }
      ],
      "name": "AirDrop",
      "type": "event"
    },
    {
      "anonymous": false,
      "inputs": [
        {
          "indexed": true,
          "internalType": "address",
          "name": "owner",
          "type": "address"
        },
        {
          "indexed": true,
          "internalType": "address",
          "name": "approved",
          "type": "address"
        },
        {
          "indexed": true,
          "internalType": "uint256",
          "name": "tokenId",
          "type": "uint256"
        }
      ],
      "name": "Approval",
      "type": "event"
    },
    {
      "anonymous": false,
      "inputs": [
        {
          "indexed": true,
          "internalType": "address",
          "name": "owner",
          "type": "address"
        },
        {
          "indexed": true,
          "internalType": "address",
          "name": "operator",
          "type": "address"
        },
        {
          "indexed": false,
          "internalType": "bool",
          "name": "approved",
          "type": "bool"
        }
      ],
      "name": "ApprovalForAll",
      "type": "event"
    },
    {
      "anonymous": false,
      "inputs": [
        {
          "indexed": true,
          "internalType": "address",
          "name": "previousOwner",
          "type": "address"
        },
        {
          "indexed": true,
          "internalType": "address",
          "name": "newOwner",
          "type": "address"
        }
      ],
      "name": "OwnershipTransferred",
      "type": "event"
    },
    {
      "anonymous": false,
      "inputs": [
        {
          "indexed": false,
          "internalType": "address",
          "name": "account",
          "type": "address"
        }
      ],
      "name": "Paused",
      "type": "event"
    },
    {
      "anonymous": false,
      "inputs": [
        {
          "indexed": false,
          "internalType": "string",
          "name": "newURI",
          "type": "string"
        }
      ],
      "name": "SetBaseURI",
      "type": "event"
    },
    {
      "anonymous": false,
      "inputs": [
        {
          "indexed": true,
          "internalType": "address",
          "name": "addr",
          "type": "address"
        },
        {
          "indexed": false,
          "internalType": "uint256[]",
          "name": "microbes_ids",
          "type": "uint256[]"
        },
        {
          "indexed": false,
          "internalType": "uint256[]",
          "name": "ogTroopr_ids",
          "type": "uint256[]"
        },
        {
          "indexed": false,
          "internalType": "address",
          "name": "senderAddress",
          "type": "address"
        }
      ],
      "name": "Spawn",
      "type": "event"
    },
    {
      "anonymous": false,
      "inputs": [
        {
          "indexed": false,
          "internalType": "bool",
          "name": "claimActive",
          "type": "bool"
        }
      ],
      "name": "ToggleSpawnActive",
      "type": "event"
    },
    {
      "anonymous": false,
      "inputs": [
        {
          "indexed": false,
          "internalType": "bool",
          "name": "paused",
          "type": "bool"
        }
      ],
      "name": "ToggleTransferPause",
      "type": "event"
    },
    {
      "anonymous": false,
      "inputs": [
        {
          "indexed": true,
          "internalType": "address",
          "name": "from",
          "type": "address"
        },
        {
          "indexed": true,
          "internalType": "address",
          "name": "to",
          "type": "address"
        },
        {
          "indexed": true,
          "internalType": "uint256",
          "name": "tokenId",
          "type": "uint256"
        }
      ],
      "name": "Transfer",
      "type": "event"
    },
    {
      "anonymous": false,
      "inputs": [
        {
          "indexed": false,
          "internalType": "address",
          "name": "account",
          "type": "address"
        }
      ],
      "name": "Unpaused",
      "type": "event"
    },
    {
      "anonymous": false,
      "inputs": [
        {
          "indexed": false,
          "internalType": "address",
          "name": "newAddress",
          "type": "address"
        }
      ],
      "name": "UpdateBurnerAddress",
      "type": "event"
    },
    {
      "anonymous": false,
      "inputs": [
        {
          "indexed": false,
          "internalType": "uint256",
          "name": "newMax",
          "type": "uint256"
        }
      ],
      "name": "UpdateTotalSupply",
      "type": "event"
    },
    {
      "anonymous": false,
      "inputs": [
        {
          "indexed": false,
          "internalType": "uint256",
          "name": "amount",
          "type": "uint256"
        }
      ],
      "name": "Withdraw",
      "type": "event"
    },
    {
      "inputs": [
        {
          "internalType": "uint256",
          "name": "",
          "type": "uint256"
        }
      ],
      "name": "TokenIds",
      "outputs": [
        {
          "internalType": "bool",
          "name": "",
          "type": "bool"
        }
      ],
      "stateMutability": "view",
      "type": "function"
    },
    {
      "inputs": [],
      "name": "_maxMint",
      "outputs": [
        {
          "internalType": "uint256",
          "name": "",
          "type": "uint256"
        }
      ],
      "stateMutability": "view",
      "type": "function"
    },
    {
      "inputs": [],
      "name": "_prefixURI",
      "outputs": [
        {
          "internalType": "string",
          "name": "",
          "type": "string"
        }
      ],
      "stateMutability": "view",
      "type": "function"
    },
    {
      "inputs": [],
      "name": "_spawnActive",
      "outputs": [
        {
          "internalType": "bool",
          "name": "",
          "type": "bool"
        }
      ],
      "stateMutability": "view",
      "type": "function"
    },
    {
      "inputs": [
        {
          "internalType": "address",
          "name": "",
          "type": "address"
        }
      ],
      "name": "_spawnCount",
      "outputs": [
        {
          "internalType": "uint256",
          "name": "",
          "type": "uint256"
        }
      ],
      "stateMutability": "view",
      "type": "function"
    },
    {
      "inputs": [],
      "name": "_totalSupply",
      "outputs": [
        {
          "internalType": "uint256",
          "name": "",
          "type": "uint256"
        }
      ],
      "stateMutability": "view",
      "type": "function"
    },
    {
      "inputs": [
        {
          "internalType": "address[]",
          "name": "addrs",
          "type": "address[]"
        }
      ],
      "name": "airDrop",
      "outputs": [],
      "stateMutability": "nonpayable",
      "type": "function"
    },
    {
      "inputs": [
        {
          "internalType": "address",
          "name": "to",
          "type": "address"
        },
        {
          "internalType": "uint256",
          "name": "tokenId",
          "type": "uint256"
        }
      ],
      "name": "approve",
      "outputs": [],
      "stateMutability": "nonpayable",
      "type": "function"
    },
    {
      "inputs": [
        {
          "internalType": "address",
          "name": "owner",
          "type": "address"
        }
      ],
      "name": "balanceOf",
      "outputs": [
        {
          "internalType": "uint256",
          "name": "",
          "type": "uint256"
        }
      ],
      "stateMutability": "view",
      "type": "function"
    },
    {
      "inputs": [
        {
          "internalType": "uint256[]",
          "name": "microbesIds",
          "type": "uint256[]"
        }
      ],
      "name": "calculateAmountOfGoldenMicrobes",
      "outputs": [
        {
          "internalType": "uint256",
          "name": "",
          "type": "uint256"
        }
      ],
      "stateMutability": "pure",
      "type": "function"
    },
    {
      "inputs": [
        {
          "internalType": "uint256[]",
          "name": "microbesIds",
          "type": "uint256[]"
        }
      ],
      "name": "calculateAmountOfRegularMicrobes",
      "outputs": [
        {
          "internalType": "uint256",
          "name": "",
          "type": "uint256"
        }
      ],
      "stateMutability": "pure",
      "type": "function"
    },
    {
      "inputs": [
        {
          "internalType": "uint256[]",
          "name": "microbesIds",
          "type": "uint256[]"
        },
        {
          "internalType": "uint256[]",
          "name": "trooprzIds",
          "type": "uint256[]"
        }
      ],
      "name": "checkIfAmountOfMicrobesAndTrooprzIsCorrect",
      "outputs": [
        {
          "internalType": "bool",
          "name": "",
          "type": "bool"
        }
      ],
      "stateMutability": "pure",
      "type": "function"
    },
    {
      "inputs": [
        {
          "internalType": "uint256[]",
          "name": "tokenIds",
          "type": "uint256[]"
        }
      ],
      "name": "checkIfCallerIsOwnerOfMicrobes",
      "outputs": [
        {
          "internalType": "bool",
          "name": "",
          "type": "bool"
        }
      ],
      "stateMutability": "view",
      "type": "function"
    },
    {
      "inputs": [
        {
          "internalType": "uint256[]",
          "name": "tokenIds",
          "type": "uint256[]"
        }
      ],
      "name": "checkIfCallerIsOwnerOfOGTrooprz",
      "outputs": [
        {
          "internalType": "bool",
          "name": "",
          "type": "bool"
        }
      ],
      "stateMutability": "view",
      "type": "function"
    },
    {
      "inputs": [
        {
          "internalType": "uint256[]",
          "name": "microbesIds",
          "type": "uint256[]"
        },
        {
          "internalType": "uint256[]",
          "name": "trooprIds",
          "type": "uint256[]"
        }
      ],
      "name": "checkIfListsAreNotEmpty",
      "outputs": [
        {
          "internalType": "bool",
          "name": "",
          "type": "bool"
        }
      ],
      "stateMutability": "pure",
      "type": "function"
    },
    {
      "inputs": [
        {
          "internalType": "uint256[]",
          "name": "tokenIds",
          "type": "uint256[]"
        }
      ],
      "name": "checkIfOGTrooprUsedBefore",
      "outputs": [
        {
          "internalType": "bool",
          "name": "",
          "type": "bool"
        }
      ],
      "stateMutability": "view",
      "type": "function"
    },
    {
      "inputs": [
        {
          "internalType": "uint256",
          "name": "_tokenId",
          "type": "uint256"
        }
      ],
      "name": "deleteFromList",
      "outputs": [],
      "stateMutability": "nonpayable",
      "type": "function"
    },
    {
      "inputs": [
        {
          "internalType": "uint256",
          "name": "tokenId",
          "type": "uint256"
        }
      ],
      "name": "getApproved",
      "outputs": [
        {
          "internalType": "address",
          "name": "",
          "type": "address"
        }
      ],
      "stateMutability": "view",
      "type": "function"
    },
    {
      "inputs": [
        {
          "internalType": "address",
          "name": "owner",
          "type": "address"
        },
        {
          "internalType": "address",
          "name": "operator",
          "type": "address"
        }
      ],
      "name": "isApprovedForAll",
      "outputs": [
        {
          "internalType": "bool",
          "name": "",
          "type": "bool"
        }
      ],
      "stateMutability": "view",
      "type": "function"
    },
    {
      "inputs": [],
      "name": "name",
      "outputs": [
        {
          "internalType": "string",
          "name": "",
          "type": "string"
        }
      ],
      "stateMutability": "view",
      "type": "function"
    },
    {
      "inputs": [],
      "name": "owner",
      "outputs": [
        {
          "internalType": "address",
          "name": "",
          "type": "address"
        }
      ],
      "stateMutability": "view",
      "type": "function"
    },
    {
      "inputs": [
        {
          "internalType": "uint256",
          "name": "tokenId",
          "type": "uint256"
        }
      ],
      "name": "ownerOf",
      "outputs": [
        {
          "internalType": "address",
          "name": "",
          "type": "address"
        }
      ],
      "stateMutability": "view",
      "type": "function"
    },
    {
      "inputs": [],
      "name": "paused",
      "outputs": [
        {
          "internalType": "bool",
          "name": "",
          "type": "bool"
        }
      ],
      "stateMutability": "view",
      "type": "function"
    },
    {
      "inputs": [],
      "name": "renounceOwnership",
      "outputs": [],
      "stateMutability": "nonpayable",
      "type": "function"
    },
    {
      "inputs": [
        {
          "internalType": "address",
          "name": "from",
          "type": "address"
        },
        {
          "internalType": "address",
          "name": "to",
          "type": "address"
        },
        {
          "internalType": "uint256",
          "name": "tokenId",
          "type": "uint256"
        }
      ],
      "name": "safeTransferFrom",
      "outputs": [],
      "stateMutability": "nonpayable",
      "type": "function"
    },
    {
      "inputs": [
        {
          "internalType": "address",
          "name": "from",
          "type": "address"
        },
        {
          "internalType": "address",
          "name": "to",
          "type": "address"
        },
        {
          "internalType": "uint256",
          "name": "tokenId",
          "type": "uint256"
        },
        {
          "internalType": "bytes",
          "name": "_data",
          "type": "bytes"
        }
      ],
      "name": "safeTransferFrom",
      "outputs": [],
      "stateMutability": "nonpayable",
      "type": "function"
    },
    {
      "inputs": [
        {
          "internalType": "address",
          "name": "operator",
          "type": "address"
        },
        {
          "internalType": "bool",
          "name": "approved",
          "type": "bool"
        }
      ],
      "name": "setApprovalForAll",
      "outputs": [],
      "stateMutability": "nonpayable",
      "type": "function"
    },
    {
      "inputs": [
        {
          "internalType": "string",
          "name": "_uri",
          "type": "string"
        }
      ],
      "name": "setBaseURI",
      "outputs": [],
      "stateMutability": "nonpayable",
      "type": "function"
    },
    {
      "inputs": [
        {
          "internalType": "uint256[]",
          "name": "microbes_ids",
          "type": "uint256[]"
        },
        {
          "internalType": "uint256[]",
          "name": "ogTroopr_ids",
          "type": "uint256[]"
        },
        {
          "internalType": "address",
          "name": "senderAddress",
          "type": "address"
        }
      ],
      "name": "spawn",
      "outputs": [],
      "stateMutability": "nonpayable",
      "type": "function"
    },
    {
      "inputs": [
        {
          "internalType": "bytes4",
          "name": "interfaceId",
          "type": "bytes4"
        }
      ],
      "name": "supportsInterface",
      "outputs": [
        {
          "internalType": "bool",
          "name": "",
          "type": "bool"
        }
      ],
      "stateMutability": "view",
      "type": "function"
    },
    {
      "inputs": [],
      "name": "symbol",
      "outputs": [
        {
          "internalType": "string",
          "name": "",
          "type": "string"
        }
      ],
      "stateMutability": "view",
      "type": "function"
    },
    {
      "inputs": [],
      "name": "toggleSpawnActive",
      "outputs": [],
      "stateMutability": "nonpayable",
      "type": "function"
    },
    {
      "inputs": [],
      "name": "toggleTransferPause",
      "outputs": [],
      "stateMutability": "nonpayable",
      "type": "function"
    },
    {
      "inputs": [
        {
          "internalType": "uint256",
          "name": "index",
          "type": "uint256"
        }
      ],
      "name": "tokenByIndex",
      "outputs": [
        {
          "internalType": "uint256",
          "name": "",
          "type": "uint256"
        }
      ],
      "stateMutability": "view",
      "type": "function"
    },
    {
      "inputs": [
        {
          "internalType": "address",
          "name": "owner",
          "type": "address"
        },
        {
          "internalType": "uint256",
          "name": "index",
          "type": "uint256"
        }
      ],
      "name": "tokenOfOwnerByIndex",
      "outputs": [
        {
          "internalType": "uint256",
          "name": "",
          "type": "uint256"
        }
      ],
      "stateMutability": "view",
      "type": "function"
    },
    {
      "inputs": [
        {
          "internalType": "uint256",
          "name": "tokenId",
          "type": "uint256"
        }
      ],
      "name": "tokenURI",
      "outputs": [
        {
          "internalType": "string",
          "name": "",
          "type": "string"
        }
      ],
      "stateMutability": "view",
      "type": "function"
    },
    {
      "inputs": [],
      "name": "totalSupply",
      "outputs": [
        {
          "internalType": "uint256",
          "name": "",
          "type": "uint256"
        }
      ],
      "stateMutability": "view",
      "type": "function"
    },
    {
      "inputs": [
        {
          "internalType": "address",
          "name": "from",
          "type": "address"
        },
        {
          "internalType": "address",
          "name": "to",
          "type": "address"
        },
        {
          "internalType": "uint256",
          "name": "tokenId",
          "type": "uint256"
        }
      ],
      "name": "transferFrom",
      "outputs": [],
      "stateMutability": "nonpayable",
      "type": "function"
    },
    {
      "inputs": [
        {
          "internalType": "address",
          "name": "newOwner",
          "type": "address"
        }
      ],
      "name": "transferOwnership",
      "outputs": [],
      "stateMutability": "nonpayable",
      "type": "function"
    },
    {
      "inputs": [
        {
          "internalType": "address",
          "name": "newAddress",
          "type": "address"
        }
      ],
      "name": "updateBurnerAddress",
      "outputs": [],
      "stateMutability": "nonpayable",
      "type": "function"
    },
    {
      "inputs": [
        {
          "internalType": "uint256",
          "name": "newSupply",
          "type": "uint256"
        }
      ],
      "name": "updateTotalSupply",
      "outputs": [],
      "stateMutability": "nonpayable",
      "type": "function"
    },
    {
      "inputs": [],
      "name": "withdraw",
      "outputs": [],
      "stateMutability": "nonpayable",
      "type": "function"
    }
  ],
  "bytecode": "0x60806040526108ae600e5573abe9c4ba987da10523b5b3ca5823b547a72f6cce600f60006101000a81548173ffffffffffffffffffffffffffffffffffffffff021916908373ffffffffffffffffffffffffffffffffffffffff1602179055506000601260006101000a81548160ff02191690831515021790555060056013553480156200008c57600080fd5b506040518060400160405280600781526020017f4d7574616e747a000000000000000000000000000000000000000000000000008152506040518060400160405280600581526020017f4d544e545a000000000000000000000000000000000000000000000000000000815250816000908051906020019062000111929190620002e6565b5080600190805190602001906200012a929190620002e6565b5050506000600a60006101000a81548160ff021916908315150217905550620001686200015c6200021860201b60201c565b6200022060201b60201c565b73babdfdd5f88035c9fba58be1b5c76dcfc6a847f3600b60006101000a81548173ffffffffffffffffffffffffffffffffffffffff021916908373ffffffffffffffffffffffffffffffffffffffff1602179055507351112bf32b9a1c64716df2e6b82e63a04bd384fd600c60006101000a81548173ffffffffffffffffffffffffffffffffffffffff021916908373ffffffffffffffffffffffffffffffffffffffff160217905550620003fb565b600033905090565b6000600a60019054906101000a900473ffffffffffffffffffffffffffffffffffffffff16905081600a60016101000a81548173ffffffffffffffffffffffffffffffffffffffff021916908373ffffffffffffffffffffffffffffffffffffffff1602179055508173ffffffffffffffffffffffffffffffffffffffff168173ffffffffffffffffffffffffffffffffffffffff167f8be0079c531659141344cd1fd0a4f28419497f9722a3daafe3b4186f6b6457e060405160405180910390a35050565b828054620002f49062000396565b90600052602060002090601f01602090048101928262000318576000855562000364565b82601f106200033357805160ff191683800117855562000364565b8280016001018555821562000364579182015b828111156200036357825182559160200191906001019062000346565b5b50905062000373919062000377565b5090565b5b808211156200039257600081600090555060010162000378565b5090565b60006002820490506001821680620003af57607f821691505b60208210811415620003c657620003c5620003cc565b5b50919050565b7f4e487b7100000000000000000000000000000000000000000000000000000000600052602260045260246000fd5b615802806200040b6000396000f3fe608060405234801561001057600080fd5b506004361061025d5760003560e01c80636352211e116101465780639752a017116100c3578063c2069f0b11610087578063c2069f0b1461070c578063c5eddc1e1461073c578063c6ad68091461076c578063c87b56dd1461079c578063e985e9c5146107cc578063f2fde38b146107fc5761025d565b80639752a01714610690578063a22cb4651461069a578063b640392c146106b6578063b88d4fde146106d4578063ba4a7303146106f05761025d565b8063774a64b71161010a578063774a64b7146105d65780638da5cb5b146106065780638e09f0101461062457806391860f781461065457806395d89b41146106725761025d565b80636352211e1461052057806366d49bab146105505780636c9a802e1461056c57806370a082311461059c578063715018a6146105cc5761025d565b80632c8490bd116101df5780633ed0a44c116101a35780633ed0a44c1461043a57806342842e0e1461046a5780634f6ccce7146104865780635368b4d7146104b657806355f804b3146104e65780635c975abb146105025761025d565b80632c8490bd146103945780632f745c59146103c457806334316ad7146103f45780633ccfd60b146104125780633eaaf86b1461041c5761025d565b8063081812fc11610226578063081812fc146102f2578063095ea7b314610322578063112acb051461033e57806318160ddd1461035a57806323b872dd146103785761025d565b8062b6849f1461026257806301ffc9a71461027e57806302799ed9146102ae578063064b127c146102b857806306fdde03146102d4575b600080fd5b61027c60048036038101906102779190613ca1565b610818565b005b61029860048036038101906102939190613e36565b6109ba565b6040516102a59190614618565b60405180910390f35b6102b6610a34565b005b6102d260048036038101906102cd9190613ab1565b610b22565b005b6102dc610c19565b6040516102e99190614633565b60405180910390f35b61030c60048036038101906103079190613ed9565b610cab565b6040516103199190614535565b60405180910390f35b61033c60048036038101906103379190613c61565b610d30565b005b61035860048036038101906103539190613dab565b610e48565b005b6103626112d0565b60405161036f9190614a15565b60405180910390f35b610392600480360381019061038d9190613b4b565b6112dd565b005b6103ae60048036038101906103a99190613d33565b61133d565b6040516103bb9190614618565b60405180910390f35b6103de60048036038101906103d99190613c61565b6113b3565b6040516103eb9190614a15565b60405180910390f35b6103fc611458565b6040516104099190614618565b60405180910390f35b61041a61146b565b005b61042461157a565b6040516104319190614a15565b60405180910390f35b610454600480360381019061044f9190613cea565b611580565b6040516104619190614618565b60405180910390f35b610484600480360381019061047f9190613b4b565b6116ba565b005b6104a0600480360381019061049b9190613ed9565b6116da565b6040516104ad9190614a15565b60405180910390f35b6104d060048036038101906104cb9190613cea565b61174b565b6040516104dd9190614a15565b60405180910390f35b61050060048036038101906104fb9190613e90565b6117ae565b005b61050a61187b565b6040516105179190614618565b60405180910390f35b61053a60048036038101906105359190613ed9565b611892565b6040516105479190614535565b60405180910390f35b61056a60048036038101906105659190613ed9565b611944565b005b61058660048036038101906105819190613cea565b611a44565b6040516105939190614618565b60405180910390f35b6105b660048036038101906105b19190613ab1565b611ab9565b6040516105c39190614a15565b60405180910390f35b6105d4611b71565b005b6105f060048036038101906105eb9190613d33565b611bf9565b6040516105fd9190614618565b60405180910390f35b61060e611c25565b60405161061b9190614535565b60405180910390f35b61063e60048036038101906106399190613cea565b611c4f565b60405161064b9190614618565b60405180910390f35b61065c611d89565b6040516106699190614633565b60405180910390f35b61067a611e17565b6040516106879190614633565b60405180910390f35b610698611ea9565b005b6106b460048036038101906106af9190613c21565b611f87565b005b6106be611f9d565b6040516106cb9190614a15565b60405180910390f35b6106ee60048036038101906106e99190613b9e565b611fa3565b005b61070a60048036038101906107059190613ed9565b612005565b005b61072660048036038101906107219190613ab1565b6120a7565b6040516107339190614a15565b60405180910390f35b61075660048036038101906107519190613ed9565b6120bf565b6040516107639190614618565b60405180910390f35b61078660048036038101906107819190613cea565b6120df565b6040516107939190614a15565b60405180910390f35b6107b660048036038101906107b19190613ed9565b612141565b6040516107c39190614633565b60405180910390f35b6107e660048036038101906107e19190613b0b565b6121e8565b6040516107f39190614618565b60405180910390f35b61081660048036038101906108119190613ab1565b61227c565b005b610820612374565b73ffffffffffffffffffffffffffffffffffffffff1661083e611c25565b73ffffffffffffffffffffffffffffffffffffffff1614610894576040517f08c379a000000000000000000000000000000000000000000000000000000000815260040161088b90614955565b60405180910390fd5b60008151116108d8576040517f08c379a00000000000000000000000000000000000000000000000000000000081526004016108cf90614855565b60405180910390fd5b600e5481516108e7600d61237c565b6108f19190614bbe565b1115610932576040517f08c379a000000000000000000000000000000000000000000000000000000000815260040161092990614915565b60405180910390fd5b60005b81518110156109745761096182828151811061095457610953614f22565b5b602002602001015161238a565b808061096c90614dec565b915050610935565b508060405161098391906144fa565b60405180910390207fb9413d9dd40eadf97d2949c3c57a163bb454e537a8696520d52a74e0252011e960405160405180910390a250565b60007f780e9d63000000000000000000000000000000000000000000000000000000007bffffffffffffffffffffffffffffffffffffffffffffffffffffffff1916827bffffffffffffffffffffffffffffffffffffffffffffffffffffffff19161480610a2d5750610a2c826123b0565b5b9050919050565b610a3c612374565b73ffffffffffffffffffffffffffffffffffffffff16610a5a611c25565b73ffffffffffffffffffffffffffffffffffffffff1614610ab0576040517f08c379a0000000000000000000000000000000000000000000000000000000008152600401610aa790614955565b60405180910390fd5b601260009054906101000a900460ff1615601260006101000a81548160ff0219169083151502179055507fee0de6ea10c1f647ab1220608069605f97d2bc3252f7c06b4022188fd82a21c8601260009054906101000a900460ff16604051610b189190614618565b60405180910390a1565b610b2a612374565b73ffffffffffffffffffffffffffffffffffffffff16610b48611c25565b73ffffffffffffffffffffffffffffffffffffffff1614610b9e576040517f08c379a0000000000000000000000000000000000000000000000000000000008152600401610b9590614955565b60405180910390fd5b80600f60006101000a81548173ffffffffffffffffffffffffffffffffffffffff021916908373ffffffffffffffffffffffffffffffffffffffff1602179055507f05e6e3b077c20373757570ce85f169f7d18825938ea31eb63274238cc786433381604051610c0e9190614535565b60405180910390a150565b606060008054610c2890614d89565b80601f0160208091040260200160405190810160405280929190818152602001828054610c5490614d89565b8015610ca15780601f10610c7657610100808354040283529160200191610ca1565b820191906000526020600020905b815481529060010190602001808311610c8457829003601f168201915b5050505050905090565b6000610cb682612492565b610cf5576040517f08c379a0000000000000000000000000000000000000000000000000000000008152600401610cec90614935565b60405180910390fd5b6004600083815260200190815260200160002060009054906101000a900473ffffffffffffffffffffffffffffffffffffffff169050919050565b6000610d3b82611892565b90508073ffffffffffffffffffffffffffffffffffffffff168373ffffffffffffffffffffffffffffffffffffffff161415610dac576040517f08c379a0000000000000000000000000000000000000000000000000000000008152600401610da3906149b5565b60405180910390fd5b8073ffffffffffffffffffffffffffffffffffffffff16610dcb612374565b73ffffffffffffffffffffffffffffffffffffffff161480610dfa5750610df981610df4612374565b6121e8565b5b610e39576040517f08c379a0000000000000000000000000000000000000000000000000000000008152600401610e3090614835565b60405180910390fd5b610e4383836124fe565b505050565b6000339050601260009054906101000a900460ff16610e9c576040517f08c379a0000000000000000000000000000000000000000000000000000000008152600401610e93906148d5565b60405180910390fd5b610ea68484611bf9565b610ee5576040517f08c379a0000000000000000000000000000000000000000000000000000000008152600401610edc90614815565b60405180910390fd5b610eef848461133d565b610f2e576040517f08c379a0000000000000000000000000000000000000000000000000000000008152600401610f2590614995565b60405180910390fd5b610f3784611580565b610f76576040517f08c379a0000000000000000000000000000000000000000000000000000000008152600401610f6d90614795565b60405180910390fd5b610f7f83611c4f565b610fbe576040517f08c379a0000000000000000000000000000000000000000000000000000000008152600401610fb590614755565b60405180910390fd5b610fc783611a44565b15611007576040517f08c379a0000000000000000000000000000000000000000000000000000000008152600401610ffe90614775565b60405180910390fd5b6000611013600d61237c565b9050600e548451826110259190614bbe565b1115611066576040517f08c379a000000000000000000000000000000000000000000000000000000000815260040161105d906147d5565b60405180910390fd5b8351601060008473ffffffffffffffffffffffffffffffffffffffff1673ffffffffffffffffffffffffffffffffffffffff168152602001908152602001600020546110b29190614bbe565b601060008473ffffffffffffffffffffffffffffffffffffffff1673ffffffffffffffffffffffffffffffffffffffff1681526020019081526020016000208190555060005b845181101561111d5761110a3361238a565b808061111590614dec565b9150506110f8565b5060005b855181101561121057600086828151811061113f5761113e614f22565b5b60200260200101519050600b60009054906101000a900473ffffffffffffffffffffffffffffffffffffffff1673ffffffffffffffffffffffffffffffffffffffff166342842e0e86600f60009054906101000a900473ffffffffffffffffffffffffffffffffffffffff16846040518463ffffffff1660e01b81526004016111ca93929190614550565b600060405180830381600087803b1580156111e457600080fd5b505af11580156111f8573d6000803e3d6000fd5b5050505050808061120890614dec565b915050611121565b5060005b84518110156112765760016011600087848151811061123657611235614f22565b5b6020026020010151815260200190815260200160002060006101000a81548160ff021916908315150217905550808061126e90614dec565b915050611214565b508173ffffffffffffffffffffffffffffffffffffffff167f94302a7057fc1b2793abc3dcf7c0f9006404d706b62de3809d474a566cde04178686866040516112c1939291906145d3565b60405180910390a25050505050565b6000600880549050905090565b6112ee6112e8612374565b826125b7565b61132d576040517f08c379a0000000000000000000000000000000000000000000000000000000008152600401611324906149d5565b60405180910390fd5b611338838383612695565b505050565b600080611349846120df565b905060006113568561174b565b90506004816113659190614c14565b84516113719190614c9f565b82148015611396575060048285516113899190614c9f565b6113939190614c45565b81145b156113a6576001925050506113ad565b6000925050505b92915050565b60006113be83611ab9565b82106113ff576040517f08c379a00000000000000000000000000000000000000000000000000000000081526004016113f690614675565b60405180910390fd5b600660008473ffffffffffffffffffffffffffffffffffffffff1673ffffffffffffffffffffffffffffffffffffffff168152602001908152602001600020600083815260200190815260200160002054905092915050565b601260009054906101000a900460ff1681565b611473612374565b73ffffffffffffffffffffffffffffffffffffffff16611491611c25565b73ffffffffffffffffffffffffffffffffffffffff16146114e7576040517f08c379a00000000000000000000000000000000000000000000000000000000081526004016114de90614955565b60405180910390fd5b600047116114f457600080fd5b60004790503373ffffffffffffffffffffffffffffffffffffffff166108fc829081150290604051600060405180830381858888f1935050505015801561153f573d6000803e3d6000fd5b507f5b6b431d4476a211bb7d41c20d1aab9ae2321deee0d20be3d9fc9b1093fa6e3d8160405161156f9190614a15565b60405180910390a150565b600e5481565b60008060009050600033905060005b84518110156116af578173ffffffffffffffffffffffffffffffffffffffff16600b60009054906101000a900473ffffffffffffffffffffffffffffffffffffffff1673ffffffffffffffffffffffffffffffffffffffff16636352211e878481518110611600576115ff614f22565b5b60200260200101516040518263ffffffff1660e01b81526004016116249190614a15565b60206040518083038186803b15801561163c57600080fd5b505afa158015611650573d6000803e3d6000fd5b505050506040513d601f19601f820116820180604052508101906116749190613ade565b73ffffffffffffffffffffffffffffffffffffffff161461169857600092506116af565b6001925080806116a790614dec565b91505061158f565b508192505050919050565b6116d583838360405180602001604052806000815250611fa3565b505050565b60006116e46112d0565b8210611725576040517f08c379a000000000000000000000000000000000000000000000000000000000815260040161171c906149f5565b60405180910390fd5b6008828154811061173957611738614f22565b5b90600052602060002001549050919050565b6000806000905060005b83518110156117a45760de84828151811061177357611772614f22565b5b602002602001015111156117915760018261178e9190614bbe565b91505b808061179c90614dec565b915050611755565b5080915050919050565b6117b6612374565b73ffffffffffffffffffffffffffffffffffffffff166117d4611c25565b73ffffffffffffffffffffffffffffffffffffffff161461182a576040517f08c379a000000000000000000000000000000000000000000000000000000000815260040161182190614955565b60405180910390fd5b8060149080519060200190611840929190613774565b507f23c8c9488efebfd474e85a7956de6f39b17c7ab88502d42a623db2d8e382bbaa816040516118709190614633565b60405180910390a150565b6000600a60009054906101000a900460ff16905090565b6000806002600084815260200190815260200160002060009054906101000a900473ffffffffffffffffffffffffffffffffffffffff169050600073ffffffffffffffffffffffffffffffffffffffff168173ffffffffffffffffffffffffffffffffffffffff16141561193b576040517f08c379a000000000000000000000000000000000000000000000000000000000815260040161193290614895565b60405180910390fd5b80915050919050565b61194c612374565b73ffffffffffffffffffffffffffffffffffffffff1661196a611c25565b73ffffffffffffffffffffffffffffffffffffffff16146119c0576040517f08c379a00000000000000000000000000000000000000000000000000000000081526004016119b790614955565b60405180910390fd5b60008111611a03576040517f08c379a00000000000000000000000000000000000000000000000000000000081526004016119fa906148b5565b60405180910390fd5b80600e819055507fee643f334779f1031decbee003f80a0bcb7ecdc24b6693539cf7447a66afba8a81604051611a399190614a15565b60405180910390a150565b6000806000905060005b8351811015611aaf5760116000858381518110611a6e57611a6d614f22565b5b6020026020010151815260200190815260200160002060009054906101000a900460ff1615611a9c57600191505b8080611aa790614dec565b915050611a4e565b5080915050919050565b60008073ffffffffffffffffffffffffffffffffffffffff168273ffffffffffffffffffffffffffffffffffffffff161415611b2a576040517f08c379a0000000000000000000000000000000000000000000000000000000008152600401611b2190614875565b60405180910390fd5b600360008373ffffffffffffffffffffffffffffffffffffffff1673ffffffffffffffffffffffffffffffffffffffff168152602001908152602001600020549050919050565b611b79612374565b73ffffffffffffffffffffffffffffffffffffffff16611b97611c25565b73ffffffffffffffffffffffffffffffffffffffff1614611bed576040517f08c379a0000000000000000000000000000000000000000000000000000000008152600401611be490614955565b60405180910390fd5b611bf760006128fc565b565b6000808351118015611c0c575060008251115b15611c1a5760019050611c1f565b600090505b92915050565b6000600a60019054906101000a900473ffffffffffffffffffffffffffffffffffffffff16905090565b60008060009050600033905060005b8451811015611d7e578173ffffffffffffffffffffffffffffffffffffffff16600c60009054906101000a900473ffffffffffffffffffffffffffffffffffffffff1673ffffffffffffffffffffffffffffffffffffffff16636352211e878481518110611ccf57611cce614f22565b5b60200260200101516040518263ffffffff1660e01b8152600401611cf39190614a15565b60206040518083038186803b158015611d0b57600080fd5b505afa158015611d1f573d6000803e3d6000fd5b505050506040513d601f19601f82011682018060405250810190611d439190613ade565b73ffffffffffffffffffffffffffffffffffffffff1614611d675760009250611d7e565b600192508080611d7690614dec565b915050611c5e565b508192505050919050565b60148054611d9690614d89565b80601f0160208091040260200160405190810160405280929190818152602001828054611dc290614d89565b8015611e0f5780601f10611de457610100808354040283529160200191611e0f565b820191906000526020600020905b815481529060010190602001808311611df257829003601f168201915b505050505081565b606060018054611e2690614d89565b80601f0160208091040260200160405190810160405280929190818152602001828054611e5290614d89565b8015611e9f5780601f10611e7457610100808354040283529160200191611e9f565b820191906000526020600020905b815481529060010190602001808311611e8257829003601f168201915b5050505050905090565b611eb1612374565b73ffffffffffffffffffffffffffffffffffffffff16611ecf611c25565b73ffffffffffffffffffffffffffffffffffffffff1614611f25576040517f08c379a0000000000000000000000000000000000000000000000000000000008152600401611f1c90614955565b60405180910390fd5b611f2d61187b565b611f3e57611f396129c2565b611f47565b611f46612a65565b5b7f71aa6dbdf1045ea9e6926a7848dbdd98d55270c4fee88cbc77fd816ccc8d6d2f611f7061187b565b604051611f7d9190614618565b60405180910390a1565b611f99611f92612374565b8383612b07565b5050565b60135481565b611fb4611fae612374565b836125b7565b611ff3576040517f08c379a0000000000000000000000000000000000000000000000000000000008152600401611fea906149d5565b60405180910390fd5b611fff84848484612c74565b50505050565b61200d612374565b73ffffffffffffffffffffffffffffffffffffffff1661202b611c25565b73ffffffffffffffffffffffffffffffffffffffff1614612081576040517f08c379a000000000000000000000000000000000000000000000000000000000815260040161207890614955565b60405180910390fd5b6011600082815260200190815260200160002060006101000a81549060ff021916905550565b60106020528060005260406000206000915090505481565b60116020528060005260406000206000915054906101000a900460ff1681565b6000806000905060005b83518110156121375760de84828151811061210757612106614f22565b5b602002602001015111612124576001826121219190614bbe565b91505b808061212f90614dec565b9150506120e9565b5080915050919050565b606061214c82612492565b61218b576040517f08c379a000000000000000000000000000000000000000000000000000000000815260040161218290614975565b60405180910390fd5b6000612195612cd0565b905060008151116121b557604051806020016040528060008152506121e0565b806121bf84612d62565b6040516020016121d0929190614511565b6040516020818303038152906040525b915050919050565b6000600560008473ffffffffffffffffffffffffffffffffffffffff1673ffffffffffffffffffffffffffffffffffffffff16815260200190815260200160002060008373ffffffffffffffffffffffffffffffffffffffff1673ffffffffffffffffffffffffffffffffffffffff16815260200190815260200160002060009054906101000a900460ff16905092915050565b612284612374565b73ffffffffffffffffffffffffffffffffffffffff166122a2611c25565b73ffffffffffffffffffffffffffffffffffffffff16146122f8576040517f08c379a00000000000000000000000000000000000000000000000000000000081526004016122ef90614955565b60405180910390fd5b600073ffffffffffffffffffffffffffffffffffffffff168173ffffffffffffffffffffffffffffffffffffffff161415612368576040517f08c379a000000000000000000000000000000000000000000000000000000000815260040161235f906146b5565b60405180910390fd5b612371816128fc565b50565b600033905090565b600081600001549050919050565b612394600d612ec3565b60006123a0600d61237c565b90506123ac8282612ed9565b5050565b60007f80ac58cd000000000000000000000000000000000000000000000000000000007bffffffffffffffffffffffffffffffffffffffffffffffffffffffff1916827bffffffffffffffffffffffffffffffffffffffffffffffffffffffff1916148061247b57507f5b5e139f000000000000000000000000000000000000000000000000000000007bffffffffffffffffffffffffffffffffffffffffffffffffffffffff1916827bffffffffffffffffffffffffffffffffffffffffffffffffffffffff1916145b8061248b575061248a82612ef7565b5b9050919050565b60008073ffffffffffffffffffffffffffffffffffffffff166002600084815260200190815260200160002060009054906101000a900473ffffffffffffffffffffffffffffffffffffffff1673ffffffffffffffffffffffffffffffffffffffff1614159050919050565b816004600083815260200190815260200160002060006101000a81548173ffffffffffffffffffffffffffffffffffffffff021916908373ffffffffffffffffffffffffffffffffffffffff160217905550808273ffffffffffffffffffffffffffffffffffffffff1661257183611892565b73ffffffffffffffffffffffffffffffffffffffff167f8c5be1e5ebec7d5bd14f71427d1e84f3dd0314c0f7b2291e5b200ac8c7c3b92560405160405180910390a45050565b60006125c282612492565b612601576040517f08c379a00000000000000000000000000000000000000000000000000000000081526004016125f8906147b5565b60405180910390fd5b600061260c83611892565b90508073ffffffffffffffffffffffffffffffffffffffff168473ffffffffffffffffffffffffffffffffffffffff16148061267b57508373ffffffffffffffffffffffffffffffffffffffff1661266384610cab565b73ffffffffffffffffffffffffffffffffffffffff16145b8061268c575061268b81856121e8565b5b91505092915050565b8273ffffffffffffffffffffffffffffffffffffffff166126b582611892565b73ffffffffffffffffffffffffffffffffffffffff161461270b576040517f08c379a0000000000000000000000000000000000000000000000000000000008152600401612702906146d5565b60405180910390fd5b600073ffffffffffffffffffffffffffffffffffffffff168273ffffffffffffffffffffffffffffffffffffffff16141561277b576040517f08c379a000000000000000000000000000000000000000000000000000000000815260040161277290614715565b60405180910390fd5b612786838383612f61565b6127916000826124fe565b6001600360008573ffffffffffffffffffffffffffffffffffffffff1673ffffffffffffffffffffffffffffffffffffffff16815260200190815260200160002060008282546127e19190614c9f565b925050819055506001600360008473ffffffffffffffffffffffffffffffffffffffff1673ffffffffffffffffffffffffffffffffffffffff16815260200190815260200160002060008282546128389190614bbe565b92505081905550816002600083815260200190815260200160002060006101000a81548173ffffffffffffffffffffffffffffffffffffffff021916908373ffffffffffffffffffffffffffffffffffffffff160217905550808273ffffffffffffffffffffffffffffffffffffffff168473ffffffffffffffffffffffffffffffffffffffff167fddf252ad1be2c89b69c2b068fc378daa952ba7f163c4a11628f55a4df523b3ef60405160405180910390a46128f7838383613075565b505050565b6000600a60019054906101000a900473ffffffffffffffffffffffffffffffffffffffff16905081600a60016101000a81548173ffffffffffffffffffffffffffffffffffffffff021916908373ffffffffffffffffffffffffffffffffffffffff1602179055508173ffffffffffffffffffffffffffffffffffffffff168173ffffffffffffffffffffffffffffffffffffffff167f8be0079c531659141344cd1fd0a4f28419497f9722a3daafe3b4186f6b6457e060405160405180910390a35050565b6129ca61187b565b15612a0a576040517f08c379a0000000000000000000000000000000000000000000000000000000008152600401612a01906147f5565b60405180910390fd5b6001600a60006101000a81548160ff0219169083151502179055507f62e78cea01bee320cd4e420270b5ea74000d11b0c9f74754ebdbfc544b05a258612a4e612374565b604051612a5b9190614535565b60405180910390a1565b612a6d61187b565b612aac576040517f08c379a0000000000000000000000000000000000000000000000000000000008152600401612aa390614655565b60405180910390fd5b6000600a60006101000a81548160ff0219169083151502179055507f5db9ee0a495bf2e6ff9c91a7834c1ba4fdd244a5e8aa4e537bd38aeae4b073aa612af0612374565b604051612afd9190614535565b60405180910390a1565b8173ffffffffffffffffffffffffffffffffffffffff168373ffffffffffffffffffffffffffffffffffffffff161415612b76576040517f08c379a0000000000000000000000000000000000000000000000000000000008152600401612b6d90614735565b60405180910390fd5b80600560008573ffffffffffffffffffffffffffffffffffffffff1673ffffffffffffffffffffffffffffffffffffffff16815260200190815260200160002060008473ffffffffffffffffffffffffffffffffffffffff1673ffffffffffffffffffffffffffffffffffffffff16815260200190815260200160002060006101000a81548160ff0219169083151502179055508173ffffffffffffffffffffffffffffffffffffffff168373ffffffffffffffffffffffffffffffffffffffff167f17307eab39ab6107e8899845ad3d59bd9653f200f220920489ca2b5937696c3183604051612c679190614618565b60405180910390a3505050565b612c7f848484612695565b612c8b8484848461307a565b612cca576040517f08c379a0000000000000000000000000000000000000000000000000000000008152600401612cc190614695565b60405180910390fd5b50505050565b606060148054612cdf90614d89565b80601f0160208091040260200160405190810160405280929190818152602001828054612d0b90614d89565b8015612d585780601f10612d2d57610100808354040283529160200191612d58565b820191906000526020600020905b815481529060010190602001808311612d3b57829003601f168201915b5050505050905090565b60606000821415612daa576040518060400160405280600181526020017f30000000000000000000000000000000000000000000000000000000000000008152509050612ebe565b600082905060005b60008214612ddc578080612dc590614dec565b915050600a82612dd59190614c14565b9150612db2565b60008167ffffffffffffffff811115612df857612df7614f51565b5b6040519080825280601f01601f191660200182016040528015612e2a5781602001600182028036833780820191505090505b5090505b60008514612eb757600182612e439190614c9f565b9150600a85612e529190614e35565b6030612e5e9190614bbe565b60f81b818381518110612e7457612e73614f22565b5b60200101907effffffffffffffffffffffffffffffffffffffffffffffffffffffffffffff1916908160001a905350600a85612eb09190614c14565b9450612e2e565b8093505050505b919050565b6001816000016000828254019250508190555050565b612ef3828260405180602001604052806000815250613211565b5050565b60007f01ffc9a7000000000000000000000000000000000000000000000000000000007bffffffffffffffffffffffffffffffffffffffffffffffffffffffff1916827bffffffffffffffffffffffffffffffffffffffffffffffffffffffff1916149050919050565b612f6c83838361326c565b600073ffffffffffffffffffffffffffffffffffffffff168373ffffffffffffffffffffffffffffffffffffffff161415612faf57612faa81613271565b612fee565b8173ffffffffffffffffffffffffffffffffffffffff168373ffffffffffffffffffffffffffffffffffffffff1614612fed57612fec83826132ba565b5b5b600073ffffffffffffffffffffffffffffffffffffffff168273ffffffffffffffffffffffffffffffffffffffff1614156130315761302c81613427565b613070565b8273ffffffffffffffffffffffffffffffffffffffff168273ffffffffffffffffffffffffffffffffffffffff161461306f5761306e82826134f8565b5b5b505050565b505050565b600061309b8473ffffffffffffffffffffffffffffffffffffffff16613577565b15613204578373ffffffffffffffffffffffffffffffffffffffff1663150b7a026130c4612374565b8786866040518563ffffffff1660e01b81526004016130e69493929190614587565b602060405180830381600087803b15801561310057600080fd5b505af192505050801561313157506040513d601f19601f8201168201806040525081019061312e9190613e63565b60015b6131b4573d8060008114613161576040519150601f19603f3d011682016040523d82523d6000602084013e613166565b606091505b506000815114156131ac576040517f08c379a00000000000000000000000000000000000000000000000000000000081526004016131a390614695565b60405180910390fd5b805181602001fd5b63150b7a0260e01b7bffffffffffffffffffffffffffffffffffffffffffffffffffffffff1916817bffffffffffffffffffffffffffffffffffffffffffffffffffffffff191614915050613209565b600190505b949350505050565b61321b838361359a565b613228600084848461307a565b613267576040517f08c379a000000000000000000000000000000000000000000000000000000000815260040161325e90614695565b60405180910390fd5b505050565b505050565b6008805490506009600083815260200190815260200160002081905550600881908060018154018082558091505060019003906000526020600020016000909190919091505550565b600060016132c784611ab9565b6132d19190614c9f565b90506000600760008481526020019081526020016000205490508181146133b6576000600660008673ffffffffffffffffffffffffffffffffffffffff1673ffffffffffffffffffffffffffffffffffffffff168152602001908152602001600020600084815260200190815260200160002054905080600660008773ffffffffffffffffffffffffffffffffffffffff1673ffffffffffffffffffffffffffffffffffffffff168152602001908152602001600020600084815260200190815260200160002081905550816007600083815260200190815260200160002081905550505b6007600084815260200190815260200160002060009055600660008573ffffffffffffffffffffffffffffffffffffffff1673ffffffffffffffffffffffffffffffffffffffff16815260200190815260200160002060008381526020019081526020016000206000905550505050565b6000600160088054905061343b9190614c9f565b905060006009600084815260200190815260200160002054905060006008838154811061346b5761346a614f22565b5b90600052602060002001549050806008838154811061348d5761348c614f22565b5b9060005260206000200181905550816009600083815260200190815260200160002081905550600960008581526020019081526020016000206000905560088054806134dc576134db614ef3565b5b6001900381819060005260206000200160009055905550505050565b600061350383611ab9565b905081600660008573ffffffffffffffffffffffffffffffffffffffff1673ffffffffffffffffffffffffffffffffffffffff168152602001908152602001600020600083815260200190815260200160002081905550806007600084815260200190815260200160002081905550505050565b6000808273ffffffffffffffffffffffffffffffffffffffff163b119050919050565b600073ffffffffffffffffffffffffffffffffffffffff168273ffffffffffffffffffffffffffffffffffffffff16141561360a576040517f08c379a0000000000000000000000000000000000000000000000000000000008152600401613601906148f5565b60405180910390fd5b61361381612492565b15613653576040517f08c379a000000000000000000000000000000000000000000000000000000000815260040161364a906146f5565b60405180910390fd5b61365f60008383612f61565b6001600360008473ffffffffffffffffffffffffffffffffffffffff1673ffffffffffffffffffffffffffffffffffffffff16815260200190815260200160002060008282546136af9190614bbe565b92505081905550816002600083815260200190815260200160002060006101000a81548173ffffffffffffffffffffffffffffffffffffffff021916908373ffffffffffffffffffffffffffffffffffffffff160217905550808273ffffffffffffffffffffffffffffffffffffffff16600073ffffffffffffffffffffffffffffffffffffffff167fddf252ad1be2c89b69c2b068fc378daa952ba7f163c4a11628f55a4df523b3ef60405160405180910390a461377060008383613075565b5050565b82805461378090614d89565b90600052602060002090601f0160209004810192826137a257600085556137e9565b82601f106137bb57805160ff19168380011785556137e9565b828001600101855582156137e9579182015b828111156137e85782518255916020019190600101906137cd565b5b5090506137f691906137fa565b5090565b5b808211156138135760008160009055506001016137fb565b5090565b600061382a61382584614a55565b614a30565b9050808382526020820190508285602086028201111561384d5761384c614f85565b5b60005b8581101561387d5781613863888261397b565b845260208401935060208301925050600181019050613850565b5050509392505050565b600061389a61389584614a81565b614a30565b905080838252602082019050828560208602820111156138bd576138bc614f85565b5b60005b858110156138ed57816138d38882613a9c565b8452602084019350602083019250506001810190506138c0565b5050509392505050565b600061390a61390584614aad565b614a30565b90508281526020810184848401111561392657613925614f8a565b5b613931848285614d47565b509392505050565b600061394c61394784614ade565b614a30565b90508281526020810184848401111561396857613967614f8a565b5b613973848285614d47565b509392505050565b60008135905061398a81615770565b92915050565b60008151905061399f81615770565b92915050565b600082601f8301126139ba576139b9614f80565b5b81356139ca848260208601613817565b91505092915050565b600082601f8301126139e8576139e7614f80565b5b81356139f8848260208601613887565b91505092915050565b600081359050613a1081615787565b92915050565b600081359050613a258161579e565b92915050565b600081519050613a3a8161579e565b92915050565b600082601f830112613a5557613a54614f80565b5b8135613a658482602086016138f7565b91505092915050565b600082601f830112613a8357613a82614f80565b5b8135613a93848260208601613939565b91505092915050565b600081359050613aab816157b5565b92915050565b600060208284031215613ac757613ac6614f94565b5b6000613ad58482850161397b565b91505092915050565b600060208284031215613af457613af3614f94565b5b6000613b0284828501613990565b91505092915050565b60008060408385031215613b2257613b21614f94565b5b6000613b308582860161397b565b9250506020613b418582860161397b565b9150509250929050565b600080600060608486031215613b6457613b63614f94565b5b6000613b728682870161397b565b9350506020613b838682870161397b565b9250506040613b9486828701613a9c565b9150509250925092565b60008060008060808587031215613bb857613bb7614f94565b5b6000613bc68782880161397b565b9450506020613bd78782880161397b565b9350506040613be887828801613a9c565b925050606085013567ffffffffffffffff811115613c0957613c08614f8f565b5b613c1587828801613a40565b91505092959194509250565b60008060408385031215613c3857613c37614f94565b5b6000613c468582860161397b565b9250506020613c5785828601613a01565b9150509250929050565b60008060408385031215613c7857613c77614f94565b5b6000613c868582860161397b565b9250506020613c9785828601613a9c565b9150509250929050565b600060208284031215613cb757613cb6614f94565b5b600082013567ffffffffffffffff811115613cd557613cd4614f8f565b5b613ce1848285016139a5565b91505092915050565b600060208284031215613d0057613cff614f94565b5b600082013567ffffffffffffffff811115613d1e57613d1d614f8f565b5b613d2a848285016139d3565b91505092915050565b60008060408385031215613d4a57613d49614f94565b5b600083013567ffffffffffffffff811115613d6857613d67614f8f565b5b613d74858286016139d3565b925050602083013567ffffffffffffffff811115613d9557613d94614f8f565b5b613da1858286016139d3565b9150509250929050565b600080600060608486031215613dc457613dc3614f94565b5b600084013567ffffffffffffffff811115613de257613de1614f8f565b5b613dee868287016139d3565b935050602084013567ffffffffffffffff811115613e0f57613e0e614f8f565b5b613e1b868287016139d3565b9250506040613e2c8682870161397b565b9150509250925092565b600060208284031215613e4c57613e4b614f94565b5b6000613e5a84828501613a16565b91505092915050565b600060208284031215613e7957613e78614f94565b5b6000613e8784828501613a2b565b91505092915050565b600060208284031215613ea657613ea5614f94565b5b600082013567ffffffffffffffff811115613ec457613ec3614f8f565b5b613ed084828501613a6e565b91505092915050565b600060208284031215613eef57613eee614f94565b5b6000613efd84828501613a9c565b91505092915050565b6000613f128383613f45565b60208301905092915050565b6000613f2a83836144dc565b60208301905092915050565b613f3f81614cd3565b82525050565b613f4e81614cd3565b82525050565b6000613f5f82614b2f565b613f698185614b75565b9350613f7483614b0f565b8060005b83811015613fa5578151613f8c8882613f06565b9750613f9783614b5b565b925050600181019050613f78565b5085935050505092915050565b6000613fbd82614b3a565b613fc78185614b80565b9350613fd283614b1f565b8060005b83811015614003578151613fea8882613f1e565b9750613ff583614b68565b925050600181019050613fd6565b5085935050505092915050565b61401981614ce5565b82525050565b600061402a82614b45565b6140348185614b91565b9350614044818560208601614d56565b61404d81614f99565b840191505092915050565b600061406382614b50565b61406d8185614ba2565b935061407d818560208601614d56565b61408681614f99565b840191505092915050565b600061409c82614b50565b6140a68185614bb3565b93506140b6818560208601614d56565b80840191505092915050565b60006140cf601483614ba2565b91506140da82614faa565b602082019050919050565b60006140f2602b83614ba2565b91506140fd82614fd3565b604082019050919050565b6000614115603283614ba2565b915061412082615022565b604082019050919050565b6000614138602683614ba2565b915061414382615071565b604082019050919050565b600061415b602583614ba2565b9150614166826150c0565b604082019050919050565b600061417e601c83614ba2565b91506141898261510f565b602082019050919050565b60006141a1602483614ba2565b91506141ac82615138565b604082019050919050565b60006141c4601983614ba2565b91506141cf82615187565b602082019050919050565b60006141e7602583614ba2565b91506141f2826151b0565b604082019050919050565b600061420a602183614ba2565b9150614215826151ff565b604082019050919050565b600061422d602483614ba2565b91506142388261524e565b604082019050919050565b6000614250602c83614ba2565b915061425b8261529d565b604082019050919050565b6000614273600883614ba2565b915061427e826152ec565b602082019050919050565b6000614296601083614ba2565b91506142a182615315565b602082019050919050565b60006142b9601683614ba2565b91506142c48261533e565b602082019050919050565b60006142dc603883614ba2565b91506142e782615367565b604082019050919050565b60006142ff601c83614ba2565b915061430a826153b6565b602082019050919050565b6000614322602a83614ba2565b915061432d826153df565b604082019050919050565b6000614345602983614ba2565b91506143508261542e565b604082019050919050565b6000614368601783614ba2565b91506143738261547d565b602082019050919050565b600061438b601383614ba2565b9150614396826154a6565b602082019050919050565b60006143ae602083614ba2565b91506143b9826154cf565b602082019050919050565b60006143d1602183614ba2565b91506143dc826154f8565b604082019050919050565b60006143f4602c83614ba2565b91506143ff82615547565b604082019050919050565b6000614417602083614ba2565b915061442282615596565b602082019050919050565b600061443a602f83614ba2565b9150614445826155bf565b604082019050919050565b600061445d604983614ba2565b91506144688261560e565b606082019050919050565b6000614480602183614ba2565b915061448b82615683565b604082019050919050565b60006144a3603183614ba2565b91506144ae826156d2565b604082019050919050565b60006144c6602c83614ba2565b91506144d182615721565b604082019050919050565b6144e581614d3d565b82525050565b6144f481614d3d565b82525050565b60006145068284613f54565b915081905092915050565b600061451d8285614091565b91506145298284614091565b91508190509392505050565b600060208201905061454a6000830184613f36565b92915050565b60006060820190506145656000830186613f36565b6145726020830185613f36565b61457f60408301846144eb565b949350505050565b600060808201905061459c6000830187613f36565b6145a96020830186613f36565b6145b660408301856144eb565b81810360608301526145c8818461401f565b905095945050505050565b600060608201905081810360008301526145ed8186613fb2565b905081810360208301526146018185613fb2565b90506146106040830184613f36565b949350505050565b600060208201905061462d6000830184614010565b92915050565b6000602082019050818103600083015261464d8184614058565b905092915050565b6000602082019050818103600083015261466e816140c2565b9050919050565b6000602082019050818103600083015261468e816140e5565b9050919050565b600060208201905081810360008301526146ae81614108565b9050919050565b600060208201905081810360008301526146ce8161412b565b9050919050565b600060208201905081810360008301526146ee8161414e565b9050919050565b6000602082019050818103600083015261470e81614171565b9050919050565b6000602082019050818103600083015261472e81614194565b9050919050565b6000602082019050818103600083015261474e816141b7565b9050919050565b6000602082019050818103600083015261476e816141da565b9050919050565b6000602082019050818103600083015261478e816141fd565b9050919050565b600060208201905081810360008301526147ae81614220565b9050919050565b600060208201905081810360008301526147ce81614243565b9050919050565b600060208201905081810360008301526147ee81614266565b9050919050565b6000602082019050818103600083015261480e81614289565b9050919050565b6000602082019050818103600083015261482e816142ac565b9050919050565b6000602082019050818103600083015261484e816142cf565b9050919050565b6000602082019050818103600083015261486e816142f2565b9050919050565b6000602082019050818103600083015261488e81614315565b9050919050565b600060208201905081810360008301526148ae81614338565b9050919050565b600060208201905081810360008301526148ce8161435b565b9050919050565b600060208201905081810360008301526148ee8161437e565b9050919050565b6000602082019050818103600083015261490e816143a1565b9050919050565b6000602082019050818103600083015261492e816143c4565b9050919050565b6000602082019050818103600083015261494e816143e7565b9050919050565b6000602082019050818103600083015261496e8161440a565b9050919050565b6000602082019050818103600083015261498e8161442d565b9050919050565b600060208201905081810360008301526149ae81614450565b9050919050565b600060208201905081810360008301526149ce81614473565b9050919050565b600060208201905081810360008301526149ee81614496565b9050919050565b60006020820190508181036000830152614a0e816144b9565b9050919050565b6000602082019050614a2a60008301846144eb565b92915050565b6000614a3a614a4b565b9050614a468282614dbb565b919050565b6000604051905090565b600067ffffffffffffffff821115614a7057614a6f614f51565b5b602082029050602081019050919050565b600067ffffffffffffffff821115614a9c57614a9b614f51565b5b602082029050602081019050919050565b600067ffffffffffffffff821115614ac857614ac7614f51565b5b614ad182614f99565b9050602081019050919050565b600067ffffffffffffffff821115614af957614af8614f51565b5b614b0282614f99565b9050602081019050919050565b6000819050602082019050919050565b6000819050602082019050919050565b600081519050919050565b600081519050919050565b600081519050919050565b600081519050919050565b6000602082019050919050565b6000602082019050919050565b600081905092915050565b600082825260208201905092915050565b600082825260208201905092915050565b600082825260208201905092915050565b600081905092915050565b6000614bc982614d3d565b9150614bd483614d3d565b9250827fffffffffffffffffffffffffffffffffffffffffffffffffffffffffffffffff03821115614c0957614c08614e66565b5b828201905092915050565b6000614c1f82614d3d565b9150614c2a83614d3d565b925082614c3a57614c39614e95565b5b828204905092915050565b6000614c5082614d3d565b9150614c5b83614d3d565b9250817fffffffffffffffffffffffffffffffffffffffffffffffffffffffffffffffff0483118215151615614c9457614c93614e66565b5b828202905092915050565b6000614caa82614d3d565b9150614cb583614d3d565b925082821015614cc857614cc7614e66565b5b828203905092915050565b6000614cde82614d1d565b9050919050565b60008115159050919050565b60007fffffffff0000000000000000000000000000000000000000000000000000000082169050919050565b600073ffffffffffffffffffffffffffffffffffffffff82169050919050565b6000819050919050565b82818337600083830152505050565b60005b83811015614d74578082015181840152602081019050614d59565b83811115614d83576000848401525b50505050565b60006002820490506001821680614da157607f821691505b60208210811415614db557614db4614ec4565b5b50919050565b614dc482614f99565b810181811067ffffffffffffffff82111715614de357614de2614f51565b5b80604052505050565b6000614df782614d3d565b91507fffffffffffffffffffffffffffffffffffffffffffffffffffffffffffffffff821415614e2a57614e29614e66565b5b600182019050919050565b6000614e4082614d3d565b9150614e4b83614d3d565b925082614e5b57614e5a614e95565b5b828206905092915050565b7f4e487b7100000000000000000000000000000000000000000000000000000000600052601160045260246000fd5b7f4e487b7100000000000000000000000000000000000000000000000000000000600052601260045260246000fd5b7f4e487b7100000000000000000000000000000000000000000000000000000000600052602260045260246000fd5b7f4e487b7100000000000000000000000000000000000000000000000000000000600052603160045260246000fd5b7f4e487b7100000000000000000000000000000000000000000000000000000000600052603260045260246000fd5b7f4e487b7100000000000000000000000000000000000000000000000000000000600052604160045260246000fd5b600080fd5b600080fd5b600080fd5b600080fd5b600080fd5b6000601f19601f8301169050919050565b7f5061757361626c653a206e6f7420706175736564000000000000000000000000600082015250565b7f455243373231456e756d657261626c653a206f776e657220696e646578206f7560008201527f74206f6620626f756e6473000000000000000000000000000000000000000000602082015250565b7f4552433732313a207472616e7366657220746f206e6f6e20455243373231526560008201527f63656976657220696d706c656d656e7465720000000000000000000000000000602082015250565b7f4f776e61626c653a206e6577206f776e657220697320746865207a65726f206160008201527f6464726573730000000000000000000000000000000000000000000000000000602082015250565b7f4552433732313a207472616e736665722066726f6d20696e636f72726563742060008201527f6f776e6572000000000000000000000000000000000000000000000000000000602082015250565b7f4552433732313a20746f6b656e20616c7265616479206d696e74656400000000600082015250565b7f4552433732313a207472616e7366657220746f20746865207a65726f2061646460008201527f7265737300000000000000000000000000000000000000000000000000000000602082015250565b7f4552433732313a20617070726f766520746f2063616c6c657200000000000000600082015250565b7f4d757374206f776e20746865204f472054726f6f7072207573656420666f722060008201527f737061776e000000000000000000000000000000000000000000000000000000602082015250565b7f54726f6f707220746f6b656e20686173206265656e2075736564206265666f7260008201527f6500000000000000000000000000000000000000000000000000000000000000602082015250565b7f4d757374206f776e20746865204d6963726f626573207573656420666f72207360008201527f7061776e00000000000000000000000000000000000000000000000000000000602082015250565b7f4552433732313a206f70657261746f7220717565727920666f72206e6f6e657860008201527f697374656e7420746f6b656e0000000000000000000000000000000000000000602082015250565b7f736f6c64206f7574000000000000000000000000000000000000000000000000600082015250565b7f5061757361626c653a2070617573656400000000000000000000000000000000600082015250565b7f63616e27742073656e6420656d707479206c6973747300000000000000000000600082015250565b7f4552433732313a20617070726f76652063616c6c6572206973206e6f74206f7760008201527f6e6572206e6f7220617070726f76656420666f7220616c6c0000000000000000602082015250565b7f6e6565642061646472657373657320746f2061697264726f7020746f00000000600082015250565b7f4552433732313a2062616c616e636520717565727920666f7220746865207a6560008201527f726f206164647265737300000000000000000000000000000000000000000000602082015250565b7f4552433732313a206f776e657220717565727920666f72206e6f6e657869737460008201527f656e7420746f6b656e0000000000000000000000000000000000000000000000602082015250565b7f6e657720737570706c792063616e206e6f742062652030000000000000000000600082015250565b7f737061776e206973206e6f742061637469766500000000000000000000000000600082015250565b7f4552433732313a206d696e7420746f20746865207a65726f2061646472657373600082015250565b7f63616e27742061697264726f70206d6f7265207468616e20617661696c61626c60008201527f6500000000000000000000000000000000000000000000000000000000000000602082015250565b7f4552433732313a20617070726f76656420717565727920666f72206e6f6e657860008201527f697374656e7420746f6b656e0000000000000000000000000000000000000000602082015250565b7f4f776e61626c653a2063616c6c6572206973206e6f7420746865206f776e6572600082015250565b7f4552433732314d657461646174613a2055524920717565727920666f72206e6f60008201527f6e6578697374656e7420746f6b656e0000000000000000000000000000000000602082015250565b7f6d7573742073656e6420666f7572204d6963726f62657320706572204f47205460008201527f726f6f7072206f72206f6e6520676f6c64656e206d6963726f6265207065722060208201527f4f472054726f6f70720000000000000000000000000000000000000000000000604082015250565b7f4552433732313a20617070726f76616c20746f2063757272656e74206f776e6560008201527f7200000000000000000000000000000000000000000000000000000000000000602082015250565b7f4552433732313a207472616e736665722063616c6c6572206973206e6f74206f60008201527f776e6572206e6f7220617070726f766564000000000000000000000000000000602082015250565b7f455243373231456e756d657261626c653a20676c6f62616c20696e646578206f60008201527f7574206f6620626f756e64730000000000000000000000000000000000000000602082015250565b61577981614cd3565b811461578457600080fd5b50565b61579081614ce5565b811461579b57600080fd5b50565b6157a781614cf1565b81146157b257600080fd5b50565b6157be81614d3d565b81146157c957600080fd5b5056fea2646970667358221220501ca311e488af314c324b01e3d23f8bfeea8e341248fd55c06dc412c55297bc64736f6c63430008070033",
  "linkReferences": {},
  "deployedLinkReferences": {}
}