{
  "_format": "hh-sol-artifact-1",
  "contractName": "Gedrochten",
  "sourceName": "contracts/Gedrochten.sol",
  "abi": [
    {
      "inputs": [],
      "stateMutability": "nonpayable",
      "type": "constructor"
    },
    {
      "anonymous": false,
      "inputs": [
        {
          "indexed": true,
          "internalType": "address[]",
          "name": "addrs",
          "type": "address[]"
        }
      ],
      "name": "AirDrop",
      "type": "event"
    },
    {
      "anonymous": false,
      "inputs": [
        {
          "indexed": true,
          "internalType": "address",
          "name": "owner",
          "type": "address"
        },
        {
          "indexed": true,
          "internalType": "address",
          "name": "approved",
          "type": "address"
        },
        {
          "indexed": true,
          "internalType": "uint256",
          "name": "tokenId",
          "type": "uint256"
        }
      ],
      "name": "Approval",
      "type": "event"
    },
    {
      "anonymous": false,
      "inputs": [
        {
          "indexed": true,
          "internalType": "address",
          "name": "owner",
          "type": "address"
        },
        {
          "indexed": true,
          "internalType": "address",
          "name": "operator",
          "type": "address"
        },
        {
          "indexed": false,
          "internalType": "bool",
          "name": "approved",
          "type": "bool"
        }
      ],
      "name": "ApprovalForAll",
      "type": "event"
    },
    {
      "anonymous": false,
      "inputs": [
        {
          "indexed": true,
          "internalType": "address",
          "name": "previousOwner",
          "type": "address"
        },
        {
          "indexed": true,
          "internalType": "address",
          "name": "newOwner",
          "type": "address"
        }
      ],
      "name": "OwnershipTransferred",
      "type": "event"
    },
    {
      "anonymous": false,
      "inputs": [
        {
          "indexed": false,
          "internalType": "address",
          "name": "account",
          "type": "address"
        }
      ],
      "name": "Paused",
      "type": "event"
    },
    {
      "anonymous": false,
      "inputs": [
        {
          "indexed": false,
          "internalType": "string",
          "name": "newURI",
          "type": "string"
        }
      ],
      "name": "SetBaseURI",
      "type": "event"
    },
    {
      "anonymous": false,
      "inputs": [
        {
          "indexed": true,
          "internalType": "address",
          "name": "addr",
          "type": "address"
        },
        {
          "indexed": false,
          "internalType": "uint256[]",
          "name": "microbes_ids",
          "type": "uint256[]"
        },
        {
          "indexed": false,
          "internalType": "uint256[]",
          "name": "ogTroopr_ids",
          "type": "uint256[]"
        }
      ],
      "name": "Spawn",
      "type": "event"
    },
    {
      "anonymous": false,
      "inputs": [
        {
          "indexed": false,
          "internalType": "bool",
          "name": "claimActive",
          "type": "bool"
        }
      ],
      "name": "ToggleSpawnActive",
      "type": "event"
    },
    {
      "anonymous": false,
      "inputs": [
        {
          "indexed": false,
          "internalType": "bool",
          "name": "paused",
          "type": "bool"
        }
      ],
      "name": "ToggleTransferPause",
      "type": "event"
    },
    {
      "anonymous": false,
      "inputs": [
        {
          "indexed": true,
          "internalType": "address",
          "name": "from",
          "type": "address"
        },
        {
          "indexed": true,
          "internalType": "address",
          "name": "to",
          "type": "address"
        },
        {
          "indexed": true,
          "internalType": "uint256",
          "name": "tokenId",
          "type": "uint256"
        }
      ],
      "name": "Transfer",
      "type": "event"
    },
    {
      "anonymous": false,
      "inputs": [
        {
          "indexed": false,
          "internalType": "address",
          "name": "account",
          "type": "address"
        }
      ],
      "name": "Unpaused",
      "type": "event"
    },
    {
      "anonymous": false,
      "inputs": [
        {
          "indexed": false,
          "internalType": "uint256",
          "name": "newMax",
          "type": "uint256"
        }
      ],
      "name": "UpdateTotalSupply",
      "type": "event"
    },
    {
      "anonymous": false,
      "inputs": [
        {
          "indexed": false,
          "internalType": "uint256",
          "name": "amount",
          "type": "uint256"
        }
      ],
      "name": "Withdraw",
      "type": "event"
    },
    {
      "inputs": [
        {
          "internalType": "uint256",
          "name": "",
          "type": "uint256"
        }
      ],
      "name": "TokenIds",
      "outputs": [
        {
          "internalType": "bool",
          "name": "",
          "type": "bool"
        }
      ],
      "stateMutability": "view",
      "type": "function"
    },
    {
      "inputs": [],
      "name": "_maxMint",
      "outputs": [
        {
          "internalType": "uint256",
          "name": "",
          "type": "uint256"
        }
      ],
      "stateMutability": "view",
      "type": "function"
    },
    {
      "inputs": [],
      "name": "_prefixURI",
      "outputs": [
        {
          "internalType": "string",
          "name": "",
          "type": "string"
        }
      ],
      "stateMutability": "view",
      "type": "function"
    },
    {
      "inputs": [],
      "name": "_spawnActive",
      "outputs": [
        {
          "internalType": "bool",
          "name": "",
          "type": "bool"
        }
      ],
      "stateMutability": "view",
      "type": "function"
    },
    {
      "inputs": [
        {
          "internalType": "address",
          "name": "",
          "type": "address"
        }
      ],
      "name": "_spawnCount",
      "outputs": [
        {
          "internalType": "uint256",
          "name": "",
          "type": "uint256"
        }
      ],
      "stateMutability": "view",
      "type": "function"
    },
    {
      "inputs": [],
      "name": "_totalSupply",
      "outputs": [
        {
          "internalType": "uint256",
          "name": "",
          "type": "uint256"
        }
      ],
      "stateMutability": "view",
      "type": "function"
    },
    {
      "inputs": [
        {
          "internalType": "address[]",
          "name": "addrs",
          "type": "address[]"
        }
      ],
      "name": "airDrop",
      "outputs": [],
      "stateMutability": "nonpayable",
      "type": "function"
    },
    {
      "inputs": [
        {
          "internalType": "address",
          "name": "to",
          "type": "address"
        },
        {
          "internalType": "uint256",
          "name": "tokenId",
          "type": "uint256"
        }
      ],
      "name": "approve",
      "outputs": [],
      "stateMutability": "nonpayable",
      "type": "function"
    },
    {
      "inputs": [
        {
          "internalType": "address",
          "name": "owner",
          "type": "address"
        }
      ],
      "name": "balanceOf",
      "outputs": [
        {
          "internalType": "uint256",
          "name": "",
          "type": "uint256"
        }
      ],
      "stateMutability": "view",
      "type": "function"
    },
    {
      "inputs": [
        {
          "internalType": "uint256[]",
          "name": "microbesIds",
          "type": "uint256[]"
        }
      ],
      "name": "calculateAmountOfGoldenMicrobes",
      "outputs": [
        {
          "internalType": "uint256",
          "name": "",
          "type": "uint256"
        }
      ],
      "stateMutability": "pure",
      "type": "function"
    },
    {
      "inputs": [
        {
          "internalType": "uint256[]",
          "name": "microbesIds",
          "type": "uint256[]"
        }
      ],
      "name": "calculateAmountOfRegularMicrobes",
      "outputs": [
        {
          "internalType": "uint256",
          "name": "",
          "type": "uint256"
        }
      ],
      "stateMutability": "pure",
      "type": "function"
    },
    {
      "inputs": [
        {
          "internalType": "uint256[]",
          "name": "microbesIds",
          "type": "uint256[]"
        },
        {
          "internalType": "uint256[]",
          "name": "trooprzIds",
          "type": "uint256[]"
        }
      ],
      "name": "checkIfAmountOfMicrobesAndTrooprzIsCorrect",
      "outputs": [
        {
          "internalType": "bool",
          "name": "",
          "type": "bool"
        }
      ],
      "stateMutability": "pure",
      "type": "function"
    },
    {
      "inputs": [
        {
          "internalType": "uint256[]",
          "name": "tokenIds",
          "type": "uint256[]"
        }
      ],
      "name": "checkIfCallerIsOwnerOfMicrobes",
      "outputs": [
        {
          "internalType": "bool",
          "name": "",
          "type": "bool"
        }
      ],
      "stateMutability": "view",
      "type": "function"
    },
    {
      "inputs": [
        {
          "internalType": "uint256[]",
          "name": "tokenIds",
          "type": "uint256[]"
        }
      ],
      "name": "checkIfCallerIsOwnerOfOGTrooprz",
      "outputs": [
        {
          "internalType": "bool",
          "name": "",
          "type": "bool"
        }
      ],
      "stateMutability": "view",
      "type": "function"
    },
    {
      "inputs": [
        {
          "internalType": "uint256[]",
          "name": "microbesIds",
          "type": "uint256[]"
        },
        {
          "internalType": "uint256[]",
          "name": "trooprIds",
          "type": "uint256[]"
        }
      ],
      "name": "checkIfListsAreNotEmpty",
      "outputs": [
        {
          "internalType": "bool",
          "name": "",
          "type": "bool"
        }
      ],
      "stateMutability": "pure",
      "type": "function"
    },
    {
      "inputs": [
        {
          "internalType": "uint256[]",
          "name": "tokenIds",
          "type": "uint256[]"
        }
      ],
      "name": "checkIfOGTrooprUsedBefore",
      "outputs": [
        {
          "internalType": "bool",
          "name": "",
          "type": "bool"
        }
      ],
      "stateMutability": "view",
      "type": "function"
    },
    {
      "inputs": [
        {
          "internalType": "uint256",
          "name": "_tokenId",
          "type": "uint256"
        }
      ],
      "name": "checkIfTokenUsedBefore",
      "outputs": [
        {
          "internalType": "bool",
          "name": "",
          "type": "bool"
        }
      ],
      "stateMutability": "view",
      "type": "function"
    },
    {
      "inputs": [
        {
          "internalType": "uint256",
          "name": "_tokenId",
          "type": "uint256"
        }
      ],
      "name": "deleteFromList",
      "outputs": [],
      "stateMutability": "nonpayable",
      "type": "function"
    },
    {
      "inputs": [
        {
          "internalType": "uint256",
          "name": "tokenId",
          "type": "uint256"
        }
      ],
      "name": "getApproved",
      "outputs": [
        {
          "internalType": "address",
          "name": "",
          "type": "address"
        }
      ],
      "stateMutability": "view",
      "type": "function"
    },
    {
      "inputs": [
        {
          "internalType": "address",
          "name": "owner",
          "type": "address"
        },
        {
          "internalType": "address",
          "name": "operator",
          "type": "address"
        }
      ],
      "name": "isApprovedForAll",
      "outputs": [
        {
          "internalType": "bool",
          "name": "",
          "type": "bool"
        }
      ],
      "stateMutability": "view",
      "type": "function"
    },
    {
      "inputs": [],
      "name": "name",
      "outputs": [
        {
          "internalType": "string",
          "name": "",
          "type": "string"
        }
      ],
      "stateMutability": "view",
      "type": "function"
    },
    {
      "inputs": [],
      "name": "owner",
      "outputs": [
        {
          "internalType": "address",
          "name": "",
          "type": "address"
        }
      ],
      "stateMutability": "view",
      "type": "function"
    },
    {
      "inputs": [
        {
          "internalType": "uint256",
          "name": "tokenId",
          "type": "uint256"
        }
      ],
      "name": "ownerOf",
      "outputs": [
        {
          "internalType": "address",
          "name": "",
          "type": "address"
        }
      ],
      "stateMutability": "view",
      "type": "function"
    },
    {
      "inputs": [],
      "name": "paused",
      "outputs": [
        {
          "internalType": "bool",
          "name": "",
          "type": "bool"
        }
      ],
      "stateMutability": "view",
      "type": "function"
    },
    {
      "inputs": [],
      "name": "renounceOwnership",
      "outputs": [],
      "stateMutability": "nonpayable",
      "type": "function"
    },
    {
      "inputs": [
        {
          "internalType": "address",
          "name": "from",
          "type": "address"
        },
        {
          "internalType": "address",
          "name": "to",
          "type": "address"
        },
        {
          "internalType": "uint256",
          "name": "tokenId",
          "type": "uint256"
        }
      ],
      "name": "safeTransferFrom",
      "outputs": [],
      "stateMutability": "nonpayable",
      "type": "function"
    },
    {
      "inputs": [
        {
          "internalType": "address",
          "name": "from",
          "type": "address"
        },
        {
          "internalType": "address",
          "name": "to",
          "type": "address"
        },
        {
          "internalType": "uint256",
          "name": "tokenId",
          "type": "uint256"
        },
        {
          "internalType": "bytes",
          "name": "_data",
          "type": "bytes"
        }
      ],
      "name": "safeTransferFrom",
      "outputs": [],
      "stateMutability": "nonpayable",
      "type": "function"
    },
    {
      "inputs": [
        {
          "internalType": "address",
          "name": "operator",
          "type": "address"
        },
        {
          "internalType": "bool",
          "name": "approved",
          "type": "bool"
        }
      ],
      "name": "setApprovalForAll",
      "outputs": [],
      "stateMutability": "nonpayable",
      "type": "function"
    },
    {
      "inputs": [
        {
          "internalType": "string",
          "name": "_uri",
          "type": "string"
        }
      ],
      "name": "setBaseURI",
      "outputs": [],
      "stateMutability": "nonpayable",
      "type": "function"
    },
    {
      "inputs": [
        {
          "internalType": "uint256[]",
          "name": "microbes_ids",
          "type": "uint256[]"
        },
        {
          "internalType": "uint256[]",
          "name": "ogTroopr_ids",
          "type": "uint256[]"
        }
      ],
      "name": "spawn",
      "outputs": [],
      "stateMutability": "nonpayable",
      "type": "function"
    },
    {
      "inputs": [
        {
          "internalType": "bytes4",
          "name": "interfaceId",
          "type": "bytes4"
        }
      ],
      "name": "supportsInterface",
      "outputs": [
        {
          "internalType": "bool",
          "name": "",
          "type": "bool"
        }
      ],
      "stateMutability": "view",
      "type": "function"
    },
    {
      "inputs": [],
      "name": "symbol",
      "outputs": [
        {
          "internalType": "string",
          "name": "",
          "type": "string"
        }
      ],
      "stateMutability": "view",
      "type": "function"
    },
    {
      "inputs": [],
      "name": "toggleSpawnActive",
      "outputs": [],
      "stateMutability": "nonpayable",
      "type": "function"
    },
    {
      "inputs": [],
      "name": "toggleTransferPause",
      "outputs": [],
      "stateMutability": "nonpayable",
      "type": "function"
    },
    {
      "inputs": [
        {
          "internalType": "uint256",
          "name": "index",
          "type": "uint256"
        }
      ],
      "name": "tokenByIndex",
      "outputs": [
        {
          "internalType": "uint256",
          "name": "",
          "type": "uint256"
        }
      ],
      "stateMutability": "view",
      "type": "function"
    },
    {
      "inputs": [
        {
          "internalType": "address",
          "name": "owner",
          "type": "address"
        },
        {
          "internalType": "uint256",
          "name": "index",
          "type": "uint256"
        }
      ],
      "name": "tokenOfOwnerByIndex",
      "outputs": [
        {
          "internalType": "uint256",
          "name": "",
          "type": "uint256"
        }
      ],
      "stateMutability": "view",
      "type": "function"
    },
    {
      "inputs": [
        {
          "internalType": "uint256",
          "name": "tokenId",
          "type": "uint256"
        }
      ],
      "name": "tokenURI",
      "outputs": [
        {
          "internalType": "string",
          "name": "",
          "type": "string"
        }
      ],
      "stateMutability": "view",
      "type": "function"
    },
    {
      "inputs": [],
      "name": "totalSupply",
      "outputs": [
        {
          "internalType": "uint256",
          "name": "",
          "type": "uint256"
        }
      ],
      "stateMutability": "view",
      "type": "function"
    },
    {
      "inputs": [
        {
          "internalType": "address",
          "name": "from",
          "type": "address"
        },
        {
          "internalType": "address",
          "name": "to",
          "type": "address"
        },
        {
          "internalType": "uint256",
          "name": "tokenId",
          "type": "uint256"
        }
      ],
      "name": "transferFrom",
      "outputs": [],
      "stateMutability": "nonpayable",
      "type": "function"
    },
    {
      "inputs": [
        {
          "internalType": "address",
          "name": "newOwner",
          "type": "address"
        }
      ],
      "name": "transferOwnership",
      "outputs": [],
      "stateMutability": "nonpayable",
      "type": "function"
    },
    {
      "inputs": [
        {
          "internalType": "uint256",
          "name": "newSupply",
          "type": "uint256"
        }
      ],
      "name": "updateTotalSupply",
      "outputs": [],
      "stateMutability": "nonpayable",
      "type": "function"
    },
    {
      "inputs": [],
      "name": "withdraw",
      "outputs": [],
      "stateMutability": "nonpayable",
      "type": "function"
    }
  ],
  "bytecode": "0x60806040526108ae600e556000601160006101000a81548160ff02191690831515021790555060056012553480156200003757600080fd5b506040518060400160405280600a81526020017f476564726f636874656e000000000000000000000000000000000000000000008152506040518060400160405280600481526020017f47445253000000000000000000000000000000000000000000000000000000008152508160009080519060200190620000bc92919062000291565b508060019080519060200190620000d592919062000291565b5050506000600a60006101000a81548160ff0219169083151502179055506200011362000107620001c360201b60201c565b620001cb60201b60201c565b7396628048830a499b156abdc04cc169c18c3a17f2600b60006101000a81548173ffffffffffffffffffffffffffffffffffffffff021916908373ffffffffffffffffffffffffffffffffffffffff16021790555073140559b57c6e8c178ddea899146e7a199624b340600c60006101000a81548173ffffffffffffffffffffffffffffffffffffffff021916908373ffffffffffffffffffffffffffffffffffffffff160217905550620003a6565b600033905090565b6000600a60019054906101000a900473ffffffffffffffffffffffffffffffffffffffff16905081600a60016101000a81548173ffffffffffffffffffffffffffffffffffffffff021916908373ffffffffffffffffffffffffffffffffffffffff1602179055508173ffffffffffffffffffffffffffffffffffffffff168173ffffffffffffffffffffffffffffffffffffffff167f8be0079c531659141344cd1fd0a4f28419497f9722a3daafe3b4186f6b6457e060405160405180910390a35050565b8280546200029f9062000341565b90600052602060002090601f016020900481019282620002c357600085556200030f565b82601f10620002de57805160ff19168380011785556200030f565b828001600101855582156200030f579182015b828111156200030e578251825591602001919060010190620002f1565b5b5090506200031e919062000322565b5090565b5b808211156200033d57600081600090555060010162000323565b5090565b600060028204905060018216806200035a57607f821691505b6020821081141562000371576200037062000377565b5b50919050565b7f4e487b7100000000000000000000000000000000000000000000000000000000600052602260045260246000fd5b61564380620003b66000396000f3fe608060405234801561001057600080fd5b506004361061025d5760003560e01c806366d49bab11610146578063a22cb465116100c3578063c2069f0b11610087578063c2069f0b14610720578063c5eddc1e14610750578063c6ad680914610780578063c87b56dd146107b0578063e985e9c5146107e0578063f2fde38b146108105761025d565b8063a22cb46514610692578063a7bf9ebd146106ae578063b640392c146106ca578063b88d4fde146106e8578063ba4a7303146107045761025d565b80638da5cb5b1161010a5780638da5cb5b146105fe5780638e09f0101461061c57806391860f781461064c57806395d89b411461066a5780639752a017146106885761025d565b806366d49bab146105485780636c9a802e1461056457806370a0823114610594578063715018a6146105c4578063774a64b7146105ce5761025d565b80632f745c59116101df57806342842e0e116101a357806342842e0e146104625780634f6ccce71461047e5780635368b4d7146104ae57806355f804b3146104de5780635c975abb146104fa5780636352211e146105185761025d565b80632f745c59146103bc57806334316ad7146103ec5780633ccfd60b1461040a5780633eaaf86b146104145780633ed0a44c146104325761025d565b8063095ea7b311610226578063095ea7b314610306578063137e7c491461032257806318160ddd1461035257806323b872dd146103705780632c8490bd1461038c5761025d565b8062b6849f1461026257806301ffc9a71461027e57806302799ed9146102ae57806306fdde03146102b8578063081812fc146102d6575b600080fd5b61027c60048036038101906102779190613bb2565b61082c565b005b61029860048036038101906102939190613cbc565b6109ce565b6040516102a59190614459565b60405180910390f35b6102b6610a48565b005b6102c0610b36565b6040516102cd9190614474565b60405180910390f35b6102f060048036038101906102eb9190613d5f565b610bc8565b6040516102fd91906143bb565b60405180910390f35b610320600480360381019061031b9190613b72565b610c4d565b005b61033c60048036038101906103379190613d5f565b610d65565b6040516103499190614459565b60405180910390f35b61035a610d8f565b6040516103679190614856565b60405180910390f35b61038a60048036038101906103859190613a5c565b610d9c565b005b6103a660048036038101906103a19190613c44565b610dfc565b6040516103b39190614459565b60405180910390f35b6103d660048036038101906103d19190613b72565b610e72565b6040516103e39190614856565b60405180910390f35b6103f4610f17565b6040516104019190614459565b60405180910390f35b610412610f2a565b005b61041c611039565b6040516104299190614856565b60405180910390f35b61044c60048036038101906104479190613bfb565b61103f565b6040516104599190614459565b60405180910390f35b61047c60048036038101906104779190613a5c565b611179565b005b61049860048036038101906104939190613d5f565b611199565b6040516104a59190614856565b60405180910390f35b6104c860048036038101906104c39190613bfb565b61120a565b6040516104d59190614856565b60405180910390f35b6104f860048036038101906104f39190613d16565b61126d565b005b61050261133a565b60405161050f9190614459565b60405180910390f35b610532600480360381019061052d9190613d5f565b611351565b60405161053f91906143bb565b60405180910390f35b610562600480360381019061055d9190613d5f565b611403565b005b61057e60048036038101906105799190613bfb565b611503565b60405161058b9190614459565b60405180910390f35b6105ae60048036038101906105a991906139c2565b611578565b6040516105bb9190614856565b60405180910390f35b6105cc611630565b005b6105e860048036038101906105e39190613c44565b6116b8565b6040516105f59190614459565b60405180910390f35b6106066116e4565b60405161061391906143bb565b60405180910390f35b61063660048036038101906106319190613bfb565b61170e565b6040516106439190614459565b60405180910390f35b610654611848565b6040516106619190614474565b60405180910390f35b6106726118d6565b60405161067f9190614474565b60405180910390f35b610690611968565b005b6106ac60048036038101906106a79190613b32565b611a46565b005b6106c860048036038101906106c39190613c44565b611a5c565b005b6106d2611eae565b6040516106df9190614856565b60405180910390f35b61070260048036038101906106fd9190613aaf565b611eb4565b005b61071e60048036038101906107199190613d5f565b611f16565b005b61073a600480360381019061073591906139c2565b611fb8565b6040516107479190614856565b60405180910390f35b61076a60048036038101906107659190613d5f565b611fd0565b6040516107779190614459565b60405180910390f35b61079a60048036038101906107959190613bfb565b611ff0565b6040516107a79190614856565b60405180910390f35b6107ca60048036038101906107c59190613d5f565b612052565b6040516107d79190614474565b60405180910390f35b6107fa60048036038101906107f59190613a1c565b6120f9565b6040516108079190614459565b60405180910390f35b61082a600480360381019061082591906139c2565b61218d565b005b610834612285565b73ffffffffffffffffffffffffffffffffffffffff166108526116e4565b73ffffffffffffffffffffffffffffffffffffffff16146108a8576040517f08c379a000000000000000000000000000000000000000000000000000000000815260040161089f90614796565b60405180910390fd5b60008151116108ec576040517f08c379a00000000000000000000000000000000000000000000000000000000081526004016108e390614696565b60405180910390fd5b600e5481516108fb600d61228d565b61090591906149ff565b1115610946576040517f08c379a000000000000000000000000000000000000000000000000000000000815260040161093d90614756565b60405180910390fd5b60005b81518110156109885761097582828151811061096857610967614d63565b5b602002602001015161229b565b808061098090614c2d565b915050610949565b50806040516109979190614380565b60405180910390207fb9413d9dd40eadf97d2949c3c57a163bb454e537a8696520d52a74e0252011e960405160405180910390a250565b60007f780e9d63000000000000000000000000000000000000000000000000000000007bffffffffffffffffffffffffffffffffffffffffffffffffffffffff1916827bffffffffffffffffffffffffffffffffffffffffffffffffffffffff19161480610a415750610a40826122c1565b5b9050919050565b610a50612285565b73ffffffffffffffffffffffffffffffffffffffff16610a6e6116e4565b73ffffffffffffffffffffffffffffffffffffffff1614610ac4576040517f08c379a0000000000000000000000000000000000000000000000000000000008152600401610abb90614796565b60405180910390fd5b601160009054906101000a900460ff1615601160006101000a81548160ff0219169083151502179055507fee0de6ea10c1f647ab1220608069605f97d2bc3252f7c06b4022188fd82a21c8601160009054906101000a900460ff16604051610b2c9190614459565b60405180910390a1565b606060008054610b4590614bca565b80601f0160208091040260200160405190810160405280929190818152602001828054610b7190614bca565b8015610bbe5780601f10610b9357610100808354040283529160200191610bbe565b820191906000526020600020905b815481529060010190602001808311610ba157829003601f168201915b5050505050905090565b6000610bd3826123a3565b610c12576040517f08c379a0000000000000000000000000000000000000000000000000000000008152600401610c0990614776565b60405180910390fd5b6004600083815260200190815260200160002060009054906101000a900473ffffffffffffffffffffffffffffffffffffffff169050919050565b6000610c5882611351565b90508073ffffffffffffffffffffffffffffffffffffffff168373ffffffffffffffffffffffffffffffffffffffff161415610cc9576040517f08c379a0000000000000000000000000000000000000000000000000000000008152600401610cc0906147f6565b60405180910390fd5b8073ffffffffffffffffffffffffffffffffffffffff16610ce8612285565b73ffffffffffffffffffffffffffffffffffffffff161480610d175750610d1681610d11612285565b6120f9565b5b610d56576040517f08c379a0000000000000000000000000000000000000000000000000000000008152600401610d4d90614676565b60405180910390fd5b610d60838361240f565b505050565b60006010600083815260200190815260200160002060009054906101000a900460ff169050919050565b6000600880549050905090565b610dad610da7612285565b826124c8565b610dec576040517f08c379a0000000000000000000000000000000000000000000000000000000008152600401610de390614816565b60405180910390fd5b610df78383836125a6565b505050565b600080610e0884611ff0565b90506000610e158561120a565b9050600481610e249190614a55565b8451610e309190614ae0565b82148015610e5557506004828551610e489190614ae0565b610e529190614a86565b81145b15610e6557600192505050610e6c565b6000925050505b92915050565b6000610e7d83611578565b8210610ebe576040517f08c379a0000000000000000000000000000000000000000000000000000000008152600401610eb5906144b6565b60405180910390fd5b600660008473ffffffffffffffffffffffffffffffffffffffff1673ffffffffffffffffffffffffffffffffffffffff168152602001908152602001600020600083815260200190815260200160002054905092915050565b601160009054906101000a900460ff1681565b610f32612285565b73ffffffffffffffffffffffffffffffffffffffff16610f506116e4565b73ffffffffffffffffffffffffffffffffffffffff1614610fa6576040517f08c379a0000000000000000000000000000000000000000000000000000000008152600401610f9d90614796565b60405180910390fd5b60004711610fb357600080fd5b60004790503373ffffffffffffffffffffffffffffffffffffffff166108fc829081150290604051600060405180830381858888f19350505050158015610ffe573d6000803e3d6000fd5b507f5b6b431d4476a211bb7d41c20d1aab9ae2321deee0d20be3d9fc9b1093fa6e3d8160405161102e9190614856565b60405180910390a150565b600e5481565b60008060009050600033905060005b845181101561116e578173ffffffffffffffffffffffffffffffffffffffff16600b60009054906101000a900473ffffffffffffffffffffffffffffffffffffffff1673ffffffffffffffffffffffffffffffffffffffff16636352211e8784815181106110bf576110be614d63565b5b60200260200101516040518263ffffffff1660e01b81526004016110e39190614856565b60206040518083038186803b1580156110fb57600080fd5b505afa15801561110f573d6000803e3d6000fd5b505050506040513d601f19601f8201168201806040525081019061113391906139ef565b73ffffffffffffffffffffffffffffffffffffffff1614611157576000925061116e565b60019250808061116690614c2d565b91505061104e565b508192505050919050565b61119483838360405180602001604052806000815250611eb4565b505050565b60006111a3610d8f565b82106111e4576040517f08c379a00000000000000000000000000000000000000000000000000000000081526004016111db90614836565b60405180910390fd5b600882815481106111f8576111f7614d63565b5b90600052602060002001549050919050565b6000806000905060005b83518110156112635760de84828151811061123257611231614d63565b5b602002602001015111156112505760018261124d91906149ff565b91505b808061125b90614c2d565b915050611214565b5080915050919050565b611275612285565b73ffffffffffffffffffffffffffffffffffffffff166112936116e4565b73ffffffffffffffffffffffffffffffffffffffff16146112e9576040517f08c379a00000000000000000000000000000000000000000000000000000000081526004016112e090614796565b60405180910390fd5b80601390805190602001906112ff929190613685565b507f23c8c9488efebfd474e85a7956de6f39b17c7ab88502d42a623db2d8e382bbaa8160405161132f9190614474565b60405180910390a150565b6000600a60009054906101000a900460ff16905090565b6000806002600084815260200190815260200160002060009054906101000a900473ffffffffffffffffffffffffffffffffffffffff169050600073ffffffffffffffffffffffffffffffffffffffff168173ffffffffffffffffffffffffffffffffffffffff1614156113fa576040517f08c379a00000000000000000000000000000000000000000000000000000000081526004016113f1906146d6565b60405180910390fd5b80915050919050565b61140b612285565b73ffffffffffffffffffffffffffffffffffffffff166114296116e4565b73ffffffffffffffffffffffffffffffffffffffff161461147f576040517f08c379a000000000000000000000000000000000000000000000000000000000815260040161147690614796565b60405180910390fd5b600081116114c2576040517f08c379a00000000000000000000000000000000000000000000000000000000081526004016114b9906146f6565b60405180910390fd5b80600e819055507fee643f334779f1031decbee003f80a0bcb7ecdc24b6693539cf7447a66afba8a816040516114f89190614856565b60405180910390a150565b6000806000905060005b835181101561156e576010600085838151811061152d5761152c614d63565b5b6020026020010151815260200190815260200160002060009054906101000a900460ff161561155b57600191505b808061156690614c2d565b91505061150d565b5080915050919050565b60008073ffffffffffffffffffffffffffffffffffffffff168273ffffffffffffffffffffffffffffffffffffffff1614156115e9576040517f08c379a00000000000000000000000000000000000000000000000000000000081526004016115e0906146b6565b60405180910390fd5b600360008373ffffffffffffffffffffffffffffffffffffffff1673ffffffffffffffffffffffffffffffffffffffff168152602001908152602001600020549050919050565b611638612285565b73ffffffffffffffffffffffffffffffffffffffff166116566116e4565b73ffffffffffffffffffffffffffffffffffffffff16146116ac576040517f08c379a00000000000000000000000000000000000000000000000000000000081526004016116a390614796565b60405180910390fd5b6116b6600061280d565b565b60008083511180156116cb575060008251115b156116d957600190506116de565b600090505b92915050565b6000600a60019054906101000a900473ffffffffffffffffffffffffffffffffffffffff16905090565b60008060009050600033905060005b845181101561183d578173ffffffffffffffffffffffffffffffffffffffff16600c60009054906101000a900473ffffffffffffffffffffffffffffffffffffffff1673ffffffffffffffffffffffffffffffffffffffff16636352211e87848151811061178e5761178d614d63565b5b60200260200101516040518263ffffffff1660e01b81526004016117b29190614856565b60206040518083038186803b1580156117ca57600080fd5b505afa1580156117de573d6000803e3d6000fd5b505050506040513d601f19601f8201168201806040525081019061180291906139ef565b73ffffffffffffffffffffffffffffffffffffffff1614611826576000925061183d565b60019250808061183590614c2d565b91505061171d565b508192505050919050565b6013805461185590614bca565b80601f016020809104026020016040519081016040528092919081815260200182805461188190614bca565b80156118ce5780601f106118a3576101008083540402835291602001916118ce565b820191906000526020600020905b8154815290600101906020018083116118b157829003601f168201915b505050505081565b6060600180546118e590614bca565b80601f016020809104026020016040519081016040528092919081815260200182805461191190614bca565b801561195e5780601f106119335761010080835404028352916020019161195e565b820191906000526020600020905b81548152906001019060200180831161194157829003601f168201915b5050505050905090565b611970612285565b73ffffffffffffffffffffffffffffffffffffffff1661198e6116e4565b73ffffffffffffffffffffffffffffffffffffffff16146119e4576040517f08c379a00000000000000000000000000000000000000000000000000000000081526004016119db90614796565b60405180910390fd5b6119ec61133a565b6119fd576119f86128d3565b611a06565b611a05612976565b5b7f71aa6dbdf1045ea9e6926a7848dbdd98d55270c4fee88cbc77fd816ccc8d6d2f611a2f61133a565b604051611a3c9190614459565b60405180910390a1565b611a58611a51612285565b8383612a18565b5050565b6000339050601160009054906101000a900460ff16611ab0576040517f08c379a0000000000000000000000000000000000000000000000000000000008152600401611aa790614716565b60405180910390fd5b611aba83836116b8565b611af9576040517f08c379a0000000000000000000000000000000000000000000000000000000008152600401611af090614656565b60405180910390fd5b611b038383610dfc565b611b42576040517f08c379a0000000000000000000000000000000000000000000000000000000008152600401611b39906147d6565b60405180910390fd5b611b4b8361103f565b611b8a576040517f08c379a0000000000000000000000000000000000000000000000000000000008152600401611b81906145d6565b60405180910390fd5b611b938261170e565b611bd2576040517f08c379a0000000000000000000000000000000000000000000000000000000008152600401611bc990614596565b60405180910390fd5b611bdb82611503565b15611c1b576040517f08c379a0000000000000000000000000000000000000000000000000000000008152600401611c12906145b6565b60405180910390fd5b6000611c27600d61228d565b9050600e548110611c6d576040517f08c379a0000000000000000000000000000000000000000000000000000000008152600401611c6490614616565b60405180910390fd5b8251600f60008473ffffffffffffffffffffffffffffffffffffffff1673ffffffffffffffffffffffffffffffffffffffff16815260200190815260200160002054611cb991906149ff565b600f60008473ffffffffffffffffffffffffffffffffffffffff1673ffffffffffffffffffffffffffffffffffffffff1681526020019081526020016000208190555060005b8351811015611d2457611d113361229b565b8080611d1c90614c2d565b915050611cff565b5060005b8451811015611df1576000858281518110611d4657611d45614d63565b5b60200260200101519050600b60009054906101000a900473ffffffffffffffffffffffffffffffffffffffff1673ffffffffffffffffffffffffffffffffffffffff16637b47ec1a826040518263ffffffff1660e01b8152600401611dab9190614856565b600060405180830381600087803b158015611dc557600080fd5b505af1158015611dd9573d6000803e3d6000fd5b50505050508080611de990614c2d565b915050611d28565b5060005b8351811015611e5757600160106000868481518110611e1757611e16614d63565b5b6020026020010151815260200190815260200160002060006101000a81548160ff0219169083151502179055508080611e4f90614c2d565b915050611df5565b508173ffffffffffffffffffffffffffffffffffffffff167ff9be4791847dadcafda5c04b3425ecb57d326af02a381b80fad4e99f16d07b278585604051611ea0929190614422565b60405180910390a250505050565b60125481565b611ec5611ebf612285565b836124c8565b611f04576040517f08c379a0000000000000000000000000000000000000000000000000000000008152600401611efb90614816565b60405180910390fd5b611f1084848484612b85565b50505050565b611f1e612285565b73ffffffffffffffffffffffffffffffffffffffff16611f3c6116e4565b73ffffffffffffffffffffffffffffffffffffffff1614611f92576040517f08c379a0000000000000000000000000000000000000000000000000000000008152600401611f8990614796565b60405180910390fd5b6010600082815260200190815260200160002060006101000a81549060ff021916905550565b600f6020528060005260406000206000915090505481565b60106020528060005260406000206000915054906101000a900460ff1681565b6000806000905060005b83518110156120485760de84828151811061201857612017614d63565b5b6020026020010151116120355760018261203291906149ff565b91505b808061204090614c2d565b915050611ffa565b5080915050919050565b606061205d826123a3565b61209c576040517f08c379a0000000000000000000000000000000000000000000000000000000008152600401612093906147b6565b60405180910390fd5b60006120a6612be1565b905060008151116120c657604051806020016040528060008152506120f1565b806120d084612c73565b6040516020016120e1929190614397565b6040516020818303038152906040525b915050919050565b6000600560008473ffffffffffffffffffffffffffffffffffffffff1673ffffffffffffffffffffffffffffffffffffffff16815260200190815260200160002060008373ffffffffffffffffffffffffffffffffffffffff1673ffffffffffffffffffffffffffffffffffffffff16815260200190815260200160002060009054906101000a900460ff16905092915050565b612195612285565b73ffffffffffffffffffffffffffffffffffffffff166121b36116e4565b73ffffffffffffffffffffffffffffffffffffffff1614612209576040517f08c379a000000000000000000000000000000000000000000000000000000000815260040161220090614796565b60405180910390fd5b600073ffffffffffffffffffffffffffffffffffffffff168173ffffffffffffffffffffffffffffffffffffffff161415612279576040517f08c379a0000000000000000000000000000000000000000000000000000000008152600401612270906144f6565b60405180910390fd5b6122828161280d565b50565b600033905090565b600081600001549050919050565b6122a5600d612dd4565b60006122b1600d61228d565b90506122bd8282612dea565b5050565b60007f80ac58cd000000000000000000000000000000000000000000000000000000007bffffffffffffffffffffffffffffffffffffffffffffffffffffffff1916827bffffffffffffffffffffffffffffffffffffffffffffffffffffffff1916148061238c57507f5b5e139f000000000000000000000000000000000000000000000000000000007bffffffffffffffffffffffffffffffffffffffffffffffffffffffff1916827bffffffffffffffffffffffffffffffffffffffffffffffffffffffff1916145b8061239c575061239b82612e08565b5b9050919050565b60008073ffffffffffffffffffffffffffffffffffffffff166002600084815260200190815260200160002060009054906101000a900473ffffffffffffffffffffffffffffffffffffffff1673ffffffffffffffffffffffffffffffffffffffff1614159050919050565b816004600083815260200190815260200160002060006101000a81548173ffffffffffffffffffffffffffffffffffffffff021916908373ffffffffffffffffffffffffffffffffffffffff160217905550808273ffffffffffffffffffffffffffffffffffffffff1661248283611351565b73ffffffffffffffffffffffffffffffffffffffff167f8c5be1e5ebec7d5bd14f71427d1e84f3dd0314c0f7b2291e5b200ac8c7c3b92560405160405180910390a45050565b60006124d3826123a3565b612512576040517f08c379a0000000000000000000000000000000000000000000000000000000008152600401612509906145f6565b60405180910390fd5b600061251d83611351565b90508073ffffffffffffffffffffffffffffffffffffffff168473ffffffffffffffffffffffffffffffffffffffff16148061258c57508373ffffffffffffffffffffffffffffffffffffffff1661257484610bc8565b73ffffffffffffffffffffffffffffffffffffffff16145b8061259d575061259c81856120f9565b5b91505092915050565b8273ffffffffffffffffffffffffffffffffffffffff166125c682611351565b73ffffffffffffffffffffffffffffffffffffffff161461261c576040517f08c379a000000000000000000000000000000000000000000000000000000000815260040161261390614516565b60405180910390fd5b600073ffffffffffffffffffffffffffffffffffffffff168273ffffffffffffffffffffffffffffffffffffffff16141561268c576040517f08c379a000000000000000000000000000000000000000000000000000000000815260040161268390614556565b60405180910390fd5b612697838383612e72565b6126a260008261240f565b6001600360008573ffffffffffffffffffffffffffffffffffffffff1673ffffffffffffffffffffffffffffffffffffffff16815260200190815260200160002060008282546126f29190614ae0565b925050819055506001600360008473ffffffffffffffffffffffffffffffffffffffff1673ffffffffffffffffffffffffffffffffffffffff168152602001908152602001600020600082825461274991906149ff565b92505081905550816002600083815260200190815260200160002060006101000a81548173ffffffffffffffffffffffffffffffffffffffff021916908373ffffffffffffffffffffffffffffffffffffffff160217905550808273ffffffffffffffffffffffffffffffffffffffff168473ffffffffffffffffffffffffffffffffffffffff167fddf252ad1be2c89b69c2b068fc378daa952ba7f163c4a11628f55a4df523b3ef60405160405180910390a4612808838383612f86565b505050565b6000600a60019054906101000a900473ffffffffffffffffffffffffffffffffffffffff16905081600a60016101000a81548173ffffffffffffffffffffffffffffffffffffffff021916908373ffffffffffffffffffffffffffffffffffffffff1602179055508173ffffffffffffffffffffffffffffffffffffffff168173ffffffffffffffffffffffffffffffffffffffff167f8be0079c531659141344cd1fd0a4f28419497f9722a3daafe3b4186f6b6457e060405160405180910390a35050565b6128db61133a565b1561291b576040517f08c379a000000000000000000000000000000000000000000000000000000000815260040161291290614636565b60405180910390fd5b6001600a60006101000a81548160ff0219169083151502179055507f62e78cea01bee320cd4e420270b5ea74000d11b0c9f74754ebdbfc544b05a25861295f612285565b60405161296c91906143bb565b60405180910390a1565b61297e61133a565b6129bd576040517f08c379a00000000000000000000000000000000000000000000000000000000081526004016129b490614496565b60405180910390fd5b6000600a60006101000a81548160ff0219169083151502179055507f5db9ee0a495bf2e6ff9c91a7834c1ba4fdd244a5e8aa4e537bd38aeae4b073aa612a01612285565b604051612a0e91906143bb565b60405180910390a1565b8173ffffffffffffffffffffffffffffffffffffffff168373ffffffffffffffffffffffffffffffffffffffff161415612a87576040517f08c379a0000000000000000000000000000000000000000000000000000000008152600401612a7e90614576565b60405180910390fd5b80600560008573ffffffffffffffffffffffffffffffffffffffff1673ffffffffffffffffffffffffffffffffffffffff16815260200190815260200160002060008473ffffffffffffffffffffffffffffffffffffffff1673ffffffffffffffffffffffffffffffffffffffff16815260200190815260200160002060006101000a81548160ff0219169083151502179055508173ffffffffffffffffffffffffffffffffffffffff168373ffffffffffffffffffffffffffffffffffffffff167f17307eab39ab6107e8899845ad3d59bd9653f200f220920489ca2b5937696c3183604051612b789190614459565b60405180910390a3505050565b612b908484846125a6565b612b9c84848484612f8b565b612bdb576040517f08c379a0000000000000000000000000000000000000000000000000000000008152600401612bd2906144d6565b60405180910390fd5b50505050565b606060138054612bf090614bca565b80601f0160208091040260200160405190810160405280929190818152602001828054612c1c90614bca565b8015612c695780601f10612c3e57610100808354040283529160200191612c69565b820191906000526020600020905b815481529060010190602001808311612c4c57829003601f168201915b5050505050905090565b60606000821415612cbb576040518060400160405280600181526020017f30000000000000000000000000000000000000000000000000000000000000008152509050612dcf565b600082905060005b60008214612ced578080612cd690614c2d565b915050600a82612ce69190614a55565b9150612cc3565b60008167ffffffffffffffff811115612d0957612d08614d92565b5b6040519080825280601f01601f191660200182016040528015612d3b5781602001600182028036833780820191505090505b5090505b60008514612dc857600182612d549190614ae0565b9150600a85612d639190614c76565b6030612d6f91906149ff565b60f81b818381518110612d8557612d84614d63565b5b60200101907effffffffffffffffffffffffffffffffffffffffffffffffffffffffffffff1916908160001a905350600a85612dc19190614a55565b9450612d3f565b8093505050505b919050565b6001816000016000828254019250508190555050565b612e04828260405180602001604052806000815250613122565b5050565b60007f01ffc9a7000000000000000000000000000000000000000000000000000000007bffffffffffffffffffffffffffffffffffffffffffffffffffffffff1916827bffffffffffffffffffffffffffffffffffffffffffffffffffffffff1916149050919050565b612e7d83838361317d565b600073ffffffffffffffffffffffffffffffffffffffff168373ffffffffffffffffffffffffffffffffffffffff161415612ec057612ebb81613182565b612eff565b8173ffffffffffffffffffffffffffffffffffffffff168373ffffffffffffffffffffffffffffffffffffffff1614612efe57612efd83826131cb565b5b5b600073ffffffffffffffffffffffffffffffffffffffff168273ffffffffffffffffffffffffffffffffffffffff161415612f4257612f3d81613338565b612f81565b8273ffffffffffffffffffffffffffffffffffffffff168273ffffffffffffffffffffffffffffffffffffffff1614612f8057612f7f8282613409565b5b5b505050565b505050565b6000612fac8473ffffffffffffffffffffffffffffffffffffffff16613488565b15613115578373ffffffffffffffffffffffffffffffffffffffff1663150b7a02612fd5612285565b8786866040518563ffffffff1660e01b8152600401612ff794939291906143d6565b602060405180830381600087803b15801561301157600080fd5b505af192505050801561304257506040513d601f19601f8201168201806040525081019061303f9190613ce9565b60015b6130c5573d8060008114613072576040519150601f19603f3d011682016040523d82523d6000602084013e613077565b606091505b506000815114156130bd576040517f08c379a00000000000000000000000000000000000000000000000000000000081526004016130b4906144d6565b60405180910390fd5b805181602001fd5b63150b7a0260e01b7bffffffffffffffffffffffffffffffffffffffffffffffffffffffff1916817bffffffffffffffffffffffffffffffffffffffffffffffffffffffff19161491505061311a565b600190505b949350505050565b61312c83836134ab565b6131396000848484612f8b565b613178576040517f08c379a000000000000000000000000000000000000000000000000000000000815260040161316f906144d6565b60405180910390fd5b505050565b505050565b6008805490506009600083815260200190815260200160002081905550600881908060018154018082558091505060019003906000526020600020016000909190919091505550565b600060016131d884611578565b6131e29190614ae0565b90506000600760008481526020019081526020016000205490508181146132c7576000600660008673ffffffffffffffffffffffffffffffffffffffff1673ffffffffffffffffffffffffffffffffffffffff168152602001908152602001600020600084815260200190815260200160002054905080600660008773ffffffffffffffffffffffffffffffffffffffff1673ffffffffffffffffffffffffffffffffffffffff168152602001908152602001600020600084815260200190815260200160002081905550816007600083815260200190815260200160002081905550505b6007600084815260200190815260200160002060009055600660008573ffffffffffffffffffffffffffffffffffffffff1673ffffffffffffffffffffffffffffffffffffffff16815260200190815260200160002060008381526020019081526020016000206000905550505050565b6000600160088054905061334c9190614ae0565b905060006009600084815260200190815260200160002054905060006008838154811061337c5761337b614d63565b5b90600052602060002001549050806008838154811061339e5761339d614d63565b5b9060005260206000200181905550816009600083815260200190815260200160002081905550600960008581526020019081526020016000206000905560088054806133ed576133ec614d34565b5b6001900381819060005260206000200160009055905550505050565b600061341483611578565b905081600660008573ffffffffffffffffffffffffffffffffffffffff1673ffffffffffffffffffffffffffffffffffffffff168152602001908152602001600020600083815260200190815260200160002081905550806007600084815260200190815260200160002081905550505050565b6000808273ffffffffffffffffffffffffffffffffffffffff163b119050919050565b600073ffffffffffffffffffffffffffffffffffffffff168273ffffffffffffffffffffffffffffffffffffffff16141561351b576040517f08c379a000000000000000000000000000000000000000000000000000000000815260040161351290614736565b60405180910390fd5b613524816123a3565b15613564576040517f08c379a000000000000000000000000000000000000000000000000000000000815260040161355b90614536565b60405180910390fd5b61357060008383612e72565b6001600360008473ffffffffffffffffffffffffffffffffffffffff1673ffffffffffffffffffffffffffffffffffffffff16815260200190815260200160002060008282546135c091906149ff565b92505081905550816002600083815260200190815260200160002060006101000a81548173ffffffffffffffffffffffffffffffffffffffff021916908373ffffffffffffffffffffffffffffffffffffffff160217905550808273ffffffffffffffffffffffffffffffffffffffff16600073ffffffffffffffffffffffffffffffffffffffff167fddf252ad1be2c89b69c2b068fc378daa952ba7f163c4a11628f55a4df523b3ef60405160405180910390a461368160008383612f86565b5050565b82805461369190614bca565b90600052602060002090601f0160209004810192826136b357600085556136fa565b82601f106136cc57805160ff19168380011785556136fa565b828001600101855582156136fa579182015b828111156136f95782518255916020019190600101906136de565b5b509050613707919061370b565b5090565b5b8082111561372457600081600090555060010161370c565b5090565b600061373b61373684614896565b614871565b9050808382526020820190508285602086028201111561375e5761375d614dc6565b5b60005b8581101561378e5781613774888261388c565b845260208401935060208301925050600181019050613761565b5050509392505050565b60006137ab6137a6846148c2565b614871565b905080838252602082019050828560208602820111156137ce576137cd614dc6565b5b60005b858110156137fe57816137e488826139ad565b8452602084019350602083019250506001810190506137d1565b5050509392505050565b600061381b613816846148ee565b614871565b90508281526020810184848401111561383757613836614dcb565b5b613842848285614b88565b509392505050565b600061385d6138588461491f565b614871565b90508281526020810184848401111561387957613878614dcb565b5b613884848285614b88565b509392505050565b60008135905061389b816155b1565b92915050565b6000815190506138b0816155b1565b92915050565b600082601f8301126138cb576138ca614dc1565b5b81356138db848260208601613728565b91505092915050565b600082601f8301126138f9576138f8614dc1565b5b8135613909848260208601613798565b91505092915050565b600081359050613921816155c8565b92915050565b600081359050613936816155df565b92915050565b60008151905061394b816155df565b92915050565b600082601f83011261396657613965614dc1565b5b8135613976848260208601613808565b91505092915050565b600082601f83011261399457613993614dc1565b5b81356139a484826020860161384a565b91505092915050565b6000813590506139bc816155f6565b92915050565b6000602082840312156139d8576139d7614dd5565b5b60006139e68482850161388c565b91505092915050565b600060208284031215613a0557613a04614dd5565b5b6000613a13848285016138a1565b91505092915050565b60008060408385031215613a3357613a32614dd5565b5b6000613a418582860161388c565b9250506020613a528582860161388c565b9150509250929050565b600080600060608486031215613a7557613a74614dd5565b5b6000613a838682870161388c565b9350506020613a948682870161388c565b9250506040613aa5868287016139ad565b9150509250925092565b60008060008060808587031215613ac957613ac8614dd5565b5b6000613ad78782880161388c565b9450506020613ae88782880161388c565b9350506040613af9878288016139ad565b925050606085013567ffffffffffffffff811115613b1a57613b19614dd0565b5b613b2687828801613951565b91505092959194509250565b60008060408385031215613b4957613b48614dd5565b5b6000613b578582860161388c565b9250506020613b6885828601613912565b9150509250929050565b60008060408385031215613b8957613b88614dd5565b5b6000613b978582860161388c565b9250506020613ba8858286016139ad565b9150509250929050565b600060208284031215613bc857613bc7614dd5565b5b600082013567ffffffffffffffff811115613be657613be5614dd0565b5b613bf2848285016138b6565b91505092915050565b600060208284031215613c1157613c10614dd5565b5b600082013567ffffffffffffffff811115613c2f57613c2e614dd0565b5b613c3b848285016138e4565b91505092915050565b60008060408385031215613c5b57613c5a614dd5565b5b600083013567ffffffffffffffff811115613c7957613c78614dd0565b5b613c85858286016138e4565b925050602083013567ffffffffffffffff811115613ca657613ca5614dd0565b5b613cb2858286016138e4565b9150509250929050565b600060208284031215613cd257613cd1614dd5565b5b6000613ce084828501613927565b91505092915050565b600060208284031215613cff57613cfe614dd5565b5b6000613d0d8482850161393c565b91505092915050565b600060208284031215613d2c57613d2b614dd5565b5b600082013567ffffffffffffffff811115613d4a57613d49614dd0565b5b613d568482850161397f565b91505092915050565b600060208284031215613d7557613d74614dd5565b5b6000613d83848285016139ad565b91505092915050565b6000613d988383613dcb565b60208301905092915050565b6000613db08383614362565b60208301905092915050565b613dc581614b14565b82525050565b613dd481614b14565b82525050565b6000613de582614970565b613def81856149b6565b9350613dfa83614950565b8060005b83811015613e2b578151613e128882613d8c565b9750613e1d8361499c565b925050600181019050613dfe565b5085935050505092915050565b6000613e438261497b565b613e4d81856149c1565b9350613e5883614960565b8060005b83811015613e89578151613e708882613da4565b9750613e7b836149a9565b925050600181019050613e5c565b5085935050505092915050565b613e9f81614b26565b82525050565b6000613eb082614986565b613eba81856149d2565b9350613eca818560208601614b97565b613ed381614dda565b840191505092915050565b6000613ee982614991565b613ef381856149e3565b9350613f03818560208601614b97565b613f0c81614dda565b840191505092915050565b6000613f2282614991565b613f2c81856149f4565b9350613f3c818560208601614b97565b80840191505092915050565b6000613f556014836149e3565b9150613f6082614deb565b602082019050919050565b6000613f78602b836149e3565b9150613f8382614e14565b604082019050919050565b6000613f9b6032836149e3565b9150613fa682614e63565b604082019050919050565b6000613fbe6026836149e3565b9150613fc982614eb2565b604082019050919050565b6000613fe16025836149e3565b9150613fec82614f01565b604082019050919050565b6000614004601c836149e3565b915061400f82614f50565b602082019050919050565b60006140276024836149e3565b915061403282614f79565b604082019050919050565b600061404a6019836149e3565b915061405582614fc8565b602082019050919050565b600061406d6025836149e3565b915061407882614ff1565b604082019050919050565b60006140906021836149e3565b915061409b82615040565b604082019050919050565b60006140b36024836149e3565b91506140be8261508f565b604082019050919050565b60006140d6602c836149e3565b91506140e1826150de565b604082019050919050565b60006140f96008836149e3565b91506141048261512d565b602082019050919050565b600061411c6010836149e3565b915061412782615156565b602082019050919050565b600061413f6016836149e3565b915061414a8261517f565b602082019050919050565b60006141626038836149e3565b915061416d826151a8565b604082019050919050565b6000614185601c836149e3565b9150614190826151f7565b602082019050919050565b60006141a8602a836149e3565b91506141b382615220565b604082019050919050565b60006141cb6029836149e3565b91506141d68261526f565b604082019050919050565b60006141ee6017836149e3565b91506141f9826152be565b602082019050919050565b60006142116013836149e3565b915061421c826152e7565b602082019050919050565b60006142346020836149e3565b915061423f82615310565b602082019050919050565b60006142576021836149e3565b915061426282615339565b604082019050919050565b600061427a602c836149e3565b915061428582615388565b604082019050919050565b600061429d6020836149e3565b91506142a8826153d7565b602082019050919050565b60006142c0602f836149e3565b91506142cb82615400565b604082019050919050565b60006142e36049836149e3565b91506142ee8261544f565b606082019050919050565b60006143066021836149e3565b9150614311826154c4565b604082019050919050565b60006143296031836149e3565b915061433482615513565b604082019050919050565b600061434c602c836149e3565b915061435782615562565b604082019050919050565b61436b81614b7e565b82525050565b61437a81614b7e565b82525050565b600061438c8284613dda565b915081905092915050565b60006143a38285613f17565b91506143af8284613f17565b91508190509392505050565b60006020820190506143d06000830184613dbc565b92915050565b60006080820190506143eb6000830187613dbc565b6143f86020830186613dbc565b6144056040830185614371565b81810360608301526144178184613ea5565b905095945050505050565b6000604082019050818103600083015261443c8185613e38565b905081810360208301526144508184613e38565b90509392505050565b600060208201905061446e6000830184613e96565b92915050565b6000602082019050818103600083015261448e8184613ede565b905092915050565b600060208201905081810360008301526144af81613f48565b9050919050565b600060208201905081810360008301526144cf81613f6b565b9050919050565b600060208201905081810360008301526144ef81613f8e565b9050919050565b6000602082019050818103600083015261450f81613fb1565b9050919050565b6000602082019050818103600083015261452f81613fd4565b9050919050565b6000602082019050818103600083015261454f81613ff7565b9050919050565b6000602082019050818103600083015261456f8161401a565b9050919050565b6000602082019050818103600083015261458f8161403d565b9050919050565b600060208201905081810360008301526145af81614060565b9050919050565b600060208201905081810360008301526145cf81614083565b9050919050565b600060208201905081810360008301526145ef816140a6565b9050919050565b6000602082019050818103600083015261460f816140c9565b9050919050565b6000602082019050818103600083015261462f816140ec565b9050919050565b6000602082019050818103600083015261464f8161410f565b9050919050565b6000602082019050818103600083015261466f81614132565b9050919050565b6000602082019050818103600083015261468f81614155565b9050919050565b600060208201905081810360008301526146af81614178565b9050919050565b600060208201905081810360008301526146cf8161419b565b9050919050565b600060208201905081810360008301526146ef816141be565b9050919050565b6000602082019050818103600083015261470f816141e1565b9050919050565b6000602082019050818103600083015261472f81614204565b9050919050565b6000602082019050818103600083015261474f81614227565b9050919050565b6000602082019050818103600083015261476f8161424a565b9050919050565b6000602082019050818103600083015261478f8161426d565b9050919050565b600060208201905081810360008301526147af81614290565b9050919050565b600060208201905081810360008301526147cf816142b3565b9050919050565b600060208201905081810360008301526147ef816142d6565b9050919050565b6000602082019050818103600083015261480f816142f9565b9050919050565b6000602082019050818103600083015261482f8161431c565b9050919050565b6000602082019050818103600083015261484f8161433f565b9050919050565b600060208201905061486b6000830184614371565b92915050565b600061487b61488c565b90506148878282614bfc565b919050565b6000604051905090565b600067ffffffffffffffff8211156148b1576148b0614d92565b5b602082029050602081019050919050565b600067ffffffffffffffff8211156148dd576148dc614d92565b5b602082029050602081019050919050565b600067ffffffffffffffff82111561490957614908614d92565b5b61491282614dda565b9050602081019050919050565b600067ffffffffffffffff82111561493a57614939614d92565b5b61494382614dda565b9050602081019050919050565b6000819050602082019050919050565b6000819050602082019050919050565b600081519050919050565b600081519050919050565b600081519050919050565b600081519050919050565b6000602082019050919050565b6000602082019050919050565b600081905092915050565b600082825260208201905092915050565b600082825260208201905092915050565b600082825260208201905092915050565b600081905092915050565b6000614a0a82614b7e565b9150614a1583614b7e565b9250827fffffffffffffffffffffffffffffffffffffffffffffffffffffffffffffffff03821115614a4a57614a49614ca7565b5b828201905092915050565b6000614a6082614b7e565b9150614a6b83614b7e565b925082614a7b57614a7a614cd6565b5b828204905092915050565b6000614a9182614b7e565b9150614a9c83614b7e565b9250817fffffffffffffffffffffffffffffffffffffffffffffffffffffffffffffffff0483118215151615614ad557614ad4614ca7565b5b828202905092915050565b6000614aeb82614b7e565b9150614af683614b7e565b925082821015614b0957614b08614ca7565b5b828203905092915050565b6000614b1f82614b5e565b9050919050565b60008115159050919050565b60007fffffffff0000000000000000000000000000000000000000000000000000000082169050919050565b600073ffffffffffffffffffffffffffffffffffffffff82169050919050565b6000819050919050565b82818337600083830152505050565b60005b83811015614bb5578082015181840152602081019050614b9a565b83811115614bc4576000848401525b50505050565b60006002820490506001821680614be257607f821691505b60208210811415614bf657614bf5614d05565b5b50919050565b614c0582614dda565b810181811067ffffffffffffffff82111715614c2457614c23614d92565b5b80604052505050565b6000614c3882614b7e565b91507fffffffffffffffffffffffffffffffffffffffffffffffffffffffffffffffff821415614c6b57614c6a614ca7565b5b600182019050919050565b6000614c8182614b7e565b9150614c8c83614b7e565b925082614c9c57614c9b614cd6565b5b828206905092915050565b7f4e487b7100000000000000000000000000000000000000000000000000000000600052601160045260246000fd5b7f4e487b7100000000000000000000000000000000000000000000000000000000600052601260045260246000fd5b7f4e487b7100000000000000000000000000000000000000000000000000000000600052602260045260246000fd5b7f4e487b7100000000000000000000000000000000000000000000000000000000600052603160045260246000fd5b7f4e487b7100000000000000000000000000000000000000000000000000000000600052603260045260246000fd5b7f4e487b7100000000000000000000000000000000000000000000000000000000600052604160045260246000fd5b600080fd5b600080fd5b600080fd5b600080fd5b600080fd5b6000601f19601f8301169050919050565b7f5061757361626c653a206e6f7420706175736564000000000000000000000000600082015250565b7f455243373231456e756d657261626c653a206f776e657220696e646578206f7560008201527f74206f6620626f756e6473000000000000000000000000000000000000000000602082015250565b7f4552433732313a207472616e7366657220746f206e6f6e20455243373231526560008201527f63656976657220696d706c656d656e7465720000000000000000000000000000602082015250565b7f4f776e61626c653a206e6577206f776e657220697320746865207a65726f206160008201527f6464726573730000000000000000000000000000000000000000000000000000602082015250565b7f4552433732313a207472616e736665722066726f6d20696e636f72726563742060008201527f6f776e6572000000000000000000000000000000000000000000000000000000602082015250565b7f4552433732313a20746f6b656e20616c7265616479206d696e74656400000000600082015250565b7f4552433732313a207472616e7366657220746f20746865207a65726f2061646460008201527f7265737300000000000000000000000000000000000000000000000000000000602082015250565b7f4552433732313a20617070726f766520746f2063616c6c657200000000000000600082015250565b7f4d757374206f776e20746865204f472054726f6f7072207573656420666f722060008201527f737061776e000000000000000000000000000000000000000000000000000000602082015250565b7f54726f6f707220746f6b656e20686173206265656e2075736564206265666f7260008201527f6500000000000000000000000000000000000000000000000000000000000000602082015250565b7f4d757374206f776e20746865204d6963726f626573207573656420666f72207360008201527f7061776e00000000000000000000000000000000000000000000000000000000602082015250565b7f4552433732313a206f70657261746f7220717565727920666f72206e6f6e657860008201527f697374656e7420746f6b656e0000000000000000000000000000000000000000602082015250565b7f736f6c64206f7574000000000000000000000000000000000000000000000000600082015250565b7f5061757361626c653a2070617573656400000000000000000000000000000000600082015250565b7f63616e27742073656e6420656d707479206c6973747300000000000000000000600082015250565b7f4552433732313a20617070726f76652063616c6c6572206973206e6f74206f7760008201527f6e6572206e6f7220617070726f76656420666f7220616c6c0000000000000000602082015250565b7f6e6565642061646472657373657320746f2061697264726f7020746f00000000600082015250565b7f4552433732313a2062616c616e636520717565727920666f7220746865207a6560008201527f726f206164647265737300000000000000000000000000000000000000000000602082015250565b7f4552433732313a206f776e657220717565727920666f72206e6f6e657869737460008201527f656e7420746f6b656e0000000000000000000000000000000000000000000000602082015250565b7f6e657720737570706c792063616e206e6f742062652030000000000000000000600082015250565b7f737061776e206973206e6f742061637469766500000000000000000000000000600082015250565b7f4552433732313a206d696e7420746f20746865207a65726f2061646472657373600082015250565b7f63616e27742061697264726f70206d6f7265207468616e20617661696c61626c60008201527f6500000000000000000000000000000000000000000000000000000000000000602082015250565b7f4552433732313a20617070726f76656420717565727920666f72206e6f6e657860008201527f697374656e7420746f6b656e0000000000000000000000000000000000000000602082015250565b7f4f776e61626c653a2063616c6c6572206973206e6f7420746865206f776e6572600082015250565b7f4552433732314d657461646174613a2055524920717565727920666f72206e6f60008201527f6e6578697374656e7420746f6b656e0000000000000000000000000000000000602082015250565b7f6d7573742073656e6420666f7572204d6963726f62657320706572204f47205460008201527f726f6f7072206f72206f6e6520676f6c64656e206d6963726f6265207065722060208201527f4f472054726f6f70720000000000000000000000000000000000000000000000604082015250565b7f4552433732313a20617070726f76616c20746f2063757272656e74206f776e6560008201527f7200000000000000000000000000000000000000000000000000000000000000602082015250565b7f4552433732313a207472616e736665722063616c6c6572206973206e6f74206f60008201527f776e6572206e6f7220617070726f766564000000000000000000000000000000602082015250565b7f455243373231456e756d657261626c653a20676c6f62616c20696e646578206f60008201527f7574206f6620626f756e64730000000000000000000000000000000000000000602082015250565b6155ba81614b14565b81146155c557600080fd5b50565b6155d181614b26565b81146155dc57600080fd5b50565b6155e881614b32565b81146155f357600080fd5b50565b6155ff81614b7e565b811461560a57600080fd5b5056fea2646970667358221220f958200e630cb1933353ea6d700fcb8ba898e01ac0c56a774c06807c3adc483464736f6c63430008070033",
  "linkReferences": {},
  "deployedLinkReferences": {}
}