{
  "_format": "hh-sol-artifact-1",
  "contractName": "Soldaatjes",
  "sourceName": "contracts/Soldaatjes.sol",
  "abi": [
    {
      "inputs": [],
      "stateMutability": "nonpayable",
      "type": "constructor"
    },
    {
      "anonymous": false,
      "inputs": [
        {
          "indexed": true,
          "internalType": "address[]",
          "name": "addrs",
          "type": "address[]"
        }
      ],
      "name": "AddToWhiteList1",
      "type": "event"
    },
    {
      "anonymous": false,
      "inputs": [
        {
          "indexed": true,
          "internalType": "address",
          "name": "owner",
          "type": "address"
        },
        {
          "indexed": true,
          "internalType": "address",
          "name": "approved",
          "type": "address"
        },
        {
          "indexed": true,
          "internalType": "uint256",
          "name": "tokenId",
          "type": "uint256"
        }
      ],
      "name": "Approval",
      "type": "event"
    },
    {
      "anonymous": false,
      "inputs": [
        {
          "indexed": true,
          "internalType": "address",
          "name": "owner",
          "type": "address"
        },
        {
          "indexed": true,
          "internalType": "address",
          "name": "operator",
          "type": "address"
        },
        {
          "indexed": false,
          "internalType": "bool",
          "name": "approved",
          "type": "bool"
        }
      ],
      "name": "ApprovalForAll",
      "type": "event"
    },
    {
      "anonymous": false,
      "inputs": [
        {
          "indexed": false,
          "internalType": "uint256",
          "name": "tokenID",
          "type": "uint256"
        }
      ],
      "name": "BurnToken",
      "type": "event"
    },
    {
      "anonymous": false,
      "inputs": [
        {
          "indexed": true,
          "internalType": "address",
          "name": "addr",
          "type": "address"
        },
        {
          "indexed": false,
          "internalType": "uint256",
          "name": "amount",
          "type": "uint256"
        },
        {
          "indexed": false,
          "internalType": "uint256",
          "name": "price",
          "type": "uint256"
        }
      ],
      "name": "MintSeries1",
      "type": "event"
    },
    {
      "anonymous": false,
      "inputs": [
        {
          "indexed": true,
          "internalType": "address",
          "name": "addr",
          "type": "address"
        },
        {
          "indexed": false,
          "internalType": "uint256",
          "name": "amount",
          "type": "uint256"
        },
        {
          "indexed": false,
          "internalType": "uint256",
          "name": "price",
          "type": "uint256"
        }
      ],
      "name": "MintSeries2",
      "type": "event"
    },
    {
      "anonymous": false,
      "inputs": [
        {
          "indexed": true,
          "internalType": "address",
          "name": "previousOwner",
          "type": "address"
        },
        {
          "indexed": true,
          "internalType": "address",
          "name": "newOwner",
          "type": "address"
        }
      ],
      "name": "OwnershipTransferred",
      "type": "event"
    },
    {
      "anonymous": false,
      "inputs": [
        {
          "indexed": false,
          "internalType": "address",
          "name": "account",
          "type": "address"
        }
      ],
      "name": "Paused",
      "type": "event"
    },
    {
      "anonymous": false,
      "inputs": [
        {
          "indexed": true,
          "internalType": "address[]",
          "name": "addrs",
          "type": "address[]"
        }
      ],
      "name": "RemoveFromWhiteList1",
      "type": "event"
    },
    {
      "anonymous": false,
      "inputs": [
        {
          "indexed": false,
          "internalType": "string",
          "name": "newURI",
          "type": "string"
        }
      ],
      "name": "SetBaseURI",
      "type": "event"
    },
    {
      "anonymous": false,
      "inputs": [
        {
          "indexed": false,
          "internalType": "bool",
          "name": "mint1Active",
          "type": "bool"
        }
      ],
      "name": "ToggleMint1Active",
      "type": "event"
    },
    {
      "anonymous": false,
      "inputs": [
        {
          "indexed": false,
          "internalType": "bool",
          "name": "mint2Active",
          "type": "bool"
        }
      ],
      "name": "ToggleMint2Active",
      "type": "event"
    },
    {
      "anonymous": false,
      "inputs": [
        {
          "indexed": false,
          "internalType": "bool",
          "name": "presale1Active",
          "type": "bool"
        }
      ],
      "name": "TogglePresale1Active",
      "type": "event"
    },
    {
      "anonymous": false,
      "inputs": [
        {
          "indexed": false,
          "internalType": "bool",
          "name": "presale2Active",
          "type": "bool"
        }
      ],
      "name": "TogglePresale2Active",
      "type": "event"
    },
    {
      "anonymous": false,
      "inputs": [
        {
          "indexed": false,
          "internalType": "bool",
          "name": "paused",
          "type": "bool"
        }
      ],
      "name": "ToggleTransferPause",
      "type": "event"
    },
    {
      "anonymous": false,
      "inputs": [
        {
          "indexed": true,
          "internalType": "address",
          "name": "from",
          "type": "address"
        },
        {
          "indexed": true,
          "internalType": "address",
          "name": "to",
          "type": "address"
        },
        {
          "indexed": true,
          "internalType": "uint256",
          "name": "tokenId",
          "type": "uint256"
        }
      ],
      "name": "Transfer",
      "type": "event"
    },
    {
      "anonymous": false,
      "inputs": [
        {
          "indexed": false,
          "internalType": "address",
          "name": "account",
          "type": "address"
        }
      ],
      "name": "Unpaused",
      "type": "event"
    },
    {
      "anonymous": false,
      "inputs": [
        {
          "indexed": false,
          "internalType": "uint256",
          "name": "newMax",
          "type": "uint256"
        }
      ],
      "name": "UpdateMaxTokens",
      "type": "event"
    },
    {
      "anonymous": false,
      "inputs": [
        {
          "indexed": false,
          "internalType": "uint256",
          "name": "newPrice",
          "type": "uint256"
        }
      ],
      "name": "UpdatePrice",
      "type": "event"
    },
    {
      "anonymous": false,
      "inputs": [
        {
          "indexed": true,
          "internalType": "address[]",
          "name": "addrs",
          "type": "address[]"
        }
      ],
      "name": "WeGotYourBack",
      "type": "event"
    },
    {
      "anonymous": false,
      "inputs": [
        {
          "indexed": true,
          "internalType": "address",
          "name": "addr",
          "type": "address"
        },
        {
          "indexed": false,
          "internalType": "uint256",
          "name": "amount",
          "type": "uint256"
        },
        {
          "indexed": false,
          "internalType": "uint256",
          "name": "price",
          "type": "uint256"
        }
      ],
      "name": "WhiteListMintSeries1",
      "type": "event"
    },
    {
      "anonymous": false,
      "inputs": [
        {
          "indexed": true,
          "internalType": "address",
          "name": "addr",
          "type": "address"
        },
        {
          "indexed": false,
          "internalType": "uint256",
          "name": "amount",
          "type": "uint256"
        },
        {
          "indexed": false,
          "internalType": "uint256",
          "name": "price",
          "type": "uint256"
        }
      ],
      "name": "WhiteListMintSeries2",
      "type": "event"
    },
    {
      "anonymous": false,
      "inputs": [
        {
          "indexed": false,
          "internalType": "uint256",
          "name": "amount",
          "type": "uint256"
        }
      ],
      "name": "Withdraw",
      "type": "event"
    },
    {
      "inputs": [],
      "name": "_mint1Active",
      "outputs": [
        {
          "internalType": "bool",
          "name": "",
          "type": "bool"
        }
      ],
      "stateMutability": "view",
      "type": "function"
    },
    {
      "inputs": [],
      "name": "_mint1Tokens",
      "outputs": [
        {
          "internalType": "uint256",
          "name": "",
          "type": "uint256"
        }
      ],
      "stateMutability": "view",
      "type": "function"
    },
    {
      "inputs": [],
      "name": "_mint2Active",
      "outputs": [
        {
          "internalType": "bool",
          "name": "",
          "type": "bool"
        }
      ],
      "stateMutability": "view",
      "type": "function"
    },
    {
      "inputs": [],
      "name": "_mint2Tokens",
      "outputs": [
        {
          "internalType": "uint256",
          "name": "",
          "type": "uint256"
        }
      ],
      "stateMutability": "view",
      "type": "function"
    },
    {
      "inputs": [
        {
          "internalType": "address",
          "name": "",
          "type": "address"
        }
      ],
      "name": "_mintedInitial",
      "outputs": [
        {
          "internalType": "bool",
          "name": "",
          "type": "bool"
        }
      ],
      "stateMutability": "view",
      "type": "function"
    },
    {
      "inputs": [],
      "name": "_prefixURI",
      "outputs": [
        {
          "internalType": "string",
          "name": "",
          "type": "string"
        }
      ],
      "stateMutability": "view",
      "type": "function"
    },
    {
      "inputs": [],
      "name": "_presale1Active",
      "outputs": [
        {
          "internalType": "bool",
          "name": "",
          "type": "bool"
        }
      ],
      "stateMutability": "view",
      "type": "function"
    },
    {
      "inputs": [],
      "name": "_presale1MaxMint",
      "outputs": [
        {
          "internalType": "uint256",
          "name": "",
          "type": "uint256"
        }
      ],
      "stateMutability": "view",
      "type": "function"
    },
    {
      "inputs": [
        {
          "internalType": "address",
          "name": "",
          "type": "address"
        }
      ],
      "name": "_presale1Mints",
      "outputs": [
        {
          "internalType": "uint256",
          "name": "",
          "type": "uint256"
        }
      ],
      "stateMutability": "view",
      "type": "function"
    },
    {
      "inputs": [],
      "name": "_presale2Active",
      "outputs": [
        {
          "internalType": "bool",
          "name": "",
          "type": "bool"
        }
      ],
      "stateMutability": "view",
      "type": "function"
    },
    {
      "inputs": [],
      "name": "_price",
      "outputs": [
        {
          "internalType": "uint256",
          "name": "",
          "type": "uint256"
        }
      ],
      "stateMutability": "view",
      "type": "function"
    },
    {
      "inputs": [],
      "name": "_startTime",
      "outputs": [
        {
          "internalType": "uint256",
          "name": "",
          "type": "uint256"
        }
      ],
      "stateMutability": "view",
      "type": "function"
    },
    {
      "inputs": [
        {
          "internalType": "address[]",
          "name": "addrs",
          "type": "address[]"
        }
      ],
      "name": "addToWhitelist1",
      "outputs": [],
      "stateMutability": "nonpayable",
      "type": "function"
    },
    {
      "inputs": [
        {
          "internalType": "address",
          "name": "to",
          "type": "address"
        },
        {
          "internalType": "uint256",
          "name": "tokenId",
          "type": "uint256"
        }
      ],
      "name": "approve",
      "outputs": [],
      "stateMutability": "nonpayable",
      "type": "function"
    },
    {
      "inputs": [
        {
          "internalType": "address",
          "name": "owner",
          "type": "address"
        }
      ],
      "name": "balanceOf",
      "outputs": [
        {
          "internalType": "uint256",
          "name": "",
          "type": "uint256"
        }
      ],
      "stateMutability": "view",
      "type": "function"
    },
    {
      "inputs": [
        {
          "internalType": "uint256",
          "name": "tokenId",
          "type": "uint256"
        }
      ],
      "name": "burnToken",
      "outputs": [],
      "stateMutability": "nonpayable",
      "type": "function"
    },
    {
      "inputs": [
        {
          "internalType": "uint256",
          "name": "tokenId",
          "type": "uint256"
        }
      ],
      "name": "getApproved",
      "outputs": [
        {
          "internalType": "address",
          "name": "",
          "type": "address"
        }
      ],
      "stateMutability": "view",
      "type": "function"
    },
    {
      "inputs": [
        {
          "internalType": "address",
          "name": "owner",
          "type": "address"
        },
        {
          "internalType": "address",
          "name": "operator",
          "type": "address"
        }
      ],
      "name": "isApprovedForAll",
      "outputs": [
        {
          "internalType": "bool",
          "name": "",
          "type": "bool"
        }
      ],
      "stateMutability": "view",
      "type": "function"
    },
    {
      "inputs": [
        {
          "internalType": "address",
          "name": "addr",
          "type": "address"
        }
      ],
      "name": "isWhitelisted1",
      "outputs": [
        {
          "internalType": "bool",
          "name": "",
          "type": "bool"
        }
      ],
      "stateMutability": "view",
      "type": "function"
    },
    {
      "inputs": [
        {
          "internalType": "uint256",
          "name": "amount",
          "type": "uint256"
        }
      ],
      "name": "mintSeries1",
      "outputs": [],
      "stateMutability": "payable",
      "type": "function"
    },
    {
      "inputs": [
        {
          "internalType": "uint256",
          "name": "amount",
          "type": "uint256"
        }
      ],
      "name": "mintSeries2",
      "outputs": [],
      "stateMutability": "payable",
      "type": "function"
    },
    {
      "inputs": [],
      "name": "name",
      "outputs": [
        {
          "internalType": "string",
          "name": "",
          "type": "string"
        }
      ],
      "stateMutability": "view",
      "type": "function"
    },
    {
      "inputs": [],
      "name": "owner",
      "outputs": [
        {
          "internalType": "address",
          "name": "",
          "type": "address"
        }
      ],
      "stateMutability": "view",
      "type": "function"
    },
    {
      "inputs": [
        {
          "internalType": "uint256",
          "name": "tokenId",
          "type": "uint256"
        }
      ],
      "name": "ownerOf",
      "outputs": [
        {
          "internalType": "address",
          "name": "",
          "type": "address"
        }
      ],
      "stateMutability": "view",
      "type": "function"
    },
    {
      "inputs": [],
      "name": "paused",
      "outputs": [
        {
          "internalType": "bool",
          "name": "",
          "type": "bool"
        }
      ],
      "stateMutability": "view",
      "type": "function"
    },
    {
      "inputs": [
        {
          "internalType": "address[]",
          "name": "addrs",
          "type": "address[]"
        }
      ],
      "name": "removeFromWhitelist1",
      "outputs": [],
      "stateMutability": "nonpayable",
      "type": "function"
    },
    {
      "inputs": [],
      "name": "renounceOwnership",
      "outputs": [],
      "stateMutability": "nonpayable",
      "type": "function"
    },
    {
      "inputs": [
        {
          "internalType": "address",
          "name": "from",
          "type": "address"
        },
        {
          "internalType": "address",
          "name": "to",
          "type": "address"
        },
        {
          "internalType": "uint256",
          "name": "tokenId",
          "type": "uint256"
        }
      ],
      "name": "safeTransferFrom",
      "outputs": [],
      "stateMutability": "nonpayable",
      "type": "function"
    },
    {
      "inputs": [
        {
          "internalType": "address",
          "name": "from",
          "type": "address"
        },
        {
          "internalType": "address",
          "name": "to",
          "type": "address"
        },
        {
          "internalType": "uint256",
          "name": "tokenId",
          "type": "uint256"
        },
        {
          "internalType": "bytes",
          "name": "_data",
          "type": "bytes"
        }
      ],
      "name": "safeTransferFrom",
      "outputs": [],
      "stateMutability": "nonpayable",
      "type": "function"
    },
    {
      "inputs": [
        {
          "internalType": "address",
          "name": "operator",
          "type": "address"
        },
        {
          "internalType": "bool",
          "name": "approved",
          "type": "bool"
        }
      ],
      "name": "setApprovalForAll",
      "outputs": [],
      "stateMutability": "nonpayable",
      "type": "function"
    },
    {
      "inputs": [
        {
          "internalType": "string",
          "name": "_uri",
          "type": "string"
        }
      ],
      "name": "setBaseURI",
      "outputs": [],
      "stateMutability": "nonpayable",
      "type": "function"
    },
    {
      "inputs": [
        {
          "internalType": "bytes4",
          "name": "interfaceId",
          "type": "bytes4"
        }
      ],
      "name": "supportsInterface",
      "outputs": [
        {
          "internalType": "bool",
          "name": "",
          "type": "bool"
        }
      ],
      "stateMutability": "view",
      "type": "function"
    },
    {
      "inputs": [],
      "name": "symbol",
      "outputs": [
        {
          "internalType": "string",
          "name": "",
          "type": "string"
        }
      ],
      "stateMutability": "view",
      "type": "function"
    },
    {
      "inputs": [],
      "name": "toggleMint1Active",
      "outputs": [],
      "stateMutability": "nonpayable",
      "type": "function"
    },
    {
      "inputs": [],
      "name": "togglePresale1Active",
      "outputs": [],
      "stateMutability": "nonpayable",
      "type": "function"
    },
    {
      "inputs": [
        {
          "internalType": "uint256",
          "name": "index",
          "type": "uint256"
        }
      ],
      "name": "tokenByIndex",
      "outputs": [
        {
          "internalType": "uint256",
          "name": "",
          "type": "uint256"
        }
      ],
      "stateMutability": "view",
      "type": "function"
    },
    {
      "inputs": [
        {
          "internalType": "address",
          "name": "owner",
          "type": "address"
        },
        {
          "internalType": "uint256",
          "name": "index",
          "type": "uint256"
        }
      ],
      "name": "tokenOfOwnerByIndex",
      "outputs": [
        {
          "internalType": "uint256",
          "name": "",
          "type": "uint256"
        }
      ],
      "stateMutability": "view",
      "type": "function"
    },
    {
      "inputs": [
        {
          "internalType": "uint256",
          "name": "tokenId",
          "type": "uint256"
        }
      ],
      "name": "tokenURI",
      "outputs": [
        {
          "internalType": "string",
          "name": "",
          "type": "string"
        }
      ],
      "stateMutability": "view",
      "type": "function"
    },
    {
      "inputs": [],
      "name": "totalSupply",
      "outputs": [
        {
          "internalType": "uint256",
          "name": "",
          "type": "uint256"
        }
      ],
      "stateMutability": "view",
      "type": "function"
    },
    {
      "inputs": [
        {
          "internalType": "address",
          "name": "from",
          "type": "address"
        },
        {
          "internalType": "address",
          "name": "to",
          "type": "address"
        },
        {
          "internalType": "uint256",
          "name": "tokenId",
          "type": "uint256"
        }
      ],
      "name": "transferFrom",
      "outputs": [],
      "stateMutability": "nonpayable",
      "type": "function"
    },
    {
      "inputs": [
        {
          "internalType": "address",
          "name": "newOwner",
          "type": "address"
        }
      ],
      "name": "transferOwnership",
      "outputs": [],
      "stateMutability": "nonpayable",
      "type": "function"
    },
    {
      "inputs": [
        {
          "internalType": "address[]",
          "name": "addrs",
          "type": "address[]"
        }
      ],
      "name": "weGotYourBack",
      "outputs": [],
      "stateMutability": "nonpayable",
      "type": "function"
    },
    {
      "inputs": [
        {
          "internalType": "uint256",
          "name": "amount",
          "type": "uint256"
        }
      ],
      "name": "whiteListMintSeries1",
      "outputs": [],
      "stateMutability": "payable",
      "type": "function"
    },
    {
      "inputs": [
        {
          "internalType": "uint256",
          "name": "amount",
          "type": "uint256"
        }
      ],
      "name": "whiteListMintSeries2",
      "outputs": [],
      "stateMutability": "payable",
      "type": "function"
    },
    {
      "inputs": [],
      "name": "withdraw",
      "outputs": [],
      "stateMutability": "nonpayable",
      "type": "function"
    }
  ],
  "bytecode": "0x60806040526115a4600c556108a4600d55670de0b6b3a7640000600e556000601260006101000a81548160ff0219169083151502179055506000601260016101000a81548160ff0219169083151502179055506000601260026101000a81548160ff0219169083151502179055506000601260036101000a81548160ff021916908315150217905550600a6013553480156200009a57600080fd5b506040518060400160405280600a81526020017f536f6c646161746a6573000000000000000000000000000000000000000000008152506040518060400160405280600581526020017f534f4c445300000000000000000000000000000000000000000000000000000081525081600090805190602001906200011f92919062000251565b5080600190805190602001906200013892919062000251565b5050506000600a60006101000a81548160ff021916908315150217905550620001766200016a6200018360201b60201c565b6200018b60201b60201c565b4260158190555062000366565b600033905090565b6000600a60019054906101000a900473ffffffffffffffffffffffffffffffffffffffff16905081600a60016101000a81548173ffffffffffffffffffffffffffffffffffffffff021916908373ffffffffffffffffffffffffffffffffffffffff1602179055508173ffffffffffffffffffffffffffffffffffffffff168173ffffffffffffffffffffffffffffffffffffffff167f8be0079c531659141344cd1fd0a4f28419497f9722a3daafe3b4186f6b6457e060405160405180910390a35050565b8280546200025f9062000301565b90600052602060002090601f016020900481019282620002835760008555620002cf565b82601f106200029e57805160ff1916838001178555620002cf565b82800160010185558215620002cf579182015b82811115620002ce578251825591602001919060010190620002b1565b5b509050620002de9190620002e2565b5090565b5b80821115620002fd576000816000905550600101620002e3565b5090565b600060028204905060018216806200031a57607f821691505b6020821081141562000331576200033062000337565b5b50919050565b7f4e487b7100000000000000000000000000000000000000000000000000000000600052602260045260246000fd5b615ee680620003766000396000f3fe6080604052600436106102725760003560e01c806370a082311161014f5780639eac6895116100c1578063c87b56dd1161007a578063c87b56dd14610915578063d598175514610952578063e985e9c51461096e578063ec859396146109ab578063f2fde38b146109d6578063fa1acb5c146109ff57610272565b80639eac689514610807578063a22cb46514610832578063ac9d935f1461085b578063b88d4fde14610898578063bf0768d8146108c1578063c4715f6a146108ec57610272565b806384ad6e7a1161011357806384ad6e7a146107025780638da5cb5b1461072d57806391860f781461075857806395d89b41146107835780639d489327146107ae5780639e29e9e7146107eb57610272565b806370a0823114610643578063715018a61461068057806375a61b4c146106975780637b47ec1a146106c2578063813d737d146106eb57610272565b80632f745c59116101e857806355f804b3116101ac57806355f804b3146105305780635c0402f1146105595780635c975abb146105965780636352211e146105c157806363da6964146105fe5780636a89a49c1461062757610272565b80632f745c591461044d5780633ccfd60b1461048a57806342842e0e146104a157806347049c00146104ca5780634f6ccce7146104f357610272565b80630d7cda7b1161023a5780630d7cda7b14610361578063156f97e01461038c57806317e4258e146103b757806318160ddd146103ce578063235b6ea1146103f957806323b872dd1461042457610272565b806301ffc9a71461027757806303a4be03146102b457806306fdde03146102d0578063081812fc146102fb578063095ea7b314610338575b600080fd5b34801561028357600080fd5b5061029e6004803603810190610299919061407d565b610a2a565b6040516102ab91906148bc565b60405180910390f35b6102ce60048036038101906102c99190614120565b610aa4565b005b3480156102dc57600080fd5b506102e5610c95565b6040516102f291906148d7565b60405180910390f35b34801561030757600080fd5b50610322600480360381019061031d9190614120565b610d27565b60405161032f9190614855565b60405180910390f35b34801561034457600080fd5b5061035f600480360381019061035a9190613ff4565b610dac565b005b34801561036d57600080fd5b50610376610ec4565b6040516103839190614df9565b60405180910390f35b34801561039857600080fd5b506103a1610eca565b6040516103ae91906148bc565b60405180910390f35b3480156103c357600080fd5b506103cc610edd565b005b3480156103da57600080fd5b506103e3610fcb565b6040516103f09190614df9565b60405180910390f35b34801561040557600080fd5b5061040e610fd8565b60405161041b9190614df9565b60405180910390f35b34801561043057600080fd5b5061044b60048036038101906104469190613ede565b610fde565b005b34801561045957600080fd5b50610474600480360381019061046f9190613ff4565b61103e565b6040516104819190614df9565b60405180910390f35b34801561049657600080fd5b5061049f6110e3565b005b3480156104ad57600080fd5b506104c860048036038101906104c39190613ede565b6111f2565b005b3480156104d657600080fd5b506104f160048036038101906104ec9190614034565b611212565b005b3480156104ff57600080fd5b5061051a60048036038101906105159190614120565b61135a565b6040516105279190614df9565b60405180910390f35b34801561053c57600080fd5b50610557600480360381019061055291906140d7565b6113cb565b005b34801561056557600080fd5b50610580600480360381019061057b9190613e71565b611498565b60405161058d91906148bc565b60405180910390f35b3480156105a257600080fd5b506105ab61155d565b6040516105b891906148bc565b60405180910390f35b3480156105cd57600080fd5b506105e860048036038101906105e39190614120565b611574565b6040516105f59190614855565b60405180910390f35b34801561060a57600080fd5b5061062560048036038101906106209190614034565b611626565b005b610641600480360381019061063c9190614120565b61181c565b005b34801561064f57600080fd5b5061066a60048036038101906106659190613e71565b611a38565b6040516106779190614df9565b60405180910390f35b34801561068c57600080fd5b50610695611af0565b005b3480156106a357600080fd5b506106ac611b78565b6040516106b991906148bc565b60405180910390f35b3480156106ce57600080fd5b506106e960048036038101906106e49190614120565b611b8b565b005b3480156106f757600080fd5b50610700611c17565b005b34801561070e57600080fd5b50610717611d05565b6040516107249190614df9565b60405180910390f35b34801561073957600080fd5b50610742611d0b565b60405161074f9190614855565b60405180910390f35b34801561076457600080fd5b5061076d611d35565b60405161077a91906148d7565b60405180910390f35b34801561078f57600080fd5b50610798611dc3565b6040516107a591906148d7565b60405180910390f35b3480156107ba57600080fd5b506107d560048036038101906107d09190613e71565b611e55565b6040516107e29190614df9565b60405180910390f35b61080560048036038101906108009190614120565b611e6d565b005b34801561081357600080fd5b5061081c612158565b6040516108299190614df9565b60405180910390f35b34801561083e57600080fd5b5061085960048036038101906108549190613fb4565b61215e565b005b34801561086757600080fd5b50610882600480360381019061087d9190613e71565b612174565b60405161088f91906148bc565b60405180910390f35b3480156108a457600080fd5b506108bf60048036038101906108ba9190613f31565b612194565b005b3480156108cd57600080fd5b506108d66121f6565b6040516108e391906148bc565b60405180910390f35b3480156108f857600080fd5b50610913600480360381019061090e9190614034565b612209565b005b34801561092157600080fd5b5061093c60048036038101906109379190614120565b6123ff565b60405161094991906148d7565b60405180910390f35b61096c60048036038101906109679190614120565b6124a6565b005b34801561097a57600080fd5b5061099560048036038101906109909190613e9e565b61266a565b6040516109a291906148bc565b60405180910390f35b3480156109b757600080fd5b506109c06126fe565b6040516109cd91906148bc565b60405180910390f35b3480156109e257600080fd5b506109fd60048036038101906109f89190613e71565b612711565b005b348015610a0b57600080fd5b50610a14612809565b604051610a219190614df9565b60405180910390f35b60007f780e9d63000000000000000000000000000000000000000000000000000000007bffffffffffffffffffffffffffffffffffffffffffffffffffffffff1916827bffffffffffffffffffffffffffffffffffffffffffffffffffffffff19161480610a9d5750610a9c8261280f565b5b9050919050565b600033905060008211610aec576040517f08c379a0000000000000000000000000000000000000000000000000000000008152600401610ae390614959565b60405180910390fd5b601260019054906101000a900460ff16610b3b576040517f08c379a0000000000000000000000000000000000000000000000000000000008152600401610b3290614c39565b60405180910390fd5b601060008273ffffffffffffffffffffffffffffffffffffffff1673ffffffffffffffffffffffffffffffffffffffff16815260200190815260200160002060009054906101000a900460ff16610bc7576040517f08c379a0000000000000000000000000000000000000000000000000000000008152600401610bbe90614d39565b60405180910390fd5b600e5482610bd59190614fed565b341015610c17576040517f08c379a0000000000000000000000000000000000000000000000000000000008152600401610c0e90614ad9565b60405180910390fd5b60005b82811015610c3e57610c2b826128f1565b8080610c3690615194565b915050610c1a565b508073ffffffffffffffffffffffffffffffffffffffff167ffe7e41652d94ec2f2d2cc09ff38e26fb291662649b4513c34534123ff4c473bc83600e54604051610c89929190614e14565b60405180910390a25050565b606060008054610ca490615131565b80601f0160208091040260200160405190810160405280929190818152602001828054610cd090615131565b8015610d1d5780601f10610cf257610100808354040283529160200191610d1d565b820191906000526020600020905b815481529060010190602001808311610d0057829003601f168201915b5050505050905090565b6000610d3282612917565b610d71576040517f08c379a0000000000000000000000000000000000000000000000000000000008152600401610d6890614c99565b60405180910390fd5b6004600083815260200190815260200160002060009054906101000a900473ffffffffffffffffffffffffffffffffffffffff169050919050565b6000610db782611574565b90508073ffffffffffffffffffffffffffffffffffffffff168373ffffffffffffffffffffffffffffffffffffffff161415610e28576040517f08c379a0000000000000000000000000000000000000000000000000000000008152600401610e1f90614d19565b60405180910390fd5b8073ffffffffffffffffffffffffffffffffffffffff16610e47612983565b73ffffffffffffffffffffffffffffffffffffffff161480610e765750610e7581610e70612983565b61266a565b5b610eb5576040517f08c379a0000000000000000000000000000000000000000000000000000000008152600401610eac90614b99565b60405180910390fd5b610ebf838361298b565b505050565b600d5481565b601260009054906101000a900460ff1681565b610ee5612983565b73ffffffffffffffffffffffffffffffffffffffff16610f03611d0b565b73ffffffffffffffffffffffffffffffffffffffff1614610f59576040517f08c379a0000000000000000000000000000000000000000000000000000000008152600401610f5090614cb9565b60405180910390fd5b601260009054906101000a900460ff1615601260006101000a81548160ff0219169083151502179055507f890f58a184f31a7e9bc6968373f395bb4cc49b6b2dd9a19c6c2ab83a529c2537601260009054906101000a900460ff16604051610fc191906148bc565b60405180910390a1565b6000600880549050905090565b600e5481565b610fef610fe9612983565b82612a44565b61102e576040517f08c379a000000000000000000000000000000000000000000000000000000000815260040161102590614d59565b60405180910390fd5b611039838383612b22565b505050565b600061104983611a38565b821061108a576040517f08c379a000000000000000000000000000000000000000000000000000000000815260040161108190614979565b60405180910390fd5b600660008473ffffffffffffffffffffffffffffffffffffffff1673ffffffffffffffffffffffffffffffffffffffff168152602001908152602001600020600083815260200190815260200160002054905092915050565b6110eb612983565b73ffffffffffffffffffffffffffffffffffffffff16611109611d0b565b73ffffffffffffffffffffffffffffffffffffffff161461115f576040517f08c379a000000000000000000000000000000000000000000000000000000000815260040161115690614cb9565b60405180910390fd5b6000471161116c57600080fd5b60004790503373ffffffffffffffffffffffffffffffffffffffff166108fc829081150290604051600060405180830381858888f193505050501580156111b7573d6000803e3d6000fd5b507f5b6b431d4476a211bb7d41c20d1aab9ae2321deee0d20be3d9fc9b1093fa6e3d816040516111e79190614df9565b60405180910390a150565b61120d83838360405180602001604052806000815250612194565b505050565b61121a612983565b73ffffffffffffffffffffffffffffffffffffffff16611238611d0b565b73ffffffffffffffffffffffffffffffffffffffff161461128e576040517f08c379a000000000000000000000000000000000000000000000000000000000815260040161128590614cb9565b60405180910390fd5b60008151116112d2576040517f08c379a00000000000000000000000000000000000000000000000000000000081526004016112c990614ab9565b60405180910390fd5b60005b8151811015611314576113018282815181106112f4576112f36152ca565b5b60200260200101516128f1565b808061130c90615194565b9150506112d5565b5080604051611323919061481a565b60405180910390207f8a92a453d66e4a27d9d84385e3d3e51b18d96cca2e6d1e4101f3aa238ee3526160405160405180910390a250565b6000611364610fcb565b82106113a5576040517f08c379a000000000000000000000000000000000000000000000000000000000815260040161139c90614d99565b60405180910390fd5b600882815481106113b9576113b86152ca565b5b90600052602060002001549050919050565b6113d3612983565b73ffffffffffffffffffffffffffffffffffffffff166113f1611d0b565b73ffffffffffffffffffffffffffffffffffffffff1614611447576040517f08c379a000000000000000000000000000000000000000000000000000000000815260040161143e90614cb9565b60405180910390fd5b806014908051906020019061145d929190613be7565b507f23c8c9488efebfd474e85a7956de6f39b17c7ab88502d42a623db2d8e382bbaa8160405161148d91906148d7565b60405180910390a150565b60008073ffffffffffffffffffffffffffffffffffffffff168273ffffffffffffffffffffffffffffffffffffffff161415611509576040517f08c379a000000000000000000000000000000000000000000000000000000000815260040161150090614b59565b60405180910390fd5b600f60008373ffffffffffffffffffffffffffffffffffffffff1673ffffffffffffffffffffffffffffffffffffffff16815260200190815260200160002060009054906101000a900460ff169050919050565b6000600a60009054906101000a900460ff16905090565b6000806002600084815260200190815260200160002060009054906101000a900473ffffffffffffffffffffffffffffffffffffffff169050600073ffffffffffffffffffffffffffffffffffffffff168173ffffffffffffffffffffffffffffffffffffffff16141561161d576040517f08c379a000000000000000000000000000000000000000000000000000000000815260040161161490614bd9565b60405180910390fd5b80915050919050565b61162e612983565b73ffffffffffffffffffffffffffffffffffffffff1661164c611d0b565b73ffffffffffffffffffffffffffffffffffffffff16146116a2576040517f08c379a000000000000000000000000000000000000000000000000000000000815260040161169990614cb9565b60405180910390fd5b60008151116116e6576040517f08c379a00000000000000000000000000000000000000000000000000000000081526004016116dd90614bf9565b60405180910390fd5b60005b81518110156117d6576000600f600084848151811061170b5761170a6152ca565b5b602002602001015173ffffffffffffffffffffffffffffffffffffffff1673ffffffffffffffffffffffffffffffffffffffff16815260200190815260200160002060006101000a81548160ff02191690831515021790555060006011600084848151811061177d5761177c6152ca565b5b602002602001015173ffffffffffffffffffffffffffffffffffffffff1673ffffffffffffffffffffffffffffffffffffffff1681526020019081526020016000208190555080806117ce90615194565b9150506116e9565b50806040516117e5919061481a565b60405180910390207fe5fce1aea1ac788bfe2f61b1d2cbf1d78d733e4695bdca9def45a7774a117ecb60405160405180910390a250565b600033905060008211611864576040517f08c379a000000000000000000000000000000000000000000000000000000000815260040161185b90614919565b60405180910390fd5b601260029054906101000a900460ff166118b3576040517f08c379a00000000000000000000000000000000000000000000000000000000081526004016118aa906148f9565b60405180910390fd5b60006118bf600b612d89565b9050600d5483826118d09190614f66565b1115611911576040517f08c379a000000000000000000000000000000000000000000000000000000000815260040161190890614a59565b60405180910390fd5b600e548361191f9190614fed565b341015611961576040517f08c379a000000000000000000000000000000000000000000000000000000000815260040161195890614dd9565b60405180910390fd5b6001601060008473ffffffffffffffffffffffffffffffffffffffff1673ffffffffffffffffffffffffffffffffffffffff16815260200190815260200160002060006101000a81548160ff02191690831515021790555060005b838110156119e0576119cd336128f1565b80806119d890615194565b9150506119bc565b508173ffffffffffffffffffffffffffffffffffffffff167fff736fc4d8cd766994e35e7c8d4b786aa5584df558e4299511a97345dbd6981284600e54604051611a2b929190614e14565b60405180910390a2505050565b60008073ffffffffffffffffffffffffffffffffffffffff168273ffffffffffffffffffffffffffffffffffffffff161415611aa9576040517f08c379a0000000000000000000000000000000000000000000000000000000008152600401611aa090614bb9565b60405180910390fd5b600360008373ffffffffffffffffffffffffffffffffffffffff1673ffffffffffffffffffffffffffffffffffffffff168152602001908152602001600020549050919050565b611af8612983565b73ffffffffffffffffffffffffffffffffffffffff16611b16611d0b565b73ffffffffffffffffffffffffffffffffffffffff1614611b6c576040517f08c379a0000000000000000000000000000000000000000000000000000000008152600401611b6390614cb9565b60405180910390fd5b611b766000612d97565b565b601260039054906101000a900460ff1681565b611b953382612a44565b611bd4576040517f08c379a0000000000000000000000000000000000000000000000000000000008152600401611bcb90614b79565b60405180910390fd5b611bdd81612e5d565b7f066548819fc4bd1208ea1c8608597593134d5661f459c2ef75cad30918af5a3381604051611c0c9190614df9565b60405180910390a150565b611c1f612983565b73ffffffffffffffffffffffffffffffffffffffff16611c3d611d0b565b73ffffffffffffffffffffffffffffffffffffffff1614611c93576040517f08c379a0000000000000000000000000000000000000000000000000000000008152600401611c8a90614cb9565b60405180910390fd5b601260029054906101000a900460ff1615601260026101000a81548160ff0219169083151502179055507f3342814f0b0f6554df8da96aba2d64ac9d8cc490cd5c2ae9d2e1d81224a08fb7601260029054906101000a900460ff16604051611cfb91906148bc565b60405180910390a1565b600c5481565b6000600a60019054906101000a900473ffffffffffffffffffffffffffffffffffffffff16905090565b60148054611d4290615131565b80601f0160208091040260200160405190810160405280929190818152602001828054611d6e90615131565b8015611dbb5780601f10611d9057610100808354040283529160200191611dbb565b820191906000526020600020905b815481529060010190602001808311611d9e57829003601f168201915b505050505081565b606060018054611dd290615131565b80601f0160208091040260200160405190810160405280929190818152602001828054611dfe90615131565b8015611e4b5780601f10611e2057610100808354040283529160200191611e4b565b820191906000526020600020905b815481529060010190602001808311611e2e57829003601f168201915b5050505050905090565b60116020528060005260406000206000915090505481565b600033905060008211611eb5576040517f08c379a0000000000000000000000000000000000000000000000000000000008152600401611eac90614cf9565b60405180910390fd5b601260009054906101000a900460ff16611f04576040517f08c379a0000000000000000000000000000000000000000000000000000000008152600401611efb906149b9565b60405180910390fd5b60135482601160008473ffffffffffffffffffffffffffffffffffffffff1673ffffffffffffffffffffffffffffffffffffffff16815260200190815260200160002054611f529190614f66565b1115611f93576040517f08c379a0000000000000000000000000000000000000000000000000000000008152600401611f8a90614a39565b60405180910390fd5b611f9c81611498565b611fdb576040517f08c379a0000000000000000000000000000000000000000000000000000000008152600401611fd290614c59565b60405180910390fd5b600e5482611fe99190614fed565b34101561202b576040517f08c379a000000000000000000000000000000000000000000000000000000000815260040161202290614db9565b60405180910390fd5b6001601060008373ffffffffffffffffffffffffffffffffffffffff1673ffffffffffffffffffffffffffffffffffffffff16815260200190815260200160002060006101000a81548160ff02191690831515021790555060005b82811015612101576001601160008473ffffffffffffffffffffffffffffffffffffffff1673ffffffffffffffffffffffffffffffffffffffff16815260200190815260200160002060008282546120de9190614f66565b925050819055506120ee826128f1565b80806120f990615194565b915050612086565b508073ffffffffffffffffffffffffffffffffffffffff167f1dffd56c829e7b29ac59bac284decdcabb8354c0dd173670b883d87f240c422e83600e5460405161214c929190614e14565b60405180910390a25050565b60135481565b612170612169612983565b8383612f7a565b5050565b60106020528060005260406000206000915054906101000a900460ff1681565b6121a561219f612983565b83612a44565b6121e4576040517f08c379a00000000000000000000000000000000000000000000000000000000081526004016121db90614d59565b60405180910390fd5b6121f0848484846130e7565b50505050565b601260019054906101000a900460ff1681565b612211612983565b73ffffffffffffffffffffffffffffffffffffffff1661222f611d0b565b73ffffffffffffffffffffffffffffffffffffffff1614612285576040517f08c379a000000000000000000000000000000000000000000000000000000000815260040161227c90614cb9565b60405180910390fd5b60008151116122c9576040517f08c379a00000000000000000000000000000000000000000000000000000000081526004016122c090614939565b60405180910390fd5b60005b81518110156123b9576001600f60008484815181106122ee576122ed6152ca565b5b602002602001015173ffffffffffffffffffffffffffffffffffffffff1673ffffffffffffffffffffffffffffffffffffffff16815260200190815260200160002060006101000a81548160ff0219169083151502179055506000601160008484815181106123605761235f6152ca565b5b602002602001015173ffffffffffffffffffffffffffffffffffffffff1673ffffffffffffffffffffffffffffffffffffffff1681526020019081526020016000208190555080806123b190615194565b9150506122cc565b50806040516123c8919061481a565b60405180910390207f9245942ffb680639d98cd297a9f33698dc4f0b72b1ea3cf4c98fac11a891b63a60405160405180910390a250565b606061240a82612917565b612449576040517f08c379a000000000000000000000000000000000000000000000000000000000815260040161244090614cd9565b60405180910390fd5b6000612453613143565b90506000815111612473576040518060200160405280600081525061249e565b8061247d846131d5565b60405160200161248e929190614831565b6040516020818303038152906040525b915050919050565b600081116124e9576040517f08c379a00000000000000000000000000000000000000000000000000000000081526004016124e090614c19565b60405180910390fd5b601260039054906101000a900460ff16612538576040517f08c379a000000000000000000000000000000000000000000000000000000000815260040161252f90614b19565b60405180910390fd5b6000612544600b612d89565b9050600c5482826125559190614f66565b1115612596576040517f08c379a000000000000000000000000000000000000000000000000000000000815260040161258d90614d79565b60405180910390fd5b600e54826125a49190614fed565b3410156125e6576040517f08c379a00000000000000000000000000000000000000000000000000000000081526004016125dd90614af9565b60405180910390fd5b600033905060005b83811015612612576125ff826128f1565b808061260a90615194565b9150506125ee565b508073ffffffffffffffffffffffffffffffffffffffff167f6378b989daed197c647d54fbd0dc89e8eb6de47b34f4a6cf6c32a33577b10e0384600e5460405161265d929190614e14565b60405180910390a2505050565b6000600560008473ffffffffffffffffffffffffffffffffffffffff1673ffffffffffffffffffffffffffffffffffffffff16815260200190815260200160002060008373ffffffffffffffffffffffffffffffffffffffff1673ffffffffffffffffffffffffffffffffffffffff16815260200190815260200160002060009054906101000a900460ff16905092915050565b601260029054906101000a900460ff1681565b612719612983565b73ffffffffffffffffffffffffffffffffffffffff16612737611d0b565b73ffffffffffffffffffffffffffffffffffffffff161461278d576040517f08c379a000000000000000000000000000000000000000000000000000000000815260040161278490614cb9565b60405180910390fd5b600073ffffffffffffffffffffffffffffffffffffffff168173ffffffffffffffffffffffffffffffffffffffff1614156127fd576040517f08c379a00000000000000000000000000000000000000000000000000000000081526004016127f4906149d9565b60405180910390fd5b61280681612d97565b50565b60155481565b60007f80ac58cd000000000000000000000000000000000000000000000000000000007bffffffffffffffffffffffffffffffffffffffffffffffffffffffff1916827bffffffffffffffffffffffffffffffffffffffffffffffffffffffff191614806128da57507f5b5e139f000000000000000000000000000000000000000000000000000000007bffffffffffffffffffffffffffffffffffffffffffffffffffffffff1916827bffffffffffffffffffffffffffffffffffffffffffffffffffffffff1916145b806128ea57506128e982613336565b5b9050919050565b6128fb600b6133a0565b6000612907600b612d89565b905061291382826133b6565b5050565b60008073ffffffffffffffffffffffffffffffffffffffff166002600084815260200190815260200160002060009054906101000a900473ffffffffffffffffffffffffffffffffffffffff1673ffffffffffffffffffffffffffffffffffffffff1614159050919050565b600033905090565b816004600083815260200190815260200160002060006101000a81548173ffffffffffffffffffffffffffffffffffffffff021916908373ffffffffffffffffffffffffffffffffffffffff160217905550808273ffffffffffffffffffffffffffffffffffffffff166129fe83611574565b73ffffffffffffffffffffffffffffffffffffffff167f8c5be1e5ebec7d5bd14f71427d1e84f3dd0314c0f7b2291e5b200ac8c7c3b92560405160405180910390a45050565b6000612a4f82612917565b612a8e576040517f08c379a0000000000000000000000000000000000000000000000000000000008152600401612a8590614b39565b60405180910390fd5b6000612a9983611574565b90508073ffffffffffffffffffffffffffffffffffffffff168473ffffffffffffffffffffffffffffffffffffffff161480612b0857508373ffffffffffffffffffffffffffffffffffffffff16612af084610d27565b73ffffffffffffffffffffffffffffffffffffffff16145b80612b195750612b18818561266a565b5b91505092915050565b8273ffffffffffffffffffffffffffffffffffffffff16612b4282611574565b73ffffffffffffffffffffffffffffffffffffffff1614612b98576040517f08c379a0000000000000000000000000000000000000000000000000000000008152600401612b8f906149f9565b60405180910390fd5b600073ffffffffffffffffffffffffffffffffffffffff168273ffffffffffffffffffffffffffffffffffffffff161415612c08576040517f08c379a0000000000000000000000000000000000000000000000000000000008152600401612bff90614a79565b60405180910390fd5b612c138383836133d4565b612c1e60008261298b565b6001600360008573ffffffffffffffffffffffffffffffffffffffff1673ffffffffffffffffffffffffffffffffffffffff1681526020019081526020016000206000828254612c6e9190615047565b925050819055506001600360008473ffffffffffffffffffffffffffffffffffffffff1673ffffffffffffffffffffffffffffffffffffffff1681526020019081526020016000206000828254612cc59190614f66565b92505081905550816002600083815260200190815260200160002060006101000a81548173ffffffffffffffffffffffffffffffffffffffff021916908373ffffffffffffffffffffffffffffffffffffffff160217905550808273ffffffffffffffffffffffffffffffffffffffff168473ffffffffffffffffffffffffffffffffffffffff167fddf252ad1be2c89b69c2b068fc378daa952ba7f163c4a11628f55a4df523b3ef60405160405180910390a4612d848383836134e8565b505050565b600081600001549050919050565b6000600a60019054906101000a900473ffffffffffffffffffffffffffffffffffffffff16905081600a60016101000a81548173ffffffffffffffffffffffffffffffffffffffff021916908373ffffffffffffffffffffffffffffffffffffffff1602179055508173ffffffffffffffffffffffffffffffffffffffff168173ffffffffffffffffffffffffffffffffffffffff167f8be0079c531659141344cd1fd0a4f28419497f9722a3daafe3b4186f6b6457e060405160405180910390a35050565b6000612e6882611574565b9050612e76816000846133d4565b612e8160008361298b565b6001600360008373ffffffffffffffffffffffffffffffffffffffff1673ffffffffffffffffffffffffffffffffffffffff1681526020019081526020016000206000828254612ed19190615047565b925050819055506002600083815260200190815260200160002060006101000a81549073ffffffffffffffffffffffffffffffffffffffff021916905581600073ffffffffffffffffffffffffffffffffffffffff168273ffffffffffffffffffffffffffffffffffffffff167fddf252ad1be2c89b69c2b068fc378daa952ba7f163c4a11628f55a4df523b3ef60405160405180910390a4612f76816000846134e8565b5050565b8173ffffffffffffffffffffffffffffffffffffffff168373ffffffffffffffffffffffffffffffffffffffff161415612fe9576040517f08c379a0000000000000000000000000000000000000000000000000000000008152600401612fe090614a99565b60405180910390fd5b80600560008573ffffffffffffffffffffffffffffffffffffffff1673ffffffffffffffffffffffffffffffffffffffff16815260200190815260200160002060008473ffffffffffffffffffffffffffffffffffffffff1673ffffffffffffffffffffffffffffffffffffffff16815260200190815260200160002060006101000a81548160ff0219169083151502179055508173ffffffffffffffffffffffffffffffffffffffff168373ffffffffffffffffffffffffffffffffffffffff167f17307eab39ab6107e8899845ad3d59bd9653f200f220920489ca2b5937696c31836040516130da91906148bc565b60405180910390a3505050565b6130f2848484612b22565b6130fe848484846134ed565b61313d576040517f08c379a000000000000000000000000000000000000000000000000000000000815260040161313490614999565b60405180910390fd5b50505050565b60606014805461315290615131565b80601f016020809104026020016040519081016040528092919081815260200182805461317e90615131565b80156131cb5780601f106131a0576101008083540402835291602001916131cb565b820191906000526020600020905b8154815290600101906020018083116131ae57829003601f168201915b5050505050905090565b6060600082141561321d576040518060400160405280600181526020017f30000000000000000000000000000000000000000000000000000000000000008152509050613331565b600082905060005b6000821461324f57808061323890615194565b915050600a826132489190614fbc565b9150613225565b60008167ffffffffffffffff81111561326b5761326a6152f9565b5b6040519080825280601f01601f19166020018201604052801561329d5781602001600182028036833780820191505090505b5090505b6000851461332a576001826132b69190615047565b9150600a856132c591906151dd565b60306132d19190614f66565b60f81b8183815181106132e7576132e66152ca565b5b60200101907effffffffffffffffffffffffffffffffffffffffffffffffffffffffffffff1916908160001a905350600a856133239190614fbc565b94506132a1565b8093505050505b919050565b60007f01ffc9a7000000000000000000000000000000000000000000000000000000007bffffffffffffffffffffffffffffffffffffffffffffffffffffffff1916827bffffffffffffffffffffffffffffffffffffffffffffffffffffffff1916149050919050565b6001816000016000828254019250508190555050565b6133d0828260405180602001604052806000815250613684565b5050565b6133df8383836136df565b600073ffffffffffffffffffffffffffffffffffffffff168373ffffffffffffffffffffffffffffffffffffffff1614156134225761341d816136e4565b613461565b8173ffffffffffffffffffffffffffffffffffffffff168373ffffffffffffffffffffffffffffffffffffffff16146134605761345f838261372d565b5b5b600073ffffffffffffffffffffffffffffffffffffffff168273ffffffffffffffffffffffffffffffffffffffff1614156134a45761349f8161389a565b6134e3565b8273ffffffffffffffffffffffffffffffffffffffff168273ffffffffffffffffffffffffffffffffffffffff16146134e2576134e1828261396b565b5b5b505050565b505050565b600061350e8473ffffffffffffffffffffffffffffffffffffffff166139ea565b15613677578373ffffffffffffffffffffffffffffffffffffffff1663150b7a02613537612983565b8786866040518563ffffffff1660e01b81526004016135599493929190614870565b602060405180830381600087803b15801561357357600080fd5b505af19250505080156135a457506040513d601f19601f820116820180604052508101906135a191906140aa565b60015b613627573d80600081146135d4576040519150601f19603f3d011682016040523d82523d6000602084013e6135d9565b606091505b5060008151141561361f576040517f08c379a000000000000000000000000000000000000000000000000000000000815260040161361690614999565b60405180910390fd5b805181602001fd5b63150b7a0260e01b7bffffffffffffffffffffffffffffffffffffffffffffffffffffffff1916817bffffffffffffffffffffffffffffffffffffffffffffffffffffffff19161491505061367c565b600190505b949350505050565b61368e8383613a0d565b61369b60008484846134ed565b6136da576040517f08c379a00000000000000000000000000000000000000000000000000000000081526004016136d190614999565b60405180910390fd5b505050565b505050565b6008805490506009600083815260200190815260200160002081905550600881908060018154018082558091505060019003906000526020600020016000909190919091505550565b6000600161373a84611a38565b6137449190615047565b9050600060076000848152602001908152602001600020549050818114613829576000600660008673ffffffffffffffffffffffffffffffffffffffff1673ffffffffffffffffffffffffffffffffffffffff168152602001908152602001600020600084815260200190815260200160002054905080600660008773ffffffffffffffffffffffffffffffffffffffff1673ffffffffffffffffffffffffffffffffffffffff168152602001908152602001600020600084815260200190815260200160002081905550816007600083815260200190815260200160002081905550505b6007600084815260200190815260200160002060009055600660008573ffffffffffffffffffffffffffffffffffffffff1673ffffffffffffffffffffffffffffffffffffffff16815260200190815260200160002060008381526020019081526020016000206000905550505050565b600060016008805490506138ae9190615047565b90506000600960008481526020019081526020016000205490506000600883815481106138de576138dd6152ca565b5b906000526020600020015490508060088381548110613900576138ff6152ca565b5b90600052602060002001819055508160096000838152602001908152602001600020819055506009600085815260200190815260200160002060009055600880548061394f5761394e61529b565b5b6001900381819060005260206000200160009055905550505050565b600061397683611a38565b905081600660008573ffffffffffffffffffffffffffffffffffffffff1673ffffffffffffffffffffffffffffffffffffffff168152602001908152602001600020600083815260200190815260200160002081905550806007600084815260200190815260200160002081905550505050565b6000808273ffffffffffffffffffffffffffffffffffffffff163b119050919050565b600073ffffffffffffffffffffffffffffffffffffffff168273ffffffffffffffffffffffffffffffffffffffff161415613a7d576040517f08c379a0000000000000000000000000000000000000000000000000000000008152600401613a7490614c79565b60405180910390fd5b613a8681612917565b15613ac6576040517f08c379a0000000000000000000000000000000000000000000000000000000008152600401613abd90614a19565b60405180910390fd5b613ad2600083836133d4565b6001600360008473ffffffffffffffffffffffffffffffffffffffff1673ffffffffffffffffffffffffffffffffffffffff1681526020019081526020016000206000828254613b229190614f66565b92505081905550816002600083815260200190815260200160002060006101000a81548173ffffffffffffffffffffffffffffffffffffffff021916908373ffffffffffffffffffffffffffffffffffffffff160217905550808273ffffffffffffffffffffffffffffffffffffffff16600073ffffffffffffffffffffffffffffffffffffffff167fddf252ad1be2c89b69c2b068fc378daa952ba7f163c4a11628f55a4df523b3ef60405160405180910390a4613be3600083836134e8565b5050565b828054613bf390615131565b90600052602060002090601f016020900481019282613c155760008555613c5c565b82601f10613c2e57805160ff1916838001178555613c5c565b82800160010185558215613c5c579182015b82811115613c5b578251825591602001919060010190613c40565b5b509050613c699190613c6d565b5090565b5b80821115613c86576000816000905550600101613c6e565b5090565b6000613c9d613c9884614e62565b614e3d565b90508083825260208201905082856020860282011115613cc057613cbf61532d565b5b60005b85811015613cf05781613cd68882613d7e565b845260208401935060208301925050600181019050613cc3565b5050509392505050565b6000613d0d613d0884614e8e565b614e3d565b905082815260208101848484011115613d2957613d28615332565b5b613d348482856150ef565b509392505050565b6000613d4f613d4a84614ebf565b614e3d565b905082815260208101848484011115613d6b57613d6a615332565b5b613d768482856150ef565b509392505050565b600081359050613d8d81615e54565b92915050565b600082601f830112613da857613da7615328565b5b8135613db8848260208601613c8a565b91505092915050565b600081359050613dd081615e6b565b92915050565b600081359050613de581615e82565b92915050565b600081519050613dfa81615e82565b92915050565b600082601f830112613e1557613e14615328565b5b8135613e25848260208601613cfa565b91505092915050565b600082601f830112613e4357613e42615328565b5b8135613e53848260208601613d3c565b91505092915050565b600081359050613e6b81615e99565b92915050565b600060208284031215613e8757613e8661533c565b5b6000613e9584828501613d7e565b91505092915050565b60008060408385031215613eb557613eb461533c565b5b6000613ec385828601613d7e565b9250506020613ed485828601613d7e565b9150509250929050565b600080600060608486031215613ef757613ef661533c565b5b6000613f0586828701613d7e565b9350506020613f1686828701613d7e565b9250506040613f2786828701613e5c565b9150509250925092565b60008060008060808587031215613f4b57613f4a61533c565b5b6000613f5987828801613d7e565b9450506020613f6a87828801613d7e565b9350506040613f7b87828801613e5c565b925050606085013567ffffffffffffffff811115613f9c57613f9b615337565b5b613fa887828801613e00565b91505092959194509250565b60008060408385031215613fcb57613fca61533c565b5b6000613fd985828601613d7e565b9250506020613fea85828601613dc1565b9150509250929050565b6000806040838503121561400b5761400a61533c565b5b600061401985828601613d7e565b925050602061402a85828601613e5c565b9150509250929050565b60006020828403121561404a5761404961533c565b5b600082013567ffffffffffffffff81111561406857614067615337565b5b61407484828501613d93565b91505092915050565b6000602082840312156140935761409261533c565b5b60006140a184828501613dd6565b91505092915050565b6000602082840312156140c0576140bf61533c565b5b60006140ce84828501613deb565b91505092915050565b6000602082840312156140ed576140ec61533c565b5b600082013567ffffffffffffffff81111561410b5761410a615337565b5b61411784828501613e2e565b91505092915050565b6000602082840312156141365761413561533c565b5b600061414484828501613e5c565b91505092915050565b60006141598383614174565b60208301905092915050565b61416e8161507b565b82525050565b61417d8161507b565b82525050565b600061418e82614f00565b6141988185614f2e565b93506141a383614ef0565b8060005b838110156141d45781516141bb888261414d565b97506141c683614f21565b9250506001810190506141a7565b5085935050505092915050565b6141ea8161508d565b82525050565b60006141fb82614f0b565b6142058185614f39565b93506142158185602086016150fe565b61421e81615341565b840191505092915050565b600061423482614f16565b61423e8185614f4a565b935061424e8185602086016150fe565b61425781615341565b840191505092915050565b600061426d82614f16565b6142778185614f5b565b93506142878185602086016150fe565b80840191505092915050565b60006142a0601c83614f4a565b91506142ab82615352565b602082019050919050565b60006142c3602383614f4a565b91506142ce8261537b565b604082019050919050565b60006142e6603983614f4a565b91506142f1826153ca565b604082019050919050565b6000614309602c83614f4a565b915061431482615419565b604082019050919050565b600061432c602b83614f4a565b915061433782615468565b604082019050919050565b600061434f603283614f4a565b915061435a826154b7565b604082019050919050565b6000614372603783614f4a565b915061437d82615506565b604082019050919050565b6000614395602683614f4a565b91506143a082615555565b604082019050919050565b60006143b8602583614f4a565b91506143c3826155a4565b604082019050919050565b60006143db601c83614f4a565b91506143e6826155f3565b602082019050919050565b60006143fe603983614f4a565b91506144098261561c565b604082019050919050565b6000614421601583614f4a565b915061442c8261566b565b602082019050919050565b6000614444602483614f4a565b915061444f82615694565b604082019050919050565b6000614467601983614f4a565b9150614472826156e3565b602082019050919050565b600061448a602c83614f4a565b91506144958261570c565b604082019050919050565b60006144ad602683614f4a565b91506144b88261575b565b604082019050919050565b60006144d0601d83614f4a565b91506144db826157aa565b602082019050919050565b60006144f3601c83614f4a565b91506144fe826157d3565b602082019050919050565b6000614516602c83614f4a565b9150614521826157fc565b604082019050919050565b6000614539602a83614f4a565b91506145448261584b565b604082019050919050565b600061455c603183614f4a565b91506145678261589a565b604082019050919050565b600061457f603883614f4a565b915061458a826158e9565b604082019050919050565b60006145a2602a83614f4a565b91506145ad82615938565b604082019050919050565b60006145c5602983614f4a565b91506145d082615987565b604082019050919050565b60006145e8604383614f4a565b91506145f3826159d6565b606082019050919050565b600061460b602783614f4a565b915061461682615a4b565b604082019050919050565b600061462e602a83614f4a565b915061463982615a9a565b604082019050919050565b6000614651602d83614f4a565b915061465c82615ae9565b604082019050919050565b6000614674602083614f4a565b915061467f82615b38565b602082019050919050565b6000614697602c83614f4a565b91506146a282615b61565b604082019050919050565b60006146ba602083614f4a565b91506146c582615bb0565b602082019050919050565b60006146dd602f83614f4a565b91506146e882615bd9565b604082019050919050565b6000614700602c83614f4a565b915061470b82615c28565b604082019050919050565b6000614723602183614f4a565b915061472e82615c77565b604082019050919050565b6000614746603483614f4a565b915061475182615cc6565b604082019050919050565b6000614769603183614f4a565b915061477482615d15565b604082019050919050565b600061478c601583614f4a565b915061479782615d64565b602082019050919050565b60006147af602c83614f4a565b91506147ba82615d8d565b604082019050919050565b60006147d2602683614f4a565b91506147dd82615ddc565b604082019050919050565b60006147f5601d83614f4a565b915061480082615e2b565b602082019050919050565b614814816150e5565b82525050565b60006148268284614183565b915081905092915050565b600061483d8285614262565b91506148498284614262565b91508190509392505050565b600060208201905061486a6000830184614165565b92915050565b60006080820190506148856000830187614165565b6148926020830186614165565b61489f604083018561480b565b81810360608301526148b181846141f0565b905095945050505050565b60006020820190506148d160008301846141e1565b92915050565b600060208201905081810360008301526148f18184614229565b905092915050565b6000602082019050818103600083015261491281614293565b9050919050565b60006020820190508181036000830152614932816142b6565b9050919050565b60006020820190508181036000830152614952816142d9565b9050919050565b60006020820190508181036000830152614972816142fc565b9050919050565b600060208201905081810360008301526149928161431f565b9050919050565b600060208201905081810360008301526149b281614342565b9050919050565b600060208201905081810360008301526149d281614365565b9050919050565b600060208201905081810360008301526149f281614388565b9050919050565b60006020820190508181036000830152614a12816143ab565b9050919050565b60006020820190508181036000830152614a32816143ce565b9050919050565b60006020820190508181036000830152614a52816143f1565b9050919050565b60006020820190508181036000830152614a7281614414565b9050919050565b60006020820190508181036000830152614a9281614437565b9050919050565b60006020820190508181036000830152614ab28161445a565b9050919050565b60006020820190508181036000830152614ad28161447d565b9050919050565b60006020820190508181036000830152614af2816144a0565b9050919050565b60006020820190508181036000830152614b12816144c3565b9050919050565b60006020820190508181036000830152614b32816144e6565b9050919050565b60006020820190508181036000830152614b5281614509565b9050919050565b60006020820190508181036000830152614b728161452c565b9050919050565b60006020820190508181036000830152614b928161454f565b9050919050565b60006020820190508181036000830152614bb281614572565b9050919050565b60006020820190508181036000830152614bd281614595565b9050919050565b60006020820190508181036000830152614bf2816145b8565b9050919050565b60006020820190508181036000830152614c12816145db565b9050919050565b60006020820190508181036000830152614c32816145fe565b9050919050565b60006020820190508181036000830152614c5281614621565b9050919050565b60006020820190508181036000830152614c7281614644565b9050919050565b60006020820190508181036000830152614c9281614667565b9050919050565b60006020820190508181036000830152614cb28161468a565b9050919050565b60006020820190508181036000830152614cd2816146ad565b9050919050565b60006020820190508181036000830152614cf2816146d0565b9050919050565b60006020820190508181036000830152614d12816146f3565b9050919050565b60006020820190508181036000830152614d3281614716565b9050919050565b60006020820190508181036000830152614d5281614739565b9050919050565b60006020820190508181036000830152614d728161475c565b9050919050565b60006020820190508181036000830152614d928161477f565b9050919050565b60006020820190508181036000830152614db2816147a2565b9050919050565b60006020820190508181036000830152614dd2816147c5565b9050919050565b60006020820190508181036000830152614df2816147e8565b9050919050565b6000602082019050614e0e600083018461480b565b92915050565b6000604082019050614e29600083018561480b565b614e36602083018461480b565b9392505050565b6000614e47614e58565b9050614e538282615163565b919050565b6000604051905090565b600067ffffffffffffffff821115614e7d57614e7c6152f9565b5b602082029050602081019050919050565b600067ffffffffffffffff821115614ea957614ea86152f9565b5b614eb282615341565b9050602081019050919050565b600067ffffffffffffffff821115614eda57614ed96152f9565b5b614ee382615341565b9050602081019050919050565b6000819050602082019050919050565b600081519050919050565b600081519050919050565b600081519050919050565b6000602082019050919050565b600081905092915050565b600082825260208201905092915050565b600082825260208201905092915050565b600081905092915050565b6000614f71826150e5565b9150614f7c836150e5565b9250827fffffffffffffffffffffffffffffffffffffffffffffffffffffffffffffffff03821115614fb157614fb061520e565b5b828201905092915050565b6000614fc7826150e5565b9150614fd2836150e5565b925082614fe257614fe161523d565b5b828204905092915050565b6000614ff8826150e5565b9150615003836150e5565b9250817fffffffffffffffffffffffffffffffffffffffffffffffffffffffffffffffff048311821515161561503c5761503b61520e565b5b828202905092915050565b6000615052826150e5565b915061505d836150e5565b9250828210156150705761506f61520e565b5b828203905092915050565b6000615086826150c5565b9050919050565b60008115159050919050565b60007fffffffff0000000000000000000000000000000000000000000000000000000082169050919050565b600073ffffffffffffffffffffffffffffffffffffffff82169050919050565b6000819050919050565b82818337600083830152505050565b60005b8381101561511c578082015181840152602081019050615101565b8381111561512b576000848401525b50505050565b6000600282049050600182168061514957607f821691505b6020821081141561515d5761515c61526c565b5b50919050565b61516c82615341565b810181811067ffffffffffffffff8211171561518b5761518a6152f9565b5b80604052505050565b600061519f826150e5565b91507fffffffffffffffffffffffffffffffffffffffffffffffffffffffffffffffff8214156151d2576151d161520e565b5b600182019050919050565b60006151e8826150e5565b91506151f3836150e5565b9250826152035761520261523d565b5b828206905092915050565b7f4e487b7100000000000000000000000000000000000000000000000000000000600052601160045260246000fd5b7f4e487b7100000000000000000000000000000000000000000000000000000000600052601260045260246000fd5b7f4e487b7100000000000000000000000000000000000000000000000000000000600052602260045260246000fd5b7f4e487b7100000000000000000000000000000000000000000000000000000000600052603160045260246000fd5b7f4e487b7100000000000000000000000000000000000000000000000000000000600052603260045260246000fd5b7f4e487b7100000000000000000000000000000000000000000000000000000000600052604160045260246000fd5b600080fd5b600080fd5b600080fd5b600080fd5b600080fd5b6000601f19601f8301169050919050565b7f6d696e74536572696573313a206d696e74206e6f742061637469766500000000600082015250565b7f6d696e74536572696573313a206e65656420746f206d696e742061746c65617360008201527f7420310000000000000000000000000000000000000000000000000000000000602082015250565b7f616464546f57686974654c697374313a2063616e6e6f742061646420746f207760008201527f686974656c6973742066726f6d20656d70747920617272617900000000000000602082015250565b7f77686974654c6973744d696e74536572696573323a206e65656420746f206d6960008201527f6e742061746c6561737420310000000000000000000000000000000000000000602082015250565b7f455243373231456e756d657261626c653a206f776e657220696e646578206f7560008201527f74206f6620626f756e6473000000000000000000000000000000000000000000602082015250565b7f4552433732313a207472616e7366657220746f206e6f6e20455243373231526560008201527f63656976657220696d706c656d656e7465720000000000000000000000000000602082015250565b7f77686974654c6973744d696e74536572696573313a2070726573616c6520312060008201527f6973206e6f742063757272656e746c7920616374697665000000000000000000602082015250565b7f4f776e61626c653a206e6577206f776e657220697320746865207a65726f206160008201527f6464726573730000000000000000000000000000000000000000000000000000602082015250565b7f4552433732313a207472616e736665722066726f6d20696e636f72726563742060008201527f6f776e6572000000000000000000000000000000000000000000000000000000602082015250565b7f4552433732313a20746f6b656e20616c7265616479206d696e74656400000000600082015250565b7f77686974654c6973744d696e74536572696573313a20746f6f206d616e79206660008201527f6f72206d696e74696e6720647572696e672070726573616c6500000000000000602082015250565b7f6d696e74536572696573313a20736f6c64206f75740000000000000000000000600082015250565b7f4552433732313a207472616e7366657220746f20746865207a65726f2061646460008201527f7265737300000000000000000000000000000000000000000000000000000000602082015250565b7f4552433732313a20617070726f766520746f2063616c6c657200000000000000600082015250565b7f7765476f74596f75724261636b3a2063616e6e6f742061697264726f7020746f60008201527f20656d7074792061727261790000000000000000000000000000000000000000602082015250565b7f77686974654c6973744d696e74536572696573323a2076616c7565206e6f742060008201527f656e6f7567680000000000000000000000000000000000000000000000000000602082015250565b7f6d696e74536572696573323a2076616c7565206e6f7420656e6f756768000000600082015250565b7f6d696e74536572696573323a206d696e74206e6f742061637469766500000000600082015250565b7f4552433732313a206f70657261746f7220717565727920666f72206e6f6e657860008201527f697374656e7420746f6b656e0000000000000000000000000000000000000000602082015250565b7f697357686974654c6973746564313a2063616e6e6f7420636865636b20656d7060008201527f7479206164647265737300000000000000000000000000000000000000000000602082015250565b7f455243373231204275726e61626c653a2063616c6c6572206973206e6f74206f60008201527f776e6572206e6f7220617070726f766564000000000000000000000000000000602082015250565b7f4552433732313a20617070726f76652063616c6c6572206973206e6f74206f7760008201527f6e6572206e6f7220617070726f76656420666f7220616c6c0000000000000000602082015250565b7f4552433732313a2062616c616e636520717565727920666f7220746865207a6560008201527f726f206164647265737300000000000000000000000000000000000000000000602082015250565b7f4552433732313a206f776e657220717565727920666f72206e6f6e657869737460008201527f656e7420746f6b656e0000000000000000000000000000000000000000000000602082015250565b7f72656d6f766546726f6d57686974654c697374313a2063616e6e6f742072656d60008201527f6f76652066726f6d2077686974656c6973742066726f6d20656d70747920617260208201527f7261790000000000000000000000000000000000000000000000000000000000604082015250565b7f6d696e74536572696573323a20796f75206e65656420746f206d696e7420617460008201527f6c65617374203100000000000000000000000000000000000000000000000000602082015250565b7f77686974654c6973744d696e74536572696573323a2070726573616c6520322060008201527f6e6f742061637469766500000000000000000000000000000000000000000000602082015250565b7f77686974654c6973744d696e74536572696573313a20796f7520617265206e6f60008201527f742077686974656c697374656400000000000000000000000000000000000000602082015250565b7f4552433732313a206d696e7420746f20746865207a65726f2061646472657373600082015250565b7f4552433732313a20617070726f76656420717565727920666f72206e6f6e657860008201527f697374656e7420746f6b656e0000000000000000000000000000000000000000602082015250565b7f4f776e61626c653a2063616c6c6572206973206e6f7420746865206f776e6572600082015250565b7f4552433732314d657461646174613a2055524920717565727920666f72206e6f60008201527f6e6578697374656e7420746f6b656e0000000000000000000000000000000000602082015250565b7f77686974654c6973744d696e74536572696573313a206e65656420746f206d6960008201527f6e742061746c6561737420310000000000000000000000000000000000000000602082015250565b7f4552433732313a20617070726f76616c20746f2063757272656e74206f776e6560008201527f7200000000000000000000000000000000000000000000000000000000000000602082015250565b7f77686974654c6973744d696e74536572696573323a206e6f7420636c6561726560008201527f6420746f206d696e7420696e2070726573616c65000000000000000000000000602082015250565b7f4552433732313a207472616e736665722063616c6c6572206973206e6f74206f60008201527f776e6572206e6f7220617070726f766564000000000000000000000000000000602082015250565b7f6d696e74536572696573323a20736f6c64206f75740000000000000000000000600082015250565b7f455243373231456e756d657261626c653a20676c6f62616c20696e646578206f60008201527f7574206f6620626f756e64730000000000000000000000000000000000000000602082015250565b7f77686974654c6973744d696e74536572696573313a2076616c7565206e6f742060008201527f656e6f7567680000000000000000000000000000000000000000000000000000602082015250565b7f6d696e74536572696573313a2076616c7565206e6f7420656e6f756768000000600082015250565b615e5d8161507b565b8114615e6857600080fd5b50565b615e748161508d565b8114615e7f57600080fd5b50565b615e8b81615099565b8114615e9657600080fd5b50565b615ea2816150e5565b8114615ead57600080fd5b5056fea264697066735822122039dcc2e16f8d906569bec272a4b7e754371a3325c08079b31c111e4c80b3385a64736f6c63430008070033",
  "linkReferences": {},
  "deployedLinkReferences": {}
}